{
    "schemaVersion": "2.0.0",
    "contractName": "AutoRouteSampler",
    "compilerOutput": {
        "abi": [
            {
                "inputs": [
                    {
                        "components": [
                            {
                                "internalType": "address",
                                "name": "router",
                                "type": "address"
                            },
                            {
                                "internalType": "address[]",
                                "name": "path",
                                "type": "address[]"
                            },
                            {
                                "internalType": "string[]",
                                "name": "poolType",
                                "type": "string[]"
                            },
                            {
                                "internalType": "address[]",
                                "name": "dmmPoolAddresses",
                                "type": "address[]"
                            },
                            {
                                "internalType": "uint256[]",
                                "name": "amountTokens",
                                "type": "uint256[]"
                            }
                        ],
                        "internalType": "struct AutoRouteSampler.ExtraParams",
                        "name": "params",
                        "type": "tuple"
                    }
                ],
                "name": "sampleBuysFromAutoRoute",
                "outputs": [
                    {
                        "internalType": "uint256[]",
                        "name": "takerTokenAmounts",
                        "type": "uint256[]"
                    }
                ],
                "stateMutability": "view",
                "type": "function"
            },
            {
                "inputs": [
                    {
                        "components": [
                            {
                                "internalType": "address",
                                "name": "router",
                                "type": "address"
                            },
                            {
                                "internalType": "address[]",
                                "name": "path",
                                "type": "address[]"
                            },
                            {
                                "internalType": "string[]",
                                "name": "poolType",
                                "type": "string[]"
                            },
                            {
                                "internalType": "address[]",
                                "name": "dmmPoolAddresses",
                                "type": "address[]"
                            },
                            {
                                "internalType": "uint256[]",
                                "name": "amountTokens",
                                "type": "uint256[]"
                            }
                        ],
                        "internalType": "struct AutoRouteSampler.ExtraParams",
                        "name": "params",
                        "type": "tuple"
                    }
                ],
                "name": "sampleSellsFromAutoRoute",
                "outputs": [
                    {
                        "internalType": "uint256[]",
                        "name": "makerTokenAmounts",
                        "type": "uint256[]"
                    }
                ],
                "stateMutability": "view",
                "type": "function"
            }
        ],
        "devdoc": {
            "kind": "dev",
            "methods": {},
            "stateVariables": {
                "AUTO_ROUTE_CALL_GAS": {
                    "details": "Gas limit for auto route calls."
                }
            },
            "version": 1
        },
        "evm": {
            "bytecode": {
                "linkReferences": {},
                "object": "0x608060405234801561001057600080fd5b506108a2806100206000396000f3fe608060405234801561001057600080fd5b50600436106100365760003560e01c806301cb0ef71461003b5780633c883dba14610064575b600080fd5b61004e6100493660046105d8565b610077565b60405161005b9190610701565b60405180910390f35b61004e6100723660046105d8565b61020e565b6080810151516060908067ffffffffffffffff8111801561009757600080fd5b506040519080825280602002602001820160405280156100c1578160200160208202803683370190505b50915060005b818110156102075783600001516001600160a01b031663846ee14b856080015183815181106100f257fe5b60200260200101518660200151876040015188606001516040518563ffffffff1660e01b81526004016101289493929190610745565b60006040518083038186803b15801561014057600080fd5b505afa92505050801561017557506040513d6000823e601f3d908101601f191682016040526101729190810190610548565b60015b6101af573d8080156101a3576040519150601f19603f3d011682016040523d82523d6000602084013e6101a8565b606091505b5050610207565b806000815181106101bc57fe5b60200260200101518483815181106101d057fe5b6020026020010181815250508382815181106101e857fe5b6020026020010151600014156101fe5750610207565b506001016100c7565b5050919050565b6080810151516060908067ffffffffffffffff8111801561022e57600080fd5b50604051908082528060200260200182016040528015610258578160200160208202803683370190505b50915060005b818110156102075783600001516001600160a01b0316633bbc8a1e8560800151838151811061028957fe5b60200260200101518660200151876040015188606001516040518563ffffffff1660e01b81526004016102bf9493929190610745565b60006040518083038186803b1580156102d757600080fd5b505afa92505050801561030c57506040513d6000823e601f3d908101601f191682016040526103099190810190610548565b60015b61033a573d8080156101a3576040519150601f19603f3d011682016040523d82523d6000602084013e6101a8565b806001866020015151038151811061034e57fe5b602002602001015184838151811061036257fe5b60200260200101818152505083828151811061037a57fe5b6020026020010151600014156103905750610207565b5060010161025e565b80356001600160a01b03811681146103b057600080fd5b92915050565b600082601f8301126103c6578081fd5b81356103d96103d482610813565b6107ec565b8181529150602080830190848101818402860182018710156103fa57600080fd5b60005b848110156104215761040f8883610399565b845292820192908201906001016103fd565b505050505092915050565b6000601f838184011261043d578182fd5b823561044b6103d482610813565b818152925060208084019085810160005b848110156104de578135880189603f82011261047757600080fd5b8381013567ffffffffffffffff81111561049057600080fd5b6104a1818901601f191686016107ec565b81815260408c818486010111156104b757600080fd5b8281850188840137506000918101860191909152855250928201929082019060010161045c565b50505050505092915050565b600082601f8301126104fa578081fd5b81356105086103d482610813565b81815291506020808301908481018184028601820187101561052957600080fd5b60005b848110156104215781358452928201929082019060010161052c565b6000602080838503121561055a578182fd5b825167ffffffffffffffff811115610570578283fd5b8301601f81018513610580578283fd5b805161058e6103d482610813565b81815283810190838501858402850186018910156105aa578687fd5b8694505b838510156105cc5780518352600194909401939185019185016105ae565b50979650505050505050565b6000602082840312156105e9578081fd5b813567ffffffffffffffff80821115610600578283fd5b9083019060a08286031215610613578283fd5b61061d60a06107ec565b6106278684610399565b815260208301358281111561063a578485fd5b610646878286016103b6565b60208301525060408301358281111561065d578485fd5b6106698782860161042c565b604083015250606083013582811115610680578485fd5b61068c878286016103b6565b6060830152506080830135828111156106a3578485fd5b6106af878286016104ea565b60808301525095945050505050565b6000815180845260208085019450808401835b838110156106f65781516001600160a01b0316875295820195908201906001016106d1565b509495945050505050565b6020808252825182820181905260009190848201906040850190845b818110156107395783518352928401929184019160010161071d565b50909695505050505050565b6000858252602060808184015261075f60808401876106be565b838103604085015285518082528282019083810283018401848901865b838110156107c957601f19808785030186528251805161079c8187610833565b6107a982828d860161083c565b978a0197601f91909101909216919091019350509086019060010161077c565b505086810360608801526107dd81896106be565b9b9a5050505050505050505050565b60405181810167ffffffffffffffff8111828210171561080b57600080fd5b604052919050565b600067ffffffffffffffff821115610829578081fd5b5060209081020190565b90815260200190565b60005b8381101561085757818101518382015260200161083f565b83811115610866576000848401525b5050505056fea26469706673582212207124de7723adeef516d3ea1a537cacb159ce2c41606f603d0bd44061f1630e4064736f6c634300060c0033",
                "opcodes": "PUSH1 0x80 PUSH1 0x40 MSTORE CALLVALUE DUP1 ISZERO PUSH2 0x10 JUMPI PUSH1 0x0 DUP1 REVERT JUMPDEST POP PUSH2 0x8A2 DUP1 PUSH2 0x20 PUSH1 0x0 CODECOPY PUSH1 0x0 RETURN INVALID PUSH1 0x80 PUSH1 0x40 MSTORE CALLVALUE DUP1 ISZERO PUSH2 0x10 JUMPI PUSH1 0x0 DUP1 REVERT JUMPDEST POP PUSH1 0x4 CALLDATASIZE LT PUSH2 0x36 JUMPI PUSH1 0x0 CALLDATALOAD PUSH1 0xE0 SHR DUP1 PUSH4 0x1CB0EF7 EQ PUSH2 0x3B JUMPI DUP1 PUSH4 0x3C883DBA EQ PUSH2 0x64 JUMPI JUMPDEST PUSH1 0x0 DUP1 REVERT JUMPDEST PUSH2 0x4E PUSH2 0x49 CALLDATASIZE PUSH1 0x4 PUSH2 0x5D8 JUMP JUMPDEST PUSH2 0x77 JUMP JUMPDEST PUSH1 0x40 MLOAD PUSH2 0x5B SWAP2 SWAP1 PUSH2 0x701 JUMP JUMPDEST PUSH1 0x40 MLOAD DUP1 SWAP2 SUB SWAP1 RETURN JUMPDEST PUSH2 0x4E PUSH2 0x72 CALLDATASIZE PUSH1 0x4 PUSH2 0x5D8 JUMP JUMPDEST PUSH2 0x20E JUMP JUMPDEST PUSH1 0x80 DUP2 ADD MLOAD MLOAD PUSH1 0x60 SWAP1 DUP1 PUSH8 0xFFFFFFFFFFFFFFFF DUP2 GT DUP1 ISZERO PUSH2 0x97 JUMPI PUSH1 0x0 DUP1 REVERT JUMPDEST POP PUSH1 0x40 MLOAD SWAP1 DUP1 DUP3 MSTORE DUP1 PUSH1 0x20 MUL PUSH1 0x20 ADD DUP3 ADD PUSH1 0x40 MSTORE DUP1 ISZERO PUSH2 0xC1 JUMPI DUP2 PUSH1 0x20 ADD PUSH1 0x20 DUP3 MUL DUP1 CALLDATASIZE DUP4 CALLDATACOPY ADD SWAP1 POP JUMPDEST POP SWAP2 POP PUSH1 0x0 JUMPDEST DUP2 DUP2 LT ISZERO PUSH2 0x207 JUMPI DUP4 PUSH1 0x0 ADD MLOAD PUSH1 0x1 PUSH1 0x1 PUSH1 0xA0 SHL SUB AND PUSH4 0x846EE14B DUP6 PUSH1 0x80 ADD MLOAD DUP4 DUP2 MLOAD DUP2 LT PUSH2 0xF2 JUMPI INVALID JUMPDEST PUSH1 0x20 MUL PUSH1 0x20 ADD ADD MLOAD DUP7 PUSH1 0x20 ADD MLOAD DUP8 PUSH1 0x40 ADD MLOAD DUP9 PUSH1 0x60 ADD MLOAD PUSH1 0x40 MLOAD DUP6 PUSH4 0xFFFFFFFF AND PUSH1 0xE0 SHL DUP2 MSTORE PUSH1 0x4 ADD PUSH2 0x128 SWAP5 SWAP4 SWAP3 SWAP2 SWAP1 PUSH2 0x745 JUMP JUMPDEST PUSH1 0x0 PUSH1 0x40 MLOAD DUP1 DUP4 SUB DUP2 DUP7 DUP1 EXTCODESIZE ISZERO DUP1 ISZERO PUSH2 0x140 JUMPI PUSH1 0x0 DUP1 REVERT JUMPDEST POP GAS STATICCALL SWAP3 POP POP POP DUP1 ISZERO PUSH2 0x175 JUMPI POP PUSH1 0x40 MLOAD RETURNDATASIZE PUSH1 0x0 DUP3 RETURNDATACOPY PUSH1 0x1F RETURNDATASIZE SWAP1 DUP2 ADD PUSH1 0x1F NOT AND DUP3 ADD PUSH1 0x40 MSTORE PUSH2 0x172 SWAP2 SWAP1 DUP2 ADD SWAP1 PUSH2 0x548 JUMP JUMPDEST PUSH1 0x1 JUMPDEST PUSH2 0x1AF JUMPI RETURNDATASIZE DUP1 DUP1 ISZERO PUSH2 0x1A3 JUMPI PUSH1 0x40 MLOAD SWAP2 POP PUSH1 0x1F NOT PUSH1 0x3F RETURNDATASIZE ADD AND DUP3 ADD PUSH1 0x40 MSTORE RETURNDATASIZE DUP3 MSTORE RETURNDATASIZE PUSH1 0x0 PUSH1 0x20 DUP5 ADD RETURNDATACOPY PUSH2 0x1A8 JUMP JUMPDEST PUSH1 0x60 SWAP2 POP JUMPDEST POP POP PUSH2 0x207 JUMP JUMPDEST DUP1 PUSH1 0x0 DUP2 MLOAD DUP2 LT PUSH2 0x1BC JUMPI INVALID JUMPDEST PUSH1 0x20 MUL PUSH1 0x20 ADD ADD MLOAD DUP5 DUP4 DUP2 MLOAD DUP2 LT PUSH2 0x1D0 JUMPI INVALID JUMPDEST PUSH1 0x20 MUL PUSH1 0x20 ADD ADD DUP2 DUP2 MSTORE POP POP DUP4 DUP3 DUP2 MLOAD DUP2 LT PUSH2 0x1E8 JUMPI INVALID JUMPDEST PUSH1 0x20 MUL PUSH1 0x20 ADD ADD MLOAD PUSH1 0x0 EQ ISZERO PUSH2 0x1FE JUMPI POP PUSH2 0x207 JUMP JUMPDEST POP PUSH1 0x1 ADD PUSH2 0xC7 JUMP JUMPDEST POP POP SWAP2 SWAP1 POP JUMP JUMPDEST PUSH1 0x80 DUP2 ADD MLOAD MLOAD PUSH1 0x60 SWAP1 DUP1 PUSH8 0xFFFFFFFFFFFFFFFF DUP2 GT DUP1 ISZERO PUSH2 0x22E JUMPI PUSH1 0x0 DUP1 REVERT JUMPDEST POP PUSH1 0x40 MLOAD SWAP1 DUP1 DUP3 MSTORE DUP1 PUSH1 0x20 MUL PUSH1 0x20 ADD DUP3 ADD PUSH1 0x40 MSTORE DUP1 ISZERO PUSH2 0x258 JUMPI DUP2 PUSH1 0x20 ADD PUSH1 0x20 DUP3 MUL DUP1 CALLDATASIZE DUP4 CALLDATACOPY ADD SWAP1 POP JUMPDEST POP SWAP2 POP PUSH1 0x0 JUMPDEST DUP2 DUP2 LT ISZERO PUSH2 0x207 JUMPI DUP4 PUSH1 0x0 ADD MLOAD PUSH1 0x1 PUSH1 0x1 PUSH1 0xA0 SHL SUB AND PUSH4 0x3BBC8A1E DUP6 PUSH1 0x80 ADD MLOAD DUP4 DUP2 MLOAD DUP2 LT PUSH2 0x289 JUMPI INVALID JUMPDEST PUSH1 0x20 MUL PUSH1 0x20 ADD ADD MLOAD DUP7 PUSH1 0x20 ADD MLOAD DUP8 PUSH1 0x40 ADD MLOAD DUP9 PUSH1 0x60 ADD MLOAD PUSH1 0x40 MLOAD DUP6 PUSH4 0xFFFFFFFF AND PUSH1 0xE0 SHL DUP2 MSTORE PUSH1 0x4 ADD PUSH2 0x2BF SWAP5 SWAP4 SWAP3 SWAP2 SWAP1 PUSH2 0x745 JUMP JUMPDEST PUSH1 0x0 PUSH1 0x40 MLOAD DUP1 DUP4 SUB DUP2 DUP7 DUP1 EXTCODESIZE ISZERO DUP1 ISZERO PUSH2 0x2D7 JUMPI PUSH1 0x0 DUP1 REVERT JUMPDEST POP GAS STATICCALL SWAP3 POP POP POP DUP1 ISZERO PUSH2 0x30C JUMPI POP PUSH1 0x40 MLOAD RETURNDATASIZE PUSH1 0x0 DUP3 RETURNDATACOPY PUSH1 0x1F RETURNDATASIZE SWAP1 DUP2 ADD PUSH1 0x1F NOT AND DUP3 ADD PUSH1 0x40 MSTORE PUSH2 0x309 SWAP2 SWAP1 DUP2 ADD SWAP1 PUSH2 0x548 JUMP JUMPDEST PUSH1 0x1 JUMPDEST PUSH2 0x33A JUMPI RETURNDATASIZE DUP1 DUP1 ISZERO PUSH2 0x1A3 JUMPI PUSH1 0x40 MLOAD SWAP2 POP PUSH1 0x1F NOT PUSH1 0x3F RETURNDATASIZE ADD AND DUP3 ADD PUSH1 0x40 MSTORE RETURNDATASIZE DUP3 MSTORE RETURNDATASIZE PUSH1 0x0 PUSH1 0x20 DUP5 ADD RETURNDATACOPY PUSH2 0x1A8 JUMP JUMPDEST DUP1 PUSH1 0x1 DUP7 PUSH1 0x20 ADD MLOAD MLOAD SUB DUP2 MLOAD DUP2 LT PUSH2 0x34E JUMPI INVALID JUMPDEST PUSH1 0x20 MUL PUSH1 0x20 ADD ADD MLOAD DUP5 DUP4 DUP2 MLOAD DUP2 LT PUSH2 0x362 JUMPI INVALID JUMPDEST PUSH1 0x20 MUL PUSH1 0x20 ADD ADD DUP2 DUP2 MSTORE POP POP DUP4 DUP3 DUP2 MLOAD DUP2 LT PUSH2 0x37A JUMPI INVALID JUMPDEST PUSH1 0x20 MUL PUSH1 0x20 ADD ADD MLOAD PUSH1 0x0 EQ ISZERO PUSH2 0x390 JUMPI POP PUSH2 0x207 JUMP JUMPDEST POP PUSH1 0x1 ADD PUSH2 0x25E JUMP JUMPDEST DUP1 CALLDATALOAD PUSH1 0x1 PUSH1 0x1 PUSH1 0xA0 SHL SUB DUP2 AND DUP2 EQ PUSH2 0x3B0 JUMPI PUSH1 0x0 DUP1 REVERT JUMPDEST SWAP3 SWAP2 POP POP JUMP JUMPDEST PUSH1 0x0 DUP3 PUSH1 0x1F DUP4 ADD SLT PUSH2 0x3C6 JUMPI DUP1 DUP2 REVERT JUMPDEST DUP2 CALLDATALOAD PUSH2 0x3D9 PUSH2 0x3D4 DUP3 PUSH2 0x813 JUMP JUMPDEST PUSH2 0x7EC JUMP JUMPDEST DUP2 DUP2 MSTORE SWAP2 POP PUSH1 0x20 DUP1 DUP4 ADD SWAP1 DUP5 DUP2 ADD DUP2 DUP5 MUL DUP7 ADD DUP3 ADD DUP8 LT ISZERO PUSH2 0x3FA JUMPI PUSH1 0x0 DUP1 REVERT JUMPDEST PUSH1 0x0 JUMPDEST DUP5 DUP2 LT ISZERO PUSH2 0x421 JUMPI PUSH2 0x40F DUP9 DUP4 PUSH2 0x399 JUMP JUMPDEST DUP5 MSTORE SWAP3 DUP3 ADD SWAP3 SWAP1 DUP3 ADD SWAP1 PUSH1 0x1 ADD PUSH2 0x3FD JUMP JUMPDEST POP POP POP POP POP SWAP3 SWAP2 POP POP JUMP JUMPDEST PUSH1 0x0 PUSH1 0x1F DUP4 DUP2 DUP5 ADD SLT PUSH2 0x43D JUMPI DUP2 DUP3 REVERT JUMPDEST DUP3 CALLDATALOAD PUSH2 0x44B PUSH2 0x3D4 DUP3 PUSH2 0x813 JUMP JUMPDEST DUP2 DUP2 MSTORE SWAP3 POP PUSH1 0x20 DUP1 DUP5 ADD SWAP1 DUP6 DUP2 ADD PUSH1 0x0 JUMPDEST DUP5 DUP2 LT ISZERO PUSH2 0x4DE JUMPI DUP2 CALLDATALOAD DUP9 ADD DUP10 PUSH1 0x3F DUP3 ADD SLT PUSH2 0x477 JUMPI PUSH1 0x0 DUP1 REVERT JUMPDEST DUP4 DUP2 ADD CALLDATALOAD PUSH8 0xFFFFFFFFFFFFFFFF DUP2 GT ISZERO PUSH2 0x490 JUMPI PUSH1 0x0 DUP1 REVERT JUMPDEST PUSH2 0x4A1 DUP2 DUP10 ADD PUSH1 0x1F NOT AND DUP7 ADD PUSH2 0x7EC JUMP JUMPDEST DUP2 DUP2 MSTORE PUSH1 0x40 DUP13 DUP2 DUP5 DUP7 ADD ADD GT ISZERO PUSH2 0x4B7 JUMPI PUSH1 0x0 DUP1 REVERT JUMPDEST DUP3 DUP2 DUP6 ADD DUP9 DUP5 ADD CALLDATACOPY POP PUSH1 0x0 SWAP2 DUP2 ADD DUP7 ADD SWAP2 SWAP1 SWAP2 MSTORE DUP6 MSTORE POP SWAP3 DUP3 ADD SWAP3 SWAP1 DUP3 ADD SWAP1 PUSH1 0x1 ADD PUSH2 0x45C JUMP JUMPDEST POP POP POP POP POP POP SWAP3 SWAP2 POP POP JUMP JUMPDEST PUSH1 0x0 DUP3 PUSH1 0x1F DUP4 ADD SLT PUSH2 0x4FA JUMPI DUP1 DUP2 REVERT JUMPDEST DUP2 CALLDATALOAD PUSH2 0x508 PUSH2 0x3D4 DUP3 PUSH2 0x813 JUMP JUMPDEST DUP2 DUP2 MSTORE SWAP2 POP PUSH1 0x20 DUP1 DUP4 ADD SWAP1 DUP5 DUP2 ADD DUP2 DUP5 MUL DUP7 ADD DUP3 ADD DUP8 LT ISZERO PUSH2 0x529 JUMPI PUSH1 0x0 DUP1 REVERT JUMPDEST PUSH1 0x0 JUMPDEST DUP5 DUP2 LT ISZERO PUSH2 0x421 JUMPI DUP2 CALLDATALOAD DUP5 MSTORE SWAP3 DUP3 ADD SWAP3 SWAP1 DUP3 ADD SWAP1 PUSH1 0x1 ADD PUSH2 0x52C JUMP JUMPDEST PUSH1 0x0 PUSH1 0x20 DUP1 DUP4 DUP6 SUB SLT ISZERO PUSH2 0x55A JUMPI DUP2 DUP3 REVERT JUMPDEST DUP3 MLOAD PUSH8 0xFFFFFFFFFFFFFFFF DUP2 GT ISZERO PUSH2 0x570 JUMPI DUP3 DUP4 REVERT JUMPDEST DUP4 ADD PUSH1 0x1F DUP2 ADD DUP6 SGT PUSH2 0x580 JUMPI DUP3 DUP4 REVERT JUMPDEST DUP1 MLOAD PUSH2 0x58E PUSH2 0x3D4 DUP3 PUSH2 0x813 JUMP JUMPDEST DUP2 DUP2 MSTORE DUP4 DUP2 ADD SWAP1 DUP4 DUP6 ADD DUP6 DUP5 MUL DUP6 ADD DUP7 ADD DUP10 LT ISZERO PUSH2 0x5AA JUMPI DUP7 DUP8 REVERT JUMPDEST DUP7 SWAP5 POP JUMPDEST DUP4 DUP6 LT ISZERO PUSH2 0x5CC JUMPI DUP1 MLOAD DUP4 MSTORE PUSH1 0x1 SWAP5 SWAP1 SWAP5 ADD SWAP4 SWAP2 DUP6 ADD SWAP2 DUP6 ADD PUSH2 0x5AE JUMP JUMPDEST POP SWAP8 SWAP7 POP POP POP POP POP POP POP JUMP JUMPDEST PUSH1 0x0 PUSH1 0x20 DUP3 DUP5 SUB SLT ISZERO PUSH2 0x5E9 JUMPI DUP1 DUP2 REVERT JUMPDEST DUP2 CALLDATALOAD PUSH8 0xFFFFFFFFFFFFFFFF DUP1 DUP3 GT ISZERO PUSH2 0x600 JUMPI DUP3 DUP4 REVERT JUMPDEST SWAP1 DUP4 ADD SWAP1 PUSH1 0xA0 DUP3 DUP7 SUB SLT ISZERO PUSH2 0x613 JUMPI DUP3 DUP4 REVERT JUMPDEST PUSH2 0x61D PUSH1 0xA0 PUSH2 0x7EC JUMP JUMPDEST PUSH2 0x627 DUP7 DUP5 PUSH2 0x399 JUMP JUMPDEST DUP2 MSTORE PUSH1 0x20 DUP4 ADD CALLDATALOAD DUP3 DUP2 GT ISZERO PUSH2 0x63A JUMPI DUP5 DUP6 REVERT JUMPDEST PUSH2 0x646 DUP8 DUP3 DUP7 ADD PUSH2 0x3B6 JUMP JUMPDEST PUSH1 0x20 DUP4 ADD MSTORE POP PUSH1 0x40 DUP4 ADD CALLDATALOAD DUP3 DUP2 GT ISZERO PUSH2 0x65D JUMPI DUP5 DUP6 REVERT JUMPDEST PUSH2 0x669 DUP8 DUP3 DUP7 ADD PUSH2 0x42C JUMP JUMPDEST PUSH1 0x40 DUP4 ADD MSTORE POP PUSH1 0x60 DUP4 ADD CALLDATALOAD DUP3 DUP2 GT ISZERO PUSH2 0x680 JUMPI DUP5 DUP6 REVERT JUMPDEST PUSH2 0x68C DUP8 DUP3 DUP7 ADD PUSH2 0x3B6 JUMP JUMPDEST PUSH1 0x60 DUP4 ADD MSTORE POP PUSH1 0x80 DUP4 ADD CALLDATALOAD DUP3 DUP2 GT ISZERO PUSH2 0x6A3 JUMPI DUP5 DUP6 REVERT JUMPDEST PUSH2 0x6AF DUP8 DUP3 DUP7 ADD PUSH2 0x4EA JUMP JUMPDEST PUSH1 0x80 DUP4 ADD MSTORE POP SWAP6 SWAP5 POP POP POP POP POP JUMP JUMPDEST PUSH1 0x0 DUP2 MLOAD DUP1 DUP5 MSTORE PUSH1 0x20 DUP1 DUP6 ADD SWAP5 POP DUP1 DUP5 ADD DUP4 JUMPDEST DUP4 DUP2 LT ISZERO PUSH2 0x6F6 JUMPI DUP2 MLOAD PUSH1 0x1 PUSH1 0x1 PUSH1 0xA0 SHL SUB AND DUP8 MSTORE SWAP6 DUP3 ADD SWAP6 SWAP1 DUP3 ADD SWAP1 PUSH1 0x1 ADD PUSH2 0x6D1 JUMP JUMPDEST POP SWAP5 SWAP6 SWAP5 POP POP POP POP POP JUMP JUMPDEST PUSH1 0x20 DUP1 DUP3 MSTORE DUP3 MLOAD DUP3 DUP3 ADD DUP2 SWAP1 MSTORE PUSH1 0x0 SWAP2 SWAP1 DUP5 DUP3 ADD SWAP1 PUSH1 0x40 DUP6 ADD SWAP1 DUP5 JUMPDEST DUP2 DUP2 LT ISZERO PUSH2 0x739 JUMPI DUP4 MLOAD DUP4 MSTORE SWAP3 DUP5 ADD SWAP3 SWAP2 DUP5 ADD SWAP2 PUSH1 0x1 ADD PUSH2 0x71D JUMP JUMPDEST POP SWAP1 SWAP7 SWAP6 POP POP POP POP POP POP JUMP JUMPDEST PUSH1 0x0 DUP6 DUP3 MSTORE PUSH1 0x20 PUSH1 0x80 DUP2 DUP5 ADD MSTORE PUSH2 0x75F PUSH1 0x80 DUP5 ADD DUP8 PUSH2 0x6BE JUMP JUMPDEST DUP4 DUP2 SUB PUSH1 0x40 DUP6 ADD MSTORE DUP6 MLOAD DUP1 DUP3 MSTORE DUP3 DUP3 ADD SWAP1 DUP4 DUP2 MUL DUP4 ADD DUP5 ADD DUP5 DUP10 ADD DUP7 JUMPDEST DUP4 DUP2 LT ISZERO PUSH2 0x7C9 JUMPI PUSH1 0x1F NOT DUP1 DUP8 DUP6 SUB ADD DUP7 MSTORE DUP3 MLOAD DUP1 MLOAD PUSH2 0x79C DUP2 DUP8 PUSH2 0x833 JUMP JUMPDEST PUSH2 0x7A9 DUP3 DUP3 DUP14 DUP7 ADD PUSH2 0x83C JUMP JUMPDEST SWAP8 DUP11 ADD SWAP8 PUSH1 0x1F SWAP2 SWAP1 SWAP2 ADD SWAP1 SWAP3 AND SWAP2 SWAP1 SWAP2 ADD SWAP4 POP POP SWAP1 DUP7 ADD SWAP1 PUSH1 0x1 ADD PUSH2 0x77C JUMP JUMPDEST POP POP DUP7 DUP2 SUB PUSH1 0x60 DUP9 ADD MSTORE PUSH2 0x7DD DUP2 DUP10 PUSH2 0x6BE JUMP JUMPDEST SWAP12 SWAP11 POP POP POP POP POP POP POP POP POP POP POP JUMP JUMPDEST PUSH1 0x40 MLOAD DUP2 DUP2 ADD PUSH8 0xFFFFFFFFFFFFFFFF DUP2 GT DUP3 DUP3 LT OR ISZERO PUSH2 0x80B JUMPI PUSH1 0x0 DUP1 REVERT JUMPDEST PUSH1 0x40 MSTORE SWAP2 SWAP1 POP JUMP JUMPDEST PUSH1 0x0 PUSH8 0xFFFFFFFFFFFFFFFF DUP3 GT ISZERO PUSH2 0x829 JUMPI DUP1 DUP2 REVERT JUMPDEST POP PUSH1 0x20 SWAP1 DUP2 MUL ADD SWAP1 JUMP JUMPDEST SWAP1 DUP2 MSTORE PUSH1 0x20 ADD SWAP1 JUMP JUMPDEST PUSH1 0x0 JUMPDEST DUP4 DUP2 LT ISZERO PUSH2 0x857 JUMPI DUP2 DUP2 ADD MLOAD DUP4 DUP3 ADD MSTORE PUSH1 0x20 ADD PUSH2 0x83F JUMP JUMPDEST DUP4 DUP2 GT ISZERO PUSH2 0x866 JUMPI PUSH1 0x0 DUP5 DUP5 ADD MSTORE JUMPDEST POP POP POP POP JUMP INVALID LOG2 PUSH5 0x6970667358 0x22 SLT KECCAK256 PUSH18 0x24DE7723ADEEF516D3EA1A537CACB159CE2C COINBASE PUSH1 0x6F PUSH1 0x3D SIGNEXTEND 0xD4 BLOCKHASH PUSH2 0xF163 0xE BLOCKHASH PUSH5 0x736F6C6343 STOP MOD 0xC STOP CALLER "
            }
        }
    },
    "sourceTreeHashHex": "0x775e59a788795fca3095a10c10d43f07d74df8d946e604048f8f2884a53ad46f",
    "compiler": {
        "name": "solc",
        "version": "0.6.12+commit.27d51765",
        "settings": {
            "remappings": [
                "@0x/contracts-erc20=/home/sotatek/Desktop/Workspace/Sotatek/evry-finance/fcxv2-0x-protocol/packages/asset-swapper/node_modules/@0x/contracts-erc20",
                "@0x/contracts-utils=/home/sotatek/Desktop/Workspace/Sotatek/evry-finance/fcxv2-0x-protocol/packages/asset-swapper/node_modules/@0x/contracts-utils",
                "@0x/contracts-zero-ex=/home/sotatek/Desktop/Workspace/Sotatek/evry-finance/fcxv2-0x-protocol/packages/asset-swapper/node_modules/@0x/contracts-zero-ex"
            ],
            "optimizer": {
                "enabled": true,
                "runs": 200,
                "details": {
                    "yul": true,
                    "deduplicate": true
                }
            },
            "outputSelection": {
                "*": {
                    "*": [
                        "abi",
                        "devdoc",
                        "evm.bytecode.object",
                        "evm.bytecode.sourceMap",
                        "evm.deployedBytecode.object",
                        "evm.deployedBytecode.sourceMap"
                    ]
                }
            },
            "evmVersion": "istanbul"
        }
    },
    "chains": {}
}