{
    "schemaVersion": "2.0.0",
    "contractName": "DummyLiquidityProvider",
    "compilerOutput": {
        "abi": [
            {
                "inputs": [
                    {
                        "internalType": "address",
                        "name": "",
                        "type": "address"
                    },
                    {
                        "internalType": "address",
                        "name": "",
                        "type": "address"
                    },
                    {
                        "internalType": "uint256",
                        "name": "buyAmount",
                        "type": "uint256"
                    }
                ],
                "name": "getBuyQuote",
                "outputs": [
                    {
                        "internalType": "uint256",
                        "name": "takerTokenAmount",
                        "type": "uint256"
                    }
                ],
                "stateMutability": "view",
                "type": "function"
            },
            {
                "inputs": [
                    {
                        "internalType": "address",
                        "name": "",
                        "type": "address"
                    },
                    {
                        "internalType": "address",
                        "name": "",
                        "type": "address"
                    },
                    {
                        "internalType": "uint256",
                        "name": "sellAmount",
                        "type": "uint256"
                    }
                ],
                "name": "getSellQuote",
                "outputs": [
                    {
                        "internalType": "uint256",
                        "name": "makerTokenAmount",
                        "type": "uint256"
                    }
                ],
                "stateMutability": "view",
                "type": "function"
            }
        ],
        "devdoc": {
            "kind": "dev",
            "methods": {
                "getBuyQuote(address,address,uint256)": {
                    "details": "Quotes the amount of `takerToken` that would need to be sold in      order to obtain `buyAmount` of `makerToken`.",
                    "params": {
                        "buyAmount": "Amount of `makerToken` to buy."
                    },
                    "returns": {
                        "takerTokenAmount": "Amount of `takerToken` that would need to be sold."
                    }
                },
                "getSellQuote(address,address,uint256)": {
                    "details": "Quotes the amount of `makerToken` that would be obtained by      selling `sellAmount` of `takerToken`.",
                    "params": {
                        "sellAmount": "Amount of `takerToken` to sell."
                    },
                    "returns": {
                        "makerTokenAmount": "Amount of `makerToken` that would be obtained."
                    }
                }
            },
            "version": 1
        },
        "evm": {
            "bytecode": {
                "linkReferences": {},
                "object": "0x608060405234801561001057600080fd5b5061010d806100206000396000f3fe6080604052348015600f57600080fd5b506004361060325760003560e01c8063343fbcdd14603757806345060eb014605a575b600080fd5b60466042366004607c565b6069565b6040516051919060b7565b60405180910390f35b60466065366004607c565b6073565b6000190192915050565b60010192915050565b600080600060608486031215608f578283fd5b833560988160c0565b9250602084013560a68160c0565b929592945050506040919091013590565b90815260200190565b6001600160a01b038116811460d457600080fd5b5056fea26469706673582212203b43b21ff45d0daaffe837f00f990d3b00132aec0df7f22ae0fcacf3306927fb64736f6c634300060c0033",
                "opcodes": "PUSH1 0x80 PUSH1 0x40 MSTORE CALLVALUE DUP1 ISZERO PUSH2 0x10 JUMPI PUSH1 0x0 DUP1 REVERT JUMPDEST POP PUSH2 0x10D DUP1 PUSH2 0x20 PUSH1 0x0 CODECOPY PUSH1 0x0 RETURN INVALID PUSH1 0x80 PUSH1 0x40 MSTORE CALLVALUE DUP1 ISZERO PUSH1 0xF JUMPI PUSH1 0x0 DUP1 REVERT JUMPDEST POP PUSH1 0x4 CALLDATASIZE LT PUSH1 0x32 JUMPI PUSH1 0x0 CALLDATALOAD PUSH1 0xE0 SHR DUP1 PUSH4 0x343FBCDD EQ PUSH1 0x37 JUMPI DUP1 PUSH4 0x45060EB0 EQ PUSH1 0x5A JUMPI JUMPDEST PUSH1 0x0 DUP1 REVERT JUMPDEST PUSH1 0x46 PUSH1 0x42 CALLDATASIZE PUSH1 0x4 PUSH1 0x7C JUMP JUMPDEST PUSH1 0x69 JUMP JUMPDEST PUSH1 0x40 MLOAD PUSH1 0x51 SWAP2 SWAP1 PUSH1 0xB7 JUMP JUMPDEST PUSH1 0x40 MLOAD DUP1 SWAP2 SUB SWAP1 RETURN JUMPDEST PUSH1 0x46 PUSH1 0x65 CALLDATASIZE PUSH1 0x4 PUSH1 0x7C JUMP JUMPDEST PUSH1 0x73 JUMP JUMPDEST PUSH1 0x0 NOT ADD SWAP3 SWAP2 POP POP JUMP JUMPDEST PUSH1 0x1 ADD SWAP3 SWAP2 POP POP JUMP JUMPDEST PUSH1 0x0 DUP1 PUSH1 0x0 PUSH1 0x60 DUP5 DUP7 SUB SLT ISZERO PUSH1 0x8F JUMPI DUP3 DUP4 REVERT JUMPDEST DUP4 CALLDATALOAD PUSH1 0x98 DUP2 PUSH1 0xC0 JUMP JUMPDEST SWAP3 POP PUSH1 0x20 DUP5 ADD CALLDATALOAD PUSH1 0xA6 DUP2 PUSH1 0xC0 JUMP JUMPDEST SWAP3 SWAP6 SWAP3 SWAP5 POP POP POP PUSH1 0x40 SWAP2 SWAP1 SWAP2 ADD CALLDATALOAD SWAP1 JUMP JUMPDEST SWAP1 DUP2 MSTORE PUSH1 0x20 ADD SWAP1 JUMP JUMPDEST PUSH1 0x1 PUSH1 0x1 PUSH1 0xA0 SHL SUB DUP2 AND DUP2 EQ PUSH1 0xD4 JUMPI PUSH1 0x0 DUP1 REVERT JUMPDEST POP JUMP INVALID LOG2 PUSH5 0x6970667358 0x22 SLT KECCAK256 EXTCODESIZE NUMBER 0xB2 0x1F DELEGATECALL 0x5D 0xD 0xAA SELFDESTRUCT 0xE8 CALLDATACOPY CREATE 0xF SWAP10 0xD EXTCODESIZE STOP SGT 0x2A 0xEC 0xD 0xF7 CALLCODE 0x2A 0xE0 0xFC 0xAC RETURN ADDRESS PUSH10 0x27FB64736F6C63430006 0xC STOP CALLER "
            }
        }
    },
    "sourceTreeHashHex": "0x562a415d0ed31ba1d6a0ac5ebc19e840bbce2134bac2678d4423fbae5d3842c6",
    "compiler": {
        "name": "solc",
        "version": "0.6.12+commit.27d51765",
        "settings": {
            "remappings": [
                "@0x/contracts-utils=/home/sotatek/Desktop/Workspace/Sotatek/evry-finance/fcxv2-0x-protocol/packages/asset-swapper/node_modules/@0x/contracts-utils",
                "@0x/contracts-erc20=/home/sotatek/Desktop/Workspace/Sotatek/evry-finance/fcxv2-0x-protocol/packages/asset-swapper/node_modules/@0x/contracts-erc20",
                "@0x/contracts-zero-ex=/home/sotatek/Desktop/Workspace/Sotatek/evry-finance/fcxv2-0x-protocol/packages/asset-swapper/node_modules/@0x/contracts-zero-ex"
            ],
            "optimizer": {
                "enabled": true,
                "runs": 200,
                "details": {
                    "yul": true,
                    "deduplicate": true
                }
            },
            "outputSelection": {
                "*": {
                    "*": [
                        "abi",
                        "devdoc",
                        "evm.bytecode.object",
                        "evm.bytecode.sourceMap",
                        "evm.deployedBytecode.object",
                        "evm.deployedBytecode.sourceMap"
                    ]
                }
            },
            "evmVersion": "istanbul"
        }
    },
    "chains": {}
}