{
    "schemaVersion": "2.0.0",
    "contractName": "ERC20BridgeSampler",
    "compilerOutput": {
        "abi": [
            {
                "inputs": [
                    {
                        "internalType": "bytes[]",
                        "name": "callDatas",
                        "type": "bytes[]"
                    }
                ],
                "name": "batchCall",
                "outputs": [
                    {
                        "components": [
                            {
                                "internalType": "bytes",
                                "name": "data",
                                "type": "bytes"
                            },
                            {
                                "internalType": "bool",
                                "name": "success",
                                "type": "bool"
                            }
                        ],
                        "internalType": "struct ERC20BridgeSampler.CallResults[]",
                        "name": "callResults",
                        "type": "tuple[]"
                    }
                ],
                "stateMutability": "nonpayable",
                "type": "function"
            },
            {
                "inputs": [
                    {
                        "components": [
                            {
                                "internalType": "uint256",
                                "name": "reserveOffset",
                                "type": "uint256"
                            },
                            {
                                "internalType": "address",
                                "name": "hintHandler",
                                "type": "address"
                            },
                            {
                                "internalType": "address",
                                "name": "networkProxy",
                                "type": "address"
                            },
                            {
                                "internalType": "address",
                                "name": "weth",
                                "type": "address"
                            },
                            {
                                "internalType": "bytes",
                                "name": "hint",
                                "type": "bytes"
                            }
                        ],
                        "internalType": "struct KyberSampler.KyberSamplerOpts",
                        "name": "opts",
                        "type": "tuple"
                    },
                    {
                        "internalType": "bytes32",
                        "name": "reserveId",
                        "type": "bytes32"
                    },
                    {
                        "internalType": "address",
                        "name": "takerToken",
                        "type": "address"
                    },
                    {
                        "internalType": "address",
                        "name": "makerToken",
                        "type": "address"
                    }
                ],
                "name": "encodeKyberHint",
                "outputs": [
                    {
                        "internalType": "bytes",
                        "name": "hint",
                        "type": "bytes"
                    }
                ],
                "stateMutability": "view",
                "type": "function"
            },
            {
                "inputs": [
                    {
                        "internalType": "contract IERC20TokenV06[]",
                        "name": "tokens",
                        "type": "address[]"
                    },
                    {
                        "internalType": "address",
                        "name": "account",
                        "type": "address"
                    },
                    {
                        "internalType": "address",
                        "name": "spender",
                        "type": "address"
                    }
                ],
                "name": "getAllowanceOf",
                "outputs": [
                    {
                        "internalType": "uint256[]",
                        "name": "allowances",
                        "type": "uint256[]"
                    }
                ],
                "stateMutability": "view",
                "type": "function"
            },
            {
                "inputs": [
                    {
                        "internalType": "contract IERC20TokenV06[]",
                        "name": "tokens",
                        "type": "address[]"
                    },
                    {
                        "internalType": "address",
                        "name": "account",
                        "type": "address"
                    }
                ],
                "name": "getBalanceOf",
                "outputs": [
                    {
                        "internalType": "uint256[]",
                        "name": "balances",
                        "type": "uint256[]"
                    }
                ],
                "stateMutability": "view",
                "type": "function"
            },
            {
                "inputs": [
                    {
                        "components": [
                            {
                                "internalType": "contract IERC20TokenV06",
                                "name": "makerToken",
                                "type": "address"
                            },
                            {
                                "internalType": "contract IERC20TokenV06",
                                "name": "takerToken",
                                "type": "address"
                            },
                            {
                                "internalType": "uint128",
                                "name": "makerAmount",
                                "type": "uint128"
                            },
                            {
                                "internalType": "uint128",
                                "name": "takerAmount",
                                "type": "uint128"
                            },
                            {
                                "internalType": "uint128",
                                "name": "takerTokenFeeAmount",
                                "type": "uint128"
                            },
                            {
                                "internalType": "address",
                                "name": "maker",
                                "type": "address"
                            },
                            {
                                "internalType": "address",
                                "name": "taker",
                                "type": "address"
                            },
                            {
                                "internalType": "address",
                                "name": "sender",
                                "type": "address"
                            },
                            {
                                "internalType": "address",
                                "name": "feeRecipient",
                                "type": "address"
                            },
                            {
                                "internalType": "bytes32",
                                "name": "pool",
                                "type": "bytes32"
                            },
                            {
                                "internalType": "uint64",
                                "name": "expiry",
                                "type": "uint64"
                            },
                            {
                                "internalType": "uint256",
                                "name": "salt",
                                "type": "uint256"
                            }
                        ],
                        "internalType": "struct IExchange.LimitOrder[]",
                        "name": "orders",
                        "type": "tuple[]"
                    },
                    {
                        "components": [
                            {
                                "internalType": "enum IExchange.SignatureType",
                                "name": "signatureType",
                                "type": "uint8"
                            },
                            {
                                "internalType": "uint8",
                                "name": "v",
                                "type": "uint8"
                            },
                            {
                                "internalType": "bytes32",
                                "name": "r",
                                "type": "bytes32"
                            },
                            {
                                "internalType": "bytes32",
                                "name": "s",
                                "type": "bytes32"
                            }
                        ],
                        "internalType": "struct IExchange.Signature[]",
                        "name": "orderSignatures",
                        "type": "tuple[]"
                    },
                    {
                        "internalType": "contract IExchange",
                        "name": "exchange",
                        "type": "address"
                    }
                ],
                "name": "getLimitOrderFillableMakerAssetAmounts",
                "outputs": [
                    {
                        "internalType": "uint256[]",
                        "name": "orderFillableMakerAssetAmounts",
                        "type": "uint256[]"
                    }
                ],
                "stateMutability": "view",
                "type": "function"
            },
            {
                "inputs": [
                    {
                        "components": [
                            {
                                "internalType": "contract IERC20TokenV06",
                                "name": "makerToken",
                                "type": "address"
                            },
                            {
                                "internalType": "contract IERC20TokenV06",
                                "name": "takerToken",
                                "type": "address"
                            },
                            {
                                "internalType": "uint128",
                                "name": "makerAmount",
                                "type": "uint128"
                            },
                            {
                                "internalType": "uint128",
                                "name": "takerAmount",
                                "type": "uint128"
                            },
                            {
                                "internalType": "uint128",
                                "name": "takerTokenFeeAmount",
                                "type": "uint128"
                            },
                            {
                                "internalType": "address",
                                "name": "maker",
                                "type": "address"
                            },
                            {
                                "internalType": "address",
                                "name": "taker",
                                "type": "address"
                            },
                            {
                                "internalType": "address",
                                "name": "sender",
                                "type": "address"
                            },
                            {
                                "internalType": "address",
                                "name": "feeRecipient",
                                "type": "address"
                            },
                            {
                                "internalType": "bytes32",
                                "name": "pool",
                                "type": "bytes32"
                            },
                            {
                                "internalType": "uint64",
                                "name": "expiry",
                                "type": "uint64"
                            },
                            {
                                "internalType": "uint256",
                                "name": "salt",
                                "type": "uint256"
                            }
                        ],
                        "internalType": "struct IExchange.LimitOrder",
                        "name": "order",
                        "type": "tuple"
                    },
                    {
                        "components": [
                            {
                                "internalType": "enum IExchange.SignatureType",
                                "name": "signatureType",
                                "type": "uint8"
                            },
                            {
                                "internalType": "uint8",
                                "name": "v",
                                "type": "uint8"
                            },
                            {
                                "internalType": "bytes32",
                                "name": "r",
                                "type": "bytes32"
                            },
                            {
                                "internalType": "bytes32",
                                "name": "s",
                                "type": "bytes32"
                            }
                        ],
                        "internalType": "struct IExchange.Signature",
                        "name": "signature",
                        "type": "tuple"
                    },
                    {
                        "internalType": "contract IExchange",
                        "name": "exchange",
                        "type": "address"
                    }
                ],
                "name": "getLimitOrderFillableTakerAmount",
                "outputs": [
                    {
                        "internalType": "uint256",
                        "name": "fillableTakerAmount",
                        "type": "uint256"
                    }
                ],
                "stateMutability": "view",
                "type": "function"
            },
            {
                "inputs": [
                    {
                        "components": [
                            {
                                "internalType": "contract IERC20TokenV06",
                                "name": "makerToken",
                                "type": "address"
                            },
                            {
                                "internalType": "contract IERC20TokenV06",
                                "name": "takerToken",
                                "type": "address"
                            },
                            {
                                "internalType": "uint128",
                                "name": "makerAmount",
                                "type": "uint128"
                            },
                            {
                                "internalType": "uint128",
                                "name": "takerAmount",
                                "type": "uint128"
                            },
                            {
                                "internalType": "uint128",
                                "name": "takerTokenFeeAmount",
                                "type": "uint128"
                            },
                            {
                                "internalType": "address",
                                "name": "maker",
                                "type": "address"
                            },
                            {
                                "internalType": "address",
                                "name": "taker",
                                "type": "address"
                            },
                            {
                                "internalType": "address",
                                "name": "sender",
                                "type": "address"
                            },
                            {
                                "internalType": "address",
                                "name": "feeRecipient",
                                "type": "address"
                            },
                            {
                                "internalType": "bytes32",
                                "name": "pool",
                                "type": "bytes32"
                            },
                            {
                                "internalType": "uint64",
                                "name": "expiry",
                                "type": "uint64"
                            },
                            {
                                "internalType": "uint256",
                                "name": "salt",
                                "type": "uint256"
                            }
                        ],
                        "internalType": "struct IExchange.LimitOrder[]",
                        "name": "orders",
                        "type": "tuple[]"
                    },
                    {
                        "components": [
                            {
                                "internalType": "enum IExchange.SignatureType",
                                "name": "signatureType",
                                "type": "uint8"
                            },
                            {
                                "internalType": "uint8",
                                "name": "v",
                                "type": "uint8"
                            },
                            {
                                "internalType": "bytes32",
                                "name": "r",
                                "type": "bytes32"
                            },
                            {
                                "internalType": "bytes32",
                                "name": "s",
                                "type": "bytes32"
                            }
                        ],
                        "internalType": "struct IExchange.Signature[]",
                        "name": "orderSignatures",
                        "type": "tuple[]"
                    },
                    {
                        "internalType": "contract IExchange",
                        "name": "exchange",
                        "type": "address"
                    }
                ],
                "name": "getLimitOrderFillableTakerAssetAmounts",
                "outputs": [
                    {
                        "internalType": "uint256[]",
                        "name": "orderFillableTakerAssetAmounts",
                        "type": "uint256[]"
                    }
                ],
                "stateMutability": "view",
                "type": "function"
            },
            {
                "inputs": [
                    {
                        "internalType": "contract IERC20TokenV06[]",
                        "name": "tokens",
                        "type": "address[]"
                    }
                ],
                "name": "getTokenDecimals",
                "outputs": [
                    {
                        "internalType": "uint256[]",
                        "name": "decimals",
                        "type": "uint256[]"
                    }
                ],
                "stateMutability": "view",
                "type": "function"
            },
            {
                "inputs": [
                    {
                        "internalType": "address",
                        "name": "account",
                        "type": "address"
                    }
                ],
                "name": "isContract",
                "outputs": [
                    {
                        "internalType": "bool",
                        "name": "",
                        "type": "bool"
                    }
                ],
                "stateMutability": "view",
                "type": "function"
            },
            {
                "inputs": [
                    {
                        "components": [
                            {
                                "internalType": "address",
                                "name": "router",
                                "type": "address"
                            },
                            {
                                "internalType": "address[]",
                                "name": "path",
                                "type": "address[]"
                            },
                            {
                                "internalType": "string[]",
                                "name": "poolType",
                                "type": "string[]"
                            },
                            {
                                "internalType": "address[]",
                                "name": "dmmPoolAddresses",
                                "type": "address[]"
                            },
                            {
                                "internalType": "uint256[]",
                                "name": "amountTokens",
                                "type": "uint256[]"
                            }
                        ],
                        "internalType": "struct AutoRouteSampler.ExtraParams",
                        "name": "params",
                        "type": "tuple"
                    }
                ],
                "name": "sampleBuysFromAutoRoute",
                "outputs": [
                    {
                        "internalType": "uint256[]",
                        "name": "takerTokenAmounts",
                        "type": "uint256[]"
                    }
                ],
                "stateMutability": "view",
                "type": "function"
            },
            {
                "inputs": [
                    {
                        "internalType": "address",
                        "name": "poolAddress",
                        "type": "address"
                    },
                    {
                        "internalType": "address",
                        "name": "takerToken",
                        "type": "address"
                    },
                    {
                        "internalType": "address",
                        "name": "makerToken",
                        "type": "address"
                    },
                    {
                        "internalType": "uint256[]",
                        "name": "makerTokenAmounts",
                        "type": "uint256[]"
                    }
                ],
                "name": "sampleBuysFromBalancer",
                "outputs": [
                    {
                        "internalType": "uint256[]",
                        "name": "takerTokenAmounts",
                        "type": "uint256[]"
                    }
                ],
                "stateMutability": "view",
                "type": "function"
            },
            {
                "inputs": [
                    {
                        "components": [
                            {
                                "internalType": "bytes32",
                                "name": "poolId",
                                "type": "bytes32"
                            },
                            {
                                "internalType": "address",
                                "name": "vault",
                                "type": "address"
                            }
                        ],
                        "internalType": "struct BalancerV2Sampler.BalancerV2PoolInfo",
                        "name": "poolInfo",
                        "type": "tuple"
                    },
                    {
                        "internalType": "address",
                        "name": "takerToken",
                        "type": "address"
                    },
                    {
                        "internalType": "address",
                        "name": "makerToken",
                        "type": "address"
                    },
                    {
                        "internalType": "uint256[]",
                        "name": "makerTokenAmounts",
                        "type": "uint256[]"
                    }
                ],
                "name": "sampleBuysFromBalancerV2",
                "outputs": [
                    {
                        "internalType": "uint256[]",
                        "name": "takerTokenAmounts",
                        "type": "uint256[]"
                    }
                ],
                "stateMutability": "nonpayable",
                "type": "function"
            },
            {
                "inputs": [
                    {
                        "components": [
                            {
                                "internalType": "contract IBancorRegistry",
                                "name": "registry",
                                "type": "address"
                            },
                            {
                                "internalType": "address[][]",
                                "name": "paths",
                                "type": "address[][]"
                            }
                        ],
                        "internalType": "struct BancorSampler.BancorSamplerOpts",
                        "name": "opts",
                        "type": "tuple"
                    },
                    {
                        "internalType": "address",
                        "name": "takerToken",
                        "type": "address"
                    },
                    {
                        "internalType": "address",
                        "name": "makerToken",
                        "type": "address"
                    },
                    {
                        "internalType": "uint256[]",
                        "name": "makerTokenAmounts",
                        "type": "uint256[]"
                    }
                ],
                "name": "sampleBuysFromBancor",
                "outputs": [
                    {
                        "internalType": "address",
                        "name": "bancorNetwork",
                        "type": "address"
                    },
                    {
                        "internalType": "address[]",
                        "name": "path",
                        "type": "address[]"
                    },
                    {
                        "internalType": "uint256[]",
                        "name": "takerTokenAmounts",
                        "type": "uint256[]"
                    }
                ],
                "stateMutability": "view",
                "type": "function"
            },
            {
                "inputs": [
                    {
                        "components": [
                            {
                                "internalType": "address",
                                "name": "poolAddress",
                                "type": "address"
                            },
                            {
                                "internalType": "bytes4",
                                "name": "sellQuoteFunctionSelector",
                                "type": "bytes4"
                            },
                            {
                                "internalType": "bytes4",
                                "name": "buyQuoteFunctionSelector",
                                "type": "bytes4"
                            }
                        ],
                        "internalType": "struct CurveSampler.CurveInfo",
                        "name": "curveInfo",
                        "type": "tuple"
                    },
                    {
                        "internalType": "int128",
                        "name": "fromTokenIdx",
                        "type": "int128"
                    },
                    {
                        "internalType": "int128",
                        "name": "toTokenIdx",
                        "type": "int128"
                    },
                    {
                        "internalType": "uint256[]",
                        "name": "makerTokenAmounts",
                        "type": "uint256[]"
                    }
                ],
                "name": "sampleBuysFromCurve",
                "outputs": [
                    {
                        "internalType": "uint256[]",
                        "name": "takerTokenAmounts",
                        "type": "uint256[]"
                    }
                ],
                "stateMutability": "view",
                "type": "function"
            },
            {
                "inputs": [
                    {
                        "components": [
                            {
                                "internalType": "address",
                                "name": "registry",
                                "type": "address"
                            },
                            {
                                "internalType": "address",
                                "name": "helper",
                                "type": "address"
                            }
                        ],
                        "internalType": "struct DODOSampler.DODOSamplerOpts",
                        "name": "opts",
                        "type": "tuple"
                    },
                    {
                        "internalType": "address",
                        "name": "takerToken",
                        "type": "address"
                    },
                    {
                        "internalType": "address",
                        "name": "makerToken",
                        "type": "address"
                    },
                    {
                        "internalType": "uint256[]",
                        "name": "makerTokenAmounts",
                        "type": "uint256[]"
                    }
                ],
                "name": "sampleBuysFromDODO",
                "outputs": [
                    {
                        "internalType": "bool",
                        "name": "sellBase",
                        "type": "bool"
                    },
                    {
                        "internalType": "address",
                        "name": "pool",
                        "type": "address"
                    },
                    {
                        "internalType": "uint256[]",
                        "name": "takerTokenAmounts",
                        "type": "uint256[]"
                    }
                ],
                "stateMutability": "view",
                "type": "function"
            },
            {
                "inputs": [
                    {
                        "internalType": "address",
                        "name": "registry",
                        "type": "address"
                    },
                    {
                        "internalType": "uint256",
                        "name": "offset",
                        "type": "uint256"
                    },
                    {
                        "internalType": "address",
                        "name": "takerToken",
                        "type": "address"
                    },
                    {
                        "internalType": "address",
                        "name": "makerToken",
                        "type": "address"
                    },
                    {
                        "internalType": "uint256[]",
                        "name": "makerTokenAmounts",
                        "type": "uint256[]"
                    }
                ],
                "name": "sampleBuysFromDODOV2",
                "outputs": [
                    {
                        "internalType": "bool",
                        "name": "sellBase",
                        "type": "bool"
                    },
                    {
                        "internalType": "address",
                        "name": "pool",
                        "type": "address"
                    },
                    {
                        "internalType": "uint256[]",
                        "name": "takerTokenAmounts",
                        "type": "uint256[]"
                    }
                ],
                "stateMutability": "view",
                "type": "function"
            },
            {
                "inputs": [
                    {
                        "internalType": "address",
                        "name": "router",
                        "type": "address"
                    },
                    {
                        "internalType": "address",
                        "name": "takerToken",
                        "type": "address"
                    },
                    {
                        "internalType": "address",
                        "name": "makerToken",
                        "type": "address"
                    },
                    {
                        "internalType": "uint256[]",
                        "name": "makerTokenAmounts",
                        "type": "uint256[]"
                    }
                ],
                "name": "sampleBuysFromEth2Dai",
                "outputs": [
                    {
                        "internalType": "uint256[]",
                        "name": "takerTokenAmounts",
                        "type": "uint256[]"
                    }
                ],
                "stateMutability": "view",
                "type": "function"
            },
            {
                "inputs": [
                    {
                        "internalType": "address",
                        "name": "router",
                        "type": "address"
                    },
                    {
                        "internalType": "address[]",
                        "name": "path",
                        "type": "address[]"
                    },
                    {
                        "internalType": "uint256[]",
                        "name": "makerTokenAmounts",
                        "type": "uint256[]"
                    }
                ],
                "name": "sampleBuysFromKyberDmm",
                "outputs": [
                    {
                        "internalType": "address[]",
                        "name": "pools",
                        "type": "address[]"
                    },
                    {
                        "internalType": "uint256[]",
                        "name": "takerTokenAmounts",
                        "type": "uint256[]"
                    }
                ],
                "stateMutability": "view",
                "type": "function"
            },
            {
                "inputs": [
                    {
                        "components": [
                            {
                                "internalType": "uint256",
                                "name": "reserveOffset",
                                "type": "uint256"
                            },
                            {
                                "internalType": "address",
                                "name": "hintHandler",
                                "type": "address"
                            },
                            {
                                "internalType": "address",
                                "name": "networkProxy",
                                "type": "address"
                            },
                            {
                                "internalType": "address",
                                "name": "weth",
                                "type": "address"
                            },
                            {
                                "internalType": "bytes",
                                "name": "hint",
                                "type": "bytes"
                            }
                        ],
                        "internalType": "struct KyberSampler.KyberSamplerOpts",
                        "name": "opts",
                        "type": "tuple"
                    },
                    {
                        "internalType": "address",
                        "name": "takerToken",
                        "type": "address"
                    },
                    {
                        "internalType": "address",
                        "name": "makerToken",
                        "type": "address"
                    },
                    {
                        "internalType": "uint256[]",
                        "name": "makerTokenAmounts",
                        "type": "uint256[]"
                    }
                ],
                "name": "sampleBuysFromKyberNetwork",
                "outputs": [
                    {
                        "internalType": "bytes32",
                        "name": "reserveId",
                        "type": "bytes32"
                    },
                    {
                        "internalType": "bytes",
                        "name": "hint",
                        "type": "bytes"
                    },
                    {
                        "internalType": "uint256[]",
                        "name": "takerTokenAmounts",
                        "type": "uint256[]"
                    }
                ],
                "stateMutability": "view",
                "type": "function"
            },
            {
                "inputs": [
                    {
                        "components": [
                            {
                                "internalType": "address",
                                "name": "stEthToken",
                                "type": "address"
                            },
                            {
                                "internalType": "address",
                                "name": "wethToken",
                                "type": "address"
                            }
                        ],
                        "internalType": "struct LidoSampler.LidoInfo",
                        "name": "lidoInfo",
                        "type": "tuple"
                    },
                    {
                        "internalType": "address",
                        "name": "takerToken",
                        "type": "address"
                    },
                    {
                        "internalType": "address",
                        "name": "makerToken",
                        "type": "address"
                    },
                    {
                        "internalType": "uint256[]",
                        "name": "makerTokenAmounts",
                        "type": "uint256[]"
                    }
                ],
                "name": "sampleBuysFromLido",
                "outputs": [
                    {
                        "internalType": "uint256[]",
                        "name": "",
                        "type": "uint256[]"
                    }
                ],
                "stateMutability": "pure",
                "type": "function"
            },
            {
                "inputs": [
                    {
                        "internalType": "address",
                        "name": "providerAddress",
                        "type": "address"
                    },
                    {
                        "internalType": "address",
                        "name": "takerToken",
                        "type": "address"
                    },
                    {
                        "internalType": "address",
                        "name": "makerToken",
                        "type": "address"
                    },
                    {
                        "internalType": "uint256[]",
                        "name": "makerTokenAmounts",
                        "type": "uint256[]"
                    }
                ],
                "name": "sampleBuysFromLiquidityProvider",
                "outputs": [
                    {
                        "internalType": "uint256[]",
                        "name": "takerTokenAmounts",
                        "type": "uint256[]"
                    }
                ],
                "stateMutability": "view",
                "type": "function"
            },
            {
                "inputs": [
                    {
                        "internalType": "address",
                        "name": "router",
                        "type": "address"
                    },
                    {
                        "internalType": "address",
                        "name": "takerToken",
                        "type": "address"
                    },
                    {
                        "internalType": "address",
                        "name": "makerToken",
                        "type": "address"
                    },
                    {
                        "internalType": "uint256[]",
                        "name": "makerTokenAmounts",
                        "type": "uint256[]"
                    }
                ],
                "name": "sampleBuysFromMStable",
                "outputs": [
                    {
                        "internalType": "uint256[]",
                        "name": "takerTokenAmounts",
                        "type": "uint256[]"
                    }
                ],
                "stateMutability": "view",
                "type": "function"
            },
            {
                "inputs": [
                    {
                        "components": [
                            {
                                "internalType": "address",
                                "name": "psmAddress",
                                "type": "address"
                            },
                            {
                                "internalType": "bytes32",
                                "name": "ilkIdentifier",
                                "type": "bytes32"
                            },
                            {
                                "internalType": "address",
                                "name": "gemTokenAddress",
                                "type": "address"
                            }
                        ],
                        "internalType": "struct MakerPSMSampler.MakerPsmInfo",
                        "name": "psmInfo",
                        "type": "tuple"
                    },
                    {
                        "internalType": "address",
                        "name": "takerToken",
                        "type": "address"
                    },
                    {
                        "internalType": "address",
                        "name": "makerToken",
                        "type": "address"
                    },
                    {
                        "internalType": "uint256[]",
                        "name": "makerTokenAmounts",
                        "type": "uint256[]"
                    }
                ],
                "name": "sampleBuysFromMakerPsm",
                "outputs": [
                    {
                        "internalType": "uint256[]",
                        "name": "takerTokenAmounts",
                        "type": "uint256[]"
                    }
                ],
                "stateMutability": "view",
                "type": "function"
            },
            {
                "inputs": [
                    {
                        "internalType": "address",
                        "name": "registry",
                        "type": "address"
                    },
                    {
                        "internalType": "address",
                        "name": "takerToken",
                        "type": "address"
                    },
                    {
                        "internalType": "address",
                        "name": "makerToken",
                        "type": "address"
                    },
                    {
                        "internalType": "uint256[]",
                        "name": "makerTokenAmounts",
                        "type": "uint256[]"
                    }
                ],
                "name": "sampleBuysFromMooniswap",
                "outputs": [
                    {
                        "internalType": "contract IMooniswap",
                        "name": "pool",
                        "type": "address"
                    },
                    {
                        "internalType": "uint256[]",
                        "name": "takerTokenAmounts",
                        "type": "uint256[]"
                    }
                ],
                "stateMutability": "view",
                "type": "function"
            },
            {
                "inputs": [
                    {
                        "internalType": "address",
                        "name": "pool",
                        "type": "address"
                    },
                    {
                        "internalType": "address",
                        "name": "takerToken",
                        "type": "address"
                    },
                    {
                        "internalType": "address",
                        "name": "makerToken",
                        "type": "address"
                    },
                    {
                        "internalType": "uint256[]",
                        "name": "makerTokenAmounts",
                        "type": "uint256[]"
                    }
                ],
                "name": "sampleBuysFromShell",
                "outputs": [
                    {
                        "internalType": "uint256[]",
                        "name": "takerTokenAmounts",
                        "type": "uint256[]"
                    }
                ],
                "stateMutability": "view",
                "type": "function"
            },
            {
                "inputs": [
                    {
                        "components": [
                            {
                                "internalType": "address",
                                "name": "poolAddress",
                                "type": "address"
                            },
                            {
                                "internalType": "bytes4",
                                "name": "sellQuoteFunctionSelector",
                                "type": "bytes4"
                            },
                            {
                                "internalType": "bytes4",
                                "name": "buyQuoteFunctionSelector",
                                "type": "bytes4"
                            }
                        ],
                        "internalType": "struct SmoothySampler.SmoothyInfo",
                        "name": "smoothyInfo",
                        "type": "tuple"
                    },
                    {
                        "internalType": "int128",
                        "name": "fromTokenIdx",
                        "type": "int128"
                    },
                    {
                        "internalType": "int128",
                        "name": "toTokenIdx",
                        "type": "int128"
                    },
                    {
                        "internalType": "uint256[]",
                        "name": "makerTokenAmounts",
                        "type": "uint256[]"
                    }
                ],
                "name": "sampleBuysFromSmoothy",
                "outputs": [
                    {
                        "internalType": "uint256[]",
                        "name": "takerTokenAmounts",
                        "type": "uint256[]"
                    }
                ],
                "stateMutability": "view",
                "type": "function"
            },
            {
                "inputs": [
                    {
                        "internalType": "address",
                        "name": "router",
                        "type": "address"
                    },
                    {
                        "internalType": "address",
                        "name": "takerToken",
                        "type": "address"
                    },
                    {
                        "internalType": "address",
                        "name": "makerToken",
                        "type": "address"
                    },
                    {
                        "internalType": "uint256[]",
                        "name": "makerTokenAmounts",
                        "type": "uint256[]"
                    }
                ],
                "name": "sampleBuysFromUniswap",
                "outputs": [
                    {
                        "internalType": "uint256[]",
                        "name": "takerTokenAmounts",
                        "type": "uint256[]"
                    }
                ],
                "stateMutability": "view",
                "type": "function"
            },
            {
                "inputs": [
                    {
                        "internalType": "address",
                        "name": "router",
                        "type": "address"
                    },
                    {
                        "internalType": "address[]",
                        "name": "path",
                        "type": "address[]"
                    },
                    {
                        "internalType": "uint256[]",
                        "name": "makerTokenAmounts",
                        "type": "uint256[]"
                    }
                ],
                "name": "sampleBuysFromUniswapV2",
                "outputs": [
                    {
                        "internalType": "uint256[]",
                        "name": "takerTokenAmounts",
                        "type": "uint256[]"
                    }
                ],
                "stateMutability": "view",
                "type": "function"
            },
            {
                "inputs": [
                    {
                        "internalType": "contract IUniswapV3Quoter",
                        "name": "quoter",
                        "type": "address"
                    },
                    {
                        "internalType": "contract IERC20TokenV06[]",
                        "name": "path",
                        "type": "address[]"
                    },
                    {
                        "internalType": "uint256[]",
                        "name": "makerTokenAmounts",
                        "type": "uint256[]"
                    }
                ],
                "name": "sampleBuysFromUniswapV3",
                "outputs": [
                    {
                        "internalType": "bytes[]",
                        "name": "uniswapPaths",
                        "type": "bytes[]"
                    },
                    {
                        "internalType": "uint256[]",
                        "name": "takerTokenAmounts",
                        "type": "uint256[]"
                    }
                ],
                "stateMutability": "nonpayable",
                "type": "function"
            },
            {
                "inputs": [
                    {
                        "components": [
                            {
                                "internalType": "uint256",
                                "name": "reserveOffset",
                                "type": "uint256"
                            },
                            {
                                "internalType": "address",
                                "name": "hintHandler",
                                "type": "address"
                            },
                            {
                                "internalType": "address",
                                "name": "networkProxy",
                                "type": "address"
                            },
                            {
                                "internalType": "address",
                                "name": "weth",
                                "type": "address"
                            },
                            {
                                "internalType": "bytes",
                                "name": "hint",
                                "type": "bytes"
                            }
                        ],
                        "internalType": "struct KyberSampler.KyberSamplerOpts",
                        "name": "opts",
                        "type": "tuple"
                    },
                    {
                        "internalType": "address",
                        "name": "takerToken",
                        "type": "address"
                    },
                    {
                        "internalType": "address",
                        "name": "makerToken",
                        "type": "address"
                    },
                    {
                        "internalType": "uint256",
                        "name": "takerTokenAmount",
                        "type": "uint256"
                    }
                ],
                "name": "sampleSellFromKyberNetwork",
                "outputs": [
                    {
                        "internalType": "uint256",
                        "name": "makerTokenAmount",
                        "type": "uint256"
                    }
                ],
                "stateMutability": "view",
                "type": "function"
            },
            {
                "inputs": [
                    {
                        "components": [
                            {
                                "internalType": "address",
                                "name": "router",
                                "type": "address"
                            },
                            {
                                "internalType": "address[]",
                                "name": "path",
                                "type": "address[]"
                            },
                            {
                                "internalType": "string[]",
                                "name": "poolType",
                                "type": "string[]"
                            },
                            {
                                "internalType": "address[]",
                                "name": "dmmPoolAddresses",
                                "type": "address[]"
                            },
                            {
                                "internalType": "uint256[]",
                                "name": "amountTokens",
                                "type": "uint256[]"
                            }
                        ],
                        "internalType": "struct AutoRouteSampler.ExtraParams",
                        "name": "params",
                        "type": "tuple"
                    }
                ],
                "name": "sampleSellsFromAutoRoute",
                "outputs": [
                    {
                        "internalType": "uint256[]",
                        "name": "makerTokenAmounts",
                        "type": "uint256[]"
                    }
                ],
                "stateMutability": "view",
                "type": "function"
            },
            {
                "inputs": [
                    {
                        "internalType": "address",
                        "name": "poolAddress",
                        "type": "address"
                    },
                    {
                        "internalType": "address",
                        "name": "takerToken",
                        "type": "address"
                    },
                    {
                        "internalType": "address",
                        "name": "makerToken",
                        "type": "address"
                    },
                    {
                        "internalType": "uint256[]",
                        "name": "takerTokenAmounts",
                        "type": "uint256[]"
                    }
                ],
                "name": "sampleSellsFromBalancer",
                "outputs": [
                    {
                        "internalType": "uint256[]",
                        "name": "makerTokenAmounts",
                        "type": "uint256[]"
                    }
                ],
                "stateMutability": "view",
                "type": "function"
            },
            {
                "inputs": [
                    {
                        "components": [
                            {
                                "internalType": "bytes32",
                                "name": "poolId",
                                "type": "bytes32"
                            },
                            {
                                "internalType": "address",
                                "name": "vault",
                                "type": "address"
                            }
                        ],
                        "internalType": "struct BalancerV2Sampler.BalancerV2PoolInfo",
                        "name": "poolInfo",
                        "type": "tuple"
                    },
                    {
                        "internalType": "address",
                        "name": "takerToken",
                        "type": "address"
                    },
                    {
                        "internalType": "address",
                        "name": "makerToken",
                        "type": "address"
                    },
                    {
                        "internalType": "uint256[]",
                        "name": "takerTokenAmounts",
                        "type": "uint256[]"
                    }
                ],
                "name": "sampleSellsFromBalancerV2",
                "outputs": [
                    {
                        "internalType": "uint256[]",
                        "name": "makerTokenAmounts",
                        "type": "uint256[]"
                    }
                ],
                "stateMutability": "nonpayable",
                "type": "function"
            },
            {
                "inputs": [
                    {
                        "components": [
                            {
                                "internalType": "contract IBancorRegistry",
                                "name": "registry",
                                "type": "address"
                            },
                            {
                                "internalType": "address[][]",
                                "name": "paths",
                                "type": "address[][]"
                            }
                        ],
                        "internalType": "struct BancorSampler.BancorSamplerOpts",
                        "name": "opts",
                        "type": "tuple"
                    },
                    {
                        "internalType": "address",
                        "name": "takerToken",
                        "type": "address"
                    },
                    {
                        "internalType": "address",
                        "name": "makerToken",
                        "type": "address"
                    },
                    {
                        "internalType": "uint256[]",
                        "name": "takerTokenAmounts",
                        "type": "uint256[]"
                    }
                ],
                "name": "sampleSellsFromBancor",
                "outputs": [
                    {
                        "internalType": "address",
                        "name": "bancorNetwork",
                        "type": "address"
                    },
                    {
                        "internalType": "address[]",
                        "name": "path",
                        "type": "address[]"
                    },
                    {
                        "internalType": "uint256[]",
                        "name": "makerTokenAmounts",
                        "type": "uint256[]"
                    }
                ],
                "stateMutability": "view",
                "type": "function"
            },
            {
                "inputs": [
                    {
                        "components": [
                            {
                                "internalType": "address",
                                "name": "poolAddress",
                                "type": "address"
                            },
                            {
                                "internalType": "bytes4",
                                "name": "sellQuoteFunctionSelector",
                                "type": "bytes4"
                            },
                            {
                                "internalType": "bytes4",
                                "name": "buyQuoteFunctionSelector",
                                "type": "bytes4"
                            }
                        ],
                        "internalType": "struct CurveSampler.CurveInfo",
                        "name": "curveInfo",
                        "type": "tuple"
                    },
                    {
                        "internalType": "int128",
                        "name": "fromTokenIdx",
                        "type": "int128"
                    },
                    {
                        "internalType": "int128",
                        "name": "toTokenIdx",
                        "type": "int128"
                    },
                    {
                        "internalType": "uint256[]",
                        "name": "takerTokenAmounts",
                        "type": "uint256[]"
                    }
                ],
                "name": "sampleSellsFromCurve",
                "outputs": [
                    {
                        "internalType": "uint256[]",
                        "name": "makerTokenAmounts",
                        "type": "uint256[]"
                    }
                ],
                "stateMutability": "view",
                "type": "function"
            },
            {
                "inputs": [
                    {
                        "components": [
                            {
                                "internalType": "address",
                                "name": "registry",
                                "type": "address"
                            },
                            {
                                "internalType": "address",
                                "name": "helper",
                                "type": "address"
                            }
                        ],
                        "internalType": "struct DODOSampler.DODOSamplerOpts",
                        "name": "opts",
                        "type": "tuple"
                    },
                    {
                        "internalType": "address",
                        "name": "takerToken",
                        "type": "address"
                    },
                    {
                        "internalType": "address",
                        "name": "makerToken",
                        "type": "address"
                    },
                    {
                        "internalType": "uint256[]",
                        "name": "takerTokenAmounts",
                        "type": "uint256[]"
                    }
                ],
                "name": "sampleSellsFromDODO",
                "outputs": [
                    {
                        "internalType": "bool",
                        "name": "sellBase",
                        "type": "bool"
                    },
                    {
                        "internalType": "address",
                        "name": "pool",
                        "type": "address"
                    },
                    {
                        "internalType": "uint256[]",
                        "name": "makerTokenAmounts",
                        "type": "uint256[]"
                    }
                ],
                "stateMutability": "view",
                "type": "function"
            },
            {
                "inputs": [
                    {
                        "internalType": "address",
                        "name": "registry",
                        "type": "address"
                    },
                    {
                        "internalType": "uint256",
                        "name": "offset",
                        "type": "uint256"
                    },
                    {
                        "internalType": "address",
                        "name": "takerToken",
                        "type": "address"
                    },
                    {
                        "internalType": "address",
                        "name": "makerToken",
                        "type": "address"
                    },
                    {
                        "internalType": "uint256[]",
                        "name": "takerTokenAmounts",
                        "type": "uint256[]"
                    }
                ],
                "name": "sampleSellsFromDODOV2",
                "outputs": [
                    {
                        "internalType": "bool",
                        "name": "sellBase",
                        "type": "bool"
                    },
                    {
                        "internalType": "address",
                        "name": "pool",
                        "type": "address"
                    },
                    {
                        "internalType": "uint256[]",
                        "name": "makerTokenAmounts",
                        "type": "uint256[]"
                    }
                ],
                "stateMutability": "view",
                "type": "function"
            },
            {
                "inputs": [
                    {
                        "internalType": "address",
                        "name": "router",
                        "type": "address"
                    },
                    {
                        "internalType": "address",
                        "name": "takerToken",
                        "type": "address"
                    },
                    {
                        "internalType": "address",
                        "name": "makerToken",
                        "type": "address"
                    },
                    {
                        "internalType": "uint256[]",
                        "name": "takerTokenAmounts",
                        "type": "uint256[]"
                    }
                ],
                "name": "sampleSellsFromEth2Dai",
                "outputs": [
                    {
                        "internalType": "uint256[]",
                        "name": "makerTokenAmounts",
                        "type": "uint256[]"
                    }
                ],
                "stateMutability": "view",
                "type": "function"
            },
            {
                "inputs": [
                    {
                        "internalType": "address",
                        "name": "router",
                        "type": "address"
                    },
                    {
                        "internalType": "address[]",
                        "name": "path",
                        "type": "address[]"
                    },
                    {
                        "internalType": "uint256[]",
                        "name": "takerTokenAmounts",
                        "type": "uint256[]"
                    }
                ],
                "name": "sampleSellsFromKyberDmm",
                "outputs": [
                    {
                        "internalType": "address[]",
                        "name": "pools",
                        "type": "address[]"
                    },
                    {
                        "internalType": "uint256[]",
                        "name": "makerTokenAmounts",
                        "type": "uint256[]"
                    }
                ],
                "stateMutability": "view",
                "type": "function"
            },
            {
                "inputs": [
                    {
                        "components": [
                            {
                                "internalType": "uint256",
                                "name": "reserveOffset",
                                "type": "uint256"
                            },
                            {
                                "internalType": "address",
                                "name": "hintHandler",
                                "type": "address"
                            },
                            {
                                "internalType": "address",
                                "name": "networkProxy",
                                "type": "address"
                            },
                            {
                                "internalType": "address",
                                "name": "weth",
                                "type": "address"
                            },
                            {
                                "internalType": "bytes",
                                "name": "hint",
                                "type": "bytes"
                            }
                        ],
                        "internalType": "struct KyberSampler.KyberSamplerOpts",
                        "name": "opts",
                        "type": "tuple"
                    },
                    {
                        "internalType": "address",
                        "name": "takerToken",
                        "type": "address"
                    },
                    {
                        "internalType": "address",
                        "name": "makerToken",
                        "type": "address"
                    },
                    {
                        "internalType": "uint256[]",
                        "name": "takerTokenAmounts",
                        "type": "uint256[]"
                    }
                ],
                "name": "sampleSellsFromKyberNetwork",
                "outputs": [
                    {
                        "internalType": "bytes32",
                        "name": "reserveId",
                        "type": "bytes32"
                    },
                    {
                        "internalType": "bytes",
                        "name": "hint",
                        "type": "bytes"
                    },
                    {
                        "internalType": "uint256[]",
                        "name": "makerTokenAmounts",
                        "type": "uint256[]"
                    }
                ],
                "stateMutability": "view",
                "type": "function"
            },
            {
                "inputs": [
                    {
                        "components": [
                            {
                                "internalType": "address",
                                "name": "stEthToken",
                                "type": "address"
                            },
                            {
                                "internalType": "address",
                                "name": "wethToken",
                                "type": "address"
                            }
                        ],
                        "internalType": "struct LidoSampler.LidoInfo",
                        "name": "lidoInfo",
                        "type": "tuple"
                    },
                    {
                        "internalType": "address",
                        "name": "takerToken",
                        "type": "address"
                    },
                    {
                        "internalType": "address",
                        "name": "makerToken",
                        "type": "address"
                    },
                    {
                        "internalType": "uint256[]",
                        "name": "takerTokenAmounts",
                        "type": "uint256[]"
                    }
                ],
                "name": "sampleSellsFromLido",
                "outputs": [
                    {
                        "internalType": "uint256[]",
                        "name": "",
                        "type": "uint256[]"
                    }
                ],
                "stateMutability": "pure",
                "type": "function"
            },
            {
                "inputs": [
                    {
                        "internalType": "address",
                        "name": "providerAddress",
                        "type": "address"
                    },
                    {
                        "internalType": "address",
                        "name": "takerToken",
                        "type": "address"
                    },
                    {
                        "internalType": "address",
                        "name": "makerToken",
                        "type": "address"
                    },
                    {
                        "internalType": "uint256[]",
                        "name": "takerTokenAmounts",
                        "type": "uint256[]"
                    }
                ],
                "name": "sampleSellsFromLiquidityProvider",
                "outputs": [
                    {
                        "internalType": "uint256[]",
                        "name": "makerTokenAmounts",
                        "type": "uint256[]"
                    }
                ],
                "stateMutability": "view",
                "type": "function"
            },
            {
                "inputs": [
                    {
                        "internalType": "address",
                        "name": "router",
                        "type": "address"
                    },
                    {
                        "internalType": "address",
                        "name": "takerToken",
                        "type": "address"
                    },
                    {
                        "internalType": "address",
                        "name": "makerToken",
                        "type": "address"
                    },
                    {
                        "internalType": "uint256[]",
                        "name": "takerTokenAmounts",
                        "type": "uint256[]"
                    }
                ],
                "name": "sampleSellsFromMStable",
                "outputs": [
                    {
                        "internalType": "uint256[]",
                        "name": "makerTokenAmounts",
                        "type": "uint256[]"
                    }
                ],
                "stateMutability": "view",
                "type": "function"
            },
            {
                "inputs": [
                    {
                        "components": [
                            {
                                "internalType": "address",
                                "name": "psmAddress",
                                "type": "address"
                            },
                            {
                                "internalType": "bytes32",
                                "name": "ilkIdentifier",
                                "type": "bytes32"
                            },
                            {
                                "internalType": "address",
                                "name": "gemTokenAddress",
                                "type": "address"
                            }
                        ],
                        "internalType": "struct MakerPSMSampler.MakerPsmInfo",
                        "name": "psmInfo",
                        "type": "tuple"
                    },
                    {
                        "internalType": "address",
                        "name": "takerToken",
                        "type": "address"
                    },
                    {
                        "internalType": "address",
                        "name": "makerToken",
                        "type": "address"
                    },
                    {
                        "internalType": "uint256[]",
                        "name": "takerTokenAmounts",
                        "type": "uint256[]"
                    }
                ],
                "name": "sampleSellsFromMakerPsm",
                "outputs": [
                    {
                        "internalType": "uint256[]",
                        "name": "makerTokenAmounts",
                        "type": "uint256[]"
                    }
                ],
                "stateMutability": "view",
                "type": "function"
            },
            {
                "inputs": [
                    {
                        "internalType": "address",
                        "name": "registry",
                        "type": "address"
                    },
                    {
                        "internalType": "address",
                        "name": "takerToken",
                        "type": "address"
                    },
                    {
                        "internalType": "address",
                        "name": "makerToken",
                        "type": "address"
                    },
                    {
                        "internalType": "uint256[]",
                        "name": "takerTokenAmounts",
                        "type": "uint256[]"
                    }
                ],
                "name": "sampleSellsFromMooniswap",
                "outputs": [
                    {
                        "internalType": "contract IMooniswap",
                        "name": "pool",
                        "type": "address"
                    },
                    {
                        "internalType": "uint256[]",
                        "name": "makerTokenAmounts",
                        "type": "uint256[]"
                    }
                ],
                "stateMutability": "view",
                "type": "function"
            },
            {
                "inputs": [
                    {
                        "internalType": "address",
                        "name": "multibridge",
                        "type": "address"
                    },
                    {
                        "internalType": "address",
                        "name": "takerToken",
                        "type": "address"
                    },
                    {
                        "internalType": "address",
                        "name": "intermediateToken",
                        "type": "address"
                    },
                    {
                        "internalType": "address",
                        "name": "makerToken",
                        "type": "address"
                    },
                    {
                        "internalType": "uint256[]",
                        "name": "takerTokenAmounts",
                        "type": "uint256[]"
                    }
                ],
                "name": "sampleSellsFromMultiBridge",
                "outputs": [
                    {
                        "internalType": "uint256[]",
                        "name": "makerTokenAmounts",
                        "type": "uint256[]"
                    }
                ],
                "stateMutability": "view",
                "type": "function"
            },
            {
                "inputs": [
                    {
                        "internalType": "address",
                        "name": "pool",
                        "type": "address"
                    },
                    {
                        "internalType": "address",
                        "name": "takerToken",
                        "type": "address"
                    },
                    {
                        "internalType": "address",
                        "name": "makerToken",
                        "type": "address"
                    },
                    {
                        "internalType": "uint256[]",
                        "name": "takerTokenAmounts",
                        "type": "uint256[]"
                    }
                ],
                "name": "sampleSellsFromShell",
                "outputs": [
                    {
                        "internalType": "uint256[]",
                        "name": "makerTokenAmounts",
                        "type": "uint256[]"
                    }
                ],
                "stateMutability": "view",
                "type": "function"
            },
            {
                "inputs": [
                    {
                        "components": [
                            {
                                "internalType": "address",
                                "name": "poolAddress",
                                "type": "address"
                            },
                            {
                                "internalType": "bytes4",
                                "name": "sellQuoteFunctionSelector",
                                "type": "bytes4"
                            },
                            {
                                "internalType": "bytes4",
                                "name": "buyQuoteFunctionSelector",
                                "type": "bytes4"
                            }
                        ],
                        "internalType": "struct SmoothySampler.SmoothyInfo",
                        "name": "smoothyInfo",
                        "type": "tuple"
                    },
                    {
                        "internalType": "int128",
                        "name": "fromTokenIdx",
                        "type": "int128"
                    },
                    {
                        "internalType": "int128",
                        "name": "toTokenIdx",
                        "type": "int128"
                    },
                    {
                        "internalType": "uint256[]",
                        "name": "takerTokenAmounts",
                        "type": "uint256[]"
                    }
                ],
                "name": "sampleSellsFromSmoothy",
                "outputs": [
                    {
                        "internalType": "uint256[]",
                        "name": "makerTokenAmounts",
                        "type": "uint256[]"
                    }
                ],
                "stateMutability": "view",
                "type": "function"
            },
            {
                "inputs": [
                    {
                        "internalType": "address",
                        "name": "router",
                        "type": "address"
                    },
                    {
                        "internalType": "address",
                        "name": "takerToken",
                        "type": "address"
                    },
                    {
                        "internalType": "address",
                        "name": "makerToken",
                        "type": "address"
                    },
                    {
                        "internalType": "uint256[]",
                        "name": "takerTokenAmounts",
                        "type": "uint256[]"
                    }
                ],
                "name": "sampleSellsFromUniswap",
                "outputs": [
                    {
                        "internalType": "uint256[]",
                        "name": "makerTokenAmounts",
                        "type": "uint256[]"
                    }
                ],
                "stateMutability": "view",
                "type": "function"
            },
            {
                "inputs": [
                    {
                        "internalType": "address",
                        "name": "router",
                        "type": "address"
                    },
                    {
                        "internalType": "address[]",
                        "name": "path",
                        "type": "address[]"
                    },
                    {
                        "internalType": "uint256[]",
                        "name": "takerTokenAmounts",
                        "type": "uint256[]"
                    }
                ],
                "name": "sampleSellsFromUniswapV2",
                "outputs": [
                    {
                        "internalType": "uint256[]",
                        "name": "makerTokenAmounts",
                        "type": "uint256[]"
                    }
                ],
                "stateMutability": "view",
                "type": "function"
            },
            {
                "inputs": [
                    {
                        "internalType": "contract IUniswapV3Quoter",
                        "name": "quoter",
                        "type": "address"
                    },
                    {
                        "internalType": "contract IERC20TokenV06[]",
                        "name": "path",
                        "type": "address[]"
                    },
                    {
                        "internalType": "uint256[]",
                        "name": "takerTokenAmounts",
                        "type": "uint256[]"
                    }
                ],
                "name": "sampleSellsFromUniswapV3",
                "outputs": [
                    {
                        "internalType": "bytes[]",
                        "name": "uniswapPaths",
                        "type": "bytes[]"
                    },
                    {
                        "internalType": "uint256[]",
                        "name": "makerTokenAmounts",
                        "type": "uint256[]"
                    }
                ],
                "stateMutability": "nonpayable",
                "type": "function"
            },
            {
                "inputs": [
                    {
                        "internalType": "address",
                        "name": "registry",
                        "type": "address"
                    },
                    {
                        "internalType": "address",
                        "name": "mooniswapTakerToken",
                        "type": "address"
                    },
                    {
                        "internalType": "address",
                        "name": "mooniswapMakerToken",
                        "type": "address"
                    },
                    {
                        "internalType": "uint256",
                        "name": "takerTokenAmount",
                        "type": "uint256"
                    }
                ],
                "name": "sampleSingleSellFromMooniswapPool",
                "outputs": [
                    {
                        "internalType": "uint256",
                        "name": "",
                        "type": "uint256"
                    }
                ],
                "stateMutability": "view",
                "type": "function"
            },
            {
                "inputs": [
                    {
                        "internalType": "bytes[]",
                        "name": "firstHopCalls",
                        "type": "bytes[]"
                    },
                    {
                        "internalType": "bytes[]",
                        "name": "secondHopCalls",
                        "type": "bytes[]"
                    },
                    {
                        "internalType": "uint256",
                        "name": "buyAmount",
                        "type": "uint256"
                    }
                ],
                "name": "sampleTwoHopBuy",
                "outputs": [
                    {
                        "components": [
                            {
                                "internalType": "uint256",
                                "name": "sourceIndex",
                                "type": "uint256"
                            },
                            {
                                "internalType": "bytes",
                                "name": "returnData",
                                "type": "bytes"
                            }
                        ],
                        "internalType": "struct TwoHopSampler.HopInfo",
                        "name": "firstHop",
                        "type": "tuple"
                    },
                    {
                        "components": [
                            {
                                "internalType": "uint256",
                                "name": "sourceIndex",
                                "type": "uint256"
                            },
                            {
                                "internalType": "bytes",
                                "name": "returnData",
                                "type": "bytes"
                            }
                        ],
                        "internalType": "struct TwoHopSampler.HopInfo",
                        "name": "secondHop",
                        "type": "tuple"
                    },
                    {
                        "internalType": "uint256",
                        "name": "sellAmount",
                        "type": "uint256"
                    }
                ],
                "stateMutability": "nonpayable",
                "type": "function"
            },
            {
                "inputs": [
                    {
                        "internalType": "bytes[]",
                        "name": "firstHopCalls",
                        "type": "bytes[]"
                    },
                    {
                        "internalType": "bytes[]",
                        "name": "secondHopCalls",
                        "type": "bytes[]"
                    },
                    {
                        "internalType": "uint256",
                        "name": "sellAmount",
                        "type": "uint256"
                    }
                ],
                "name": "sampleTwoHopSell",
                "outputs": [
                    {
                        "components": [
                            {
                                "internalType": "uint256",
                                "name": "sourceIndex",
                                "type": "uint256"
                            },
                            {
                                "internalType": "bytes",
                                "name": "returnData",
                                "type": "bytes"
                            }
                        ],
                        "internalType": "struct TwoHopSampler.HopInfo",
                        "name": "firstHop",
                        "type": "tuple"
                    },
                    {
                        "components": [
                            {
                                "internalType": "uint256",
                                "name": "sourceIndex",
                                "type": "uint256"
                            },
                            {
                                "internalType": "bytes",
                                "name": "returnData",
                                "type": "bytes"
                            }
                        ],
                        "internalType": "struct TwoHopSampler.HopInfo",
                        "name": "secondHop",
                        "type": "tuple"
                    },
                    {
                        "internalType": "uint256",
                        "name": "buyAmount",
                        "type": "uint256"
                    }
                ],
                "stateMutability": "nonpayable",
                "type": "function"
            }
        ],
        "devdoc": {
            "kind": "dev",
            "methods": {
                "batchCall(bytes[])": {
                    "details": "Call multiple public functions on this contract in a single transaction.",
                    "params": {
                        "callDatas": "ABI-encoded call data for each function call."
                    },
                    "returns": {
                        "callResults": "ABI-encoded results data for each call."
                    }
                },
                "getLimitOrderFillableMakerAssetAmounts((address,address,uint128,uint128,uint128,address,address,address,address,bytes32,uint64,uint256)[],(uint8,uint8,bytes32,bytes32)[],address)": {
                    "details": "Queries the fillable taker asset amounts of native orders.      Effectively ignores orders that have empty signatures or",
                    "params": {
                        "exchange": "The V4 exchange.",
                        "orderSignatures": "Signatures for each respective order in `orders`.",
                        "orders": "Native orders to query."
                    },
                    "returns": {
                        "orderFillableMakerAssetAmounts": "How much maker asset can be filled         by each order in `orders`."
                    }
                },
                "getLimitOrderFillableTakerAmount((address,address,uint128,uint128,uint128,address,address,address,address,bytes32,uint64,uint256),(uint8,uint8,bytes32,bytes32),address)": {
                    "details": "Get the fillable taker amount of an order, taking into account      order state, maker fees, and maker balances."
                },
                "getLimitOrderFillableTakerAssetAmounts((address,address,uint128,uint128,uint128,address,address,address,address,bytes32,uint64,uint256)[],(uint8,uint8,bytes32,bytes32)[],address)": {
                    "details": "Queries the fillable taker asset amounts of native orders.      Effectively ignores orders that have empty signatures or      maker/taker asset amounts (returning 0).",
                    "params": {
                        "exchange": "The V4 exchange.",
                        "orderSignatures": "Signatures for each respective order in `orders`.",
                        "orders": "Native limit orders to query."
                    },
                    "returns": {
                        "orderFillableTakerAssetAmounts": "How much taker asset can be filled         by each order in `orders`."
                    }
                },
                "sampleBuysFromBalancer(address,address,address,uint256[])": {
                    "details": "Sample buy quotes from Balancer.",
                    "params": {
                        "makerToken": "Address of the maker token (what to buy).",
                        "makerTokenAmounts": "Maker token buy amount for each sample.",
                        "poolAddress": "Address of the Balancer pool to query.",
                        "takerToken": "Address of the taker token (what to sell)."
                    },
                    "returns": {
                        "takerTokenAmounts": "Taker amounts sold at each maker token         amount."
                    }
                },
                "sampleBuysFromBalancerV2((bytes32,address),address,address,uint256[])": {
                    "details": "Sample buy quotes from Balancer V2.",
                    "params": {
                        "makerToken": "Address of the maker token (what to buy).",
                        "makerTokenAmounts": "Maker token buy amount for each sample.",
                        "poolInfo": "Struct with pool related data",
                        "takerToken": "Address of the taker token (what to sell)."
                    },
                    "returns": {
                        "takerTokenAmounts": "Taker amounts sold at each maker token         amount."
                    }
                },
                "sampleBuysFromBancor((address,address[][]),address,address,uint256[])": {
                    "details": "Sample buy quotes from Bancor. Unimplemented",
                    "params": {
                        "makerToken": "Address of the maker token (what to buy).",
                        "makerTokenAmounts": "Maker token buy amount for each sample.",
                        "opts": "BancorSamplerOpts The Bancor registry contract address and paths",
                        "takerToken": "Address of the taker token (what to sell)."
                    },
                    "returns": {
                        "bancorNetwork": "the Bancor Network address",
                        "path": "the selected conversion path from bancor",
                        "takerTokenAmounts": "Taker amounts sold at each maker token         amount."
                    }
                },
                "sampleBuysFromCurve((address,bytes4,bytes4),int128,int128,uint256[])": {
                    "details": "Sample buy quotes from Curve.",
                    "params": {
                        "curveInfo": "Curve information specific to this token pair.",
                        "fromTokenIdx": "Index of the taker token (what to sell).",
                        "makerTokenAmounts": "Maker token buy amount for each sample.",
                        "toTokenIdx": "Index of the maker token (what to buy)."
                    },
                    "returns": {
                        "takerTokenAmounts": "Taker amounts sold at each maker token         amount."
                    }
                },
                "sampleBuysFromDODO((address,address),address,address,uint256[])": {
                    "details": "Sample buy quotes from DODO.",
                    "params": {
                        "makerToken": "Address of the maker token (what to buy).",
                        "makerTokenAmounts": "Maker token sell amount for each sample.",
                        "opts": "DODOSamplerOpts DODO Registry and helper addresses",
                        "takerToken": "Address of the taker token (what to sell)."
                    },
                    "returns": {
                        "pool": "the DODO pool address",
                        "sellBase": "whether the bridge needs to sell the base token",
                        "takerTokenAmounts": "Taker amounts sold at each maker token         amount."
                    }
                },
                "sampleBuysFromDODOV2(address,uint256,address,address,uint256[])": {
                    "details": "Sample buy quotes from DODO.",
                    "params": {
                        "makerToken": "Address of the maker token (what to buy).",
                        "makerTokenAmounts": "Maker token sell amount for each sample.",
                        "offset": "offset index for the pool in the registry.",
                        "registry": "Address of the registry to look up.",
                        "takerToken": "Address of the taker token (what to sell)."
                    },
                    "returns": {
                        "pool": "the DODO pool address",
                        "sellBase": "whether the bridge needs to sell the base token",
                        "takerTokenAmounts": "Taker amounts sold at each maker token         amount."
                    }
                },
                "sampleBuysFromEth2Dai(address,address,address,uint256[])": {
                    "details": "Sample buy quotes from Eth2Dai/Oasis.",
                    "params": {
                        "makerToken": "Address of the maker token (what to buy).",
                        "router": "Address of the Eth2Dai/Oasis contract",
                        "takerToken": "Address of the taker token (what to sell).",
                        "takerTokenAmounts": "Maker token sell amount for each sample."
                    },
                    "returns": {
                        "takerTokenAmounts": "Taker amounts sold at each maker token         amount."
                    }
                },
                "sampleBuysFromKyberDmm(address,address[],uint256[])": {
                    "details": "Sample buy quotes from KyberDmm.",
                    "params": {
                        "makerTokenAmounts": "Maker token buy amount for each sample.",
                        "path": "Token route. Should be takerToken -> makerToken.",
                        "router": "Router to look up tokens and amounts"
                    },
                    "returns": {
                        "pools": "The pool addresses involved in the multi path trade",
                        "takerTokenAmounts": "Taker amounts sold at each maker token         amount."
                    }
                },
                "sampleBuysFromKyberNetwork((uint256,address,address,address,bytes),address,address,uint256[])": {
                    "details": "Sample buy quotes from Kyber.",
                    "params": {
                        "makerToken": "Address of the maker token (what to buy).",
                        "makerTokenAmounts": "Maker token buy amount for each sample.",
                        "opts": "KyberSamplerOpts The nth reserve",
                        "takerToken": "Address of the taker token (what to sell)."
                    },
                    "returns": {
                        "hint": "The hint for the selected reserve",
                        "reserveId": "The id of the reserve found at reserveOffset",
                        "takerTokenAmounts": "Taker amounts sold at each maker token amount."
                    }
                },
                "sampleBuysFromLido((address,address),address,address,uint256[])": {
                    "details": "Sample buy quotes from Lido.",
                    "params": {
                        "lidoInfo": "Info regarding a specific Lido deployment",
                        "makerToken": "Address of the maker token (what to buy).",
                        "makerTokenAmounts": "Maker token buy amount for each sample.",
                        "takerToken": "Address of the taker token (what to sell)."
                    },
                    "returns": {
                        "_0": "takerTokenAmounts Taker amounts sold at each maker token         amount."
                    }
                },
                "sampleBuysFromLiquidityProvider(address,address,address,uint256[])": {
                    "details": "Sample buy quotes from an arbitrary on-chain liquidity provider.",
                    "params": {
                        "makerToken": "Address of the maker token (what to buy).",
                        "makerTokenAmounts": "Maker token buy amount for each sample.",
                        "providerAddress": "Address of the liquidity provider.",
                        "takerToken": "Address of the taker token (what to sell)."
                    },
                    "returns": {
                        "takerTokenAmounts": "Taker amounts sold at each maker token         amount."
                    }
                },
                "sampleBuysFromMStable(address,address,address,uint256[])": {
                    "details": "Sample buy quotes from MStable contract",
                    "params": {
                        "makerToken": "Address of the maker token (what to buy).",
                        "makerTokenAmounts": "Maker token buy amount for each sample.",
                        "router": "Address of the mStable contract",
                        "takerToken": "Address of the taker token (what to sell)."
                    },
                    "returns": {
                        "takerTokenAmounts": "Taker amounts sold at each maker token         amount."
                    }
                },
                "sampleBuysFromMooniswap(address,address,address,uint256[])": {
                    "details": "Sample buy quotes from Mooniswap.",
                    "params": {
                        "makerToken": "Address of the maker token (what to buy).",
                        "makerTokenAmounts": "Maker token sell amount for each sample.",
                        "registry": "Address of the Mooniswap Registry.",
                        "takerToken": "Address of the taker token (what to sell)."
                    },
                    "returns": {
                        "pool": "The contract address for the pool",
                        "takerTokenAmounts": "Taker amounts sold at each maker token         amount."
                    }
                },
                "sampleBuysFromShell(address,address,address,uint256[])": {
                    "details": "Sample buy quotes from Shell pool contract",
                    "params": {
                        "makerToken": "Address of the maker token (what to buy).",
                        "makerTokenAmounts": "Maker token buy amount for each sample.",
                        "pool": "Address of the Shell pool contract",
                        "takerToken": "Address of the taker token (what to sell)."
                    },
                    "returns": {
                        "takerTokenAmounts": "Taker amounts sold at each maker token         amount."
                    }
                },
                "sampleBuysFromSmoothy((address,bytes4,bytes4),int128,int128,uint256[])": {
                    "details": "Sample buy quotes from Smoothy.",
                    "params": {
                        "fromTokenIdx": "Index of the taker token (what to sell).",
                        "makerTokenAmounts": "Maker token buy amount for each sample.",
                        "smoothyInfo": "Smoothy information specific to this token pair.",
                        "toTokenIdx": "Index of the maker token (what to buy)."
                    },
                    "returns": {
                        "takerTokenAmounts": "Taker amounts sold at each maker token         amount."
                    }
                },
                "sampleBuysFromUniswap(address,address,address,uint256[])": {
                    "details": "Sample buy quotes from Uniswap.",
                    "params": {
                        "makerToken": "Address of the maker token (what to buy).",
                        "makerTokenAmounts": "Maker token sell amount for each sample.",
                        "takerToken": "Address of the taker token (what to sell)."
                    },
                    "returns": {
                        "takerTokenAmounts": "Taker amounts sold at each maker token         amount."
                    }
                },
                "sampleBuysFromUniswapV2(address,address[],uint256[])": {
                    "details": "Sample buy quotes from UniswapV2.",
                    "params": {
                        "makerTokenAmounts": "Maker token buy amount for each sample.",
                        "path": "Token route. Should be takerToken -> makerToken.",
                        "router": "Router to look up tokens and amounts"
                    },
                    "returns": {
                        "takerTokenAmounts": "Taker amounts sold at each maker token         amount."
                    }
                },
                "sampleBuysFromUniswapV3(address,address[],uint256[])": {
                    "details": "Sample buy quotes from UniswapV3.",
                    "params": {
                        "makerTokenAmounts": "Maker token buy amount for each sample.",
                        "path": "Token route. Should be takerToken -> makerToken.",
                        "quoter": "UniswapV3 Quoter contract."
                    },
                    "returns": {
                        "takerTokenAmounts": "Taker amounts sold at each maker token         amount.",
                        "uniswapPaths": "The encoded uniswap path for each sample."
                    }
                },
                "sampleSellsFromBalancer(address,address,address,uint256[])": {
                    "details": "Sample sell quotes from Balancer.",
                    "params": {
                        "makerToken": "Address of the maker token (what to buy).",
                        "poolAddress": "Address of the Balancer pool to query.",
                        "takerToken": "Address of the taker token (what to sell).",
                        "takerTokenAmounts": "Taker token sell amount for each sample."
                    },
                    "returns": {
                        "makerTokenAmounts": "Maker amounts bought at each taker token         amount."
                    }
                },
                "sampleSellsFromBalancerV2((bytes32,address),address,address,uint256[])": {
                    "details": "Sample sell quotes from Balancer V2.",
                    "params": {
                        "makerToken": "Address of the maker token (what to buy).",
                        "poolInfo": "Struct with pool related data",
                        "takerToken": "Address of the taker token (what to sell).",
                        "takerTokenAmounts": "Taker token sell amount for each sample."
                    },
                    "returns": {
                        "makerTokenAmounts": "Maker amounts bought at each taker token         amount."
                    }
                },
                "sampleSellsFromBancor((address,address[][]),address,address,uint256[])": {
                    "details": "Sample sell quotes from Bancor.",
                    "params": {
                        "makerToken": "Address of the maker token (what to buy).",
                        "opts": "BancorSamplerOpts The Bancor registry contract address and paths",
                        "takerToken": "Address of the taker token (what to sell).",
                        "takerTokenAmounts": "Taker token sell amount for each sample."
                    },
                    "returns": {
                        "bancorNetwork": "the Bancor Network address",
                        "makerTokenAmounts": "Maker amounts bought at each taker token         amount.",
                        "path": "the selected conversion path from bancor"
                    }
                },
                "sampleSellsFromCurve((address,bytes4,bytes4),int128,int128,uint256[])": {
                    "details": "Sample sell quotes from Curve.",
                    "params": {
                        "curveInfo": "Curve information specific to this token pair.",
                        "fromTokenIdx": "Index of the taker token (what to sell).",
                        "takerTokenAmounts": "Taker token sell amount for each sample.",
                        "toTokenIdx": "Index of the maker token (what to buy)."
                    },
                    "returns": {
                        "makerTokenAmounts": "Maker amounts bought at each taker token         amount."
                    }
                },
                "sampleSellsFromDODO((address,address),address,address,uint256[])": {
                    "details": "Sample sell quotes from DODO.",
                    "params": {
                        "makerToken": "Address of the maker token (what to buy).",
                        "opts": "DODOSamplerOpts DODO Registry and helper addresses",
                        "takerToken": "Address of the taker token (what to sell).",
                        "takerTokenAmounts": "Taker token sell amount for each sample."
                    },
                    "returns": {
                        "makerTokenAmounts": "Maker amounts bought at each taker token         amount.",
                        "pool": "the DODO pool address",
                        "sellBase": "whether the bridge needs to sell the base token"
                    }
                },
                "sampleSellsFromDODOV2(address,uint256,address,address,uint256[])": {
                    "details": "Sample sell quotes from DODO V2.",
                    "params": {
                        "makerToken": "Address of the maker token (what to buy).",
                        "offset": "offset index for the pool in the registry.",
                        "registry": "Address of the registry to look up.",
                        "takerToken": "Address of the taker token (what to sell).",
                        "takerTokenAmounts": "Taker token sell amount for each sample."
                    },
                    "returns": {
                        "makerTokenAmounts": "Maker amounts bought at each taker token         amount.",
                        "pool": "the DODO pool address",
                        "sellBase": "whether the bridge needs to sell the base token"
                    }
                },
                "sampleSellsFromEth2Dai(address,address,address,uint256[])": {
                    "details": "Sample sell quotes from Eth2Dai/Oasis.",
                    "params": {
                        "makerToken": "Address of the maker token (what to buy).",
                        "router": "Address of the Eth2Dai/Oasis contract",
                        "takerToken": "Address of the taker token (what to sell).",
                        "takerTokenAmounts": "Taker token sell amount for each sample."
                    },
                    "returns": {
                        "makerTokenAmounts": "Maker amounts bought at each taker token         amount."
                    }
                },
                "sampleSellsFromKyberDmm(address,address[],uint256[])": {
                    "details": "Sample sell quotes from KyberDmm.",
                    "params": {
                        "path": "Token route. Should be takerToken -> makerToken",
                        "router": "Router to look up tokens and amounts",
                        "takerTokenAmounts": "Taker token sell amount for each sample."
                    },
                    "returns": {
                        "makerTokenAmounts": "Maker amounts bought at each taker token         amount.",
                        "pools": "The pool addresses involved in the multi path trade"
                    }
                },
                "sampleSellsFromKyberNetwork((uint256,address,address,address,bytes),address,address,uint256[])": {
                    "details": "Sample sell quotes from Kyber.",
                    "params": {
                        "makerToken": "Address of the maker token (what to buy).",
                        "opts": "KyberSamplerOpts The nth reserve",
                        "takerToken": "Address of the taker token (what to sell).",
                        "takerTokenAmounts": "Taker token sell amount for each sample."
                    },
                    "returns": {
                        "hint": "The hint for the selected reserve",
                        "makerTokenAmounts": "Maker amounts bought at each taker token amount.",
                        "reserveId": "The id of the reserve found at reserveOffset"
                    }
                },
                "sampleSellsFromLido((address,address),address,address,uint256[])": {
                    "details": "Sample sell quotes from Lido",
                    "params": {
                        "lidoInfo": "Info regarding a specific Lido deployment",
                        "makerToken": "Address of the maker token (what to buy).",
                        "takerToken": "Address of the taker token (what to sell).",
                        "takerTokenAmounts": "Taker token sell amount for each sample."
                    },
                    "returns": {
                        "_0": "makerTokenAmounts Maker amounts bought at each taker token         amount."
                    }
                },
                "sampleSellsFromLiquidityProvider(address,address,address,uint256[])": {
                    "details": "Sample sell quotes from an arbitrary on-chain liquidity provider.",
                    "params": {
                        "makerToken": "Address of the maker token (what to buy).",
                        "providerAddress": "Address of the liquidity provider.",
                        "takerToken": "Address of the taker token (what to sell).",
                        "takerTokenAmounts": "Taker token sell amount for each sample."
                    },
                    "returns": {
                        "makerTokenAmounts": "Maker amounts bought at each taker token         amount."
                    }
                },
                "sampleSellsFromMStable(address,address,address,uint256[])": {
                    "details": "Sample sell quotes from the mStable contract",
                    "params": {
                        "makerToken": "Address of the maker token (what to buy).",
                        "router": "Address of the mStable contract",
                        "takerToken": "Address of the taker token (what to sell).",
                        "takerTokenAmounts": "Taker token sell amount for each sample."
                    },
                    "returns": {
                        "makerTokenAmounts": "Maker amounts bought at each taker token         amount."
                    }
                },
                "sampleSellsFromMakerPsm((address,bytes32,address),address,address,uint256[])": {
                    "details": "Sample sell quotes from Maker PSM"
                },
                "sampleSellsFromMooniswap(address,address,address,uint256[])": {
                    "details": "Sample sell quotes from Mooniswap.",
                    "params": {
                        "makerToken": "Address of the maker token (what to buy).",
                        "registry": "Address of the Mooniswap Registry.",
                        "takerToken": "Address of the taker token (what to sell).",
                        "takerTokenAmounts": "Taker token sell amount for each sample."
                    },
                    "returns": {
                        "makerTokenAmounts": "Maker amounts bought at each taker token         amount.",
                        "pool": "The contract address for the pool"
                    }
                },
                "sampleSellsFromMultiBridge(address,address,address,address,uint256[])": {
                    "details": "Sample sell quotes from MultiBridge.",
                    "params": {
                        "intermediateToken": "The address of the intermediate token to        use in an indirect route.",
                        "makerToken": "Address of the maker token (what to buy).",
                        "multibridge": "Address of the MultiBridge contract.",
                        "takerToken": "Address of the taker token (what to sell).",
                        "takerTokenAmounts": "Taker token sell amount for each sample."
                    },
                    "returns": {
                        "makerTokenAmounts": "Maker amounts bought at each taker token         amount."
                    }
                },
                "sampleSellsFromShell(address,address,address,uint256[])": {
                    "details": "Sample sell quotes from the Shell pool contract",
                    "params": {
                        "makerToken": "Address of the maker token (what to buy).",
                        "pool": "Address of the Shell pool contract",
                        "takerToken": "Address of the taker token (what to sell).",
                        "takerTokenAmounts": "Taker token sell amount for each sample."
                    },
                    "returns": {
                        "makerTokenAmounts": "Maker amounts bought at each taker token         amount."
                    }
                },
                "sampleSellsFromSmoothy((address,bytes4,bytes4),int128,int128,uint256[])": {
                    "details": "Sample sell quotes from Smoothy.",
                    "params": {
                        "fromTokenIdx": "Index of the taker token (what to sell).",
                        "smoothyInfo": "Smoothy information specific to this token pair.",
                        "takerTokenAmounts": "Taker token sell amount for each sample.",
                        "toTokenIdx": "Index of the maker token (what to buy)."
                    },
                    "returns": {
                        "makerTokenAmounts": "Maker amounts bought at each taker token         amount."
                    }
                },
                "sampleSellsFromUniswap(address,address,address,uint256[])": {
                    "details": "Sample sell quotes from Uniswap.",
                    "params": {
                        "makerToken": "Address of the maker token (what to buy).",
                        "router": "Address of the Uniswap Router",
                        "takerToken": "Address of the taker token (what to sell).",
                        "takerTokenAmounts": "Taker token sell amount for each sample."
                    },
                    "returns": {
                        "makerTokenAmounts": "Maker amounts bought at each taker token         amount."
                    }
                },
                "sampleSellsFromUniswapV2(address,address[],uint256[])": {
                    "details": "Sample sell quotes from UniswapV2.",
                    "params": {
                        "path": "Token route. Should be takerToken -> makerToken",
                        "router": "Router to look up tokens and amounts",
                        "takerTokenAmounts": "Taker token sell amount for each sample."
                    },
                    "returns": {
                        "makerTokenAmounts": "Maker amounts bought at each taker token         amount."
                    }
                },
                "sampleSellsFromUniswapV3(address,address[],uint256[])": {
                    "details": "Sample sell quotes from UniswapV3.",
                    "params": {
                        "path": "Token route. Should be takerToken -> makerToken",
                        "quoter": "UniswapV3 Quoter contract.",
                        "takerTokenAmounts": "Taker token sell amount for each sample."
                    },
                    "returns": {
                        "makerTokenAmounts": "Maker amounts bought at each taker token         amount.",
                        "uniswapPaths": "The encoded uniswap path for each sample."
                    }
                }
            },
            "version": 1
        },
        "evm": {
            "bytecode": {
                "linkReferences": {},
                "object": "0x60a06040527feeeeeeeeeeeeeeeeeeeeeeeeeeeeeeeeeeeeeeee0000000000000000000000006080523480156200003557600080fd5b5060805160601c61a9326200005e600039806130a45280614ccc528061581d525061a9326000f3fe608060405234801561001057600080fd5b50600436106103425760003560e01c80638b6d7b44116101b8578063bd71ecf611610104578063ddd5aa28116100a2578063f1ed7fa41161007c578063f1ed7fa4146107ad578063f3868e9c1461048d578063f5a4994d146107c0578063fc9fe41b146107d357610342565b8063ddd5aa2814610774578063e78ac04514610787578063e8e4af091461079a57610342565b8063c8c74a37116100de578063c8c74a3714610728578063c94706d81461073b578063cc1621c91461074e578063d9bca3721461076157610342565b8063bd71ecf6146106ef578063c25c413814610702578063c83190841461071557610342565b80639ea0ff1311610171578063a75e744b1161014b578063a75e744b14610695578063ab000276146106a8578063adc636bf146106bb578063b90cd2fb146106dc57610342565b80639ea0ff131461065c578063a0295b8b1461066f578063a46984171461068257610342565b80638b6d7b44146105bf5780638e5a0e07146105d25780639209483b146105f457806398777748146106075780639bf3ee351461061a5780639e3f05c31461063a57610342565b806336052391116102925780635aae4e531161023057806368be3cf21161020a57806368be3cf214610566578063706e2f9b1461058657806374c9d255146105995780637f7f4f13146105ac57610342565b80635aae4e531461052d5780635d5b674f1461054057806366a1ac6b1461055357610342565b8063494569db1161026c578063494569db146104c65780634edfb5b2146104d95780635505000a146104f957806357494b1d1461051a57610342565b8063360523911461048d5780633c883dba146104a057806340bc03ae146104b357610342565b8063252322b3116102ff5780632aa64319116102d95780632aa64319146104325780632d753aa41461045457806330d6570d146104675780633105fec11461047a57610342565b8063252322b3146103f9578063281e34321461040c57806329fa4aa01461041f57610342565b806301cb0ef7146103475780630496d5dc146103705780631022742b14610391578063149dab0e146103a457806316279055146103c65780632339078f146103e6575b600080fd5b61035a6103553660046197f7565b6107e6565b604051610367919061a2c9565b60405180910390f35b61038361037e366004619006565b610981565b60405161036792919061a1a5565b61035a61039f366004619439565b610b27565b6103b76103b23660046196b6565b610c9a565b6040516103679392919061a071565b6103d96103d4366004618ce0565b610dfa565b604051610367919061a2dc565b61035a6103f4366004619637565b610e04565b61035a610407366004618f44565b61102b565b61035a61041a366004619a31565b611201565b61035a61042d36600461976f565b611456565b6104456104403660046197c8565b6114c5565b6040516103679392919061a2e7565b61035a610462366004618ebf565b6117a2565b61035a610475366004618f44565b61192b565b61035a610488366004619006565b611a9f565b61035a61049b3660046197c8565b611c23565b61035a6104ae3660046197f7565b611cb5565b61035a6104c136600461976f565b611e44565b6103836104d4366004619006565b611fc5565b6104ec6104e7366004619993565b612151565b604051610367919061a335565b61050c6105073660046195a0565b6123ce565b60405161036792919061a1ec565b61035a610528366004618f44565b612619565b61050c61053b3660046195a0565b612b90565b61035a61054e366004618f44565b612dd5565b61035a610561366004619439565b612e3b565b610579610574366004619213565b612ef0565b604051610367919061a254565b61035a6105943660046192ea565b613051565b6103b76105a73660046196b6565b613143565b61035a6105ba366004619a31565b613152565b61035a6105cd36600461976f565b61339f565b6105e56105e0366004619281565b613702565b6040516103679392919061a5d1565b61035a61060236600461976f565b61391b565b61035a610615366004618f44565b613b1b565b61062d6106283660046199f1565b614054565b604051610367919061a313565b61064d6106483660046198dc565b61419b565b6040516103679392919061a31c565b61062d61066a366004618fb6565b6142c1565b61035a61067d366004619637565b6144d7565b61035a610690366004618f44565b6146d3565b6104456106a3366004619078565b614828565b61035a6106b6366004618f44565b614965565b6106ce6106c9366004618f44565b614ac3565b60405161036792919061a383565b61035a6106ea366004618f44565b614c13565b61035a6106fd36600461931c565b614c79565b61035a610710366004618f44565b614d75565b61035a610723366004618f44565b614ddb565b61035a610736366004619006565b614f98565b61035a610749366004618f44565b615104565b61064d61075c3660046198dc565b615262565b61044561076f366004619078565b615448565b6104456107823660046197c8565b615537565b61035a610795366004619360565b6157ca565b61035a6107a8366004618f44565b6158bf565b61062d6107bb36600461994c565b6159f2565b6106ce6107ce366004618f44565b615b91565b6105e56107e1366004619281565b615c7d565b608081015151606090806001600160401b038111801561080557600080fd5b5060405190808252806020026020018201604052801561082f578160200160208202803683370190505b50915060005b8181101561097a5783600001516001600160a01b031663846ee14b620249f08660800151848151811061086457fe5b60200260200101518760200151886040015189606001516040518663ffffffff1660e01b815260040161089a949392919061a70e565b60006040518083038187803b1580156108b257600080fd5b5086fa935050505080156108e857506040513d6000823e601f3d908101601f191682016040526108e59190810190619508565b60015b610922573d808015610916576040519150601f19603f3d011682016040523d82523d6000602084013e61091b565b606091505b505061097a565b8060008151811061092f57fe5b602002602001015184838151811061094357fe5b60200260200101818152505083828151811061095b57fe5b602002602001015160001415610971575061097a565b50600101610835565b5050919050565b80516060908190806001600160401b038111801561099e57600080fd5b506040519080825280602002602001820160405280156109c8578160200160208202803683370190505b5091506109d58686615e92565b92508251600014156109e75750610b1f565b60005b81811015610b1c57866001600160a01b031663a8312b1d620249f0878481518110610a1157fe5b6020026020010151878a6040518563ffffffff1660e01b8152600401610a399392919061a6e3565b60006040518083038187803b158015610a5157600080fd5b5086fa93505050508015610a8757506040513d6000823e601f3d908101601f19168201604052610a849190810190619508565b60015b610ac1573d808015610ab5576040519150601f19603f3d011682016040523d82523d6000602084013e610aba565b606091505b5050610b1c565b80600188510381518110610ad157fe5b6020026020010151848381518110610ae557fe5b602002602001018181525050838281518110610afd57fe5b602002602001015160001415610b135750610b1c565b506001016109ea565b50505b935093915050565b606083516001600160401b0381118015610b4057600080fd5b50604051908082528060200260200182016040528015610b6a578160200160208202803683370190505b50905060005b84518114610c9257306001600160a01b0316639bf3ee3562030d40878481518110610b9757fe5b6020026020010151878581518110610bab57fe5b6020026020010151876040518563ffffffff1660e01b8152600401610bd29392919061a693565b60206040518083038187803b158015610bea57600080fd5b5086fa93505050508015610c1b575060408051601f3d908101601f19168201909252610c1891810190619556565b60015b610c6f573d808015610c49576040519150601f19603f3d011682016040523d82523d6000602084013e610c4e565b606091505b506000838381518110610c5d57fe5b60200260200101818152505050610c8a565b80838381518110610c7c57fe5b602002602001018181525050505b600101610b70565b509392505050565b600060608086602001515160001415610cb257610df0565b610cbe87878787616181565b855191945092506001600160401b0381118015610cda57600080fd5b50604051908082528060200260200182016040528015610d04578160200160208202803683370190505b50905060005b8151811015610dee57836001600160a01b0316637f9c0ecd620493e085888581518110610d3357fe5b60200260200101516040518463ffffffff1660e01b8152600401610d5892919061a1ca565b60206040518083038187803b158015610d7057600080fd5b5086fa93505050508015610da1575060408051601f3d908101601f19168201909252610d9e91810190619556565b60015b610daa57610dee565b80838381518110610db757fe5b602002602001018181525050828281518110610dcf57fe5b602002602001015160001415610de55750610dee565b50600101610d0a565b505b9450945094915050565b803b15155b919050565b6060610e1083856163b3565b602085015160408051600280825260608281019093528160200160208202803683370190505090508581600081518110610e4657fe5b60200260200101906001600160a01b031690816001600160a01b0316815250508481600181518110610e7457fe5b6001600160a01b03909216602092830291909101909101528351806001600160401b0381118015610ea457600080fd5b50604051908082528060200260200182016040528015610ece578160200160208202803683370190505b509350610ed9618524565b610ee16163e9565b905060005b8281101561101e576060610f0d8b898481518110610f0057fe5b6020026020010151616418565b604051637c26833760e11b81529091506001600160a01b0387169063f84d066e90610f439060009085908a90899060040161a3d6565b600060405180830381600087803b158015610f5d57600080fd5b505af1925050508015610f9257506040513d6000823e601f3d908101601f19168201604052610f8f91908101906193b6565b60015b610fcd573d808015610fc0576040519150601f19603f3d011682016040523d82523d6000602084013e610fc5565b606091505b50505061101e565b600081600181518110610fdc57fe5b602002602001015160001902905060008113610ffa5750505061101e565b8089858151811061100757fe5b602002602001018181525050505050600101610ee6565b5050505050949350505050565b606061103783856163b3565b8151806001600160401b038111801561104f57600080fd5b50604051908082528060200260200182016040528015611079578160200160208202803683370190505b50915060006001600160a01b0386161561109c5761109787876164aa565b61109f565b60005b905060006001600160a01b038616156110c1576110bc88876164aa565b6110c4565b60005b905060005b838110156111f55760016001600160a01b0388166111275761110684632640f62c60e01b8985815181106110f957fe5b6020026020010151616529565b87848151811061111257fe5b602002602001018193508281525050506111c1565b6001600160a01b03891661114d57611106836359e9486260e01b8985815181106110f957fe5b6000611167846359e9486260e01b8a86815181106110f957fe5b9250905080156111a457611183856309903d8b60e21b83616529565b88858151811061118f57fe5b602002602001018194508281525050506111bf565b60008784815181106111b257fe5b6020026020010181815250505b505b8015806111e157508582815181106111d557fe5b60200260200101516000145b156111ec57506111f5565b506001016110c9565b50505050949350505050565b606061120d83856163b3565b6000856000015190506000816001600160a01b03166336569e776040518163ffffffff1660e01b815260040160206040518083038186803b15801561125157600080fd5b505afa158015611265573d6000803e3d6000fd5b505050506040513d601f19601f820116820180604052508101906112899190618cfc565b8451909150806001600160401b03811180156112a457600080fd5b506040519080825280602002602001820160405280156112ce578160200160208202803683370190505b509350826001600160a01b031663f4b9fa756040518163ffffffff1660e01b815260040160206040518083038186803b15801561130a57600080fd5b505afa15801561131e573d6000803e3d6000fd5b505050506040513d601f19601f820116820180604052508101906113429190618cfc565b6001600160a01b0316866001600160a01b0316141580156113e55750826001600160a01b031663f4b9fa756040518163ffffffff1660e01b815260040160206040518083038186803b15801561139757600080fd5b505afa1580156113ab573d6000803e3d6000fd5b505050506040513d601f19601f820116820180604052508101906113cf9190618cfc565b6001600160a01b0316876001600160a01b031614155b156113f25750505061144e565b60005b818110156111f55760006114208a898b8a868151811061141157fe5b6020026020010151898961660c565b90508061142d57506111f5565b8086838151811061143a57fe5b6020908102919091010152506001016113f5565b949350505050565b6040805160608181019092526114bc908061147586896080840161a482565b6040516020818303038152906040528152602001868860405160200161149c92919061a482565b60405160208183030381529060405281526020016168cd81525083616a00565b95945050505050565b60008060606114d485876163b3565b8351806001600160401b03811180156114ec57600080fd5b50604051908082528060200260200182016040528015611516578160200160208202803683370190505b508851604051630939d86360e11b81529193506001600160a01b031690631273b0c690611549908a908a90600401619f0d565b60206040518083038186803b15801561156157600080fd5b505afa158015611575573d6000803e3d6000fd5b505050506040513d601f19601f820116820180604052508101906115999190618cfc565b925060006001600160a01b038416156115b757506001935086611656565b8851604051630939d86360e11b81526001600160a01b0390911690631273b0c6906115e8908a908c90600401619f0d565b60206040518083038186803b15801561160057600080fd5b505afa158015611614573d6000803e3d6000fd5b505050506040513d601f19601f820116820180604052508101906116389190618cfc565b93506001600160a01b03841661164f575050610df0565b5060009350855b836001600160a01b031663dd58b41c6040518163ffffffff1660e01b815260040160206040518083038186803b15801561168f57600080fd5b505afa1580156116a3573d6000803e3d6000fd5b505050506040513d601f19601f820116820180604052508101906116c7919061953a565b6116d2575050610df0565b60005b8281101561179557600061174f8a87858e602001516040516020016116fd9493929190619f27565b6040516020818303038152906040528a88868f602001516040516020016117279493929190619f27565b6040516020818303038152906040528a858151811061174257fe5b6020026020010151616bfd565b90508085838151811061175e57fe5b60200260200101818152505084828151811061177657fe5b60200260200101516000141561178c5750611795565b506001016116d5565b5050509450945094915050565b8051606090806001600160401b03811180156117bd57600080fd5b506040519080825280602002602001820160405280156117e7578160200160208202803683370190505b5091506001600160a01b0387166117fe57506114bc565b60005b818110156119205760006060896001600160a01b031662061a80636e79e13360e01b8b8b8b8b898151811061183257fe5b602002602001015160405160240161184d9493929190619f86565b60408051601f198184030181529181526020820180516001600160e01b03166001600160e01b031990941693909317909252905161188b9190619ec4565b6000604051808303818686fa925050503d80600081146118c7576040519150601f19603f3d011682016040523d82523d6000602084013e6118cc565b606091505b5091509150600082156118f057818060200190518101906118ed9190619556565b90505b806118fd57505050611920565b8086858151811061190a57fe5b6020908102919091010152505050600101611801565b505095945050505050565b606061193783856163b3565b8151806001600160401b038111801561194f57600080fd5b50604051908082528060200260200182016040528015611979578160200160208202803683370190505b50915060005b81811015611a9557866001600160a01b03166372ea9076620c350088888886815181106119a857fe5b60200260200101516040518563ffffffff1660e01b81526004016119ce9392919061a008565b60206040518083038187803b1580156119e657600080fd5b5086fa93505050508015611a17575060408051601f3d908101601f19168201909252611a1491810190619556565b60015b611a51573d808015611a45576040519150601f19603f3d011682016040523d82523d6000602084013e611a4a565b606091505b5050611a95565b80848381518110611a5e57fe5b602002602001018181525050838281518110611a7657fe5b602002602001015160001415611a8c5750611a95565b5060010161197f565b5050949350505050565b8051606090806001600160401b0381118015611aba57600080fd5b50604051908082528060200260200182016040528015611ae4578160200160208202803683370190505b50915060005b81811015611c1a57856001600160a01b031663d06ca61f620249f0868481518110611b1157fe5b6020026020010151886040518463ffffffff1660e01b8152600401611b3792919061a6ca565b60006040518083038187803b158015611b4f57600080fd5b5086fa93505050508015611b8557506040513d6000823e601f3d908101601f19168201604052611b829190810190619508565b60015b611bbf573d808015611bb3576040519150601f19603f3d011682016040523d82523d6000602084013e611bb8565b606091505b5050611c1a565b80600187510381518110611bcf57fe5b6020026020010151848381518110611be357fe5b602002602001018181525050838281518110611bfb57fe5b602002602001015160001415611c115750611c1a565b50600101611aea565b50509392505050565b6060611c2f83856163b3565b84602001516001600160a01b0316846001600160a01b0316141580611c61575084516001600160a01b03848116911614155b15610c925781516060816001600160401b0381118015611c8057600080fd5b50604051908082528060200260200182016040528015611caa578160200160208202803683370190505b50925061144e915050565b608081015151606090806001600160401b0381118015611cd457600080fd5b50604051908082528060200260200182016040528015611cfe578160200160208202803683370190505b50915060005b8181101561097a5783600001516001600160a01b0316633bbc8a1e620249f086608001518481518110611d3357fe5b60200260200101518760200151886040015189606001516040518663ffffffff1660e01b8152600401611d69949392919061a70e565b60006040518083038187803b158015611d8157600080fd5b5086fa93505050508015611db757506040513d6000823e601f3d908101601f19168201604052611db49190810190619508565b60015b611de5573d808015610916576040519150601f19603f3d011682016040523d82523d6000602084013e61091b565b8060018660200151510381518110611df957fe5b6020026020010151848381518110611e0d57fe5b602002602001018181525050838281518110611e2557fe5b602002602001015160001415611e3b575061097a565b50600101611d04565b8051606090806001600160401b0381118015611e5f57600080fd5b50604051908082528060200260200182016040528015611e89578160200160208202803683370190505b50915060005b81811015611a95576000606088600001516001600160a01b0316621e84808a602001518a8a8a8881518110611ec057fe5b6020026020010151604051602401611eda9392919061a464565b60408051601f198184030181529181526020820180516001600160e01b03166001600160e01b0319909416939093179092529051611f189190619ec4565b6000604051808303818686fa925050503d8060008114611f54576040519150601f19603f3d011682016040523d82523d6000602084013e611f59565b606091505b509150915060008215611f7d5781806020019051810190611f7a9190619556565b90505b80868581518110611f8a57fe5b602002602001018181525050858481518110611fa257fe5b602002602001015160001415611fba57505050611a95565b505050600101611e8f565b80516060908190806001600160401b0381118015611fe257600080fd5b5060405190808252806020026020018201604052801561200c578160200160208202803683370190505b5091506120198686615e92565b925082516000141561202b5750610b1f565b60005b81811015610b1c57866001600160a01b0316639e269b68620249f087848151811061205557fe5b6020026020010151878a6040518563ffffffff1660e01b815260040161207d9392919061a6e3565b60006040518083038187803b15801561209557600080fd5b5086fa935050505080156120cb57506040513d6000823e601f3d908101601f191682016040526120c89190810190619508565b60015b6120f9573d808015610ab5576040519150601f19603f3d011682016040523d82523d6000602084013e610aba565b8060008151811061210657fe5b602002602001015184838151811061211a57fe5b60200260200101818152505083828151811061213257fe5b6020026020010151600014156121485750610b1c565b5060010161202e565b6020848101516040805160018082528183019092526060938492908281019080368337019050509050858160008151811061218857fe5b6020908102919091010152606060006040519080825280602002602001820160405280156121c0578160200160208202803683370190505b50905087606001516001600160a01b0316866001600160a01b031614156122b1576040516381efcbdd60e01b81526001600160a01b038416906381efcbdd906207a120906122199089906001908890889060040161a0a7565b60006040518083038187803b15801561223157600080fd5b5086fa9350505050801561226757506040513d6000823e601f3d908101601f19168201604052612264919081019061956e565b60015b6122a1573d808015612295576040519150601f19603f3d011682016040523d82523d6000602084013e61229a565b606091505b50506122ac565b935061144e92505050565b6123c3565b87606001516001600160a01b0316856001600160a01b03161415612307576040516361e597f960e01b81526001600160a01b038416906361e597f9906207a12090612219908a906001908890889060040161a0a7565b6040516302b9a6cd60e11b81526001600160a01b038416906305734d9a906207a12090612347908a90600190889088908d9084908490849060040161a0ea565b60006040518083038187803b15801561235f57600080fd5b5086fa9350505050801561239557506040513d6000823e601f3d908101601f19168201604052612392919081019061956e565b60015b6122a1573d80801561101e576040519150601f19603f3d011682016040523d82523d6000602084013e61101e565b505050949350505050565b606080606061244f866001600160a01b031663c45a01556040518163ffffffff1660e01b815260040160206040518083038186803b15801561240f57600080fd5b505afa158015612423573d6000803e3d6000fd5b505050506040513d601f19601f820116820180604052508101906124479190618cfc565b866000616d36565b905083516001600160401b038111801561246857600080fd5b50604051908082528060200260200182016040528015612492578160200160208202803683370190505b50915083516001600160401b03811180156124ac57600080fd5b506040519080825280602002602001820160405280156124e057816020015b60608152602001906001900390816124cb5790505b50925060005b8451811015610b1c5760606000805b84518110156125d157606061251d8a87848151811061251057fe5b60200260200101516171cc565b90508a6001600160a01b031663cdca1753620493e0838c898151811061253f57fe5b60200260200101516040518463ffffffff1660e01b815260040161256492919061a348565b602060405180830381600088803b15801561257e57600080fd5b5087f1935050505080156125af575060408051601f3d908101601f191682019092526125ac91810190619556565b60015b6125b8576125c8565b8084116125c6578093508194505b505b506001016124f5565b50806125de575050610b1c565b808584815181106125eb57fe5b6020026020010181815250508186848151811061260457fe5b602090810291909101015250506001016124e6565b80516060908590806001600160401b038111801561263657600080fd5b50604051908082528060200260200182016040528015612660578160200160208202803683370190505b50604051630bcded8960e21b81529093506001600160a01b03831690632f37b62490612690908990600401619ee0565b60206040518083038186803b1580156126a857600080fd5b505afa1580156126bc573d6000803e3d6000fd5b505050506040513d601f19601f820116820180604052508101906126e0919061953a565b15806127655750604051630bcded8960e21b81526001600160a01b03831690632f37b62490612713908890600401619ee0565b60206040518083038186803b15801561272b57600080fd5b505afa15801561273f573d6000803e3d6000fd5b505050506040513d601f19601f82011682018060405250810190612763919061953a565b155b1561277157505061144e565b61277961854b565b60405163f8b2cb4f60e01b81526001600160a01b0384169063f8b2cb4f906127a5908a90600401619ee0565b60206040518083038186803b1580156127bd57600080fd5b505afa1580156127d1573d6000803e3d6000fd5b505050506040513d601f19601f820116820180604052508101906127f59190619556565b815260405163f8b2cb4f60e01b81526001600160a01b0384169063f8b2cb4f90612823908990600401619ee0565b60206040518083038186803b15801561283b57600080fd5b505afa15801561284f573d6000803e3d6000fd5b505050506040513d601f19601f820116820180604052508101906128739190619556565b6020820152604051634a46c67360e11b81526001600160a01b0384169063948d8ce6906128a4908a90600401619ee0565b60206040518083038186803b1580156128bc57600080fd5b505afa1580156128d0573d6000803e3d6000fd5b505050506040513d601f19601f820116820180604052508101906128f49190619556565b60408083019190915251634a46c67360e11b81526001600160a01b0384169063948d8ce690612927908990600401619ee0565b60206040518083038186803b15801561293f57600080fd5b505afa158015612953573d6000803e3d6000fd5b505050506040513d601f19601f820116820180604052508101906129779190619556565b816060018181525050826001600160a01b031663d4cadf686040518163ffffffff1660e01b815260040160206040518083038186803b1580156129b957600080fd5b505afa1580156129cd573d6000803e3d6000fd5b505050506040513d601f19601f820116820180604052508101906129f19190619556565b608082015260005b828110156111f557612a2482602001516003670de0b6b3a764000081612a1b57fe5b04600101617327565b868281518110612a3057fe5b60200260200101511115612a43576111f5565b836001600160a01b031663f8d6aed4620493e084600001518560400151866020015187606001518c8881518110612a7657fe5b602002602001015189608001516040518863ffffffff1660e01b8152600401612aa49695949392919061a787565b60206040518083038187803b158015612abc57600080fd5b5086fa93505050508015612aed575060408051601f3d908101601f19168201909252612aea91810190619556565b60015b612b27573d808015612b1b576040519150601f19603f3d011682016040523d82523d6000602084013e612b20565b606091505b50506111f5565b8251612b3f906002670de0b6b3a76400005b04617327565b811115612b4c57506111f5565b80868381518110612b5957fe5b602002602001018181525050858281518110612b7157fe5b602002602001015160001415612b8757506111f5565b506001016129f9565b6060806060612bd1866001600160a01b031663c45a01556040518163ffffffff1660e01b815260040160206040518083038186803b15801561240f57600080fd5b90506060612bde86617384565b905084516001600160401b0381118015612bf757600080fd5b50604051908082528060200260200182016040528015612c21578160200160208202803683370190505b50925084516001600160401b0381118015612c3b57600080fd5b50604051908082528060200260200182016040528015612c6f57816020015b6060815260200190600190039081612c5a5790505b50935060005b8551811015612dca5760606000805b8551811015612d82576060612cb486612caf898581518110612ca257fe5b602002602001015161741c565b6171cc565b90508b6001600160a01b0316632f80bb1d620493e0838d8981518110612cd657fe5b60200260200101516040518463ffffffff1660e01b8152600401612cfb92919061a348565b602060405180830381600088803b158015612d1557600080fd5b5087f193505050508015612d46575060408051601f3d908101601f19168201909252612d4391810190619556565b60015b612d4f57612d79565b831580612d5c5750808410155b15612d7757809350612d748c89858151811061251057fe5b94505b505b50600101612c84565b5080612d8f575050612dca565b80868481518110612d9c57fe5b60200260200101818152505081878481518110612db557fe5b60209081029190910101525050600101612c75565b505050935093915050565b6040805160608181019092526114bc9080612df4868960808401619f0d565b60405160208183030381529060405281526020018688604051602001612e1b929190619f0d565b60405160208183030381529060405281526020016174b481525083616a00565b6060612e48848484610b27565b905060005b8451811015610c9257818181518110612e6257fe5b6020026020010151600014612ee857612ecf828281518110612e8057fe5b6020026020010151868381518110612e9457fe5b6020026020010151606001516001600160801b0316878481518110612eb557fe5b6020026020010151604001516001600160801b03166175c8565b828281518110612edb57fe5b6020026020010181815250505b600101612e4d565b6060816001600160401b0381118015612f0857600080fd5b50604051908082528060200260200182016040528015612f4257816020015b612f2f61857a565b815260200190600190039081612f275790505b50905060005b80831461304a576001828281518110612f5d57fe5b602090810291909101810151911515910152838382818110612f7b57fe5b9050602002810190612f8d919061a7af565b15159050612f9a57613042565b30848483818110612fa757fe5b9050602002810190612fb9919061a7af565b604051612fc7929190619eb4565b6000604051808303816000865af19150503d8060008114613004576040519150601f19603f3d011682016040523d82523d6000602084013e613009565b606091505b5083838151811061301657fe5b602002602001015160200184848151811061302d57fe5b60209081029190910101519190915290151590525b600101612f48565b5092915050565b606081516001600160401b038111801561306a57600080fd5b50604051908082528060200260200182016040528015613094578160200160208202803683370190505b50905060005b8251811461313d577f00000000000000000000000000000000000000000000000000000000000000006001600160a01b03168382815181106130d857fe5b60200260200101516001600160a01b031614613118576131138382815181106130fd57fe5b60200260200101516001600160a01b03166175ec565b61311b565b60125b60ff1682828151811061312a57fe5b602090810291909101015260010161309a565b50919050565b60006060809450945094915050565b606061315e83856163b3565b6000856000015190506000816001600160a01b03166336569e776040518163ffffffff1660e01b815260040160206040518083038186803b1580156131a257600080fd5b505afa1580156131b6573d6000803e3d6000fd5b505050506040513d601f19601f820116820180604052508101906131da9190618cfc565b8451909150806001600160401b03811180156131f557600080fd5b5060405190808252806020026020018201604052801561321f578160200160208202803683370190505b509350826001600160a01b031663f4b9fa756040518163ffffffff1660e01b815260040160206040518083038186803b15801561325b57600080fd5b505afa15801561326f573d6000803e3d6000fd5b505050506040513d601f19601f820116820180604052508101906132939190618cfc565b6001600160a01b0316866001600160a01b0316141580156133365750826001600160a01b031663f4b9fa756040518163ffffffff1660e01b815260040160206040518083038186803b1580156132e857600080fd5b505afa1580156132fc573d6000803e3d6000fd5b505050506040513d601f19601f820116820180604052508101906133209190618cfc565b6001600160a01b0316876001600160a01b031614155b156133435750505061144e565b60005b818110156111f55760006133718a898b8a868151811061336257fe5b6020026020010151898961768e565b90508061337e57506111f5565b8086838151811061338b57fe5b602090810291909101015250600101613346565b6060600085600001516001600160a01b031663bbd7f25585600f0b6040518263ffffffff1660e01b81526004016133d6919061a313565b60206040518083038186803b1580156133ee57600080fd5b505afa158015613402573d6000803e3d6000fd5b505050506040513d601f19601f820116820180604052508101906134269190619556565b8651604051631e01043960e01b81526001600160a01b0390911690631e0104399061345990600f89900b9060040161a313565b60206040518083038186803b15801561347157600080fd5b505afa158015613485573d6000803e3d6000fd5b505050506040513d601f19601f820116820180604052508101906134a99190619556565b039050600086600001516001600160a01b031663c582951486600f0b6040518263ffffffff1660e01b81526004016134e1919061a313565b60806040518083038186803b1580156134f957600080fd5b505afa15801561350d573d6000803e3d6000fd5b505050506040513d601f19601f820116820180604052508101906135319190619b6b565b935050505080601203600a0a828161354557fe5b85519190049250806001600160401b038111801561356257600080fd5b5060405190808252806020026020018201604052801561358c578160200160208202803683370190505b50935060005b818110156111f557600060608a600001516001600160a01b0316620927c08c602001518c8c8c88815181106135c357fe5b60200260200101516040516024016135dd9392919061a464565b60408051601f198184030181529181526020820180516001600160e01b03166001600160e01b031990941693909317909252905161361b9190619ec4565b6000604051808303818686fa925050503d8060008114613657576040519150601f19603f3d011682016040523d82523d6000602084013e61365c565b606091505b509150915060008215613680578180602001905181019061367d9190619556565b90505b8681106136ba57835b858110156136b1578789828151811061369e57fe5b6020908102919091010152600101613689565b505050506111f5565b808885815181106136c757fe5b6020026020010181815250508784815181106136df57fe5b6020026020010151600014156136f7575050506111f5565b505050600101613592565b61370a618592565b613712618592565b600080805b875181146138175761375e602089838151811061373057fe5b60200260200101515103878a848151811061374757fe5b60200260200101516179209092919063ffffffff16565b60006060306001600160a01b03168a848151811061377857fe5b602002602001015160405161378d9190619ec4565b6000604051808303816000865af19150503d80600081146137ca576040519150601f19603f3d011682016040523d82523d6000602084013e6137cf565b606091505b5091509150811561380d5760006137f360208351038361793090919063ffffffff16565b90508481111561380b57838852602088018290529350835b505b5050600101613717565b50806138235750613912565b60005b8651811461390f57613856602088838151811061383f57fe5b602002602001015151038389848151811061374757fe5b60006060306001600160a01b031689848151811061387057fe5b60200260200101516040516138859190619ec4565b6000604051808303816000865af19150503d80600081146138c2576040519150601f19603f3d011682016040523d82523d6000602084013e6138c7565b606091505b509150915081156139055760006138eb60208351038361793090919063ffffffff16565b90508581111561390357838752602087018290529450845b505b5050600101613826565b50505b93509350939050565b60408401516060906001600160e01b03191661399d576040805160608101909152613996908061394f86896080840161a482565b6040516020818303038152906040528152602001868860405160200161397692919061a482565b604051602081830303815290604052815260200161793c81525083616a00565b905061144e565b8151806001600160401b03811180156139b557600080fd5b506040519080825280602002602001820160405280156139df578160200160208202803683370190505b50915060005b81811015611a95576000606088600001516001600160a01b0316621e84808a604001518a8a8a8881518110613a1657fe5b6020026020010151604051602401613a309392919061a464565b60408051601f198184030181529181526020820180516001600160e01b03166001600160e01b0319909416939093179092529051613a6e9190619ec4565b6000604051808303818686fa925050503d8060008114613aaa576040519150601f19603f3d011682016040523d82523d6000602084013e613aaf565b606091505b509150915060008215613ad35781806020019051810190613ad09190619556565b90505b80868581518110613ae057fe5b602002602001018181525050858481518110613af857fe5b602002602001015160001415613b1057505050611a95565b5050506001016139e5565b80516060908590806001600160401b0381118015613b3857600080fd5b50604051908082528060200260200182016040528015613b62578160200160208202803683370190505b50604051630bcded8960e21b81529093506001600160a01b03831690632f37b62490613b92908990600401619ee0565b60206040518083038186803b158015613baa57600080fd5b505afa158015613bbe573d6000803e3d6000fd5b505050506040513d601f19601f82011682018060405250810190613be2919061953a565b1580613c675750604051630bcded8960e21b81526001600160a01b03831690632f37b62490613c15908890600401619ee0565b60206040518083038186803b158015613c2d57600080fd5b505afa158015613c41573d6000803e3d6000fd5b505050506040513d601f19601f82011682018060405250810190613c65919061953a565b155b15613c7357505061144e565b613c7b61854b565b60405163f8b2cb4f60e01b81526001600160a01b0384169063f8b2cb4f90613ca7908a90600401619ee0565b60206040518083038186803b158015613cbf57600080fd5b505afa158015613cd3573d6000803e3d6000fd5b505050506040513d601f19601f82011682018060405250810190613cf79190619556565b815260405163f8b2cb4f60e01b81526001600160a01b0384169063f8b2cb4f90613d25908990600401619ee0565b60206040518083038186803b158015613d3d57600080fd5b505afa158015613d51573d6000803e3d6000fd5b505050506040513d601f19601f82011682018060405250810190613d759190619556565b6020820152604051634a46c67360e11b81526001600160a01b0384169063948d8ce690613da6908a90600401619ee0565b60206040518083038186803b158015613dbe57600080fd5b505afa158015613dd2573d6000803e3d6000fd5b505050506040513d601f19601f82011682018060405250810190613df69190619556565b60408083019190915251634a46c67360e11b81526001600160a01b0384169063948d8ce690613e29908990600401619ee0565b60206040518083038186803b158015613e4157600080fd5b505afa158015613e55573d6000803e3d6000fd5b505050506040513d601f19601f82011682018060405250810190613e799190619556565b816060018181525050826001600160a01b031663d4cadf686040518163ffffffff1660e01b815260040160206040518083038186803b158015613ebb57600080fd5b505afa158015613ecf573d6000803e3d6000fd5b505050506040513d601f19601f82011682018060405250810190613ef39190619556565b608082015260005b828110156111f5578151613f19906002670de0b6b3a7640000612b39565b868281518110613f2557fe5b60200260200101511115613f38576111f5565b836001600160a01b031663ba9530a6620493e084600001518560400151866020015187606001518c8881518110613f6b57fe5b602002602001015189608001516040518863ffffffff1660e01b8152600401613f999695949392919061a787565b60206040518083038187803b158015613fb157600080fd5b5086fa93505050508015613fe2575060408051601f3d908101601f19168201909252613fdf91810190619556565b60015b614010573d808015612b1b576040519150601f19603f3d011682016040523d82523d6000602084013e612b20565b8086838151811061401d57fe5b60200260200101818152505085828151811061403557fe5b60200260200101516000141561404b57506111f5565b50600101613efb565b6000808351600381111561406457fe5b148061407c575060018351600381111561407a57fe5b145b80614092575060408401516001600160801b0316155b806140a8575060608401516001600160801b0316155b156140b557506000614194565b6140bd6185ac565b600080846001600160a01b0316631fb0979588886040518363ffffffff1660e01b81526004016140ee92919061a676565b60a06040518083038186803b15801561410657600080fd5b505afa15801561411a573d6000803e3d6000fd5b505050506040513d601f19601f8201168201806040525081019061413e9190619aa9565b9194509250905060018360200151600481111561415757fe5b141580614162575080155b80614175575086516001600160a01b0316155b156141865760009350505050614194565b506001600160801b03169150505b9392505050565b60006060806141aa85876163b3565b6141b5878787617990565b9250826141c157610df0565b60405163276fdad960e11b81523090634edfb5b2906141ea908a9087908b908b9060040161a63d565b60006040518083038186803b15801561420257600080fd5b505afa158015614216573d6000803e3d6000fd5b505050506040513d6000823e601f3d908101601f1916820160405261423e919081019061956e565b8760800181905250866080015191506142b56040518060600160405280878a60405160200161426e92919061a181565b6040516020818303038152906040528152602001888a60405160200161429592919061a181565b6040516020818303038152906040528152602001617af781525085616a00565b90509450945094915050565b600080856001600160a01b031663901754d786866040518363ffffffff1660e01b81526004016142f2929190619f0d565b60206040518083038186803b15801561430a57600080fd5b505afa15801561431e573d6000803e3d6000fd5b505050506040513d601f19601f820116820180604052508101906143429190618cfc565b90506001600160a01b03811661435c57600091505061144e565b60006001600160a01b038616156143ee576040516370a0823160e01b81526001600160a01b038716906370a0823190614399908590600401619ee0565b60206040518083038186803b1580156143b157600080fd5b505afa1580156143c5573d6000803e3d6000fd5b505050506040513d601f19601f820116820180604052508101906143e99190619556565b6143fa565b816001600160a01b0316315b90508381101561440f5760009250505061144e565b6040516303c2803f60e31b81526001600160a01b03831690631e1401f890620249f090614444908a908a908a9060040161a008565b60206040518083038187803b15801561445c57600080fd5b5086fa9350505050801561448d575060408051601f3d908101601f1916820190925261448a91810190619556565b60015b6144cd573d8080156144bb576040519150601f19603f3d011682016040523d82523d6000602084013e6144c0565b606091505b506000935050505061144e565b925061144e915050565b60606144e383856163b3565b60208501516040805160028082526060828101909352816020016020820280368337019050509050858160008151811061451957fe5b60200260200101906001600160a01b031690816001600160a01b031681525050848160018151811061454757fe5b6001600160a01b03909216602092830291909101909101528351806001600160401b038111801561457757600080fd5b506040519080825280602002602001820160405280156145a1578160200160208202803683370190505b5093506145ac618524565b6145b46163e9565b905060005b8281101561101e5760606145d38b898481518110610f0057fe5b604051637c26833760e11b81529091506001600160a01b0387169063f84d066e906146099060019085908a90899060040161a3d6565b600060405180830381600087803b15801561462357600080fd5b505af192505050801561465857506040513d6000823e601f3d908101601f1916820160405261465591908101906193b6565b60015b614686573d808015610fc0576040519150601f19603f3d011682016040523d82523d6000602084013e610fc5565b60008160008151811061469557fe5b60200260200101519050600081136146af5750505061101e565b808985815181106146bc57fe5b6020026020010181815250505050506001016145b9565b8051606090806001600160401b03811180156146ee57600080fd5b50604051908082528060200260200182016040528015614718578160200160208202803683370190505b50915060005b81811015611a9557866001600160a01b031663343fbcdd62061a80888888868151811061474757fe5b60200260200101516040518563ffffffff1660e01b815260040161476d9392919061a008565b60206040518083038187803b15801561478557600080fd5b5086fa935050505080156147b6575060408051601f3d908101601f191682019092526147b391810190619556565b60015b6147e4573d808015611a45576040519150601f19603f3d011682016040523d82523d6000602084013e611a4a565b808483815181106147f157fe5b60200260200101818152505083828151811061480957fe5b60200260200101516000141561481f5750611a95565b5060010161471e565b600080606061483785876163b3565b8351806001600160401b038111801561484f57600080fd5b50604051908082528060200260200182016040528015614879578160200160208202803683370190505b50915061488889898989617bde565b945092506001600160a01b0383166148a0575061495a565b60005b818110156149575760006149118986886040516020016148c593929190619fb0565b6040516020818303038152906040528987896040516020016148e993929190619fb0565b60405160208183030381529060405289858151811061490457fe5b6020026020010151617d33565b90508084838151811061492057fe5b60200260200101818152505083828151811061493857fe5b60200260200101516000141561494e5750614957565b506001016148a3565b50505b955095509592505050565b606061497183856163b3565b8151806001600160401b038111801561498957600080fd5b506040519080825280602002602001820160405280156149b3578160200160208202803683370190505b50915060005b81811015611a9557866001600160a01b031663144a2752620f424087898886815181106149e257fe5b60200260200101516040518563ffffffff1660e01b8152600401614a089392919061a008565b60206040518083038187803b158015614a2057600080fd5b5086fa93505050508015614a51575060408051601f3d908101601f19168201909252614a4e91810190619556565b60015b614a7f573d808015611a45576040519150601f19603f3d011682016040523d82523d6000602084013e611a4a565b80848381518110614a8c57fe5b602002602001018181525050838281518110614aa457fe5b602002602001015160001415614aba5750611a95565b506001016149b9565b60006060614ad184866163b3565b8251806001600160401b0381118015614ae957600080fd5b50604051908082528060200260200182016040528015614b13578160200160208202803683370190505b50915060005b81811015614b88576000614b42898989898681518110614b3557fe5b60200260200101516142c1565b905080848381518110614b5157fe5b602002602001018181525050838281518110614b6957fe5b602002602001015160001415614b7f5750614b88565b50600101614b19565b5060405163901754d760e01b81526001600160a01b0388169063901754d790614bb79089908990600401619f0d565b60206040518083038186803b158015614bcf57600080fd5b505afa158015614be3573d6000803e3d6000fd5b505050506040513d601f19601f82011682018060405250810190614c079190618cfc565b92505094509492505050565b6040805160608181019092526114bc9080614c32868960808401619f0d565b60405160208183030381529060405281526020018688604051602001614c59929190619f0d565b6040516020818303038152906040528152602001617e2581525083616a00565b606082516001600160401b0381118015614c9257600080fd5b50604051908082528060200260200182016040528015614cbc578160200160208202803683370190505b50905060005b8351811461304a577f00000000000000000000000000000000000000000000000000000000000000006001600160a01b0316848281518110614d0057fe5b60200260200101516001600160a01b031614614d4a57614d4583858381518110614d2657fe5b60200260200101516001600160a01b0316617e6c90919063ffffffff16565b614d56565b826001600160a01b0316315b828281518110614d6257fe5b6020908102919091010152600101614cc2565b6040805160608181019092526114bc9080614d94868960808401619f0d565b60405160208183030381529060405281526020018688604051602001614dbb929190619f0d565b6040516020818303038152906040528152602001617f3681525083616a00565b6060614de783856163b3565b8151806001600160401b0381118015614dff57600080fd5b50604051908082528060200260200182016040528015614e29578160200160208202803683370190505b50915060006001600160a01b03861615614e4c57614e4787876164aa565b614e4f565b60005b905060006001600160a01b03861615614e7157614e6c88876164aa565b614e74565b60005b905060005b838110156111f55760016001600160a01b038816614eca57614ea9846395b68fe760e01b8985815181106110f957fe5b878481518110614eb557fe5b60200260200101819350828152505050614f64565b6001600160a01b038916614ef057614ea98363cd7724c360e01b8985815181106110f957fe5b6000614f0a856395b68fe760e01b8a86815181106110f957fe5b925090508015614f4757614f268463cd7724c360e01b83616529565b888581518110614f3257fe5b60200260200101819450828152505050614f62565b6000878481518110614f5557fe5b6020026020010181815250505b505b801580614f845750858281518110614f7857fe5b60200260200101516000145b15614f8f57506111f5565b50600101614e79565b8051606090806001600160401b0381118015614fb357600080fd5b50604051908082528060200260200182016040528015614fdd578160200160208202803683370190505b50915060005b81811015611c1a57856001600160a01b0316631f00ca74620249f086848151811061500a57fe5b6020026020010151886040518463ffffffff1660e01b815260040161503092919061a6ca565b60006040518083038187803b15801561504857600080fd5b5086fa9350505050801561507e57506040513d6000823e601f3d908101601f1916820160405261507b9190810190619508565b60015b6150ac573d808015611bb3576040519150601f19603f3d011682016040523d82523d6000602084013e611bb8565b806000815181106150b957fe5b60200260200101518483815181106150cd57fe5b6020026020010181815250508382815181106150e557fe5b6020026020010151600014156150fb5750611c1a565b50600101614fe3565b606061511083856163b3565b8151806001600160401b038111801561512857600080fd5b50604051908082528060200260200182016040528015615152578160200160208202803683370190505b50915060005b81811015611a9557866001600160a01b031663ff1fd974620f4240888888868151811061518157fe5b60200260200101516040518563ffffffff1660e01b81526004016151a79392919061a008565b60206040518083038187803b1580156151bf57600080fd5b5086fa935050505080156151f0575060408051601f3d908101601f191682019092526151ed91810190619556565b60015b61521e573d808015611a45576040519150601f19603f3d011682016040523d82523d6000602084013e611a4a565b8084838151811061522b57fe5b60200260200101818152505083828151811061524357fe5b6020026020010151600014156152595750611a95565b50600101615158565b600060608061527185876163b3565b61527c878787617990565b92508261528857610df0565b60405163276fdad960e11b81523090634edfb5b2906152b1908a9087908b908b9060040161a63d565b60006040518083038186803b1580156152c957600080fd5b505afa1580156152dd573d6000803e3d6000fd5b505050506040513d6000823e601f3d908101601f19168201604052615305919081019061956e565b608088018190528451909250806001600160401b038111801561532757600080fd5b50604051908082528060200260200182016040528015615351578160200160208202803683370190505b50915060005b8181101561543c576000306001600160a01b031663f1ed7fa48b8b8b8b878151811061537f57fe5b60200260200101516040518563ffffffff1660e01b81526004016153a6949392919061a607565b60206040518083038186803b1580156153be57600080fd5b505afa1580156153d2573d6000803e3d6000fd5b505050506040513d601f19601f820116820180604052508101906153f69190619556565b90508084838151811061540557fe5b60200260200101818152505083828151811061541d57fe5b602002602001015160001415615433575061543c565b50600101615357565b50509450945094915050565b600080606061545785876163b3565b61546388888888617bde565b935091506001600160a01b03821661547a5761495a565b8351806001600160401b038111801561549257600080fd5b506040519080825280602002602001820160405280156154bc578160200160208202803683370190505b50604080516060810190915290925061552990806154e08987891560808501619fb0565b604051602081830303815290604052815260200189868860405160200161550993929190619fb0565b6040516020818303038152906040528152602001617d3381525086616a00565b915050955095509592505050565b600080606061554685876163b3565b8351806001600160401b038111801561555e57600080fd5b50604051908082528060200260200182016040528015615588578160200160208202803683370190505b508851604051630939d86360e11b81529193506001600160a01b031690631273b0c6906155bb908a908a90600401619f0d565b60206040518083038186803b1580156155d357600080fd5b505afa1580156155e7573d6000803e3d6000fd5b505050506040513d601f19601f8201168201806040525081019061560b9190618cfc565b925060006001600160a01b03841615615629575060019350866156c8565b8851604051630939d86360e11b81526001600160a01b0390911690631273b0c69061565a908a908c90600401619f0d565b60206040518083038186803b15801561567257600080fd5b505afa158015615686573d6000803e3d6000fd5b505050506040513d601f19601f820116820180604052508101906156aa9190618cfc565b93506001600160a01b0384166156c1575050610df0565b5060009350855b836001600160a01b031663dd58b41c6040518163ffffffff1660e01b815260040160206040518083038186803b15801561570157600080fd5b505afa158015615715573d6000803e3d6000fd5b505050506040513d601f19601f82011682018060405250810190615739919061953a565b615744575050610df0565b6157bc60405180606001604052808987858e6020015160405160200161576d9493929190619f27565b60405160208183030381529060405281526020018a87858e6020015160405160200161579c9493929190619f27565b6040516020818303038152906040528152602001616bfd81525087616a00565b925050509450945094915050565b606083516001600160401b03811180156157e357600080fd5b5060405190808252806020026020018201604052801561580d578160200160208202803683370190505b50905060005b84518114610c92577f00000000000000000000000000000000000000000000000000000000000000006001600160a01b031685828151811061585157fe5b60200260200101516001600160a01b03161461589d57615898848487848151811061587857fe5b60200260200101516001600160a01b0316617feb9092919063ffffffff16565b6158a0565b60005b8282815181106158ac57fe5b6020908102919091010152600101615813565b8051606090806001600160401b03811180156158da57600080fd5b50604051908082528060200260200182016040528015615904578160200160208202803683370190505b50915060005b81811015611a9557866001600160a01b031663838e6a22620493e0888888868151811061593357fe5b60200260200101516040518563ffffffff1660e01b81526004016159599392919061a008565b60206040518083038187803b15801561597157600080fd5b5086fa935050505080156159a2575060408051601f3d908101601f1916820190925261599f91810190619556565b60015b6159d0573d808015611a45576040519150601f19603f3d011682016040523d82523d6000602084013e611a4a565b808483815181106159dd57fe5b6020026020010181815250505060010161590a565b600084608001515160001415615a0a5750600061144e565b84604001516001600160a01b031663418436bc6207a12087606001516001600160a01b0316876001600160a01b031614615a445786615a5a565b73eeeeeeeeeeeeeeeeeeeeeeeeeeeeeeeeeeeeeeee5b88606001516001600160a01b0316876001600160a01b031614615a7d5786615a93565b73eeeeeeeeeeeeeeeeeeeeeeeeeeeeeeeeeeeeeeee5b8660008b608001516040518763ffffffff1660e01b8152600401615abb95949392919061a02c565b60206040518083038187803b158015615ad357600080fd5b5086fa93505050508015615b04575060408051601f3d908101601f19168201909252615b0191810190619556565b60015b615b42573d808015615b32576040519150601f19603f3d011682016040523d82523d6000602084013e615b37565b606091505b50600091505061144e565b6000615b4d856180b7565b60ff1690506000615b5d876180b7565b60ff169050670de0b6b3a764000081600a0a83600a0a8786020281615b7e57fe5b0481615b8657fe5b04935050505061144e565b60006060615b9f84866163b3565b8251806001600160401b0381118015615bb757600080fd5b50604051908082528060200260200182016040528015615be1578160200160208202803683370190505b509150615c4c60405180606001604052808988604051602001615c05929190619f0d565b60405160208183030381529060405281526020018989604051602001615c2c929190619f0d565b60405160208183030381529060405281526020016180c281525085616a00565b60405163901754d760e01b81529092506001600160a01b0388169063901754d790614bb79089908990600401619f0d565b615c85618592565b615c8d618592565b6000198060005b86518114615d8957615cc46020888381518110615cad57fe5b602002602001015151038789848151811061374757fe5b60006060306001600160a01b0316898481518110615cde57fe5b6020026020010151604051615cf39190619ec4565b6000604051808303816000865af19150503d8060008114615d30576040519150601f19603f3d011682016040523d82523d6000602084013e615d35565b606091505b50915091508115615d7f576000615d5960208351038361793090919063ffffffff16565b9050600081118015615d6a57508481105b15615d7d57838752602087018290529350835b505b5050600101615c94565b50600019811415615d9a5750613912565b60005b8751811461390f57615dcd6020898381518110615db657fe5b60200260200101515103838a848151811061374757fe5b60006060306001600160a01b03168a8481518110615de757fe5b6020026020010151604051615dfc9190619ec4565b6000604051808303816000865af19150503d8060008114615e39576040519150601f19603f3d011682016040523d82523d6000602084013e615e3e565b606091505b50915091508115615e88576000615e6260208351038361793090919063ffffffff16565b9050600081118015615e7357508581105b15615e8657838852602088018290529450845b505b5050600101615d9d565b60606000836001600160a01b031663c45a01556040518163ffffffff1660e01b815260040160206040518083038186803b158015615ecf57600080fd5b505afa158015615ee3573d6000803e3d6000fd5b505050506040513d601f19601f82011682018060405250810190615f079190618cfc565b905060018351036001600160401b0381118015615f2357600080fd5b50604051908082528060200260200182016040528015615f4d578160200160208202803683370190505b50915060005b8251811015616178576060826001600160a01b0316635b1dc86f620249f0878581518110615f7d57fe5b6020026020010151888660010181518110615f9457fe5b60200260200101516040518463ffffffff1660e01b8152600401615fb9929190619f0d565b60006040518083038187803b158015615fd157600080fd5b5086fa9350505050801561600757506040513d6000823e601f3d908101601f1916820160405261600491908101906190b1565b60015b616056573d808015616035576040519150601f19603f3d011682016040523d82523d6000602084013e61603a565b606091505b5050604080516000815260208101909152935061617b92505050565b60006001825110156160835760405162461bcd60e51b815260040161607a9061a568565b60405180910390fd5b60005b825181101561616c57600083828151811061609d57fe5b60200260200101516001600160a01b03166318160ddd6040518163ffffffff1660e01b815260040160206040518083038186803b1580156160dd57600080fd5b505afa1580156160f1573d6000803e3d6000fd5b505050506040513d601f19601f820116820180604052508101906161159190619556565b9050828111156161635780925083828151811061612e57fe5b602002602001015188878151811061614257fe5b60200260200101906001600160a01b031690816001600160a01b0316815250505b50600101616086565b50505050600101615f53565b50505b92915050565b6000606085600001516001600160a01b03166321f8a72187600001516001600160a01b0316639232494e6040518163ffffffff1660e01b815260040160206040518083038186803b1580156161d557600080fd5b505afa1580156161e9573d6000803e3d6000fd5b505050506040513d601f19601f8201168201806040525081019061620d9190619556565b6040518263ffffffff1660e01b8152600401616229919061a313565b60206040518083038186803b15801561624157600080fd5b505afa158015616255573d6000803e3d6000fd5b505050506040513d601f19601f820116820180604052508101906162799190618cfc565b91508560200151516000141561628e576163aa565b6000805b8760200151518110156163a7576002886020015182815181106162b157fe5b60200260200101515110156162c55761639f565b836001600160a01b0316637f9c0ecd620493e08a6020015184815181106162e857fe5b60200260200101518860018a51038151811061630057fe5b60200260200101516040518463ffffffff1660e01b815260040161632592919061a1ca565b60206040518083038187803b15801561633d57600080fd5b5086fa9350505050801561636e575060408051601f3d908101601f1916820190925261636b91810190619556565b60015b6163775761639f565b8281111561639d578092508860200151828151811061639257fe5b602002602001015193505b505b600101616292565b50505b94509492505050565b806001600160a01b0316826001600160a01b031614156163e55760405162461bcd60e51b815260040161607a9061a4de565b5050565b6163f1618524565b50604080516080810182523080825260006020830181905292820152606081019190915290565b604080516001808252818301909252606091829190816020015b61643a6185ce565b8152602001906001900390816164325790505090506040518060a00160405280856000015181526020016000815260200160018152602001848152602001604051806020016040528060008152508152508160008151811061649857fe5b60209081029190910101529392505050565b6040516303795fb160e11b81526000906001600160a01b038416906306f2bf62906164d9908590600401619ee0565b60206040518083038186803b1580156164f157600080fd5b505afa158015616505573d6000803e3d6000fd5b505050506040513d601f19601f820116820180604052508101906141949190618cfc565b6000806001600160a01b03851661653f57610b1f565b6060856001600160a01b0316620249f08686604051602401616561919061a313565b60408051601f198184030181529181526020820180516001600160e01b03166001600160e01b031990941693909317909252905161659f9190619ec4565b6000604051808303818686fa925050503d80600081146165db576040519150601f19603f3d011682016040523d82523d6000602084013e6165e0565b606091505b509092509050811561660357808060200190518101906166009190619556565b92505b50935093915050565b600080600080846001600160a01b031663d9638d368b602001516040518263ffffffff1660e01b8152600401616642919061a313565b60a06040518083038186803b15801561665a57600080fd5b505afa15801561666e573d6000803e3d6000fd5b505050506040513d601f19601f820116820180604052508101906166929190619ba0565b94509450505092506000620f424090508a604001516001600160a01b0316896001600160a01b031614156167ba5760006166d18964e8d4a51000618112565b905060006166f56b033b2e3c9fd0803ce80000006166ef8885618148565b90618112565b905084811061670d57600096505050505050506168c3565b600061679c670de0b6b3a76400006167968c6001600160a01b031663568d4b6f6040518163ffffffff1660e01b815260040160206040518083038186803b15801561675757600080fd5b505afa15801561676b573d6000803e3d6000fd5b505050506040513d601f19601f8201168201806040525081019061678f9190619556565b8690618112565b90618164565b905060006167aa848361818e565b98506168c3975050505050505050565b8a604001516001600160a01b03168a6001600160a01b031614156168ba5787848111156167ef576000955050505050506168c3565b600061680b6b033b2e3c9fd0803ce80000006166ef888561818e565b905083811161682357600096505050505050506168c3565b60006168a88a6001600160a01b031663fae036d56040518163ffffffff1660e01b815260040160206040518083038186803b15801561686157600080fd5b505afa158015616875573d6000803e3d6000fd5b505050506040513d601f19601f820116820180604052508101906168999190619556565b670de0b6b3a764000090618148565b905060006167aa826167968688618112565b60009450505050505b9695505050505050565b6000806168d8618600565b858060200190518101906168ec9190619602565b9150915060008580602001905181019061690691906195e6565b905060006060306322db5ed160e21b8587866169218c6181ad565b604051602401616934949392919061a59f565b60408051601f198184030181529181526020820180516001600160e01b03166001600160e01b03199094169390931790925290516169729190619ec4565b600060405180830381855afa9150503d80600081146169ad576040519150601f19603f3d011682016040523d82523d6000602084013e6169b2565b606091505b5091509150816169ca57600095505050505050614194565b808060200190518101906169de9190619508565b6000815181106169ea57fe5b6020026020010151955050505050509392505050565b606081516001600160401b0381118015616a1957600080fd5b50604051908082528060200260200182016040528015616a43578160200160208202803683370190505b509050815160001415616a555761617b565b6000616a868460000151856020015185600081518110616a7157fe5b6020026020010151876040015163ffffffff16565b905080616a93575061617b565b6000616ab08560200151866000015184886040015163ffffffff16565b905080616abe57505061617b565b60005b8451811015616bf45760005b6005811015616bb657616af4868381518110616ae557fe5b602002602001015184866181ee565b935083616b0057616bb6565b616b0f612715612710866181ee565b935083616b1b57616bb6565b6000616b3888602001518960000151878b6040015163ffffffff16565b905080616b455750616bb6565b809350868381518110616b5457fe5b60200260200101518410616bad576000878481518110616b7057fe5b6020026020010151612710898681518110616b8757fe5b602002602001015187030281616b9957fe5b04905060058111616bab575050616bb6565b505b50600101616acd565b50616bd5858281518110616bc657fe5b602002602001015183856181ee565b848281518110616be157fe5b6020908102919091010152600101616ac1565b50505092915050565b600080600080600087806020019051810190616c199190618d51565b9350935093509350816001600160a01b0316846001600160a01b03161415616d03576040516351400f0b60e11b81526001600160a01b0384169063a2801e1690620493e090616c6c908a9060040161a313565b60206040518083038187803b158015616c8457600080fd5b5086fa93505050508015616cb5575060408051601f3d908101601f19168201909252616cb291810190619556565b60015b616cf7573d808015616ce3576040519150601f19603f3d011682016040523d82523d6000602084013e616ce8565b606091505b50600095505050505050614194565b94506141949350505050565b60405163ca19ebd960e01b81526001600160a01b0382169063ca19ebd990620493e090616c6c9087908b90600401619ef4565b60606002828451031015616d5c5760405162461bcd60e51b815260040161607a9061a49a565b616d64618620565b5060408051606080820183526101f48252610bb860208301526127108284015282516003808252608082019094529192909190816020016020820280368337019050509050600080868681518110616db857fe5b602002602001015190506000878760010181518110616dd357fe5b6020026020010151905060005b6003811015616ec85760008a6001600160a01b0316631698ee8285858a8660038110616e0857fe5b60200201516040518463ffffffff1660e01b8152600401616e2b9392919061a35b565b60206040518083038186803b158015616e4357600080fd5b505afa158015616e57573d6000803e3d6000fd5b505050506040513d601f19601f82011682018060405250810190616e7b9190618cfc565b9050616e8681618246565b15616ebf5780868680600101975081518110616e9e57fe5b60200260200101906001600160a01b031690816001600160a01b0316815250505b50600101616de0565b50505080616ed857505050614194565b8551856002011415616fce57806001600160401b0381118015616efa57600080fd5b50604051908082528060200260200182016040528015616f2e57816020015b6060815260200190600190039081616f195790505b50935060005b81811015616fc557604080516001808252818301909252906020808301908036833701905050858281518110616f6657fe5b6020026020010181905250828181518110616f7d57fe5b6020026020010151858281518110616f9157fe5b6020026020010151600081518110616fa557fe5b6001600160a01b0390921660209283029190910190910152600101616f34565b50505050614194565b6060616fde888888600101616d36565b9050805160001415616ff35750505050614194565b805182026001600160401b038111801561700c57600080fd5b5060405190808252806020026020018201604052801561704057816020015b606081526020019060019003908161702b5790505b50945060005b828110156171c05760005b82518110156171b757825182810282019084908390811061706e57fe5b6020026020010151516001016001600160401b038111801561708f57600080fd5b506040519080825280602002602001820160405280156170b9578160200160208202803683370190505b508882815181106170c657fe5b60200260200101819052508583815181106170dd57fe5b60200260200101518882815181106170f157fe5b602002602001015160008151811061710557fe5b60200260200101906001600160a01b031690816001600160a01b03168152505060005b84838151811061713457fe5b6020026020010151518110156171ad5784838151811061715057fe5b6020026020010151818151811061716357fe5b602002602001015189838151811061717757fe5b6020026020010151826001018151811061718d57fe5b6001600160a01b0390921660209283029190910190910152600101617128565b5050600101617051565b50600101617046565b50505050509392505050565b606060028351101580156171e4575081516001018351145b6172005760405162461bcd60e51b815260040161607a9061a523565b81516003028351601402016001600160401b038111801561722057600080fd5b506040519080825280601f01601f19166020018201604052801561724b576020820181803683370190505b5090506020810160005b84518110156161785780156172fa57600084600183038151811061727557fe5b60200260200101516001600160a01b031663ddca3f436040518163ffffffff1660e01b815260040160206040518083038186803b1580156172b557600080fd5b505afa1580156172c9573d6000803e3d6000fd5b505050506040513d601f19601f820116820180604052508101906172ed9190619b25565b60e81b8352506003909101905b600085828151811061730857fe5b602090810291909101015160601b835250601490910190600101617255565b6000828202831580159061734457508284828161734057fe5b0414155b1561735357600091505061617b565b6706f05b59d3b200008101818110156173715760009250505061617b565b670de0b6b3a76400009004949350505050565b606081516001600160401b038111801561739d57600080fd5b506040519080825280602002602001820160405280156173c7578160200160208202803683370190505b50905060005b825181101561313d578260018285510303815181106173e857fe5b60200260200101518282815181106173fc57fe5b6001600160a01b03909216602092830291909101909101526001016173cd565b606081516001600160401b038111801561743557600080fd5b5060405190808252806020026020018201604052801561745f578160200160208202803683370190505b50905060005b825181101561313d5782600182855103038151811061748057fe5b602002602001015182828151811061749457fe5b6001600160a01b0390921660209283029190910190910152600101617465565b6000806000858060200190518101906174cd9190618d18565b915091506000858060200190518101906174e79190618cfc565b90503063e8e4af098385846174fb8a6181ad565b6040518563ffffffff1660e01b815260040161751a9493929190619f52565b60006040518083038186803b15801561753257600080fd5b505afa92505050801561756757506040513d6000823e601f3d908101601f191682016040526175649190810190619508565b60015b6175a8573d808015617595576040519150601f19603f3d011682016040523d82523d6000602084013e61759a565b606091505b506000945050505050614194565b806000815181106175b557fe5b6020026020010151945050505050614194565b600061144e836167966175dc82600161818e565b6175e68887618112565b90618148565b60006012905060006060836001600160a01b031660405180604001604052806004815260200163313ce56760e01b81525060405161762a9190619ec4565b600060405180830381855afa9150503d8060008114617665576040519150601f19603f3d011682016040523d82523d6000602084013e61766a565b606091505b509150915081801561767e57506020815110155b1561097a5761144e816000617930565b600080600080846001600160a01b031663d9638d368b602001516040518263ffffffff1660e01b81526004016176c4919061a313565b60a06040518083038186803b1580156176dc57600080fd5b505afa1580156176f0573d6000803e3d6000fd5b505050506040513d601f19601f820116820180604052508101906177149190619ba0565b945094505050925089604001516001600160a01b0316886001600160a01b0316141561782b57600087905060006177c4886001600160a01b031663568d4b6f6040518163ffffffff1660e01b815260040160206040518083038186803b15801561777d57600080fd5b505afa158015617791573d6000803e3d6000fd5b505050506040513d601f19601f820116820180604052508101906177b59190619556565b670de0b6b3a76400009061818e565b905060006177de8261679685670de0b6b3a7640000618112565b905060006177fc6b033b2e3c9fd0803ce80000006166ef8985618148565b90508581106178155760009750505050505050506168c3565b60006167aa60016175e68564e8d4a51000618164565b89604001516001600160a01b0316896001600160a01b0316141561791057600061785a8864e8d4a51000618112565b9050600061789a886001600160a01b031663fae036d56040518163ffffffff1660e01b815260040160206040518083038186803b15801561686157600080fd5b905060006178b4670de0b6b3a76400006167968585618112565b9050858111156178cd57600096505050505050506168c3565b60006178e96b033b2e3c9fd0803ce80000006166ef898561818e565b90508481116179025760009750505050505050506168c3565b5095506168c3945050505050565b5060009998505050505050505050565b61792b838383618452565b505050565b60006141948383618479565b600080617947618600565b8580602001905181019061795b9190619602565b9150915060008580602001905181019061797591906195e6565b9050600060603063205e01d760e11b8587866169218c6181ad565b600080846020015190506060816001600160a01b031663910ffc7187606001516001600160a01b0316876001600160a01b0316146179ce57866179e4565b73eeeeeeeeeeeeeeeeeeeeeeeeeeeeeeeeeeeeeeee5b88606001516001600160a01b0316876001600160a01b031614617a075786617a1d565b73eeeeeeeeeeeeeeeeeeeeeeeeeeeeeeeeeeeeeeee5b604080516000815260208101918290526001600160e01b031960e086901b16909152617a5192919060019060248101619fd4565b60006040518083038186803b158015617a6957600080fd5b505afa158015617a7d573d6000803e3d6000fd5b505050506040513d6000823e601f3d908101601f19168201604052617aa59190810190619149565b505090508051866000015110617ac15750600091506141949050565b80866000015181518110617ad157fe5b6020026020010151925060f883901c60001c60bb1415611c1a5750600091506141949050565b600080617b0261863e565b84806020019051810190617b169190618dff565b91509150600086806020019051810190617b309190618dff565b50604051633c7b5fe960e21b8152909150309063f1ed7fa490617b5d908590859088908b9060040161a607565b60206040518083038186803b158015617b7557600080fd5b505afa925050508015617ba5575060408051601f3d908101601f19168201909252617ba291810190619556565b60015b617bd3573d808015617595576040519150601f19603f3d011682016040523d82523d6000602084013e61759a565b935061419492505050565b6000806060866001600160a01b03166357a281dc86866040518363ffffffff1660e01b8152600401617c11929190619f0d565b60006040518083038186803b158015617c2957600080fd5b505afa158015617c3d573d6000803e3d6000fd5b505050506040513d6000823e601f3d908101601f19168201604052617c6591908101906190b1565b905060019150805160001415617cfe576040516315e8a07760e21b81526001600160a01b038816906357a281dc90617ca39087908990600401619f0d565b60006040518083038186803b158015617cbb57600080fd5b505afa158015617ccf573d6000803e3d6000fd5b505050506040513d6000823e601f3d908101601f19168201604052617cf791908101906190b1565b9050600091505b80518610617d135760008092509250506163aa565b808681518110617d1f57fe5b602002602001015192505094509492505050565b60008060008086806020019051810190617d4d9190618daf565b9250925092508015617df157604051633cd0243b60e11b81526001600160a01b038316906379a0487690620493e090617d8d906000908a90600401619ef4565b604080518083038187803b158015617da457600080fd5b5086fa93505050508015617dd5575060408051601f3d908101601f19168201909252617dd291810190619b48565b60015b617de55760009350505050614194565b50935061419492505050565b6040516366410a2160e01b81526001600160a01b038316906366410a2190620493e090617d8d906000908a90600401619ef4565b600080600085806020019051810190617e3e9190618d18565b91509150600085806020019051810190617e589190618cfc565b9050306330d6570d8385846174fb8a6181ad565b6000806060846001600160a01b03166370a0823160e01b85604051602401617e949190619ee0565b60408051601f198184030181529181526020820180516001600160e01b03166001600160e01b0319909416939093179092529051617ed29190619ec4565b600060405180830381855afa9150503d8060008114617f0d576040519150601f19603f3d011682016040523d82523d6000602084013e617f12565b606091505b5091509150818015617f2657506020815110155b15616178576114bc816000617930565b600080600085806020019051810190617f4f9190618d18565b91509150600085806020019051810190617f699190618cfc565b90503063a469841762061a80848685617f818b6181ad565b6040518663ffffffff1660e01b8152600401617fa09493929190619f52565b60006040518083038187803b158015617fb857600080fd5b5086fa9350505050801561756757506040513d6000823e601f3d908101601f191682016040526175649190810190619508565b6000806060856001600160a01b031663dd62ed3e60e01b8686604051602401618015929190619f0d565b60408051601f198184030181529181526020820180516001600160e01b03166001600160e01b03199094169390931790925290516180539190619ec4565b600060405180830381855afa9150503d806000811461808e576040519150601f19603f3d011682016040523d82523d6000602084013e618093565b606091505b50915091508180156180a757506020815110155b15611c1a576168c3816000617930565b600061617b826175ec565b6000806000858060200190518101906180db9190618d18565b91509150600080868060200190518101906180f69190618d18565b91509150618106848483896142c1565b98975050505050505050565b6000826181215750600061617b565b8282028284828161812e57fe5b041461419457614194618143600186866184a3565b6184fd565b60008282018381101561419457614194618143600086866184a3565b60008161817a5761817a618143600385856184a3565b600082848161818557fe5b04949350505050565b6000828211156181a7576181a7618143600285856184a3565b50900390565b6040805160018082528183019092526060916020808301908036833701905050905081816000815181106181dd57fe5b602002602001018181525050919050565b60008315806181fb575081155b80618204575082155b1561821157506000614194565b8382028285828161821e57fe5b041461822e576000915050614194565b836001850382018161823c57fe5b0495945050505050565b6000813b80618259576000915050610dff565b50816001600160a01b0316630dfe16816040518163ffffffff1660e01b815260040160206040518083038186803b15801561829357600080fd5b505afa1580156182a7573d6000803e3d6000fd5b505050506040513d601f19601f820116820180604052508101906182cb9190618cfc565b6001600160a01b03166370a08231836040518263ffffffff1660e01b81526004016182f69190619ee0565b60206040518083038186803b15801561830e57600080fd5b505afa158015618322573d6000803e3d6000fd5b505050506040513d601f19601f820116820180604052508101906183469190619556565b61835257506000610dff565b816001600160a01b031663d21220a76040518163ffffffff1660e01b815260040160206040518083038186803b15801561838b57600080fd5b505afa15801561839f573d6000803e3d6000fd5b505050506040513d601f19601f820116820180604052508101906183c39190618cfc565b6001600160a01b03166370a08231836040518263ffffffff1660e01b81526004016183ee9190619ee0565b60206040518083038186803b15801561840657600080fd5b505afa15801561841a573d6000803e3d6000fd5b505050506040513d601f19601f8201168201806040525081019061843e9190619556565b61844a57506000610dff565b506001919050565b8160200183511015618471576184716181436005855185602001618505565b910160200152565b6000816020018351101561849a5761849a6181436005855185602001618505565b50016020015190565b606063e946c1bb60e01b8484846040516024016184c29392919061a3a7565b60408051601f198184030181529190526020810180516001600160e01b03166001600160e01b03199093169290921790915290509392505050565b805160208201fd5b6060632800659560e01b8484846040516024016184c29392919061a3c8565b60408051608081018252600080825260208201819052918101829052606081019190915290565b6040518060a0016040528060008152602001600081526020016000815260200160008152602001600081525090565b60408051808201909152606081526000602082015290565b604051806040016040528060008152602001606081525090565b6040805160608101909152600080825260208201908152600060209091015290565b6040518060a0016040528060008019168152602001600081526020016000815260200160008152602001606081525090565b604080516060810182526000808252602082018190529181019190915290565b60405180606001604052806003906020820280368337509192915050565b6040518060a001604052806000815260200160006001600160a01b0316815260200160006001600160a01b0316815260200160006001600160a01b03168152602001606081525090565b803561617b8161a89f565b805161617b8161a89f565b600082601f8301126186ae578081fd5b81356186c16186bc8261a820565b61a7fa565b8181529150602080830190848101818402860182018710156186e257600080fd5b60005b8481101561870a5781356186f88161a89f565b845292820192908201906001016186e5565b505050505092915050565b600082601f830112618725578081fd5b81356187336186bc8261a820565b818152915060208083019084810160005b8481101561870a5761875b888484358a010161869e565b84529282019290820190600101618744565b600082601f83011261877d578081fd5b813561878b6186bc8261a820565b818152915060208083019084810160005b8481101561870a576187b3888484358a010161895c565b8452928201929082019060010161879c565b600082601f8301126187d5578081fd5b81356187e36186bc8261a820565b81815291506020808301908481018184028601820187101561880457600080fd5b60005b8481101561870a57813561881a8161a89f565b84529282019290820190600101618807565b600082601f83011261883c578081fd5b813561884a6186bc8261a820565b818152915060208083019084810160808085028701830188101561886d57600080fd5b60005b85811015618894576188828984618c5b565b85529383019391810191600101618870565b50505050505092915050565b600082601f8301126188b0578081fd5b81356188be6186bc8261a820565b8181529150602080830190848101818402860182018710156188df57600080fd5b60005b8481101561870a578135845292820192908201906001016188e2565b600082601f83011261890e578081fd5b815161891c6186bc8261a820565b81815291506020808301908481018184028601820187101561893d57600080fd5b60005b8481101561870a57815184529282019290820190600101618940565b600082601f83011261896c578081fd5b813561897a6186bc8261a83f565b915080825283602082850101111561899157600080fd5b8060208401602084013760009082016020015292915050565b600082601f8301126189ba578081fd5b81516189c86186bc8261a83f565b91508082528360208285010111156189df57600080fd5b61304a81602084016020860161a862565b80516002811061617b57600080fd5b600060608284031215618a10578081fd5b618a1a606061a7fa565b90508135618a278161a89f565b81526020820135618a378161a8c2565b60208201526040820135618a4a8161a8c2565b604082015292915050565b600060608284031215618a66578081fd5b618a70606061a7fa565b90508151618a7d8161a89f565b81526020820151618a8d8161a8c2565b60208201526040820151618a4a8161a8c2565b600060408284031215618ab1578081fd5b618abb604061a7fa565b90508135618ac88161a89f565b81526020820135618ad88161a89f565b602082015292915050565b600060a08284031215618af4578081fd5b618afe60a061a7fa565b9050813581526020820135618b128161a89f565b60208201526040820135618b258161a89f565b60408201526060820135618b388161a89f565b606082015260808201356001600160401b03811115618b5657600080fd5b618b628482850161895c565b60808301525092915050565b6000610180808385031215618b81578182fd5b618b8a8161a7fa565b915050618b978383618688565b8152618ba68360208401618688565b6020820152618bb88360408401618cbe565b6040820152618bca8360608401618cbe565b6060820152618bdc8360808401618cbe565b6080820152618bee8360a08401618688565b60a0820152618c008360c08401618688565b60c0820152618c128360e08401618688565b60e0820152610100618c2684828501618688565b908201526101208281013590820152610140618c4484828501618cc9565b818301525061016080830135818301525092915050565b600060808284031215618c6c578081fd5b618c76608061a7fa565b9050813560048110618c8757600080fd5b8152602082013560ff81168114618c9d57600080fd5b80602083015250604082013560408201526060820135606082015292915050565b803561617b8161a8e7565b80356001600160401b038116811461617b57600080fd5b600060208284031215618cf1578081fd5b81356141948161a89f565b600060208284031215618d0d578081fd5b81516141948161a89f565b60008060408385031215618d2a578081fd5b8251618d358161a89f565b6020840151909250618d468161a89f565b809150509250929050565b60008060008060808587031215618d66578182fd5b8451618d718161a89f565b6020860151909450618d828161a89f565b6040860151909350618d938161a89f565b6060860151909250618da48161a89f565b939692955090935050565b600080600060608486031215618dc3578081fd5b8351618dce8161a89f565b6020850151909350618ddf8161a89f565b60408501519092508015158114618df4578182fd5b809150509250925092565b60008060408385031215618e11578182fd5b8251618e1c8161a89f565b60208401519092506001600160401b0380821115618e38578283fd5b9084019060a08287031215618e4b578283fd5b618e5560a061a7fa565b82518152618e668760208501618693565b6020820152618e788760408501618693565b6040820152618e8a8760608501618693565b6060820152608083015182811115618ea0578485fd5b618eac888286016189aa565b6080830152508093505050509250929050565b600080600080600060a08688031215618ed6578283fd5b8535618ee18161a89f565b94506020860135618ef18161a89f565b93506040860135618f018161a89f565b92506060860135618f118161a89f565b915060808601356001600160401b03811115618f2b578182fd5b618f37888289016188a0565b9150509295509295909350565b60008060008060808587031215618f59578182fd5b8435618f648161a89f565b93506020850135618f748161a89f565b92506040850135618f848161a89f565b915060608501356001600160401b03811115618f9e578182fd5b618faa878288016188a0565b91505092959194509250565b60008060008060808587031215618fcb578182fd5b8435618fd68161a89f565b93506020850135618fe68161a89f565b92506040850135618ff68161a89f565b9396929550929360600135925050565b60008060006060848603121561901a578081fd5b83356190258161a89f565b925060208401356001600160401b0380821115619040578283fd5b61904c8783880161869e565b93506040860135915080821115619061578283fd5b5061906e868287016188a0565b9150509250925092565b600080600080600060a0868803121561908f578283fd5b853561909a8161a89f565b9450602086013593506040860135618f018161a89f565b600060208083850312156190c3578182fd5b82516001600160401b038111156190d8578283fd5b8301601f810185136190e8578283fd5b80516190f66186bc8261a820565b8181528381019083850185840285018601891015619112578687fd5b8694505b8385101561913d5780516191298161a89f565b835260019490940193918501918501619116565b50979650505050505050565b60008060006060848603121561915d578081fd5b83516001600160401b0380821115619173578283fd5b818601915086601f830112619186578283fd5b81516191946186bc8261a820565b80828252602080830192508086018b8283870289010111156191b4578788fd5b8796505b848710156191d65780518452600196909601959281019281016191b8565b5089015190975093505050808211156191ed578283fd5b506191fa868287016188fe565b92505061920a85604086016189f0565b90509250925092565b60008060208385031215619225578182fd5b82356001600160401b038082111561923b578384fd5b818501915085601f83011261924e578384fd5b81358181111561925c578485fd5b866020808302850101111561926f578485fd5b60209290920196919550909350505050565b600080600060608486031215619295578081fd5b83356001600160401b03808211156192ab578283fd5b6192b78783880161876d565b945060208601359150808211156192cc578283fd5b506192d98682870161876d565b925050604084013590509250925092565b6000602082840312156192fb578081fd5b81356001600160401b03811115619310578182fd5b61144e848285016187c5565b6000806040838503121561932e578182fd5b82356001600160401b03811115619343578283fd5b61934f858286016187c5565b9250506020830135618d468161a89f565b600080600060608486031215619374578081fd5b83356001600160401b03811115619389578182fd5b619395868287016187c5565b93505060208401356193a68161a89f565b91506040840135618df48161a89f565b600060208083850312156193c8578182fd5b82516001600160401b038111156193dd578283fd5b8301601f810185136193ed578283fd5b80516193fb6186bc8261a820565b8181528381019083850185840285018601891015619417578687fd5b8694505b8385101561913d57805183526001949094019391850191850161941b565b60008060006060848603121561944d578081fd5b83356001600160401b0380821115619463578283fd5b818601915086601f830112619476578283fd5b81356194846186bc8261a820565b80828252602080830192508086016101808c838288028a010111156194a7578889fd5b8897505b858810156194d3576194bd8d83618b6e565b85526001979097019693820193908101906194ab565b509198508901359450505050808211156194eb578283fd5b506194f88682870161882c565b92505061920a8560408601618688565b600060208284031215619519578081fd5b81516001600160401b0381111561952e578182fd5b61144e848285016188fe565b60006020828403121561954b578081fd5b81516141948161a8b4565b600060208284031215619567578081fd5b5051919050565b60006020828403121561957f578081fd5b81516001600160401b03811115619594578182fd5b61144e848285016189aa565b6000806000606084860312156195b4578081fd5b83356195bf8161a89f565b925060208401356001600160401b03808211156195da578283fd5b61904c878388016187c5565b6000602082840312156195f7578081fd5b81516141948161a8d8565b60008060808385031215619614578182fd5b825161961f8161a8d8565b915061962e8460208501618a55565b90509250929050565b60008060008084860360a081121561964d578283fd5b604081121561965a578283fd5b50619665604061a7fa565b8535815260208601356196778161a89f565b60208201529350604085013561968c8161a89f565b9250606085013561969c8161a89f565b915060808501356001600160401b03811115618f9e578182fd5b600080600080608085870312156196cb578182fd5b84356001600160401b03808211156196e1578384fd5b90860190604082890312156196f4578384fd5b6196fe604061a7fa565b6197088984618688565b815260208301358281111561971b578586fd5b6197278a828601618715565b6020830152508096505061973e8860208901618688565b945061974d8860408901618688565b93506060870135915080821115619762578283fd5b50618faa878288016188a0565b60008060008060c08587031215619784578182fd5b61978e86866189ff565b9350606085013561979e8161a8d8565b925060808501356197ae8161a8d8565b915060a08501356001600160401b03811115618f9e578182fd5b60008060008060a085870312156197dd578182fd5b6197e78686618aa0565b9350604085013561968c8161a89f565b600060208284031215619808578081fd5b81356001600160401b038082111561981e578283fd5b9083019060a08286031215619831578283fd5b61983b60a061a7fa565b6198458684618688565b8152602083013582811115619858578485fd5b6198648782860161869e565b60208301525060408301358281111561987b578485fd5b6198878782860161876d565b60408301525060608301358281111561989e578485fd5b6198aa8782860161869e565b6060830152506080830135828111156198c1578485fd5b6198cd878286016188a0565b60808301525095945050505050565b600080600080608085870312156198f1578182fd5b84356001600160401b0380821115619907578384fd5b61991388838901618ae3565b9550602087013591506199258261a89f565b9093506040860135906199378261a89f565b90925060608601359080821115619762578283fd5b60008060008060808587031215619961578182fd5b84356001600160401b03811115619976578283fd5b61998287828801618ae3565b9450506020850135618fe68161a89f565b600080600080608085870312156199a8578182fd5b84356001600160401b038111156199bd578283fd5b6199c987828801618ae3565b9450506020850135925060408501356199e18161a89f565b91506060850135618da48161a89f565b60008060006102208486031215619a06578081fd5b619a108585618b6e565b9250619a20856101808601618c5b565b9150610200840135618df48161a89f565b60008060008084860360c0811215619a47578283fd5b6060811215619a54578283fd5b50619a5f606061a7fa565b8535619a6a8161a89f565b8152602086810135908201526040860135619a848161a89f565b604082015293506060850135619a998161a89f565b925060808501356197ae8161a89f565b600080600083850360a0811215619abe578182fd5b6060811215619acb578182fd5b50619ad6606061a7fa565b84518152602085015160058110619aeb578283fd5b60208201526040850151619afe8161a8e7565b60408201526060850151909350619b148161a8e7565b6080850151909250618df48161a8b4565b600060208284031215619b36578081fd5b815162ffffff81168114614194578182fd5b60008060408385031215619b5a578182fd5b505080516020909101519092909150565b60008060008060808587031215619b80578182fd5b505082516020840151604085015160609095015191969095509092509050565b600080600080600060a08688031215619bb7578283fd5b5050835160208501516040860151606087015160809097015192989197509594509092509050565b6001600160a01b03169052565b6000815180845260208085019450808401835b83811015619c245781516001600160a01b031687529582019590820190600101619bff565b509495945050505050565b6000815180845260208085019450808401835b83811015619c2457815187529582019590820190600101619c42565b60008151808452619c7681602086016020860161a862565b601f01601f19169290920160200192915050565b600081518352602082015160208401526040820151604084015260608201516060840152608082015160a0608085015261144e60a0850182619c5e565b80516001600160a01b031682526020808201516001600160e01b03199081169184019190915260409182015116910152565b80516001600160a01b039081168352602080830151151590840152604080830151909116908301526060908101511515910152565b60008151835260208201516040602085015261144e6040850182619c5e565b600081518352602082015160018060a01b0380821660208601528060408501511660408601528060608501511660608601525050608082015160a0608085015261144e60a0850182619c5e565b619da5828251619bdf565b6020810151619db76020840182619bdf565b506040810151619dca6040840182619e9a565b506060810151619ddd6060840182619e9a565b506080810151619df06080840182619e9a565b5060a0810151619e0360a0840182619bdf565b5060c0810151619e1660c0840182619bdf565b5060e0810151619e2960e0840182619bdf565b5061010080820151619e3d82850182619bdf565b5050610120818101519083015261014080820151619e5d82850182619ea7565b505061016090810151910152565b8051619e768161a892565b825260208181015160ff169083015260408082015190830152606090810151910152565b6001600160801b03169052565b6001600160401b03169052565b6000828483379101908152919050565b60008251619ed681846020870161a862565b9190910192915050565b6001600160a01b0391909116815260200190565b6001600160a01b03929092168252602082015260400190565b6001600160a01b0392831681529116602082015260400190565b6001600160a01b03948516815292841660208401529083166040830152909116606082015260800190565b6001600160a01b0385811682528481166020830152831660408201526080606082018190526000906168c390830184619c2f565b6001600160a01b039485168152928416602084015292166040820152606081019190915260800190565b6001600160a01b039384168152919092166020820152901515604082015260600190565b6001600160a01b0385811682528416602082015282151560408201526080606082018190526000906168c390830184619c5e565b6001600160a01b039384168152919092166020820152604081019190915260600190565b6001600160a01b03868116825285166020820152604081018490526060810183905260a06080820181905260009061a06690830184619c5e565b979650505050505050565b6001600160a01b038416815260606020820181905260009061a09590830185619bec565b82810360408401526168c38185619c2f565b6001600160a01b0385168152600061a0be8561a892565b8460208301526080604083015261a0d86080830185619c2f565b828103606084015261a0668185619c2f565b6001600160a01b0389811682526000906101009061a1078b61a892565b8a602085015281604085015261a11f8285018b619c2f565b9150838203606085015261a133828a619c2f565b9088166080850152905061a1468661a892565b8560a084015282810360c084015261a15e8186619c2f565b905082810360e084015261a1728185619c2f565b9b9a5050505050505050505050565b6001600160a01b038316815260406020820181905260009061144e90830184619d4d565b60006040825261a1b86040830185619bec565b82810360208401526114bc8185619c2f565b60006040825261a1dd6040830185619bec565b90508260208301529392505050565b60006040820160408352808551808352606085019150602092506060838202860101838801855b8381101561a24157605f1988840301855261a22f838351619c5e565b9486019492509085019060010161a213565b5050858103848701526181068188619c2f565b60208082528251828201819052600091906040908185019080840286018301878501865b8381101561a2bb57888303603f190185528151805187855261a29c88860182619c5e565b918901511515948901949094529487019492509086019060010161a278565b509098975050505050505050565b6000602082526141946020830184619c2f565b901515815260200190565b83151581526001600160a01b03831660208201526060604082018190526000906114bc90830184619c2f565b90815260200190565b60008482526060602083015261a0956060830185619c5e565b6000602082526141946020830184619c5e565b60006040825261a1dd6040830185619c5e565b6001600160a01b03938416815291909216602082015262ffffff909116604082015260600190565b6001600160a01b038316815260406020820181905260009061144e90830184619c2f565b6060810161a3b48561a892565b938152602081019290925260409091015290565b606081016008851061a3b457fe5b600060e082016002871061a3e657fe5b868352602060e08185015281875180845261010093508386019150838382028701019350828901855b8281101561a43d5760ff1988870301845261a42b868351619c8a565b9550928401929084019060010161a40f565b5050505050828103604084015261a4548186619bec565b9150506114bc6060830184619cf9565b600f93840b81529190920b6020820152604081019190915260600190565b600f83900b8152608081016141946020830184619cc7565b60208082526024908201527f556e6973776170563353616d706c65722f746f6b656e5061746820746f6f20736040820152631a1bdc9d60e21b606082015260800190565b60208082526025908201527f455243323042726964676553616d706c65722f494e56414c49445f544f4b454e6040820152642fa820a4a960d91b606082015260800190565b60208082526025908201527f556e6973776170563353616d706c65722f696e76616c69642070617468206c656040820152646e6774687360d81b606082015260800190565b6020808252601e908201527f4b79626572444d4d53616d706c65722f4e4f5f504f4f4c535f464f554e440000604082015260600190565b600061a5ab8287619cc7565b84600f0b606083015283600f0b608083015260c060a08301526168c360c0830184619c2f565b60006060825261a5e46060830186619d2e565b828103602084015261a5f68186619d2e565b915050826040830152949350505050565b60006080825261a61a6080830187619d4d565b6001600160a01b0395861660208401529390941660408201526060015292915050565b60006080825261a6506080830187619d4d565b6020830195909552506001600160a01b0392831660408201529116606090910152919050565b610200810161a6858285619d9a565b614194610180830184619e6b565b610220810161a6a28286619d9a565b61a6b0610180830185619e6b565b6001600160a01b0392909216610200919091015292915050565b60008382526040602083015261144e6040830184619bec565b60008482526060602083015261a6fc6060830185619bec565b82810360408401526168c38185619bec565b6000858252602060808184015261a7286080840187619bec565b838103604085015285518082528282019083810283018401848901865b8381101561a77357601f1986840301855261a761838351619c5e565b9487019492509086019060010161a745565b5050868103606088015261a1728189619bec565b958652602086019490945260408501929092526060840152608083015260a082015260c00190565b6000808335601e1984360301811261a7c5578283fd5b8301803591506001600160401b0382111561a7de578283fd5b60200191503681900382131561a7f357600080fd5b9250929050565b6040518181016001600160401b038111828210171561a81857600080fd5b604052919050565b60006001600160401b0382111561a835578081fd5b5060209081020190565b60006001600160401b0382111561a854578081fd5b50601f01601f191660200190565b60005b8381101561a87d57818101518382015260200161a865565b8381111561a88c576000848401525b50505050565b6004811061a89c57fe5b50565b6001600160a01b038116811461a89c57600080fd5b801515811461a89c57600080fd5b6001600160e01b03198116811461a89c57600080fd5b80600f0b811461a89c57600080fd5b6001600160801b038116811461a89c57600080fdfea264697066735822122032a7e19cc15659f0d5dafb8928f7c76aaf2ea7b348f2932d5229795623caefaf64736f6c634300060c0033",
                "opcodes": "PUSH1 0xA0 PUSH1 0x40 MSTORE PUSH32 0xEEEEEEEEEEEEEEEEEEEEEEEEEEEEEEEEEEEEEEEE000000000000000000000000 PUSH1 0x80 MSTORE CALLVALUE DUP1 ISZERO PUSH3 0x35 JUMPI PUSH1 0x0 DUP1 REVERT JUMPDEST POP PUSH1 0x80 MLOAD PUSH1 0x60 SHR PUSH2 0xA932 PUSH3 0x5E PUSH1 0x0 CODECOPY DUP1 PUSH2 0x30A4 MSTORE DUP1 PUSH2 0x4CCC MSTORE DUP1 PUSH2 0x581D MSTORE POP PUSH2 0xA932 PUSH1 0x0 RETURN INVALID PUSH1 0x80 PUSH1 0x40 MSTORE CALLVALUE DUP1 ISZERO PUSH2 0x10 JUMPI PUSH1 0x0 DUP1 REVERT JUMPDEST POP PUSH1 0x4 CALLDATASIZE LT PUSH2 0x342 JUMPI PUSH1 0x0 CALLDATALOAD PUSH1 0xE0 SHR DUP1 PUSH4 0x8B6D7B44 GT PUSH2 0x1B8 JUMPI DUP1 PUSH4 0xBD71ECF6 GT PUSH2 0x104 JUMPI DUP1 PUSH4 0xDDD5AA28 GT PUSH2 0xA2 JUMPI DUP1 PUSH4 0xF1ED7FA4 GT PUSH2 0x7C JUMPI DUP1 PUSH4 0xF1ED7FA4 EQ PUSH2 0x7AD JUMPI DUP1 PUSH4 0xF3868E9C EQ PUSH2 0x48D JUMPI DUP1 PUSH4 0xF5A4994D EQ PUSH2 0x7C0 JUMPI DUP1 PUSH4 0xFC9FE41B EQ PUSH2 0x7D3 JUMPI PUSH2 0x342 JUMP JUMPDEST DUP1 PUSH4 0xDDD5AA28 EQ PUSH2 0x774 JUMPI DUP1 PUSH4 0xE78AC045 EQ PUSH2 0x787 JUMPI DUP1 PUSH4 0xE8E4AF09 EQ PUSH2 0x79A JUMPI PUSH2 0x342 JUMP JUMPDEST DUP1 PUSH4 0xC8C74A37 GT PUSH2 0xDE JUMPI DUP1 PUSH4 0xC8C74A37 EQ PUSH2 0x728 JUMPI DUP1 PUSH4 0xC94706D8 EQ PUSH2 0x73B JUMPI DUP1 PUSH4 0xCC1621C9 EQ PUSH2 0x74E JUMPI DUP1 PUSH4 0xD9BCA372 EQ PUSH2 0x761 JUMPI PUSH2 0x342 JUMP JUMPDEST DUP1 PUSH4 0xBD71ECF6 EQ PUSH2 0x6EF JUMPI DUP1 PUSH4 0xC25C4138 EQ PUSH2 0x702 JUMPI DUP1 PUSH4 0xC8319084 EQ PUSH2 0x715 JUMPI PUSH2 0x342 JUMP JUMPDEST DUP1 PUSH4 0x9EA0FF13 GT PUSH2 0x171 JUMPI DUP1 PUSH4 0xA75E744B GT PUSH2 0x14B JUMPI DUP1 PUSH4 0xA75E744B EQ PUSH2 0x695 JUMPI DUP1 PUSH4 0xAB000276 EQ PUSH2 0x6A8 JUMPI DUP1 PUSH4 0xADC636BF EQ PUSH2 0x6BB JUMPI DUP1 PUSH4 0xB90CD2FB EQ PUSH2 0x6DC JUMPI PUSH2 0x342 JUMP JUMPDEST DUP1 PUSH4 0x9EA0FF13 EQ PUSH2 0x65C JUMPI DUP1 PUSH4 0xA0295B8B EQ PUSH2 0x66F JUMPI DUP1 PUSH4 0xA4698417 EQ PUSH2 0x682 JUMPI PUSH2 0x342 JUMP JUMPDEST DUP1 PUSH4 0x8B6D7B44 EQ PUSH2 0x5BF JUMPI DUP1 PUSH4 0x8E5A0E07 EQ PUSH2 0x5D2 JUMPI DUP1 PUSH4 0x9209483B EQ PUSH2 0x5F4 JUMPI DUP1 PUSH4 0x98777748 EQ PUSH2 0x607 JUMPI DUP1 PUSH4 0x9BF3EE35 EQ PUSH2 0x61A JUMPI DUP1 PUSH4 0x9E3F05C3 EQ PUSH2 0x63A JUMPI PUSH2 0x342 JUMP JUMPDEST DUP1 PUSH4 0x36052391 GT PUSH2 0x292 JUMPI DUP1 PUSH4 0x5AAE4E53 GT PUSH2 0x230 JUMPI DUP1 PUSH4 0x68BE3CF2 GT PUSH2 0x20A JUMPI DUP1 PUSH4 0x68BE3CF2 EQ PUSH2 0x566 JUMPI DUP1 PUSH4 0x706E2F9B EQ PUSH2 0x586 JUMPI DUP1 PUSH4 0x74C9D255 EQ PUSH2 0x599 JUMPI DUP1 PUSH4 0x7F7F4F13 EQ PUSH2 0x5AC JUMPI PUSH2 0x342 JUMP JUMPDEST DUP1 PUSH4 0x5AAE4E53 EQ PUSH2 0x52D JUMPI DUP1 PUSH4 0x5D5B674F EQ PUSH2 0x540 JUMPI DUP1 PUSH4 0x66A1AC6B EQ PUSH2 0x553 JUMPI PUSH2 0x342 JUMP JUMPDEST DUP1 PUSH4 0x494569DB GT PUSH2 0x26C JUMPI DUP1 PUSH4 0x494569DB EQ PUSH2 0x4C6 JUMPI DUP1 PUSH4 0x4EDFB5B2 EQ PUSH2 0x4D9 JUMPI DUP1 PUSH4 0x5505000A EQ PUSH2 0x4F9 JUMPI DUP1 PUSH4 0x57494B1D EQ PUSH2 0x51A JUMPI PUSH2 0x342 JUMP JUMPDEST DUP1 PUSH4 0x36052391 EQ PUSH2 0x48D JUMPI DUP1 PUSH4 0x3C883DBA EQ PUSH2 0x4A0 JUMPI DUP1 PUSH4 0x40BC03AE EQ PUSH2 0x4B3 JUMPI PUSH2 0x342 JUMP JUMPDEST DUP1 PUSH4 0x252322B3 GT PUSH2 0x2FF JUMPI DUP1 PUSH4 0x2AA64319 GT PUSH2 0x2D9 JUMPI DUP1 PUSH4 0x2AA64319 EQ PUSH2 0x432 JUMPI DUP1 PUSH4 0x2D753AA4 EQ PUSH2 0x454 JUMPI DUP1 PUSH4 0x30D6570D EQ PUSH2 0x467 JUMPI DUP1 PUSH4 0x3105FEC1 EQ PUSH2 0x47A JUMPI PUSH2 0x342 JUMP JUMPDEST DUP1 PUSH4 0x252322B3 EQ PUSH2 0x3F9 JUMPI DUP1 PUSH4 0x281E3432 EQ PUSH2 0x40C JUMPI DUP1 PUSH4 0x29FA4AA0 EQ PUSH2 0x41F JUMPI PUSH2 0x342 JUMP JUMPDEST DUP1 PUSH4 0x1CB0EF7 EQ PUSH2 0x347 JUMPI DUP1 PUSH4 0x496D5DC EQ PUSH2 0x370 JUMPI DUP1 PUSH4 0x1022742B EQ PUSH2 0x391 JUMPI DUP1 PUSH4 0x149DAB0E EQ PUSH2 0x3A4 JUMPI DUP1 PUSH4 0x16279055 EQ PUSH2 0x3C6 JUMPI DUP1 PUSH4 0x2339078F EQ PUSH2 0x3E6 JUMPI JUMPDEST PUSH1 0x0 DUP1 REVERT JUMPDEST PUSH2 0x35A PUSH2 0x355 CALLDATASIZE PUSH1 0x4 PUSH2 0x97F7 JUMP JUMPDEST PUSH2 0x7E6 JUMP JUMPDEST PUSH1 0x40 MLOAD PUSH2 0x367 SWAP2 SWAP1 PUSH2 0xA2C9 JUMP JUMPDEST PUSH1 0x40 MLOAD DUP1 SWAP2 SUB SWAP1 RETURN JUMPDEST PUSH2 0x383 PUSH2 0x37E CALLDATASIZE PUSH1 0x4 PUSH2 0x9006 JUMP JUMPDEST PUSH2 0x981 JUMP JUMPDEST PUSH1 0x40 MLOAD PUSH2 0x367 SWAP3 SWAP2 SWAP1 PUSH2 0xA1A5 JUMP JUMPDEST PUSH2 0x35A PUSH2 0x39F CALLDATASIZE PUSH1 0x4 PUSH2 0x9439 JUMP JUMPDEST PUSH2 0xB27 JUMP JUMPDEST PUSH2 0x3B7 PUSH2 0x3B2 CALLDATASIZE PUSH1 0x4 PUSH2 0x96B6 JUMP JUMPDEST PUSH2 0xC9A JUMP JUMPDEST PUSH1 0x40 MLOAD PUSH2 0x367 SWAP4 SWAP3 SWAP2 SWAP1 PUSH2 0xA071 JUMP JUMPDEST PUSH2 0x3D9 PUSH2 0x3D4 CALLDATASIZE PUSH1 0x4 PUSH2 0x8CE0 JUMP JUMPDEST PUSH2 0xDFA JUMP JUMPDEST PUSH1 0x40 MLOAD PUSH2 0x367 SWAP2 SWAP1 PUSH2 0xA2DC JUMP JUMPDEST PUSH2 0x35A PUSH2 0x3F4 CALLDATASIZE PUSH1 0x4 PUSH2 0x9637 JUMP JUMPDEST PUSH2 0xE04 JUMP JUMPDEST PUSH2 0x35A PUSH2 0x407 CALLDATASIZE PUSH1 0x4 PUSH2 0x8F44 JUMP JUMPDEST PUSH2 0x102B JUMP JUMPDEST PUSH2 0x35A PUSH2 0x41A CALLDATASIZE PUSH1 0x4 PUSH2 0x9A31 JUMP JUMPDEST PUSH2 0x1201 JUMP JUMPDEST PUSH2 0x35A PUSH2 0x42D CALLDATASIZE PUSH1 0x4 PUSH2 0x976F JUMP JUMPDEST PUSH2 0x1456 JUMP JUMPDEST PUSH2 0x445 PUSH2 0x440 CALLDATASIZE PUSH1 0x4 PUSH2 0x97C8 JUMP JUMPDEST PUSH2 0x14C5 JUMP JUMPDEST PUSH1 0x40 MLOAD PUSH2 0x367 SWAP4 SWAP3 SWAP2 SWAP1 PUSH2 0xA2E7 JUMP JUMPDEST PUSH2 0x35A PUSH2 0x462 CALLDATASIZE PUSH1 0x4 PUSH2 0x8EBF JUMP JUMPDEST PUSH2 0x17A2 JUMP JUMPDEST PUSH2 0x35A PUSH2 0x475 CALLDATASIZE PUSH1 0x4 PUSH2 0x8F44 JUMP JUMPDEST PUSH2 0x192B JUMP JUMPDEST PUSH2 0x35A PUSH2 0x488 CALLDATASIZE PUSH1 0x4 PUSH2 0x9006 JUMP JUMPDEST PUSH2 0x1A9F JUMP JUMPDEST PUSH2 0x35A PUSH2 0x49B CALLDATASIZE PUSH1 0x4 PUSH2 0x97C8 JUMP JUMPDEST PUSH2 0x1C23 JUMP JUMPDEST PUSH2 0x35A PUSH2 0x4AE CALLDATASIZE PUSH1 0x4 PUSH2 0x97F7 JUMP JUMPDEST PUSH2 0x1CB5 JUMP JUMPDEST PUSH2 0x35A PUSH2 0x4C1 CALLDATASIZE PUSH1 0x4 PUSH2 0x976F JUMP JUMPDEST PUSH2 0x1E44 JUMP JUMPDEST PUSH2 0x383 PUSH2 0x4D4 CALLDATASIZE PUSH1 0x4 PUSH2 0x9006 JUMP JUMPDEST PUSH2 0x1FC5 JUMP JUMPDEST PUSH2 0x4EC PUSH2 0x4E7 CALLDATASIZE PUSH1 0x4 PUSH2 0x9993 JUMP JUMPDEST PUSH2 0x2151 JUMP JUMPDEST PUSH1 0x40 MLOAD PUSH2 0x367 SWAP2 SWAP1 PUSH2 0xA335 JUMP JUMPDEST PUSH2 0x50C PUSH2 0x507 CALLDATASIZE PUSH1 0x4 PUSH2 0x95A0 JUMP JUMPDEST PUSH2 0x23CE JUMP JUMPDEST PUSH1 0x40 MLOAD PUSH2 0x367 SWAP3 SWAP2 SWAP1 PUSH2 0xA1EC JUMP JUMPDEST PUSH2 0x35A PUSH2 0x528 CALLDATASIZE PUSH1 0x4 PUSH2 0x8F44 JUMP JUMPDEST PUSH2 0x2619 JUMP JUMPDEST PUSH2 0x50C PUSH2 0x53B CALLDATASIZE PUSH1 0x4 PUSH2 0x95A0 JUMP JUMPDEST PUSH2 0x2B90 JUMP JUMPDEST PUSH2 0x35A PUSH2 0x54E CALLDATASIZE PUSH1 0x4 PUSH2 0x8F44 JUMP JUMPDEST PUSH2 0x2DD5 JUMP JUMPDEST PUSH2 0x35A PUSH2 0x561 CALLDATASIZE PUSH1 0x4 PUSH2 0x9439 JUMP JUMPDEST PUSH2 0x2E3B JUMP JUMPDEST PUSH2 0x579 PUSH2 0x574 CALLDATASIZE PUSH1 0x4 PUSH2 0x9213 JUMP JUMPDEST PUSH2 0x2EF0 JUMP JUMPDEST PUSH1 0x40 MLOAD PUSH2 0x367 SWAP2 SWAP1 PUSH2 0xA254 JUMP JUMPDEST PUSH2 0x35A PUSH2 0x594 CALLDATASIZE PUSH1 0x4 PUSH2 0x92EA JUMP JUMPDEST PUSH2 0x3051 JUMP JUMPDEST PUSH2 0x3B7 PUSH2 0x5A7 CALLDATASIZE PUSH1 0x4 PUSH2 0x96B6 JUMP JUMPDEST PUSH2 0x3143 JUMP JUMPDEST PUSH2 0x35A PUSH2 0x5BA CALLDATASIZE PUSH1 0x4 PUSH2 0x9A31 JUMP JUMPDEST PUSH2 0x3152 JUMP JUMPDEST PUSH2 0x35A PUSH2 0x5CD CALLDATASIZE PUSH1 0x4 PUSH2 0x976F JUMP JUMPDEST PUSH2 0x339F JUMP JUMPDEST PUSH2 0x5E5 PUSH2 0x5E0 CALLDATASIZE PUSH1 0x4 PUSH2 0x9281 JUMP JUMPDEST PUSH2 0x3702 JUMP JUMPDEST PUSH1 0x40 MLOAD PUSH2 0x367 SWAP4 SWAP3 SWAP2 SWAP1 PUSH2 0xA5D1 JUMP JUMPDEST PUSH2 0x35A PUSH2 0x602 CALLDATASIZE PUSH1 0x4 PUSH2 0x976F JUMP JUMPDEST PUSH2 0x391B JUMP JUMPDEST PUSH2 0x35A PUSH2 0x615 CALLDATASIZE PUSH1 0x4 PUSH2 0x8F44 JUMP JUMPDEST PUSH2 0x3B1B JUMP JUMPDEST PUSH2 0x62D PUSH2 0x628 CALLDATASIZE PUSH1 0x4 PUSH2 0x99F1 JUMP JUMPDEST PUSH2 0x4054 JUMP JUMPDEST PUSH1 0x40 MLOAD PUSH2 0x367 SWAP2 SWAP1 PUSH2 0xA313 JUMP JUMPDEST PUSH2 0x64D PUSH2 0x648 CALLDATASIZE PUSH1 0x4 PUSH2 0x98DC JUMP JUMPDEST PUSH2 0x419B JUMP JUMPDEST PUSH1 0x40 MLOAD PUSH2 0x367 SWAP4 SWAP3 SWAP2 SWAP1 PUSH2 0xA31C JUMP JUMPDEST PUSH2 0x62D PUSH2 0x66A CALLDATASIZE PUSH1 0x4 PUSH2 0x8FB6 JUMP JUMPDEST PUSH2 0x42C1 JUMP JUMPDEST PUSH2 0x35A PUSH2 0x67D CALLDATASIZE PUSH1 0x4 PUSH2 0x9637 JUMP JUMPDEST PUSH2 0x44D7 JUMP JUMPDEST PUSH2 0x35A PUSH2 0x690 CALLDATASIZE PUSH1 0x4 PUSH2 0x8F44 JUMP JUMPDEST PUSH2 0x46D3 JUMP JUMPDEST PUSH2 0x445 PUSH2 0x6A3 CALLDATASIZE PUSH1 0x4 PUSH2 0x9078 JUMP JUMPDEST PUSH2 0x4828 JUMP JUMPDEST PUSH2 0x35A PUSH2 0x6B6 CALLDATASIZE PUSH1 0x4 PUSH2 0x8F44 JUMP JUMPDEST PUSH2 0x4965 JUMP JUMPDEST PUSH2 0x6CE PUSH2 0x6C9 CALLDATASIZE PUSH1 0x4 PUSH2 0x8F44 JUMP JUMPDEST PUSH2 0x4AC3 JUMP JUMPDEST PUSH1 0x40 MLOAD PUSH2 0x367 SWAP3 SWAP2 SWAP1 PUSH2 0xA383 JUMP JUMPDEST PUSH2 0x35A PUSH2 0x6EA CALLDATASIZE PUSH1 0x4 PUSH2 0x8F44 JUMP JUMPDEST PUSH2 0x4C13 JUMP JUMPDEST PUSH2 0x35A PUSH2 0x6FD CALLDATASIZE PUSH1 0x4 PUSH2 0x931C JUMP JUMPDEST PUSH2 0x4C79 JUMP JUMPDEST PUSH2 0x35A PUSH2 0x710 CALLDATASIZE PUSH1 0x4 PUSH2 0x8F44 JUMP JUMPDEST PUSH2 0x4D75 JUMP JUMPDEST PUSH2 0x35A PUSH2 0x723 CALLDATASIZE PUSH1 0x4 PUSH2 0x8F44 JUMP JUMPDEST PUSH2 0x4DDB JUMP JUMPDEST PUSH2 0x35A PUSH2 0x736 CALLDATASIZE PUSH1 0x4 PUSH2 0x9006 JUMP JUMPDEST PUSH2 0x4F98 JUMP JUMPDEST PUSH2 0x35A PUSH2 0x749 CALLDATASIZE PUSH1 0x4 PUSH2 0x8F44 JUMP JUMPDEST PUSH2 0x5104 JUMP JUMPDEST PUSH2 0x64D PUSH2 0x75C CALLDATASIZE PUSH1 0x4 PUSH2 0x98DC JUMP JUMPDEST PUSH2 0x5262 JUMP JUMPDEST PUSH2 0x445 PUSH2 0x76F CALLDATASIZE PUSH1 0x4 PUSH2 0x9078 JUMP JUMPDEST PUSH2 0x5448 JUMP JUMPDEST PUSH2 0x445 PUSH2 0x782 CALLDATASIZE PUSH1 0x4 PUSH2 0x97C8 JUMP JUMPDEST PUSH2 0x5537 JUMP JUMPDEST PUSH2 0x35A PUSH2 0x795 CALLDATASIZE PUSH1 0x4 PUSH2 0x9360 JUMP JUMPDEST PUSH2 0x57CA JUMP JUMPDEST PUSH2 0x35A PUSH2 0x7A8 CALLDATASIZE PUSH1 0x4 PUSH2 0x8F44 JUMP JUMPDEST PUSH2 0x58BF JUMP JUMPDEST PUSH2 0x62D PUSH2 0x7BB CALLDATASIZE PUSH1 0x4 PUSH2 0x994C JUMP JUMPDEST PUSH2 0x59F2 JUMP JUMPDEST PUSH2 0x6CE PUSH2 0x7CE CALLDATASIZE PUSH1 0x4 PUSH2 0x8F44 JUMP JUMPDEST PUSH2 0x5B91 JUMP JUMPDEST PUSH2 0x5E5 PUSH2 0x7E1 CALLDATASIZE PUSH1 0x4 PUSH2 0x9281 JUMP JUMPDEST PUSH2 0x5C7D JUMP JUMPDEST PUSH1 0x80 DUP2 ADD MLOAD MLOAD PUSH1 0x60 SWAP1 DUP1 PUSH1 0x1 PUSH1 0x1 PUSH1 0x40 SHL SUB DUP2 GT DUP1 ISZERO PUSH2 0x805 JUMPI PUSH1 0x0 DUP1 REVERT JUMPDEST POP PUSH1 0x40 MLOAD SWAP1 DUP1 DUP3 MSTORE DUP1 PUSH1 0x20 MUL PUSH1 0x20 ADD DUP3 ADD PUSH1 0x40 MSTORE DUP1 ISZERO PUSH2 0x82F JUMPI DUP2 PUSH1 0x20 ADD PUSH1 0x20 DUP3 MUL DUP1 CALLDATASIZE DUP4 CALLDATACOPY ADD SWAP1 POP JUMPDEST POP SWAP2 POP PUSH1 0x0 JUMPDEST DUP2 DUP2 LT ISZERO PUSH2 0x97A JUMPI DUP4 PUSH1 0x0 ADD MLOAD PUSH1 0x1 PUSH1 0x1 PUSH1 0xA0 SHL SUB AND PUSH4 0x846EE14B PUSH3 0x249F0 DUP7 PUSH1 0x80 ADD MLOAD DUP5 DUP2 MLOAD DUP2 LT PUSH2 0x864 JUMPI INVALID JUMPDEST PUSH1 0x20 MUL PUSH1 0x20 ADD ADD MLOAD DUP8 PUSH1 0x20 ADD MLOAD DUP9 PUSH1 0x40 ADD MLOAD DUP10 PUSH1 0x60 ADD MLOAD PUSH1 0x40 MLOAD DUP7 PUSH4 0xFFFFFFFF AND PUSH1 0xE0 SHL DUP2 MSTORE PUSH1 0x4 ADD PUSH2 0x89A SWAP5 SWAP4 SWAP3 SWAP2 SWAP1 PUSH2 0xA70E JUMP JUMPDEST PUSH1 0x0 PUSH1 0x40 MLOAD DUP1 DUP4 SUB DUP2 DUP8 DUP1 EXTCODESIZE ISZERO DUP1 ISZERO PUSH2 0x8B2 JUMPI PUSH1 0x0 DUP1 REVERT JUMPDEST POP DUP7 STATICCALL SWAP4 POP POP POP POP DUP1 ISZERO PUSH2 0x8E8 JUMPI POP PUSH1 0x40 MLOAD RETURNDATASIZE PUSH1 0x0 DUP3 RETURNDATACOPY PUSH1 0x1F RETURNDATASIZE SWAP1 DUP2 ADD PUSH1 0x1F NOT AND DUP3 ADD PUSH1 0x40 MSTORE PUSH2 0x8E5 SWAP2 SWAP1 DUP2 ADD SWAP1 PUSH2 0x9508 JUMP JUMPDEST PUSH1 0x1 JUMPDEST PUSH2 0x922 JUMPI RETURNDATASIZE DUP1 DUP1 ISZERO PUSH2 0x916 JUMPI PUSH1 0x40 MLOAD SWAP2 POP PUSH1 0x1F NOT PUSH1 0x3F RETURNDATASIZE ADD AND DUP3 ADD PUSH1 0x40 MSTORE RETURNDATASIZE DUP3 MSTORE RETURNDATASIZE PUSH1 0x0 PUSH1 0x20 DUP5 ADD RETURNDATACOPY PUSH2 0x91B JUMP JUMPDEST PUSH1 0x60 SWAP2 POP JUMPDEST POP POP PUSH2 0x97A JUMP JUMPDEST DUP1 PUSH1 0x0 DUP2 MLOAD DUP2 LT PUSH2 0x92F JUMPI INVALID JUMPDEST PUSH1 0x20 MUL PUSH1 0x20 ADD ADD MLOAD DUP5 DUP4 DUP2 MLOAD DUP2 LT PUSH2 0x943 JUMPI INVALID JUMPDEST PUSH1 0x20 MUL PUSH1 0x20 ADD ADD DUP2 DUP2 MSTORE POP POP DUP4 DUP3 DUP2 MLOAD DUP2 LT PUSH2 0x95B JUMPI INVALID JUMPDEST PUSH1 0x20 MUL PUSH1 0x20 ADD ADD MLOAD PUSH1 0x0 EQ ISZERO PUSH2 0x971 JUMPI POP PUSH2 0x97A JUMP JUMPDEST POP PUSH1 0x1 ADD PUSH2 0x835 JUMP JUMPDEST POP POP SWAP2 SWAP1 POP JUMP JUMPDEST DUP1 MLOAD PUSH1 0x60 SWAP1 DUP2 SWAP1 DUP1 PUSH1 0x1 PUSH1 0x1 PUSH1 0x40 SHL SUB DUP2 GT DUP1 ISZERO PUSH2 0x99E JUMPI PUSH1 0x0 DUP1 REVERT JUMPDEST POP PUSH1 0x40 MLOAD SWAP1 DUP1 DUP3 MSTORE DUP1 PUSH1 0x20 MUL PUSH1 0x20 ADD DUP3 ADD PUSH1 0x40 MSTORE DUP1 ISZERO PUSH2 0x9C8 JUMPI DUP2 PUSH1 0x20 ADD PUSH1 0x20 DUP3 MUL DUP1 CALLDATASIZE DUP4 CALLDATACOPY ADD SWAP1 POP JUMPDEST POP SWAP2 POP PUSH2 0x9D5 DUP7 DUP7 PUSH2 0x5E92 JUMP JUMPDEST SWAP3 POP DUP3 MLOAD PUSH1 0x0 EQ ISZERO PUSH2 0x9E7 JUMPI POP PUSH2 0xB1F JUMP JUMPDEST PUSH1 0x0 JUMPDEST DUP2 DUP2 LT ISZERO PUSH2 0xB1C JUMPI DUP7 PUSH1 0x1 PUSH1 0x1 PUSH1 0xA0 SHL SUB AND PUSH4 0xA8312B1D PUSH3 0x249F0 DUP8 DUP5 DUP2 MLOAD DUP2 LT PUSH2 0xA11 JUMPI INVALID JUMPDEST PUSH1 0x20 MUL PUSH1 0x20 ADD ADD MLOAD DUP8 DUP11 PUSH1 0x40 MLOAD DUP6 PUSH4 0xFFFFFFFF AND PUSH1 0xE0 SHL DUP2 MSTORE PUSH1 0x4 ADD PUSH2 0xA39 SWAP4 SWAP3 SWAP2 SWAP1 PUSH2 0xA6E3 JUMP JUMPDEST PUSH1 0x0 PUSH1 0x40 MLOAD DUP1 DUP4 SUB DUP2 DUP8 DUP1 EXTCODESIZE ISZERO DUP1 ISZERO PUSH2 0xA51 JUMPI PUSH1 0x0 DUP1 REVERT JUMPDEST POP DUP7 STATICCALL SWAP4 POP POP POP POP DUP1 ISZERO PUSH2 0xA87 JUMPI POP PUSH1 0x40 MLOAD RETURNDATASIZE PUSH1 0x0 DUP3 RETURNDATACOPY PUSH1 0x1F RETURNDATASIZE SWAP1 DUP2 ADD PUSH1 0x1F NOT AND DUP3 ADD PUSH1 0x40 MSTORE PUSH2 0xA84 SWAP2 SWAP1 DUP2 ADD SWAP1 PUSH2 0x9508 JUMP JUMPDEST PUSH1 0x1 JUMPDEST PUSH2 0xAC1 JUMPI RETURNDATASIZE DUP1 DUP1 ISZERO PUSH2 0xAB5 JUMPI PUSH1 0x40 MLOAD SWAP2 POP PUSH1 0x1F NOT PUSH1 0x3F RETURNDATASIZE ADD AND DUP3 ADD PUSH1 0x40 MSTORE RETURNDATASIZE DUP3 MSTORE RETURNDATASIZE PUSH1 0x0 PUSH1 0x20 DUP5 ADD RETURNDATACOPY PUSH2 0xABA JUMP JUMPDEST PUSH1 0x60 SWAP2 POP JUMPDEST POP POP PUSH2 0xB1C JUMP JUMPDEST DUP1 PUSH1 0x1 DUP9 MLOAD SUB DUP2 MLOAD DUP2 LT PUSH2 0xAD1 JUMPI INVALID JUMPDEST PUSH1 0x20 MUL PUSH1 0x20 ADD ADD MLOAD DUP5 DUP4 DUP2 MLOAD DUP2 LT PUSH2 0xAE5 JUMPI INVALID JUMPDEST PUSH1 0x20 MUL PUSH1 0x20 ADD ADD DUP2 DUP2 MSTORE POP POP DUP4 DUP3 DUP2 MLOAD DUP2 LT PUSH2 0xAFD JUMPI INVALID JUMPDEST PUSH1 0x20 MUL PUSH1 0x20 ADD ADD MLOAD PUSH1 0x0 EQ ISZERO PUSH2 0xB13 JUMPI POP PUSH2 0xB1C JUMP JUMPDEST POP PUSH1 0x1 ADD PUSH2 0x9EA JUMP JUMPDEST POP POP JUMPDEST SWAP4 POP SWAP4 SWAP2 POP POP JUMP JUMPDEST PUSH1 0x60 DUP4 MLOAD PUSH1 0x1 PUSH1 0x1 PUSH1 0x40 SHL SUB DUP2 GT DUP1 ISZERO PUSH2 0xB40 JUMPI PUSH1 0x0 DUP1 REVERT JUMPDEST POP PUSH1 0x40 MLOAD SWAP1 DUP1 DUP3 MSTORE DUP1 PUSH1 0x20 MUL PUSH1 0x20 ADD DUP3 ADD PUSH1 0x40 MSTORE DUP1 ISZERO PUSH2 0xB6A JUMPI DUP2 PUSH1 0x20 ADD PUSH1 0x20 DUP3 MUL DUP1 CALLDATASIZE DUP4 CALLDATACOPY ADD SWAP1 POP JUMPDEST POP SWAP1 POP PUSH1 0x0 JUMPDEST DUP5 MLOAD DUP2 EQ PUSH2 0xC92 JUMPI ADDRESS PUSH1 0x1 PUSH1 0x1 PUSH1 0xA0 SHL SUB AND PUSH4 0x9BF3EE35 PUSH3 0x30D40 DUP8 DUP5 DUP2 MLOAD DUP2 LT PUSH2 0xB97 JUMPI INVALID JUMPDEST PUSH1 0x20 MUL PUSH1 0x20 ADD ADD MLOAD DUP8 DUP6 DUP2 MLOAD DUP2 LT PUSH2 0xBAB JUMPI INVALID JUMPDEST PUSH1 0x20 MUL PUSH1 0x20 ADD ADD MLOAD DUP8 PUSH1 0x40 MLOAD DUP6 PUSH4 0xFFFFFFFF AND PUSH1 0xE0 SHL DUP2 MSTORE PUSH1 0x4 ADD PUSH2 0xBD2 SWAP4 SWAP3 SWAP2 SWAP1 PUSH2 0xA693 JUMP JUMPDEST PUSH1 0x20 PUSH1 0x40 MLOAD DUP1 DUP4 SUB DUP2 DUP8 DUP1 EXTCODESIZE ISZERO DUP1 ISZERO PUSH2 0xBEA JUMPI PUSH1 0x0 DUP1 REVERT JUMPDEST POP DUP7 STATICCALL SWAP4 POP POP POP POP DUP1 ISZERO PUSH2 0xC1B JUMPI POP PUSH1 0x40 DUP1 MLOAD PUSH1 0x1F RETURNDATASIZE SWAP1 DUP2 ADD PUSH1 0x1F NOT AND DUP3 ADD SWAP1 SWAP3 MSTORE PUSH2 0xC18 SWAP2 DUP2 ADD SWAP1 PUSH2 0x9556 JUMP JUMPDEST PUSH1 0x1 JUMPDEST PUSH2 0xC6F JUMPI RETURNDATASIZE DUP1 DUP1 ISZERO PUSH2 0xC49 JUMPI PUSH1 0x40 MLOAD SWAP2 POP PUSH1 0x1F NOT PUSH1 0x3F RETURNDATASIZE ADD AND DUP3 ADD PUSH1 0x40 MSTORE RETURNDATASIZE DUP3 MSTORE RETURNDATASIZE PUSH1 0x0 PUSH1 0x20 DUP5 ADD RETURNDATACOPY PUSH2 0xC4E JUMP JUMPDEST PUSH1 0x60 SWAP2 POP JUMPDEST POP PUSH1 0x0 DUP4 DUP4 DUP2 MLOAD DUP2 LT PUSH2 0xC5D JUMPI INVALID JUMPDEST PUSH1 0x20 MUL PUSH1 0x20 ADD ADD DUP2 DUP2 MSTORE POP POP POP PUSH2 0xC8A JUMP JUMPDEST DUP1 DUP4 DUP4 DUP2 MLOAD DUP2 LT PUSH2 0xC7C JUMPI INVALID JUMPDEST PUSH1 0x20 MUL PUSH1 0x20 ADD ADD DUP2 DUP2 MSTORE POP POP POP JUMPDEST PUSH1 0x1 ADD PUSH2 0xB70 JUMP JUMPDEST POP SWAP4 SWAP3 POP POP POP JUMP JUMPDEST PUSH1 0x0 PUSH1 0x60 DUP1 DUP7 PUSH1 0x20 ADD MLOAD MLOAD PUSH1 0x0 EQ ISZERO PUSH2 0xCB2 JUMPI PUSH2 0xDF0 JUMP JUMPDEST PUSH2 0xCBE DUP8 DUP8 DUP8 DUP8 PUSH2 0x6181 JUMP JUMPDEST DUP6 MLOAD SWAP2 SWAP5 POP SWAP3 POP PUSH1 0x1 PUSH1 0x1 PUSH1 0x40 SHL SUB DUP2 GT DUP1 ISZERO PUSH2 0xCDA JUMPI PUSH1 0x0 DUP1 REVERT JUMPDEST POP PUSH1 0x40 MLOAD SWAP1 DUP1 DUP3 MSTORE DUP1 PUSH1 0x20 MUL PUSH1 0x20 ADD DUP3 ADD PUSH1 0x40 MSTORE DUP1 ISZERO PUSH2 0xD04 JUMPI DUP2 PUSH1 0x20 ADD PUSH1 0x20 DUP3 MUL DUP1 CALLDATASIZE DUP4 CALLDATACOPY ADD SWAP1 POP JUMPDEST POP SWAP1 POP PUSH1 0x0 JUMPDEST DUP2 MLOAD DUP2 LT ISZERO PUSH2 0xDEE JUMPI DUP4 PUSH1 0x1 PUSH1 0x1 PUSH1 0xA0 SHL SUB AND PUSH4 0x7F9C0ECD PUSH3 0x493E0 DUP6 DUP9 DUP6 DUP2 MLOAD DUP2 LT PUSH2 0xD33 JUMPI INVALID JUMPDEST PUSH1 0x20 MUL PUSH1 0x20 ADD ADD MLOAD PUSH1 0x40 MLOAD DUP5 PUSH4 0xFFFFFFFF AND PUSH1 0xE0 SHL DUP2 MSTORE PUSH1 0x4 ADD PUSH2 0xD58 SWAP3 SWAP2 SWAP1 PUSH2 0xA1CA JUMP JUMPDEST PUSH1 0x20 PUSH1 0x40 MLOAD DUP1 DUP4 SUB DUP2 DUP8 DUP1 EXTCODESIZE ISZERO DUP1 ISZERO PUSH2 0xD70 JUMPI PUSH1 0x0 DUP1 REVERT JUMPDEST POP DUP7 STATICCALL SWAP4 POP POP POP POP DUP1 ISZERO PUSH2 0xDA1 JUMPI POP PUSH1 0x40 DUP1 MLOAD PUSH1 0x1F RETURNDATASIZE SWAP1 DUP2 ADD PUSH1 0x1F NOT AND DUP3 ADD SWAP1 SWAP3 MSTORE PUSH2 0xD9E SWAP2 DUP2 ADD SWAP1 PUSH2 0x9556 JUMP JUMPDEST PUSH1 0x1 JUMPDEST PUSH2 0xDAA JUMPI PUSH2 0xDEE JUMP JUMPDEST DUP1 DUP4 DUP4 DUP2 MLOAD DUP2 LT PUSH2 0xDB7 JUMPI INVALID JUMPDEST PUSH1 0x20 MUL PUSH1 0x20 ADD ADD DUP2 DUP2 MSTORE POP POP DUP3 DUP3 DUP2 MLOAD DUP2 LT PUSH2 0xDCF JUMPI INVALID JUMPDEST PUSH1 0x20 MUL PUSH1 0x20 ADD ADD MLOAD PUSH1 0x0 EQ ISZERO PUSH2 0xDE5 JUMPI POP PUSH2 0xDEE JUMP JUMPDEST POP PUSH1 0x1 ADD PUSH2 0xD0A JUMP JUMPDEST POP JUMPDEST SWAP5 POP SWAP5 POP SWAP5 SWAP2 POP POP JUMP JUMPDEST DUP1 EXTCODESIZE ISZERO ISZERO JUMPDEST SWAP2 SWAP1 POP JUMP JUMPDEST PUSH1 0x60 PUSH2 0xE10 DUP4 DUP6 PUSH2 0x63B3 JUMP JUMPDEST PUSH1 0x20 DUP6 ADD MLOAD PUSH1 0x40 DUP1 MLOAD PUSH1 0x2 DUP1 DUP3 MSTORE PUSH1 0x60 DUP3 DUP2 ADD SWAP1 SWAP4 MSTORE DUP2 PUSH1 0x20 ADD PUSH1 0x20 DUP3 MUL DUP1 CALLDATASIZE DUP4 CALLDATACOPY ADD SWAP1 POP POP SWAP1 POP DUP6 DUP2 PUSH1 0x0 DUP2 MLOAD DUP2 LT PUSH2 0xE46 JUMPI INVALID JUMPDEST PUSH1 0x20 MUL PUSH1 0x20 ADD ADD SWAP1 PUSH1 0x1 PUSH1 0x1 PUSH1 0xA0 SHL SUB AND SWAP1 DUP2 PUSH1 0x1 PUSH1 0x1 PUSH1 0xA0 SHL SUB AND DUP2 MSTORE POP POP DUP5 DUP2 PUSH1 0x1 DUP2 MLOAD DUP2 LT PUSH2 0xE74 JUMPI INVALID JUMPDEST PUSH1 0x1 PUSH1 0x1 PUSH1 0xA0 SHL SUB SWAP1 SWAP3 AND PUSH1 0x20 SWAP3 DUP4 MUL SWAP2 SWAP1 SWAP2 ADD SWAP1 SWAP2 ADD MSTORE DUP4 MLOAD DUP1 PUSH1 0x1 PUSH1 0x1 PUSH1 0x40 SHL SUB DUP2 GT DUP1 ISZERO PUSH2 0xEA4 JUMPI PUSH1 0x0 DUP1 REVERT JUMPDEST POP PUSH1 0x40 MLOAD SWAP1 DUP1 DUP3 MSTORE DUP1 PUSH1 0x20 MUL PUSH1 0x20 ADD DUP3 ADD PUSH1 0x40 MSTORE DUP1 ISZERO PUSH2 0xECE JUMPI DUP2 PUSH1 0x20 ADD PUSH1 0x20 DUP3 MUL DUP1 CALLDATASIZE DUP4 CALLDATACOPY ADD SWAP1 POP JUMPDEST POP SWAP4 POP PUSH2 0xED9 PUSH2 0x8524 JUMP JUMPDEST PUSH2 0xEE1 PUSH2 0x63E9 JUMP JUMPDEST SWAP1 POP PUSH1 0x0 JUMPDEST DUP3 DUP2 LT ISZERO PUSH2 0x101E JUMPI PUSH1 0x60 PUSH2 0xF0D DUP12 DUP10 DUP5 DUP2 MLOAD DUP2 LT PUSH2 0xF00 JUMPI INVALID JUMPDEST PUSH1 0x20 MUL PUSH1 0x20 ADD ADD MLOAD PUSH2 0x6418 JUMP JUMPDEST PUSH1 0x40 MLOAD PUSH4 0x7C268337 PUSH1 0xE1 SHL DUP2 MSTORE SWAP1 SWAP2 POP PUSH1 0x1 PUSH1 0x1 PUSH1 0xA0 SHL SUB DUP8 AND SWAP1 PUSH4 0xF84D066E SWAP1 PUSH2 0xF43 SWAP1 PUSH1 0x0 SWAP1 DUP6 SWAP1 DUP11 SWAP1 DUP10 SWAP1 PUSH1 0x4 ADD PUSH2 0xA3D6 JUMP JUMPDEST PUSH1 0x0 PUSH1 0x40 MLOAD DUP1 DUP4 SUB DUP2 PUSH1 0x0 DUP8 DUP1 EXTCODESIZE ISZERO DUP1 ISZERO PUSH2 0xF5D JUMPI PUSH1 0x0 DUP1 REVERT JUMPDEST POP GAS CALL SWAP3 POP POP POP DUP1 ISZERO PUSH2 0xF92 JUMPI POP PUSH1 0x40 MLOAD RETURNDATASIZE PUSH1 0x0 DUP3 RETURNDATACOPY PUSH1 0x1F RETURNDATASIZE SWAP1 DUP2 ADD PUSH1 0x1F NOT AND DUP3 ADD PUSH1 0x40 MSTORE PUSH2 0xF8F SWAP2 SWAP1 DUP2 ADD SWAP1 PUSH2 0x93B6 JUMP JUMPDEST PUSH1 0x1 JUMPDEST PUSH2 0xFCD JUMPI RETURNDATASIZE DUP1 DUP1 ISZERO PUSH2 0xFC0 JUMPI PUSH1 0x40 MLOAD SWAP2 POP PUSH1 0x1F NOT PUSH1 0x3F RETURNDATASIZE ADD AND DUP3 ADD PUSH1 0x40 MSTORE RETURNDATASIZE DUP3 MSTORE RETURNDATASIZE PUSH1 0x0 PUSH1 0x20 DUP5 ADD RETURNDATACOPY PUSH2 0xFC5 JUMP JUMPDEST PUSH1 0x60 SWAP2 POP JUMPDEST POP POP POP PUSH2 0x101E JUMP JUMPDEST PUSH1 0x0 DUP2 PUSH1 0x1 DUP2 MLOAD DUP2 LT PUSH2 0xFDC JUMPI INVALID JUMPDEST PUSH1 0x20 MUL PUSH1 0x20 ADD ADD MLOAD PUSH1 0x0 NOT MUL SWAP1 POP PUSH1 0x0 DUP2 SGT PUSH2 0xFFA JUMPI POP POP POP PUSH2 0x101E JUMP JUMPDEST DUP1 DUP10 DUP6 DUP2 MLOAD DUP2 LT PUSH2 0x1007 JUMPI INVALID JUMPDEST PUSH1 0x20 MUL PUSH1 0x20 ADD ADD DUP2 DUP2 MSTORE POP POP POP POP POP PUSH1 0x1 ADD PUSH2 0xEE6 JUMP JUMPDEST POP POP POP POP POP SWAP5 SWAP4 POP POP POP POP JUMP JUMPDEST PUSH1 0x60 PUSH2 0x1037 DUP4 DUP6 PUSH2 0x63B3 JUMP JUMPDEST DUP2 MLOAD DUP1 PUSH1 0x1 PUSH1 0x1 PUSH1 0x40 SHL SUB DUP2 GT DUP1 ISZERO PUSH2 0x104F JUMPI PUSH1 0x0 DUP1 REVERT JUMPDEST POP PUSH1 0x40 MLOAD SWAP1 DUP1 DUP3 MSTORE DUP1 PUSH1 0x20 MUL PUSH1 0x20 ADD DUP3 ADD PUSH1 0x40 MSTORE DUP1 ISZERO PUSH2 0x1079 JUMPI DUP2 PUSH1 0x20 ADD PUSH1 0x20 DUP3 MUL DUP1 CALLDATASIZE DUP4 CALLDATACOPY ADD SWAP1 POP JUMPDEST POP SWAP2 POP PUSH1 0x0 PUSH1 0x1 PUSH1 0x1 PUSH1 0xA0 SHL SUB DUP7 AND ISZERO PUSH2 0x109C JUMPI PUSH2 0x1097 DUP8 DUP8 PUSH2 0x64AA JUMP JUMPDEST PUSH2 0x109F JUMP JUMPDEST PUSH1 0x0 JUMPDEST SWAP1 POP PUSH1 0x0 PUSH1 0x1 PUSH1 0x1 PUSH1 0xA0 SHL SUB DUP7 AND ISZERO PUSH2 0x10C1 JUMPI PUSH2 0x10BC DUP9 DUP8 PUSH2 0x64AA JUMP JUMPDEST PUSH2 0x10C4 JUMP JUMPDEST PUSH1 0x0 JUMPDEST SWAP1 POP PUSH1 0x0 JUMPDEST DUP4 DUP2 LT ISZERO PUSH2 0x11F5 JUMPI PUSH1 0x1 PUSH1 0x1 PUSH1 0x1 PUSH1 0xA0 SHL SUB DUP9 AND PUSH2 0x1127 JUMPI PUSH2 0x1106 DUP5 PUSH4 0x2640F62C PUSH1 0xE0 SHL DUP10 DUP6 DUP2 MLOAD DUP2 LT PUSH2 0x10F9 JUMPI INVALID JUMPDEST PUSH1 0x20 MUL PUSH1 0x20 ADD ADD MLOAD PUSH2 0x6529 JUMP JUMPDEST DUP8 DUP5 DUP2 MLOAD DUP2 LT PUSH2 0x1112 JUMPI INVALID JUMPDEST PUSH1 0x20 MUL PUSH1 0x20 ADD ADD DUP2 SWAP4 POP DUP3 DUP2 MSTORE POP POP POP PUSH2 0x11C1 JUMP JUMPDEST PUSH1 0x1 PUSH1 0x1 PUSH1 0xA0 SHL SUB DUP10 AND PUSH2 0x114D JUMPI PUSH2 0x1106 DUP4 PUSH4 0x59E94862 PUSH1 0xE0 SHL DUP10 DUP6 DUP2 MLOAD DUP2 LT PUSH2 0x10F9 JUMPI INVALID JUMPDEST PUSH1 0x0 PUSH2 0x1167 DUP5 PUSH4 0x59E94862 PUSH1 0xE0 SHL DUP11 DUP7 DUP2 MLOAD DUP2 LT PUSH2 0x10F9 JUMPI INVALID JUMPDEST SWAP3 POP SWAP1 POP DUP1 ISZERO PUSH2 0x11A4 JUMPI PUSH2 0x1183 DUP6 PUSH4 0x9903D8B PUSH1 0xE2 SHL DUP4 PUSH2 0x6529 JUMP JUMPDEST DUP9 DUP6 DUP2 MLOAD DUP2 LT PUSH2 0x118F JUMPI INVALID JUMPDEST PUSH1 0x20 MUL PUSH1 0x20 ADD ADD DUP2 SWAP5 POP DUP3 DUP2 MSTORE POP POP POP PUSH2 0x11BF JUMP JUMPDEST PUSH1 0x0 DUP8 DUP5 DUP2 MLOAD DUP2 LT PUSH2 0x11B2 JUMPI INVALID JUMPDEST PUSH1 0x20 MUL PUSH1 0x20 ADD ADD DUP2 DUP2 MSTORE POP POP JUMPDEST POP JUMPDEST DUP1 ISZERO DUP1 PUSH2 0x11E1 JUMPI POP DUP6 DUP3 DUP2 MLOAD DUP2 LT PUSH2 0x11D5 JUMPI INVALID JUMPDEST PUSH1 0x20 MUL PUSH1 0x20 ADD ADD MLOAD PUSH1 0x0 EQ JUMPDEST ISZERO PUSH2 0x11EC JUMPI POP PUSH2 0x11F5 JUMP JUMPDEST POP PUSH1 0x1 ADD PUSH2 0x10C9 JUMP JUMPDEST POP POP POP POP SWAP5 SWAP4 POP POP POP POP JUMP JUMPDEST PUSH1 0x60 PUSH2 0x120D DUP4 DUP6 PUSH2 0x63B3 JUMP JUMPDEST PUSH1 0x0 DUP6 PUSH1 0x0 ADD MLOAD SWAP1 POP PUSH1 0x0 DUP2 PUSH1 0x1 PUSH1 0x1 PUSH1 0xA0 SHL SUB AND PUSH4 0x36569E77 PUSH1 0x40 MLOAD DUP2 PUSH4 0xFFFFFFFF AND PUSH1 0xE0 SHL DUP2 MSTORE PUSH1 0x4 ADD PUSH1 0x20 PUSH1 0x40 MLOAD DUP1 DUP4 SUB DUP2 DUP7 DUP1 EXTCODESIZE ISZERO DUP1 ISZERO PUSH2 0x1251 JUMPI PUSH1 0x0 DUP1 REVERT JUMPDEST POP GAS STATICCALL ISZERO DUP1 ISZERO PUSH2 0x1265 JUMPI RETURNDATASIZE PUSH1 0x0 DUP1 RETURNDATACOPY RETURNDATASIZE PUSH1 0x0 REVERT JUMPDEST POP POP POP POP PUSH1 0x40 MLOAD RETURNDATASIZE PUSH1 0x1F NOT PUSH1 0x1F DUP3 ADD AND DUP3 ADD DUP1 PUSH1 0x40 MSTORE POP DUP2 ADD SWAP1 PUSH2 0x1289 SWAP2 SWAP1 PUSH2 0x8CFC JUMP JUMPDEST DUP5 MLOAD SWAP1 SWAP2 POP DUP1 PUSH1 0x1 PUSH1 0x1 PUSH1 0x40 SHL SUB DUP2 GT DUP1 ISZERO PUSH2 0x12A4 JUMPI PUSH1 0x0 DUP1 REVERT JUMPDEST POP PUSH1 0x40 MLOAD SWAP1 DUP1 DUP3 MSTORE DUP1 PUSH1 0x20 MUL PUSH1 0x20 ADD DUP3 ADD PUSH1 0x40 MSTORE DUP1 ISZERO PUSH2 0x12CE JUMPI DUP2 PUSH1 0x20 ADD PUSH1 0x20 DUP3 MUL DUP1 CALLDATASIZE DUP4 CALLDATACOPY ADD SWAP1 POP JUMPDEST POP SWAP4 POP DUP3 PUSH1 0x1 PUSH1 0x1 PUSH1 0xA0 SHL SUB AND PUSH4 0xF4B9FA75 PUSH1 0x40 MLOAD DUP2 PUSH4 0xFFFFFFFF AND PUSH1 0xE0 SHL DUP2 MSTORE PUSH1 0x4 ADD PUSH1 0x20 PUSH1 0x40 MLOAD DUP1 DUP4 SUB DUP2 DUP7 DUP1 EXTCODESIZE ISZERO DUP1 ISZERO PUSH2 0x130A JUMPI PUSH1 0x0 DUP1 REVERT JUMPDEST POP GAS STATICCALL ISZERO DUP1 ISZERO PUSH2 0x131E JUMPI RETURNDATASIZE PUSH1 0x0 DUP1 RETURNDATACOPY RETURNDATASIZE PUSH1 0x0 REVERT JUMPDEST POP POP POP POP PUSH1 0x40 MLOAD RETURNDATASIZE PUSH1 0x1F NOT PUSH1 0x1F DUP3 ADD AND DUP3 ADD DUP1 PUSH1 0x40 MSTORE POP DUP2 ADD SWAP1 PUSH2 0x1342 SWAP2 SWAP1 PUSH2 0x8CFC JUMP JUMPDEST PUSH1 0x1 PUSH1 0x1 PUSH1 0xA0 SHL SUB AND DUP7 PUSH1 0x1 PUSH1 0x1 PUSH1 0xA0 SHL SUB AND EQ ISZERO DUP1 ISZERO PUSH2 0x13E5 JUMPI POP DUP3 PUSH1 0x1 PUSH1 0x1 PUSH1 0xA0 SHL SUB AND PUSH4 0xF4B9FA75 PUSH1 0x40 MLOAD DUP2 PUSH4 0xFFFFFFFF AND PUSH1 0xE0 SHL DUP2 MSTORE PUSH1 0x4 ADD PUSH1 0x20 PUSH1 0x40 MLOAD DUP1 DUP4 SUB DUP2 DUP7 DUP1 EXTCODESIZE ISZERO DUP1 ISZERO PUSH2 0x1397 JUMPI PUSH1 0x0 DUP1 REVERT JUMPDEST POP GAS STATICCALL ISZERO DUP1 ISZERO PUSH2 0x13AB JUMPI RETURNDATASIZE PUSH1 0x0 DUP1 RETURNDATACOPY RETURNDATASIZE PUSH1 0x0 REVERT JUMPDEST POP POP POP POP PUSH1 0x40 MLOAD RETURNDATASIZE PUSH1 0x1F NOT PUSH1 0x1F DUP3 ADD AND DUP3 ADD DUP1 PUSH1 0x40 MSTORE POP DUP2 ADD SWAP1 PUSH2 0x13CF SWAP2 SWAP1 PUSH2 0x8CFC JUMP JUMPDEST PUSH1 0x1 PUSH1 0x1 PUSH1 0xA0 SHL SUB AND DUP8 PUSH1 0x1 PUSH1 0x1 PUSH1 0xA0 SHL SUB AND EQ ISZERO JUMPDEST ISZERO PUSH2 0x13F2 JUMPI POP POP POP PUSH2 0x144E JUMP JUMPDEST PUSH1 0x0 JUMPDEST DUP2 DUP2 LT ISZERO PUSH2 0x11F5 JUMPI PUSH1 0x0 PUSH2 0x1420 DUP11 DUP10 DUP12 DUP11 DUP7 DUP2 MLOAD DUP2 LT PUSH2 0x1411 JUMPI INVALID JUMPDEST PUSH1 0x20 MUL PUSH1 0x20 ADD ADD MLOAD DUP10 DUP10 PUSH2 0x660C JUMP JUMPDEST SWAP1 POP DUP1 PUSH2 0x142D JUMPI POP PUSH2 0x11F5 JUMP JUMPDEST DUP1 DUP7 DUP4 DUP2 MLOAD DUP2 LT PUSH2 0x143A JUMPI INVALID JUMPDEST PUSH1 0x20 SWAP1 DUP2 MUL SWAP2 SWAP1 SWAP2 ADD ADD MSTORE POP PUSH1 0x1 ADD PUSH2 0x13F5 JUMP JUMPDEST SWAP5 SWAP4 POP POP POP POP JUMP JUMPDEST PUSH1 0x40 DUP1 MLOAD PUSH1 0x60 DUP2 DUP2 ADD SWAP1 SWAP3 MSTORE PUSH2 0x14BC SWAP1 DUP1 PUSH2 0x1475 DUP7 DUP10 PUSH1 0x80 DUP5 ADD PUSH2 0xA482 JUMP JUMPDEST PUSH1 0x40 MLOAD PUSH1 0x20 DUP2 DUP4 SUB SUB DUP2 MSTORE SWAP1 PUSH1 0x40 MSTORE DUP2 MSTORE PUSH1 0x20 ADD DUP7 DUP9 PUSH1 0x40 MLOAD PUSH1 0x20 ADD PUSH2 0x149C SWAP3 SWAP2 SWAP1 PUSH2 0xA482 JUMP JUMPDEST PUSH1 0x40 MLOAD PUSH1 0x20 DUP2 DUP4 SUB SUB DUP2 MSTORE SWAP1 PUSH1 0x40 MSTORE DUP2 MSTORE PUSH1 0x20 ADD PUSH2 0x68CD DUP2 MSTORE POP DUP4 PUSH2 0x6A00 JUMP JUMPDEST SWAP6 SWAP5 POP POP POP POP POP JUMP JUMPDEST PUSH1 0x0 DUP1 PUSH1 0x60 PUSH2 0x14D4 DUP6 DUP8 PUSH2 0x63B3 JUMP JUMPDEST DUP4 MLOAD DUP1 PUSH1 0x1 PUSH1 0x1 PUSH1 0x40 SHL SUB DUP2 GT DUP1 ISZERO PUSH2 0x14EC JUMPI PUSH1 0x0 DUP1 REVERT JUMPDEST POP PUSH1 0x40 MLOAD SWAP1 DUP1 DUP3 MSTORE DUP1 PUSH1 0x20 MUL PUSH1 0x20 ADD DUP3 ADD PUSH1 0x40 MSTORE DUP1 ISZERO PUSH2 0x1516 JUMPI DUP2 PUSH1 0x20 ADD PUSH1 0x20 DUP3 MUL DUP1 CALLDATASIZE DUP4 CALLDATACOPY ADD SWAP1 POP JUMPDEST POP DUP9 MLOAD PUSH1 0x40 MLOAD PUSH4 0x939D863 PUSH1 0xE1 SHL DUP2 MSTORE SWAP2 SWAP4 POP PUSH1 0x1 PUSH1 0x1 PUSH1 0xA0 SHL SUB AND SWAP1 PUSH4 0x1273B0C6 SWAP1 PUSH2 0x1549 SWAP1 DUP11 SWAP1 DUP11 SWAP1 PUSH1 0x4 ADD PUSH2 0x9F0D JUMP JUMPDEST PUSH1 0x20 PUSH1 0x40 MLOAD DUP1 DUP4 SUB DUP2 DUP7 DUP1 EXTCODESIZE ISZERO DUP1 ISZERO PUSH2 0x1561 JUMPI PUSH1 0x0 DUP1 REVERT JUMPDEST POP GAS STATICCALL ISZERO DUP1 ISZERO PUSH2 0x1575 JUMPI RETURNDATASIZE PUSH1 0x0 DUP1 RETURNDATACOPY RETURNDATASIZE PUSH1 0x0 REVERT JUMPDEST POP POP POP POP PUSH1 0x40 MLOAD RETURNDATASIZE PUSH1 0x1F NOT PUSH1 0x1F DUP3 ADD AND DUP3 ADD DUP1 PUSH1 0x40 MSTORE POP DUP2 ADD SWAP1 PUSH2 0x1599 SWAP2 SWAP1 PUSH2 0x8CFC JUMP JUMPDEST SWAP3 POP PUSH1 0x0 PUSH1 0x1 PUSH1 0x1 PUSH1 0xA0 SHL SUB DUP5 AND ISZERO PUSH2 0x15B7 JUMPI POP PUSH1 0x1 SWAP4 POP DUP7 PUSH2 0x1656 JUMP JUMPDEST DUP9 MLOAD PUSH1 0x40 MLOAD PUSH4 0x939D863 PUSH1 0xE1 SHL DUP2 MSTORE PUSH1 0x1 PUSH1 0x1 PUSH1 0xA0 SHL SUB SWAP1 SWAP2 AND SWAP1 PUSH4 0x1273B0C6 SWAP1 PUSH2 0x15E8 SWAP1 DUP11 SWAP1 DUP13 SWAP1 PUSH1 0x4 ADD PUSH2 0x9F0D JUMP JUMPDEST PUSH1 0x20 PUSH1 0x40 MLOAD DUP1 DUP4 SUB DUP2 DUP7 DUP1 EXTCODESIZE ISZERO DUP1 ISZERO PUSH2 0x1600 JUMPI PUSH1 0x0 DUP1 REVERT JUMPDEST POP GAS STATICCALL ISZERO DUP1 ISZERO PUSH2 0x1614 JUMPI RETURNDATASIZE PUSH1 0x0 DUP1 RETURNDATACOPY RETURNDATASIZE PUSH1 0x0 REVERT JUMPDEST POP POP POP POP PUSH1 0x40 MLOAD RETURNDATASIZE PUSH1 0x1F NOT PUSH1 0x1F DUP3 ADD AND DUP3 ADD DUP1 PUSH1 0x40 MSTORE POP DUP2 ADD SWAP1 PUSH2 0x1638 SWAP2 SWAP1 PUSH2 0x8CFC JUMP JUMPDEST SWAP4 POP PUSH1 0x1 PUSH1 0x1 PUSH1 0xA0 SHL SUB DUP5 AND PUSH2 0x164F JUMPI POP POP PUSH2 0xDF0 JUMP JUMPDEST POP PUSH1 0x0 SWAP4 POP DUP6 JUMPDEST DUP4 PUSH1 0x1 PUSH1 0x1 PUSH1 0xA0 SHL SUB AND PUSH4 0xDD58B41C PUSH1 0x40 MLOAD DUP2 PUSH4 0xFFFFFFFF AND PUSH1 0xE0 SHL DUP2 MSTORE PUSH1 0x4 ADD PUSH1 0x20 PUSH1 0x40 MLOAD DUP1 DUP4 SUB DUP2 DUP7 DUP1 EXTCODESIZE ISZERO DUP1 ISZERO PUSH2 0x168F JUMPI PUSH1 0x0 DUP1 REVERT JUMPDEST POP GAS STATICCALL ISZERO DUP1 ISZERO PUSH2 0x16A3 JUMPI RETURNDATASIZE PUSH1 0x0 DUP1 RETURNDATACOPY RETURNDATASIZE PUSH1 0x0 REVERT JUMPDEST POP POP POP POP PUSH1 0x40 MLOAD RETURNDATASIZE PUSH1 0x1F NOT PUSH1 0x1F DUP3 ADD AND DUP3 ADD DUP1 PUSH1 0x40 MSTORE POP DUP2 ADD SWAP1 PUSH2 0x16C7 SWAP2 SWAP1 PUSH2 0x953A JUMP JUMPDEST PUSH2 0x16D2 JUMPI POP POP PUSH2 0xDF0 JUMP JUMPDEST PUSH1 0x0 JUMPDEST DUP3 DUP2 LT ISZERO PUSH2 0x1795 JUMPI PUSH1 0x0 PUSH2 0x174F DUP11 DUP8 DUP6 DUP15 PUSH1 0x20 ADD MLOAD PUSH1 0x40 MLOAD PUSH1 0x20 ADD PUSH2 0x16FD SWAP5 SWAP4 SWAP3 SWAP2 SWAP1 PUSH2 0x9F27 JUMP JUMPDEST PUSH1 0x40 MLOAD PUSH1 0x20 DUP2 DUP4 SUB SUB DUP2 MSTORE SWAP1 PUSH1 0x40 MSTORE DUP11 DUP9 DUP7 DUP16 PUSH1 0x20 ADD MLOAD PUSH1 0x40 MLOAD PUSH1 0x20 ADD PUSH2 0x1727 SWAP5 SWAP4 SWAP3 SWAP2 SWAP1 PUSH2 0x9F27 JUMP JUMPDEST PUSH1 0x40 MLOAD PUSH1 0x20 DUP2 DUP4 SUB SUB DUP2 MSTORE SWAP1 PUSH1 0x40 MSTORE DUP11 DUP6 DUP2 MLOAD DUP2 LT PUSH2 0x1742 JUMPI INVALID JUMPDEST PUSH1 0x20 MUL PUSH1 0x20 ADD ADD MLOAD PUSH2 0x6BFD JUMP JUMPDEST SWAP1 POP DUP1 DUP6 DUP4 DUP2 MLOAD DUP2 LT PUSH2 0x175E JUMPI INVALID JUMPDEST PUSH1 0x20 MUL PUSH1 0x20 ADD ADD DUP2 DUP2 MSTORE POP POP DUP5 DUP3 DUP2 MLOAD DUP2 LT PUSH2 0x1776 JUMPI INVALID JUMPDEST PUSH1 0x20 MUL PUSH1 0x20 ADD ADD MLOAD PUSH1 0x0 EQ ISZERO PUSH2 0x178C JUMPI POP PUSH2 0x1795 JUMP JUMPDEST POP PUSH1 0x1 ADD PUSH2 0x16D5 JUMP JUMPDEST POP POP POP SWAP5 POP SWAP5 POP SWAP5 SWAP2 POP POP JUMP JUMPDEST DUP1 MLOAD PUSH1 0x60 SWAP1 DUP1 PUSH1 0x1 PUSH1 0x1 PUSH1 0x40 SHL SUB DUP2 GT DUP1 ISZERO PUSH2 0x17BD JUMPI PUSH1 0x0 DUP1 REVERT JUMPDEST POP PUSH1 0x40 MLOAD SWAP1 DUP1 DUP3 MSTORE DUP1 PUSH1 0x20 MUL PUSH1 0x20 ADD DUP3 ADD PUSH1 0x40 MSTORE DUP1 ISZERO PUSH2 0x17E7 JUMPI DUP2 PUSH1 0x20 ADD PUSH1 0x20 DUP3 MUL DUP1 CALLDATASIZE DUP4 CALLDATACOPY ADD SWAP1 POP JUMPDEST POP SWAP2 POP PUSH1 0x1 PUSH1 0x1 PUSH1 0xA0 SHL SUB DUP8 AND PUSH2 0x17FE JUMPI POP PUSH2 0x14BC JUMP JUMPDEST PUSH1 0x0 JUMPDEST DUP2 DUP2 LT ISZERO PUSH2 0x1920 JUMPI PUSH1 0x0 PUSH1 0x60 DUP10 PUSH1 0x1 PUSH1 0x1 PUSH1 0xA0 SHL SUB AND PUSH3 0x61A80 PUSH4 0x6E79E133 PUSH1 0xE0 SHL DUP12 DUP12 DUP12 DUP12 DUP10 DUP2 MLOAD DUP2 LT PUSH2 0x1832 JUMPI INVALID JUMPDEST PUSH1 0x20 MUL PUSH1 0x20 ADD ADD MLOAD PUSH1 0x40 MLOAD PUSH1 0x24 ADD PUSH2 0x184D SWAP5 SWAP4 SWAP3 SWAP2 SWAP1 PUSH2 0x9F86 JUMP JUMPDEST PUSH1 0x40 DUP1 MLOAD PUSH1 0x1F NOT DUP2 DUP5 SUB ADD DUP2 MSTORE SWAP2 DUP2 MSTORE PUSH1 0x20 DUP3 ADD DUP1 MLOAD PUSH1 0x1 PUSH1 0x1 PUSH1 0xE0 SHL SUB AND PUSH1 0x1 PUSH1 0x1 PUSH1 0xE0 SHL SUB NOT SWAP1 SWAP5 AND SWAP4 SWAP1 SWAP4 OR SWAP1 SWAP3 MSTORE SWAP1 MLOAD PUSH2 0x188B SWAP2 SWAP1 PUSH2 0x9EC4 JUMP JUMPDEST PUSH1 0x0 PUSH1 0x40 MLOAD DUP1 DUP4 SUB DUP2 DUP7 DUP7 STATICCALL SWAP3 POP POP POP RETURNDATASIZE DUP1 PUSH1 0x0 DUP2 EQ PUSH2 0x18C7 JUMPI PUSH1 0x40 MLOAD SWAP2 POP PUSH1 0x1F NOT PUSH1 0x3F RETURNDATASIZE ADD AND DUP3 ADD PUSH1 0x40 MSTORE RETURNDATASIZE DUP3 MSTORE RETURNDATASIZE PUSH1 0x0 PUSH1 0x20 DUP5 ADD RETURNDATACOPY PUSH2 0x18CC JUMP JUMPDEST PUSH1 0x60 SWAP2 POP JUMPDEST POP SWAP2 POP SWAP2 POP PUSH1 0x0 DUP3 ISZERO PUSH2 0x18F0 JUMPI DUP2 DUP1 PUSH1 0x20 ADD SWAP1 MLOAD DUP2 ADD SWAP1 PUSH2 0x18ED SWAP2 SWAP1 PUSH2 0x9556 JUMP JUMPDEST SWAP1 POP JUMPDEST DUP1 PUSH2 0x18FD JUMPI POP POP POP PUSH2 0x1920 JUMP JUMPDEST DUP1 DUP7 DUP6 DUP2 MLOAD DUP2 LT PUSH2 0x190A JUMPI INVALID JUMPDEST PUSH1 0x20 SWAP1 DUP2 MUL SWAP2 SWAP1 SWAP2 ADD ADD MSTORE POP POP POP PUSH1 0x1 ADD PUSH2 0x1801 JUMP JUMPDEST POP POP SWAP6 SWAP5 POP POP POP POP POP JUMP JUMPDEST PUSH1 0x60 PUSH2 0x1937 DUP4 DUP6 PUSH2 0x63B3 JUMP JUMPDEST DUP2 MLOAD DUP1 PUSH1 0x1 PUSH1 0x1 PUSH1 0x40 SHL SUB DUP2 GT DUP1 ISZERO PUSH2 0x194F JUMPI PUSH1 0x0 DUP1 REVERT JUMPDEST POP PUSH1 0x40 MLOAD SWAP1 DUP1 DUP3 MSTORE DUP1 PUSH1 0x20 MUL PUSH1 0x20 ADD DUP3 ADD PUSH1 0x40 MSTORE DUP1 ISZERO PUSH2 0x1979 JUMPI DUP2 PUSH1 0x20 ADD PUSH1 0x20 DUP3 MUL DUP1 CALLDATASIZE DUP4 CALLDATACOPY ADD SWAP1 POP JUMPDEST POP SWAP2 POP PUSH1 0x0 JUMPDEST DUP2 DUP2 LT ISZERO PUSH2 0x1A95 JUMPI DUP7 PUSH1 0x1 PUSH1 0x1 PUSH1 0xA0 SHL SUB AND PUSH4 0x72EA9076 PUSH3 0xC3500 DUP9 DUP9 DUP9 DUP7 DUP2 MLOAD DUP2 LT PUSH2 0x19A8 JUMPI INVALID JUMPDEST PUSH1 0x20 MUL PUSH1 0x20 ADD ADD MLOAD PUSH1 0x40 MLOAD DUP6 PUSH4 0xFFFFFFFF AND PUSH1 0xE0 SHL DUP2 MSTORE PUSH1 0x4 ADD PUSH2 0x19CE SWAP4 SWAP3 SWAP2 SWAP1 PUSH2 0xA008 JUMP JUMPDEST PUSH1 0x20 PUSH1 0x40 MLOAD DUP1 DUP4 SUB DUP2 DUP8 DUP1 EXTCODESIZE ISZERO DUP1 ISZERO PUSH2 0x19E6 JUMPI PUSH1 0x0 DUP1 REVERT JUMPDEST POP DUP7 STATICCALL SWAP4 POP POP POP POP DUP1 ISZERO PUSH2 0x1A17 JUMPI POP PUSH1 0x40 DUP1 MLOAD PUSH1 0x1F RETURNDATASIZE SWAP1 DUP2 ADD PUSH1 0x1F NOT AND DUP3 ADD SWAP1 SWAP3 MSTORE PUSH2 0x1A14 SWAP2 DUP2 ADD SWAP1 PUSH2 0x9556 JUMP JUMPDEST PUSH1 0x1 JUMPDEST PUSH2 0x1A51 JUMPI RETURNDATASIZE DUP1 DUP1 ISZERO PUSH2 0x1A45 JUMPI PUSH1 0x40 MLOAD SWAP2 POP PUSH1 0x1F NOT PUSH1 0x3F RETURNDATASIZE ADD AND DUP3 ADD PUSH1 0x40 MSTORE RETURNDATASIZE DUP3 MSTORE RETURNDATASIZE PUSH1 0x0 PUSH1 0x20 DUP5 ADD RETURNDATACOPY PUSH2 0x1A4A JUMP JUMPDEST PUSH1 0x60 SWAP2 POP JUMPDEST POP POP PUSH2 0x1A95 JUMP JUMPDEST DUP1 DUP5 DUP4 DUP2 MLOAD DUP2 LT PUSH2 0x1A5E JUMPI INVALID JUMPDEST PUSH1 0x20 MUL PUSH1 0x20 ADD ADD DUP2 DUP2 MSTORE POP POP DUP4 DUP3 DUP2 MLOAD DUP2 LT PUSH2 0x1A76 JUMPI INVALID JUMPDEST PUSH1 0x20 MUL PUSH1 0x20 ADD ADD MLOAD PUSH1 0x0 EQ ISZERO PUSH2 0x1A8C JUMPI POP PUSH2 0x1A95 JUMP JUMPDEST POP PUSH1 0x1 ADD PUSH2 0x197F JUMP JUMPDEST POP POP SWAP5 SWAP4 POP POP POP POP JUMP JUMPDEST DUP1 MLOAD PUSH1 0x60 SWAP1 DUP1 PUSH1 0x1 PUSH1 0x1 PUSH1 0x40 SHL SUB DUP2 GT DUP1 ISZERO PUSH2 0x1ABA JUMPI PUSH1 0x0 DUP1 REVERT JUMPDEST POP PUSH1 0x40 MLOAD SWAP1 DUP1 DUP3 MSTORE DUP1 PUSH1 0x20 MUL PUSH1 0x20 ADD DUP3 ADD PUSH1 0x40 MSTORE DUP1 ISZERO PUSH2 0x1AE4 JUMPI DUP2 PUSH1 0x20 ADD PUSH1 0x20 DUP3 MUL DUP1 CALLDATASIZE DUP4 CALLDATACOPY ADD SWAP1 POP JUMPDEST POP SWAP2 POP PUSH1 0x0 JUMPDEST DUP2 DUP2 LT ISZERO PUSH2 0x1C1A JUMPI DUP6 PUSH1 0x1 PUSH1 0x1 PUSH1 0xA0 SHL SUB AND PUSH4 0xD06CA61F PUSH3 0x249F0 DUP7 DUP5 DUP2 MLOAD DUP2 LT PUSH2 0x1B11 JUMPI INVALID JUMPDEST PUSH1 0x20 MUL PUSH1 0x20 ADD ADD MLOAD DUP9 PUSH1 0x40 MLOAD DUP5 PUSH4 0xFFFFFFFF AND PUSH1 0xE0 SHL DUP2 MSTORE PUSH1 0x4 ADD PUSH2 0x1B37 SWAP3 SWAP2 SWAP1 PUSH2 0xA6CA JUMP JUMPDEST PUSH1 0x0 PUSH1 0x40 MLOAD DUP1 DUP4 SUB DUP2 DUP8 DUP1 EXTCODESIZE ISZERO DUP1 ISZERO PUSH2 0x1B4F JUMPI PUSH1 0x0 DUP1 REVERT JUMPDEST POP DUP7 STATICCALL SWAP4 POP POP POP POP DUP1 ISZERO PUSH2 0x1B85 JUMPI POP PUSH1 0x40 MLOAD RETURNDATASIZE PUSH1 0x0 DUP3 RETURNDATACOPY PUSH1 0x1F RETURNDATASIZE SWAP1 DUP2 ADD PUSH1 0x1F NOT AND DUP3 ADD PUSH1 0x40 MSTORE PUSH2 0x1B82 SWAP2 SWAP1 DUP2 ADD SWAP1 PUSH2 0x9508 JUMP JUMPDEST PUSH1 0x1 JUMPDEST PUSH2 0x1BBF JUMPI RETURNDATASIZE DUP1 DUP1 ISZERO PUSH2 0x1BB3 JUMPI PUSH1 0x40 MLOAD SWAP2 POP PUSH1 0x1F NOT PUSH1 0x3F RETURNDATASIZE ADD AND DUP3 ADD PUSH1 0x40 MSTORE RETURNDATASIZE DUP3 MSTORE RETURNDATASIZE PUSH1 0x0 PUSH1 0x20 DUP5 ADD RETURNDATACOPY PUSH2 0x1BB8 JUMP JUMPDEST PUSH1 0x60 SWAP2 POP JUMPDEST POP POP PUSH2 0x1C1A JUMP JUMPDEST DUP1 PUSH1 0x1 DUP8 MLOAD SUB DUP2 MLOAD DUP2 LT PUSH2 0x1BCF JUMPI INVALID JUMPDEST PUSH1 0x20 MUL PUSH1 0x20 ADD ADD MLOAD DUP5 DUP4 DUP2 MLOAD DUP2 LT PUSH2 0x1BE3 JUMPI INVALID JUMPDEST PUSH1 0x20 MUL PUSH1 0x20 ADD ADD DUP2 DUP2 MSTORE POP POP DUP4 DUP3 DUP2 MLOAD DUP2 LT PUSH2 0x1BFB JUMPI INVALID JUMPDEST PUSH1 0x20 MUL PUSH1 0x20 ADD ADD MLOAD PUSH1 0x0 EQ ISZERO PUSH2 0x1C11 JUMPI POP PUSH2 0x1C1A JUMP JUMPDEST POP PUSH1 0x1 ADD PUSH2 0x1AEA JUMP JUMPDEST POP POP SWAP4 SWAP3 POP POP POP JUMP JUMPDEST PUSH1 0x60 PUSH2 0x1C2F DUP4 DUP6 PUSH2 0x63B3 JUMP JUMPDEST DUP5 PUSH1 0x20 ADD MLOAD PUSH1 0x1 PUSH1 0x1 PUSH1 0xA0 SHL SUB AND DUP5 PUSH1 0x1 PUSH1 0x1 PUSH1 0xA0 SHL SUB AND EQ ISZERO DUP1 PUSH2 0x1C61 JUMPI POP DUP5 MLOAD PUSH1 0x1 PUSH1 0x1 PUSH1 0xA0 SHL SUB DUP5 DUP2 AND SWAP2 AND EQ ISZERO JUMPDEST ISZERO PUSH2 0xC92 JUMPI DUP2 MLOAD PUSH1 0x60 DUP2 PUSH1 0x1 PUSH1 0x1 PUSH1 0x40 SHL SUB DUP2 GT DUP1 ISZERO PUSH2 0x1C80 JUMPI PUSH1 0x0 DUP1 REVERT JUMPDEST POP PUSH1 0x40 MLOAD SWAP1 DUP1 DUP3 MSTORE DUP1 PUSH1 0x20 MUL PUSH1 0x20 ADD DUP3 ADD PUSH1 0x40 MSTORE DUP1 ISZERO PUSH2 0x1CAA JUMPI DUP2 PUSH1 0x20 ADD PUSH1 0x20 DUP3 MUL DUP1 CALLDATASIZE DUP4 CALLDATACOPY ADD SWAP1 POP JUMPDEST POP SWAP3 POP PUSH2 0x144E SWAP2 POP POP JUMP JUMPDEST PUSH1 0x80 DUP2 ADD MLOAD MLOAD PUSH1 0x60 SWAP1 DUP1 PUSH1 0x1 PUSH1 0x1 PUSH1 0x40 SHL SUB DUP2 GT DUP1 ISZERO PUSH2 0x1CD4 JUMPI PUSH1 0x0 DUP1 REVERT JUMPDEST POP PUSH1 0x40 MLOAD SWAP1 DUP1 DUP3 MSTORE DUP1 PUSH1 0x20 MUL PUSH1 0x20 ADD DUP3 ADD PUSH1 0x40 MSTORE DUP1 ISZERO PUSH2 0x1CFE JUMPI DUP2 PUSH1 0x20 ADD PUSH1 0x20 DUP3 MUL DUP1 CALLDATASIZE DUP4 CALLDATACOPY ADD SWAP1 POP JUMPDEST POP SWAP2 POP PUSH1 0x0 JUMPDEST DUP2 DUP2 LT ISZERO PUSH2 0x97A JUMPI DUP4 PUSH1 0x0 ADD MLOAD PUSH1 0x1 PUSH1 0x1 PUSH1 0xA0 SHL SUB AND PUSH4 0x3BBC8A1E PUSH3 0x249F0 DUP7 PUSH1 0x80 ADD MLOAD DUP5 DUP2 MLOAD DUP2 LT PUSH2 0x1D33 JUMPI INVALID JUMPDEST PUSH1 0x20 MUL PUSH1 0x20 ADD ADD MLOAD DUP8 PUSH1 0x20 ADD MLOAD DUP9 PUSH1 0x40 ADD MLOAD DUP10 PUSH1 0x60 ADD MLOAD PUSH1 0x40 MLOAD DUP7 PUSH4 0xFFFFFFFF AND PUSH1 0xE0 SHL DUP2 MSTORE PUSH1 0x4 ADD PUSH2 0x1D69 SWAP5 SWAP4 SWAP3 SWAP2 SWAP1 PUSH2 0xA70E JUMP JUMPDEST PUSH1 0x0 PUSH1 0x40 MLOAD DUP1 DUP4 SUB DUP2 DUP8 DUP1 EXTCODESIZE ISZERO DUP1 ISZERO PUSH2 0x1D81 JUMPI PUSH1 0x0 DUP1 REVERT JUMPDEST POP DUP7 STATICCALL SWAP4 POP POP POP POP DUP1 ISZERO PUSH2 0x1DB7 JUMPI POP PUSH1 0x40 MLOAD RETURNDATASIZE PUSH1 0x0 DUP3 RETURNDATACOPY PUSH1 0x1F RETURNDATASIZE SWAP1 DUP2 ADD PUSH1 0x1F NOT AND DUP3 ADD PUSH1 0x40 MSTORE PUSH2 0x1DB4 SWAP2 SWAP1 DUP2 ADD SWAP1 PUSH2 0x9508 JUMP JUMPDEST PUSH1 0x1 JUMPDEST PUSH2 0x1DE5 JUMPI RETURNDATASIZE DUP1 DUP1 ISZERO PUSH2 0x916 JUMPI PUSH1 0x40 MLOAD SWAP2 POP PUSH1 0x1F NOT PUSH1 0x3F RETURNDATASIZE ADD AND DUP3 ADD PUSH1 0x40 MSTORE RETURNDATASIZE DUP3 MSTORE RETURNDATASIZE PUSH1 0x0 PUSH1 0x20 DUP5 ADD RETURNDATACOPY PUSH2 0x91B JUMP JUMPDEST DUP1 PUSH1 0x1 DUP7 PUSH1 0x20 ADD MLOAD MLOAD SUB DUP2 MLOAD DUP2 LT PUSH2 0x1DF9 JUMPI INVALID JUMPDEST PUSH1 0x20 MUL PUSH1 0x20 ADD ADD MLOAD DUP5 DUP4 DUP2 MLOAD DUP2 LT PUSH2 0x1E0D JUMPI INVALID JUMPDEST PUSH1 0x20 MUL PUSH1 0x20 ADD ADD DUP2 DUP2 MSTORE POP POP DUP4 DUP3 DUP2 MLOAD DUP2 LT PUSH2 0x1E25 JUMPI INVALID JUMPDEST PUSH1 0x20 MUL PUSH1 0x20 ADD ADD MLOAD PUSH1 0x0 EQ ISZERO PUSH2 0x1E3B JUMPI POP PUSH2 0x97A JUMP JUMPDEST POP PUSH1 0x1 ADD PUSH2 0x1D04 JUMP JUMPDEST DUP1 MLOAD PUSH1 0x60 SWAP1 DUP1 PUSH1 0x1 PUSH1 0x1 PUSH1 0x40 SHL SUB DUP2 GT DUP1 ISZERO PUSH2 0x1E5F JUMPI PUSH1 0x0 DUP1 REVERT JUMPDEST POP PUSH1 0x40 MLOAD SWAP1 DUP1 DUP3 MSTORE DUP1 PUSH1 0x20 MUL PUSH1 0x20 ADD DUP3 ADD PUSH1 0x40 MSTORE DUP1 ISZERO PUSH2 0x1E89 JUMPI DUP2 PUSH1 0x20 ADD PUSH1 0x20 DUP3 MUL DUP1 CALLDATASIZE DUP4 CALLDATACOPY ADD SWAP1 POP JUMPDEST POP SWAP2 POP PUSH1 0x0 JUMPDEST DUP2 DUP2 LT ISZERO PUSH2 0x1A95 JUMPI PUSH1 0x0 PUSH1 0x60 DUP9 PUSH1 0x0 ADD MLOAD PUSH1 0x1 PUSH1 0x1 PUSH1 0xA0 SHL SUB AND PUSH3 0x1E8480 DUP11 PUSH1 0x20 ADD MLOAD DUP11 DUP11 DUP11 DUP9 DUP2 MLOAD DUP2 LT PUSH2 0x1EC0 JUMPI INVALID JUMPDEST PUSH1 0x20 MUL PUSH1 0x20 ADD ADD MLOAD PUSH1 0x40 MLOAD PUSH1 0x24 ADD PUSH2 0x1EDA SWAP4 SWAP3 SWAP2 SWAP1 PUSH2 0xA464 JUMP JUMPDEST PUSH1 0x40 DUP1 MLOAD PUSH1 0x1F NOT DUP2 DUP5 SUB ADD DUP2 MSTORE SWAP2 DUP2 MSTORE PUSH1 0x20 DUP3 ADD DUP1 MLOAD PUSH1 0x1 PUSH1 0x1 PUSH1 0xE0 SHL SUB AND PUSH1 0x1 PUSH1 0x1 PUSH1 0xE0 SHL SUB NOT SWAP1 SWAP5 AND SWAP4 SWAP1 SWAP4 OR SWAP1 SWAP3 MSTORE SWAP1 MLOAD PUSH2 0x1F18 SWAP2 SWAP1 PUSH2 0x9EC4 JUMP JUMPDEST PUSH1 0x0 PUSH1 0x40 MLOAD DUP1 DUP4 SUB DUP2 DUP7 DUP7 STATICCALL SWAP3 POP POP POP RETURNDATASIZE DUP1 PUSH1 0x0 DUP2 EQ PUSH2 0x1F54 JUMPI PUSH1 0x40 MLOAD SWAP2 POP PUSH1 0x1F NOT PUSH1 0x3F RETURNDATASIZE ADD AND DUP3 ADD PUSH1 0x40 MSTORE RETURNDATASIZE DUP3 MSTORE RETURNDATASIZE PUSH1 0x0 PUSH1 0x20 DUP5 ADD RETURNDATACOPY PUSH2 0x1F59 JUMP JUMPDEST PUSH1 0x60 SWAP2 POP JUMPDEST POP SWAP2 POP SWAP2 POP PUSH1 0x0 DUP3 ISZERO PUSH2 0x1F7D JUMPI DUP2 DUP1 PUSH1 0x20 ADD SWAP1 MLOAD DUP2 ADD SWAP1 PUSH2 0x1F7A SWAP2 SWAP1 PUSH2 0x9556 JUMP JUMPDEST SWAP1 POP JUMPDEST DUP1 DUP7 DUP6 DUP2 MLOAD DUP2 LT PUSH2 0x1F8A JUMPI INVALID JUMPDEST PUSH1 0x20 MUL PUSH1 0x20 ADD ADD DUP2 DUP2 MSTORE POP POP DUP6 DUP5 DUP2 MLOAD DUP2 LT PUSH2 0x1FA2 JUMPI INVALID JUMPDEST PUSH1 0x20 MUL PUSH1 0x20 ADD ADD MLOAD PUSH1 0x0 EQ ISZERO PUSH2 0x1FBA JUMPI POP POP POP PUSH2 0x1A95 JUMP JUMPDEST POP POP POP PUSH1 0x1 ADD PUSH2 0x1E8F JUMP JUMPDEST DUP1 MLOAD PUSH1 0x60 SWAP1 DUP2 SWAP1 DUP1 PUSH1 0x1 PUSH1 0x1 PUSH1 0x40 SHL SUB DUP2 GT DUP1 ISZERO PUSH2 0x1FE2 JUMPI PUSH1 0x0 DUP1 REVERT JUMPDEST POP PUSH1 0x40 MLOAD SWAP1 DUP1 DUP3 MSTORE DUP1 PUSH1 0x20 MUL PUSH1 0x20 ADD DUP3 ADD PUSH1 0x40 MSTORE DUP1 ISZERO PUSH2 0x200C JUMPI DUP2 PUSH1 0x20 ADD PUSH1 0x20 DUP3 MUL DUP1 CALLDATASIZE DUP4 CALLDATACOPY ADD SWAP1 POP JUMPDEST POP SWAP2 POP PUSH2 0x2019 DUP7 DUP7 PUSH2 0x5E92 JUMP JUMPDEST SWAP3 POP DUP3 MLOAD PUSH1 0x0 EQ ISZERO PUSH2 0x202B JUMPI POP PUSH2 0xB1F JUMP JUMPDEST PUSH1 0x0 JUMPDEST DUP2 DUP2 LT ISZERO PUSH2 0xB1C JUMPI DUP7 PUSH1 0x1 PUSH1 0x1 PUSH1 0xA0 SHL SUB AND PUSH4 0x9E269B68 PUSH3 0x249F0 DUP8 DUP5 DUP2 MLOAD DUP2 LT PUSH2 0x2055 JUMPI INVALID JUMPDEST PUSH1 0x20 MUL PUSH1 0x20 ADD ADD MLOAD DUP8 DUP11 PUSH1 0x40 MLOAD DUP6 PUSH4 0xFFFFFFFF AND PUSH1 0xE0 SHL DUP2 MSTORE PUSH1 0x4 ADD PUSH2 0x207D SWAP4 SWAP3 SWAP2 SWAP1 PUSH2 0xA6E3 JUMP JUMPDEST PUSH1 0x0 PUSH1 0x40 MLOAD DUP1 DUP4 SUB DUP2 DUP8 DUP1 EXTCODESIZE ISZERO DUP1 ISZERO PUSH2 0x2095 JUMPI PUSH1 0x0 DUP1 REVERT JUMPDEST POP DUP7 STATICCALL SWAP4 POP POP POP POP DUP1 ISZERO PUSH2 0x20CB JUMPI POP PUSH1 0x40 MLOAD RETURNDATASIZE PUSH1 0x0 DUP3 RETURNDATACOPY PUSH1 0x1F RETURNDATASIZE SWAP1 DUP2 ADD PUSH1 0x1F NOT AND DUP3 ADD PUSH1 0x40 MSTORE PUSH2 0x20C8 SWAP2 SWAP1 DUP2 ADD SWAP1 PUSH2 0x9508 JUMP JUMPDEST PUSH1 0x1 JUMPDEST PUSH2 0x20F9 JUMPI RETURNDATASIZE DUP1 DUP1 ISZERO PUSH2 0xAB5 JUMPI PUSH1 0x40 MLOAD SWAP2 POP PUSH1 0x1F NOT PUSH1 0x3F RETURNDATASIZE ADD AND DUP3 ADD PUSH1 0x40 MSTORE RETURNDATASIZE DUP3 MSTORE RETURNDATASIZE PUSH1 0x0 PUSH1 0x20 DUP5 ADD RETURNDATACOPY PUSH2 0xABA JUMP JUMPDEST DUP1 PUSH1 0x0 DUP2 MLOAD DUP2 LT PUSH2 0x2106 JUMPI INVALID JUMPDEST PUSH1 0x20 MUL PUSH1 0x20 ADD ADD MLOAD DUP5 DUP4 DUP2 MLOAD DUP2 LT PUSH2 0x211A JUMPI INVALID JUMPDEST PUSH1 0x20 MUL PUSH1 0x20 ADD ADD DUP2 DUP2 MSTORE POP POP DUP4 DUP3 DUP2 MLOAD DUP2 LT PUSH2 0x2132 JUMPI INVALID JUMPDEST PUSH1 0x20 MUL PUSH1 0x20 ADD ADD MLOAD PUSH1 0x0 EQ ISZERO PUSH2 0x2148 JUMPI POP PUSH2 0xB1C JUMP JUMPDEST POP PUSH1 0x1 ADD PUSH2 0x202E JUMP JUMPDEST PUSH1 0x20 DUP5 DUP2 ADD MLOAD PUSH1 0x40 DUP1 MLOAD PUSH1 0x1 DUP1 DUP3 MSTORE DUP2 DUP4 ADD SWAP1 SWAP3 MSTORE PUSH1 0x60 SWAP4 DUP5 SWAP3 SWAP1 DUP3 DUP2 ADD SWAP1 DUP1 CALLDATASIZE DUP4 CALLDATACOPY ADD SWAP1 POP POP SWAP1 POP DUP6 DUP2 PUSH1 0x0 DUP2 MLOAD DUP2 LT PUSH2 0x2188 JUMPI INVALID JUMPDEST PUSH1 0x20 SWAP1 DUP2 MUL SWAP2 SWAP1 SWAP2 ADD ADD MSTORE PUSH1 0x60 PUSH1 0x0 PUSH1 0x40 MLOAD SWAP1 DUP1 DUP3 MSTORE DUP1 PUSH1 0x20 MUL PUSH1 0x20 ADD DUP3 ADD PUSH1 0x40 MSTORE DUP1 ISZERO PUSH2 0x21C0 JUMPI DUP2 PUSH1 0x20 ADD PUSH1 0x20 DUP3 MUL DUP1 CALLDATASIZE DUP4 CALLDATACOPY ADD SWAP1 POP JUMPDEST POP SWAP1 POP DUP8 PUSH1 0x60 ADD MLOAD PUSH1 0x1 PUSH1 0x1 PUSH1 0xA0 SHL SUB AND DUP7 PUSH1 0x1 PUSH1 0x1 PUSH1 0xA0 SHL SUB AND EQ ISZERO PUSH2 0x22B1 JUMPI PUSH1 0x40 MLOAD PUSH4 0x81EFCBDD PUSH1 0xE0 SHL DUP2 MSTORE PUSH1 0x1 PUSH1 0x1 PUSH1 0xA0 SHL SUB DUP5 AND SWAP1 PUSH4 0x81EFCBDD SWAP1 PUSH3 0x7A120 SWAP1 PUSH2 0x2219 SWAP1 DUP10 SWAP1 PUSH1 0x1 SWAP1 DUP9 SWAP1 DUP9 SWAP1 PUSH1 0x4 ADD PUSH2 0xA0A7 JUMP JUMPDEST PUSH1 0x0 PUSH1 0x40 MLOAD DUP1 DUP4 SUB DUP2 DUP8 DUP1 EXTCODESIZE ISZERO DUP1 ISZERO PUSH2 0x2231 JUMPI PUSH1 0x0 DUP1 REVERT JUMPDEST POP DUP7 STATICCALL SWAP4 POP POP POP POP DUP1 ISZERO PUSH2 0x2267 JUMPI POP PUSH1 0x40 MLOAD RETURNDATASIZE PUSH1 0x0 DUP3 RETURNDATACOPY PUSH1 0x1F RETURNDATASIZE SWAP1 DUP2 ADD PUSH1 0x1F NOT AND DUP3 ADD PUSH1 0x40 MSTORE PUSH2 0x2264 SWAP2 SWAP1 DUP2 ADD SWAP1 PUSH2 0x956E JUMP JUMPDEST PUSH1 0x1 JUMPDEST PUSH2 0x22A1 JUMPI RETURNDATASIZE DUP1 DUP1 ISZERO PUSH2 0x2295 JUMPI PUSH1 0x40 MLOAD SWAP2 POP PUSH1 0x1F NOT PUSH1 0x3F RETURNDATASIZE ADD AND DUP3 ADD PUSH1 0x40 MSTORE RETURNDATASIZE DUP3 MSTORE RETURNDATASIZE PUSH1 0x0 PUSH1 0x20 DUP5 ADD RETURNDATACOPY PUSH2 0x229A JUMP JUMPDEST PUSH1 0x60 SWAP2 POP JUMPDEST POP POP PUSH2 0x22AC JUMP JUMPDEST SWAP4 POP PUSH2 0x144E SWAP3 POP POP POP JUMP JUMPDEST PUSH2 0x23C3 JUMP JUMPDEST DUP8 PUSH1 0x60 ADD MLOAD PUSH1 0x1 PUSH1 0x1 PUSH1 0xA0 SHL SUB AND DUP6 PUSH1 0x1 PUSH1 0x1 PUSH1 0xA0 SHL SUB AND EQ ISZERO PUSH2 0x2307 JUMPI PUSH1 0x40 MLOAD PUSH4 0x61E597F9 PUSH1 0xE0 SHL DUP2 MSTORE PUSH1 0x1 PUSH1 0x1 PUSH1 0xA0 SHL SUB DUP5 AND SWAP1 PUSH4 0x61E597F9 SWAP1 PUSH3 0x7A120 SWAP1 PUSH2 0x2219 SWAP1 DUP11 SWAP1 PUSH1 0x1 SWAP1 DUP9 SWAP1 DUP9 SWAP1 PUSH1 0x4 ADD PUSH2 0xA0A7 JUMP JUMPDEST PUSH1 0x40 MLOAD PUSH4 0x2B9A6CD PUSH1 0xE1 SHL DUP2 MSTORE PUSH1 0x1 PUSH1 0x1 PUSH1 0xA0 SHL SUB DUP5 AND SWAP1 PUSH4 0x5734D9A SWAP1 PUSH3 0x7A120 SWAP1 PUSH2 0x2347 SWAP1 DUP11 SWAP1 PUSH1 0x1 SWAP1 DUP9 SWAP1 DUP9 SWAP1 DUP14 SWAP1 DUP5 SWAP1 DUP5 SWAP1 DUP5 SWAP1 PUSH1 0x4 ADD PUSH2 0xA0EA JUMP JUMPDEST PUSH1 0x0 PUSH1 0x40 MLOAD DUP1 DUP4 SUB DUP2 DUP8 DUP1 EXTCODESIZE ISZERO DUP1 ISZERO PUSH2 0x235F JUMPI PUSH1 0x0 DUP1 REVERT JUMPDEST POP DUP7 STATICCALL SWAP4 POP POP POP POP DUP1 ISZERO PUSH2 0x2395 JUMPI POP PUSH1 0x40 MLOAD RETURNDATASIZE PUSH1 0x0 DUP3 RETURNDATACOPY PUSH1 0x1F RETURNDATASIZE SWAP1 DUP2 ADD PUSH1 0x1F NOT AND DUP3 ADD PUSH1 0x40 MSTORE PUSH2 0x2392 SWAP2 SWAP1 DUP2 ADD SWAP1 PUSH2 0x956E JUMP JUMPDEST PUSH1 0x1 JUMPDEST PUSH2 0x22A1 JUMPI RETURNDATASIZE DUP1 DUP1 ISZERO PUSH2 0x101E JUMPI PUSH1 0x40 MLOAD SWAP2 POP PUSH1 0x1F NOT PUSH1 0x3F RETURNDATASIZE ADD AND DUP3 ADD PUSH1 0x40 MSTORE RETURNDATASIZE DUP3 MSTORE RETURNDATASIZE PUSH1 0x0 PUSH1 0x20 DUP5 ADD RETURNDATACOPY PUSH2 0x101E JUMP JUMPDEST POP POP POP SWAP5 SWAP4 POP POP POP POP JUMP JUMPDEST PUSH1 0x60 DUP1 PUSH1 0x60 PUSH2 0x244F DUP7 PUSH1 0x1 PUSH1 0x1 PUSH1 0xA0 SHL SUB AND PUSH4 0xC45A0155 PUSH1 0x40 MLOAD DUP2 PUSH4 0xFFFFFFFF AND PUSH1 0xE0 SHL DUP2 MSTORE PUSH1 0x4 ADD PUSH1 0x20 PUSH1 0x40 MLOAD DUP1 DUP4 SUB DUP2 DUP7 DUP1 EXTCODESIZE ISZERO DUP1 ISZERO PUSH2 0x240F JUMPI PUSH1 0x0 DUP1 REVERT JUMPDEST POP GAS STATICCALL ISZERO DUP1 ISZERO PUSH2 0x2423 JUMPI RETURNDATASIZE PUSH1 0x0 DUP1 RETURNDATACOPY RETURNDATASIZE PUSH1 0x0 REVERT JUMPDEST POP POP POP POP PUSH1 0x40 MLOAD RETURNDATASIZE PUSH1 0x1F NOT PUSH1 0x1F DUP3 ADD AND DUP3 ADD DUP1 PUSH1 0x40 MSTORE POP DUP2 ADD SWAP1 PUSH2 0x2447 SWAP2 SWAP1 PUSH2 0x8CFC JUMP JUMPDEST DUP7 PUSH1 0x0 PUSH2 0x6D36 JUMP JUMPDEST SWAP1 POP DUP4 MLOAD PUSH1 0x1 PUSH1 0x1 PUSH1 0x40 SHL SUB DUP2 GT DUP1 ISZERO PUSH2 0x2468 JUMPI PUSH1 0x0 DUP1 REVERT JUMPDEST POP PUSH1 0x40 MLOAD SWAP1 DUP1 DUP3 MSTORE DUP1 PUSH1 0x20 MUL PUSH1 0x20 ADD DUP3 ADD PUSH1 0x40 MSTORE DUP1 ISZERO PUSH2 0x2492 JUMPI DUP2 PUSH1 0x20 ADD PUSH1 0x20 DUP3 MUL DUP1 CALLDATASIZE DUP4 CALLDATACOPY ADD SWAP1 POP JUMPDEST POP SWAP2 POP DUP4 MLOAD PUSH1 0x1 PUSH1 0x1 PUSH1 0x40 SHL SUB DUP2 GT DUP1 ISZERO PUSH2 0x24AC JUMPI PUSH1 0x0 DUP1 REVERT JUMPDEST POP PUSH1 0x40 MLOAD SWAP1 DUP1 DUP3 MSTORE DUP1 PUSH1 0x20 MUL PUSH1 0x20 ADD DUP3 ADD PUSH1 0x40 MSTORE DUP1 ISZERO PUSH2 0x24E0 JUMPI DUP2 PUSH1 0x20 ADD JUMPDEST PUSH1 0x60 DUP2 MSTORE PUSH1 0x20 ADD SWAP1 PUSH1 0x1 SWAP1 SUB SWAP1 DUP2 PUSH2 0x24CB JUMPI SWAP1 POP JUMPDEST POP SWAP3 POP PUSH1 0x0 JUMPDEST DUP5 MLOAD DUP2 LT ISZERO PUSH2 0xB1C JUMPI PUSH1 0x60 PUSH1 0x0 DUP1 JUMPDEST DUP5 MLOAD DUP2 LT ISZERO PUSH2 0x25D1 JUMPI PUSH1 0x60 PUSH2 0x251D DUP11 DUP8 DUP5 DUP2 MLOAD DUP2 LT PUSH2 0x2510 JUMPI INVALID JUMPDEST PUSH1 0x20 MUL PUSH1 0x20 ADD ADD MLOAD PUSH2 0x71CC JUMP JUMPDEST SWAP1 POP DUP11 PUSH1 0x1 PUSH1 0x1 PUSH1 0xA0 SHL SUB AND PUSH4 0xCDCA1753 PUSH3 0x493E0 DUP4 DUP13 DUP10 DUP2 MLOAD DUP2 LT PUSH2 0x253F JUMPI INVALID JUMPDEST PUSH1 0x20 MUL PUSH1 0x20 ADD ADD MLOAD PUSH1 0x40 MLOAD DUP5 PUSH4 0xFFFFFFFF AND PUSH1 0xE0 SHL DUP2 MSTORE PUSH1 0x4 ADD PUSH2 0x2564 SWAP3 SWAP2 SWAP1 PUSH2 0xA348 JUMP JUMPDEST PUSH1 0x20 PUSH1 0x40 MLOAD DUP1 DUP4 SUB DUP2 PUSH1 0x0 DUP9 DUP1 EXTCODESIZE ISZERO DUP1 ISZERO PUSH2 0x257E JUMPI PUSH1 0x0 DUP1 REVERT JUMPDEST POP DUP8 CALL SWAP4 POP POP POP POP DUP1 ISZERO PUSH2 0x25AF JUMPI POP PUSH1 0x40 DUP1 MLOAD PUSH1 0x1F RETURNDATASIZE SWAP1 DUP2 ADD PUSH1 0x1F NOT AND DUP3 ADD SWAP1 SWAP3 MSTORE PUSH2 0x25AC SWAP2 DUP2 ADD SWAP1 PUSH2 0x9556 JUMP JUMPDEST PUSH1 0x1 JUMPDEST PUSH2 0x25B8 JUMPI PUSH2 0x25C8 JUMP JUMPDEST DUP1 DUP5 GT PUSH2 0x25C6 JUMPI DUP1 SWAP4 POP DUP2 SWAP5 POP JUMPDEST POP JUMPDEST POP PUSH1 0x1 ADD PUSH2 0x24F5 JUMP JUMPDEST POP DUP1 PUSH2 0x25DE JUMPI POP POP PUSH2 0xB1C JUMP JUMPDEST DUP1 DUP6 DUP5 DUP2 MLOAD DUP2 LT PUSH2 0x25EB JUMPI INVALID JUMPDEST PUSH1 0x20 MUL PUSH1 0x20 ADD ADD DUP2 DUP2 MSTORE POP POP DUP2 DUP7 DUP5 DUP2 MLOAD DUP2 LT PUSH2 0x2604 JUMPI INVALID JUMPDEST PUSH1 0x20 SWAP1 DUP2 MUL SWAP2 SWAP1 SWAP2 ADD ADD MSTORE POP POP PUSH1 0x1 ADD PUSH2 0x24E6 JUMP JUMPDEST DUP1 MLOAD PUSH1 0x60 SWAP1 DUP6 SWAP1 DUP1 PUSH1 0x1 PUSH1 0x1 PUSH1 0x40 SHL SUB DUP2 GT DUP1 ISZERO PUSH2 0x2636 JUMPI PUSH1 0x0 DUP1 REVERT JUMPDEST POP PUSH1 0x40 MLOAD SWAP1 DUP1 DUP3 MSTORE DUP1 PUSH1 0x20 MUL PUSH1 0x20 ADD DUP3 ADD PUSH1 0x40 MSTORE DUP1 ISZERO PUSH2 0x2660 JUMPI DUP2 PUSH1 0x20 ADD PUSH1 0x20 DUP3 MUL DUP1 CALLDATASIZE DUP4 CALLDATACOPY ADD SWAP1 POP JUMPDEST POP PUSH1 0x40 MLOAD PUSH4 0xBCDED89 PUSH1 0xE2 SHL DUP2 MSTORE SWAP1 SWAP4 POP PUSH1 0x1 PUSH1 0x1 PUSH1 0xA0 SHL SUB DUP4 AND SWAP1 PUSH4 0x2F37B624 SWAP1 PUSH2 0x2690 SWAP1 DUP10 SWAP1 PUSH1 0x4 ADD PUSH2 0x9EE0 JUMP JUMPDEST PUSH1 0x20 PUSH1 0x40 MLOAD DUP1 DUP4 SUB DUP2 DUP7 DUP1 EXTCODESIZE ISZERO DUP1 ISZERO PUSH2 0x26A8 JUMPI PUSH1 0x0 DUP1 REVERT JUMPDEST POP GAS STATICCALL ISZERO DUP1 ISZERO PUSH2 0x26BC JUMPI RETURNDATASIZE PUSH1 0x0 DUP1 RETURNDATACOPY RETURNDATASIZE PUSH1 0x0 REVERT JUMPDEST POP POP POP POP PUSH1 0x40 MLOAD RETURNDATASIZE PUSH1 0x1F NOT PUSH1 0x1F DUP3 ADD AND DUP3 ADD DUP1 PUSH1 0x40 MSTORE POP DUP2 ADD SWAP1 PUSH2 0x26E0 SWAP2 SWAP1 PUSH2 0x953A JUMP JUMPDEST ISZERO DUP1 PUSH2 0x2765 JUMPI POP PUSH1 0x40 MLOAD PUSH4 0xBCDED89 PUSH1 0xE2 SHL DUP2 MSTORE PUSH1 0x1 PUSH1 0x1 PUSH1 0xA0 SHL SUB DUP4 AND SWAP1 PUSH4 0x2F37B624 SWAP1 PUSH2 0x2713 SWAP1 DUP9 SWAP1 PUSH1 0x4 ADD PUSH2 0x9EE0 JUMP JUMPDEST PUSH1 0x20 PUSH1 0x40 MLOAD DUP1 DUP4 SUB DUP2 DUP7 DUP1 EXTCODESIZE ISZERO DUP1 ISZERO PUSH2 0x272B JUMPI PUSH1 0x0 DUP1 REVERT JUMPDEST POP GAS STATICCALL ISZERO DUP1 ISZERO PUSH2 0x273F JUMPI RETURNDATASIZE PUSH1 0x0 DUP1 RETURNDATACOPY RETURNDATASIZE PUSH1 0x0 REVERT JUMPDEST POP POP POP POP PUSH1 0x40 MLOAD RETURNDATASIZE PUSH1 0x1F NOT PUSH1 0x1F DUP3 ADD AND DUP3 ADD DUP1 PUSH1 0x40 MSTORE POP DUP2 ADD SWAP1 PUSH2 0x2763 SWAP2 SWAP1 PUSH2 0x953A JUMP JUMPDEST ISZERO JUMPDEST ISZERO PUSH2 0x2771 JUMPI POP POP PUSH2 0x144E JUMP JUMPDEST PUSH2 0x2779 PUSH2 0x854B JUMP JUMPDEST PUSH1 0x40 MLOAD PUSH4 0xF8B2CB4F PUSH1 0xE0 SHL DUP2 MSTORE PUSH1 0x1 PUSH1 0x1 PUSH1 0xA0 SHL SUB DUP5 AND SWAP1 PUSH4 0xF8B2CB4F SWAP1 PUSH2 0x27A5 SWAP1 DUP11 SWAP1 PUSH1 0x4 ADD PUSH2 0x9EE0 JUMP JUMPDEST PUSH1 0x20 PUSH1 0x40 MLOAD DUP1 DUP4 SUB DUP2 DUP7 DUP1 EXTCODESIZE ISZERO DUP1 ISZERO PUSH2 0x27BD JUMPI PUSH1 0x0 DUP1 REVERT JUMPDEST POP GAS STATICCALL ISZERO DUP1 ISZERO PUSH2 0x27D1 JUMPI RETURNDATASIZE PUSH1 0x0 DUP1 RETURNDATACOPY RETURNDATASIZE PUSH1 0x0 REVERT JUMPDEST POP POP POP POP PUSH1 0x40 MLOAD RETURNDATASIZE PUSH1 0x1F NOT PUSH1 0x1F DUP3 ADD AND DUP3 ADD DUP1 PUSH1 0x40 MSTORE POP DUP2 ADD SWAP1 PUSH2 0x27F5 SWAP2 SWAP1 PUSH2 0x9556 JUMP JUMPDEST DUP2 MSTORE PUSH1 0x40 MLOAD PUSH4 0xF8B2CB4F PUSH1 0xE0 SHL DUP2 MSTORE PUSH1 0x1 PUSH1 0x1 PUSH1 0xA0 SHL SUB DUP5 AND SWAP1 PUSH4 0xF8B2CB4F SWAP1 PUSH2 0x2823 SWAP1 DUP10 SWAP1 PUSH1 0x4 ADD PUSH2 0x9EE0 JUMP JUMPDEST PUSH1 0x20 PUSH1 0x40 MLOAD DUP1 DUP4 SUB DUP2 DUP7 DUP1 EXTCODESIZE ISZERO DUP1 ISZERO PUSH2 0x283B JUMPI PUSH1 0x0 DUP1 REVERT JUMPDEST POP GAS STATICCALL ISZERO DUP1 ISZERO PUSH2 0x284F JUMPI RETURNDATASIZE PUSH1 0x0 DUP1 RETURNDATACOPY RETURNDATASIZE PUSH1 0x0 REVERT JUMPDEST POP POP POP POP PUSH1 0x40 MLOAD RETURNDATASIZE PUSH1 0x1F NOT PUSH1 0x1F DUP3 ADD AND DUP3 ADD DUP1 PUSH1 0x40 MSTORE POP DUP2 ADD SWAP1 PUSH2 0x2873 SWAP2 SWAP1 PUSH2 0x9556 JUMP JUMPDEST PUSH1 0x20 DUP3 ADD MSTORE PUSH1 0x40 MLOAD PUSH4 0x4A46C673 PUSH1 0xE1 SHL DUP2 MSTORE PUSH1 0x1 PUSH1 0x1 PUSH1 0xA0 SHL SUB DUP5 AND SWAP1 PUSH4 0x948D8CE6 SWAP1 PUSH2 0x28A4 SWAP1 DUP11 SWAP1 PUSH1 0x4 ADD PUSH2 0x9EE0 JUMP JUMPDEST PUSH1 0x20 PUSH1 0x40 MLOAD DUP1 DUP4 SUB DUP2 DUP7 DUP1 EXTCODESIZE ISZERO DUP1 ISZERO PUSH2 0x28BC JUMPI PUSH1 0x0 DUP1 REVERT JUMPDEST POP GAS STATICCALL ISZERO DUP1 ISZERO PUSH2 0x28D0 JUMPI RETURNDATASIZE PUSH1 0x0 DUP1 RETURNDATACOPY RETURNDATASIZE PUSH1 0x0 REVERT JUMPDEST POP POP POP POP PUSH1 0x40 MLOAD RETURNDATASIZE PUSH1 0x1F NOT PUSH1 0x1F DUP3 ADD AND DUP3 ADD DUP1 PUSH1 0x40 MSTORE POP DUP2 ADD SWAP1 PUSH2 0x28F4 SWAP2 SWAP1 PUSH2 0x9556 JUMP JUMPDEST PUSH1 0x40 DUP1 DUP4 ADD SWAP2 SWAP1 SWAP2 MSTORE MLOAD PUSH4 0x4A46C673 PUSH1 0xE1 SHL DUP2 MSTORE PUSH1 0x1 PUSH1 0x1 PUSH1 0xA0 SHL SUB DUP5 AND SWAP1 PUSH4 0x948D8CE6 SWAP1 PUSH2 0x2927 SWAP1 DUP10 SWAP1 PUSH1 0x4 ADD PUSH2 0x9EE0 JUMP JUMPDEST PUSH1 0x20 PUSH1 0x40 MLOAD DUP1 DUP4 SUB DUP2 DUP7 DUP1 EXTCODESIZE ISZERO DUP1 ISZERO PUSH2 0x293F JUMPI PUSH1 0x0 DUP1 REVERT JUMPDEST POP GAS STATICCALL ISZERO DUP1 ISZERO PUSH2 0x2953 JUMPI RETURNDATASIZE PUSH1 0x0 DUP1 RETURNDATACOPY RETURNDATASIZE PUSH1 0x0 REVERT JUMPDEST POP POP POP POP PUSH1 0x40 MLOAD RETURNDATASIZE PUSH1 0x1F NOT PUSH1 0x1F DUP3 ADD AND DUP3 ADD DUP1 PUSH1 0x40 MSTORE POP DUP2 ADD SWAP1 PUSH2 0x2977 SWAP2 SWAP1 PUSH2 0x9556 JUMP JUMPDEST DUP2 PUSH1 0x60 ADD DUP2 DUP2 MSTORE POP POP DUP3 PUSH1 0x1 PUSH1 0x1 PUSH1 0xA0 SHL SUB AND PUSH4 0xD4CADF68 PUSH1 0x40 MLOAD DUP2 PUSH4 0xFFFFFFFF AND PUSH1 0xE0 SHL DUP2 MSTORE PUSH1 0x4 ADD PUSH1 0x20 PUSH1 0x40 MLOAD DUP1 DUP4 SUB DUP2 DUP7 DUP1 EXTCODESIZE ISZERO DUP1 ISZERO PUSH2 0x29B9 JUMPI PUSH1 0x0 DUP1 REVERT JUMPDEST POP GAS STATICCALL ISZERO DUP1 ISZERO PUSH2 0x29CD JUMPI RETURNDATASIZE PUSH1 0x0 DUP1 RETURNDATACOPY RETURNDATASIZE PUSH1 0x0 REVERT JUMPDEST POP POP POP POP PUSH1 0x40 MLOAD RETURNDATASIZE PUSH1 0x1F NOT PUSH1 0x1F DUP3 ADD AND DUP3 ADD DUP1 PUSH1 0x40 MSTORE POP DUP2 ADD SWAP1 PUSH2 0x29F1 SWAP2 SWAP1 PUSH2 0x9556 JUMP JUMPDEST PUSH1 0x80 DUP3 ADD MSTORE PUSH1 0x0 JUMPDEST DUP3 DUP2 LT ISZERO PUSH2 0x11F5 JUMPI PUSH2 0x2A24 DUP3 PUSH1 0x20 ADD MLOAD PUSH1 0x3 PUSH8 0xDE0B6B3A7640000 DUP2 PUSH2 0x2A1B JUMPI INVALID JUMPDEST DIV PUSH1 0x1 ADD PUSH2 0x7327 JUMP JUMPDEST DUP7 DUP3 DUP2 MLOAD DUP2 LT PUSH2 0x2A30 JUMPI INVALID JUMPDEST PUSH1 0x20 MUL PUSH1 0x20 ADD ADD MLOAD GT ISZERO PUSH2 0x2A43 JUMPI PUSH2 0x11F5 JUMP JUMPDEST DUP4 PUSH1 0x1 PUSH1 0x1 PUSH1 0xA0 SHL SUB AND PUSH4 0xF8D6AED4 PUSH3 0x493E0 DUP5 PUSH1 0x0 ADD MLOAD DUP6 PUSH1 0x40 ADD MLOAD DUP7 PUSH1 0x20 ADD MLOAD DUP8 PUSH1 0x60 ADD MLOAD DUP13 DUP9 DUP2 MLOAD DUP2 LT PUSH2 0x2A76 JUMPI INVALID JUMPDEST PUSH1 0x20 MUL PUSH1 0x20 ADD ADD MLOAD DUP10 PUSH1 0x80 ADD MLOAD PUSH1 0x40 MLOAD DUP9 PUSH4 0xFFFFFFFF AND PUSH1 0xE0 SHL DUP2 MSTORE PUSH1 0x4 ADD PUSH2 0x2AA4 SWAP7 SWAP6 SWAP5 SWAP4 SWAP3 SWAP2 SWAP1 PUSH2 0xA787 JUMP JUMPDEST PUSH1 0x20 PUSH1 0x40 MLOAD DUP1 DUP4 SUB DUP2 DUP8 DUP1 EXTCODESIZE ISZERO DUP1 ISZERO PUSH2 0x2ABC JUMPI PUSH1 0x0 DUP1 REVERT JUMPDEST POP DUP7 STATICCALL SWAP4 POP POP POP POP DUP1 ISZERO PUSH2 0x2AED JUMPI POP PUSH1 0x40 DUP1 MLOAD PUSH1 0x1F RETURNDATASIZE SWAP1 DUP2 ADD PUSH1 0x1F NOT AND DUP3 ADD SWAP1 SWAP3 MSTORE PUSH2 0x2AEA SWAP2 DUP2 ADD SWAP1 PUSH2 0x9556 JUMP JUMPDEST PUSH1 0x1 JUMPDEST PUSH2 0x2B27 JUMPI RETURNDATASIZE DUP1 DUP1 ISZERO PUSH2 0x2B1B JUMPI PUSH1 0x40 MLOAD SWAP2 POP PUSH1 0x1F NOT PUSH1 0x3F RETURNDATASIZE ADD AND DUP3 ADD PUSH1 0x40 MSTORE RETURNDATASIZE DUP3 MSTORE RETURNDATASIZE PUSH1 0x0 PUSH1 0x20 DUP5 ADD RETURNDATACOPY PUSH2 0x2B20 JUMP JUMPDEST PUSH1 0x60 SWAP2 POP JUMPDEST POP POP PUSH2 0x11F5 JUMP JUMPDEST DUP3 MLOAD PUSH2 0x2B3F SWAP1 PUSH1 0x2 PUSH8 0xDE0B6B3A7640000 JUMPDEST DIV PUSH2 0x7327 JUMP JUMPDEST DUP2 GT ISZERO PUSH2 0x2B4C JUMPI POP PUSH2 0x11F5 JUMP JUMPDEST DUP1 DUP7 DUP4 DUP2 MLOAD DUP2 LT PUSH2 0x2B59 JUMPI INVALID JUMPDEST PUSH1 0x20 MUL PUSH1 0x20 ADD ADD DUP2 DUP2 MSTORE POP POP DUP6 DUP3 DUP2 MLOAD DUP2 LT PUSH2 0x2B71 JUMPI INVALID JUMPDEST PUSH1 0x20 MUL PUSH1 0x20 ADD ADD MLOAD PUSH1 0x0 EQ ISZERO PUSH2 0x2B87 JUMPI POP PUSH2 0x11F5 JUMP JUMPDEST POP PUSH1 0x1 ADD PUSH2 0x29F9 JUMP JUMPDEST PUSH1 0x60 DUP1 PUSH1 0x60 PUSH2 0x2BD1 DUP7 PUSH1 0x1 PUSH1 0x1 PUSH1 0xA0 SHL SUB AND PUSH4 0xC45A0155 PUSH1 0x40 MLOAD DUP2 PUSH4 0xFFFFFFFF AND PUSH1 0xE0 SHL DUP2 MSTORE PUSH1 0x4 ADD PUSH1 0x20 PUSH1 0x40 MLOAD DUP1 DUP4 SUB DUP2 DUP7 DUP1 EXTCODESIZE ISZERO DUP1 ISZERO PUSH2 0x240F JUMPI PUSH1 0x0 DUP1 REVERT JUMPDEST SWAP1 POP PUSH1 0x60 PUSH2 0x2BDE DUP7 PUSH2 0x7384 JUMP JUMPDEST SWAP1 POP DUP5 MLOAD PUSH1 0x1 PUSH1 0x1 PUSH1 0x40 SHL SUB DUP2 GT DUP1 ISZERO PUSH2 0x2BF7 JUMPI PUSH1 0x0 DUP1 REVERT JUMPDEST POP PUSH1 0x40 MLOAD SWAP1 DUP1 DUP3 MSTORE DUP1 PUSH1 0x20 MUL PUSH1 0x20 ADD DUP3 ADD PUSH1 0x40 MSTORE DUP1 ISZERO PUSH2 0x2C21 JUMPI DUP2 PUSH1 0x20 ADD PUSH1 0x20 DUP3 MUL DUP1 CALLDATASIZE DUP4 CALLDATACOPY ADD SWAP1 POP JUMPDEST POP SWAP3 POP DUP5 MLOAD PUSH1 0x1 PUSH1 0x1 PUSH1 0x40 SHL SUB DUP2 GT DUP1 ISZERO PUSH2 0x2C3B JUMPI PUSH1 0x0 DUP1 REVERT JUMPDEST POP PUSH1 0x40 MLOAD SWAP1 DUP1 DUP3 MSTORE DUP1 PUSH1 0x20 MUL PUSH1 0x20 ADD DUP3 ADD PUSH1 0x40 MSTORE DUP1 ISZERO PUSH2 0x2C6F JUMPI DUP2 PUSH1 0x20 ADD JUMPDEST PUSH1 0x60 DUP2 MSTORE PUSH1 0x20 ADD SWAP1 PUSH1 0x1 SWAP1 SUB SWAP1 DUP2 PUSH2 0x2C5A JUMPI SWAP1 POP JUMPDEST POP SWAP4 POP PUSH1 0x0 JUMPDEST DUP6 MLOAD DUP2 LT ISZERO PUSH2 0x2DCA JUMPI PUSH1 0x60 PUSH1 0x0 DUP1 JUMPDEST DUP6 MLOAD DUP2 LT ISZERO PUSH2 0x2D82 JUMPI PUSH1 0x60 PUSH2 0x2CB4 DUP7 PUSH2 0x2CAF DUP10 DUP6 DUP2 MLOAD DUP2 LT PUSH2 0x2CA2 JUMPI INVALID JUMPDEST PUSH1 0x20 MUL PUSH1 0x20 ADD ADD MLOAD PUSH2 0x741C JUMP JUMPDEST PUSH2 0x71CC JUMP JUMPDEST SWAP1 POP DUP12 PUSH1 0x1 PUSH1 0x1 PUSH1 0xA0 SHL SUB AND PUSH4 0x2F80BB1D PUSH3 0x493E0 DUP4 DUP14 DUP10 DUP2 MLOAD DUP2 LT PUSH2 0x2CD6 JUMPI INVALID JUMPDEST PUSH1 0x20 MUL PUSH1 0x20 ADD ADD MLOAD PUSH1 0x40 MLOAD DUP5 PUSH4 0xFFFFFFFF AND PUSH1 0xE0 SHL DUP2 MSTORE PUSH1 0x4 ADD PUSH2 0x2CFB SWAP3 SWAP2 SWAP1 PUSH2 0xA348 JUMP JUMPDEST PUSH1 0x20 PUSH1 0x40 MLOAD DUP1 DUP4 SUB DUP2 PUSH1 0x0 DUP9 DUP1 EXTCODESIZE ISZERO DUP1 ISZERO PUSH2 0x2D15 JUMPI PUSH1 0x0 DUP1 REVERT JUMPDEST POP DUP8 CALL SWAP4 POP POP POP POP DUP1 ISZERO PUSH2 0x2D46 JUMPI POP PUSH1 0x40 DUP1 MLOAD PUSH1 0x1F RETURNDATASIZE SWAP1 DUP2 ADD PUSH1 0x1F NOT AND DUP3 ADD SWAP1 SWAP3 MSTORE PUSH2 0x2D43 SWAP2 DUP2 ADD SWAP1 PUSH2 0x9556 JUMP JUMPDEST PUSH1 0x1 JUMPDEST PUSH2 0x2D4F JUMPI PUSH2 0x2D79 JUMP JUMPDEST DUP4 ISZERO DUP1 PUSH2 0x2D5C JUMPI POP DUP1 DUP5 LT ISZERO JUMPDEST ISZERO PUSH2 0x2D77 JUMPI DUP1 SWAP4 POP PUSH2 0x2D74 DUP13 DUP10 DUP6 DUP2 MLOAD DUP2 LT PUSH2 0x2510 JUMPI INVALID JUMPDEST SWAP5 POP JUMPDEST POP JUMPDEST POP PUSH1 0x1 ADD PUSH2 0x2C84 JUMP JUMPDEST POP DUP1 PUSH2 0x2D8F JUMPI POP POP PUSH2 0x2DCA JUMP JUMPDEST DUP1 DUP7 DUP5 DUP2 MLOAD DUP2 LT PUSH2 0x2D9C JUMPI INVALID JUMPDEST PUSH1 0x20 MUL PUSH1 0x20 ADD ADD DUP2 DUP2 MSTORE POP POP DUP2 DUP8 DUP5 DUP2 MLOAD DUP2 LT PUSH2 0x2DB5 JUMPI INVALID JUMPDEST PUSH1 0x20 SWAP1 DUP2 MUL SWAP2 SWAP1 SWAP2 ADD ADD MSTORE POP POP PUSH1 0x1 ADD PUSH2 0x2C75 JUMP JUMPDEST POP POP POP SWAP4 POP SWAP4 SWAP2 POP POP JUMP JUMPDEST PUSH1 0x40 DUP1 MLOAD PUSH1 0x60 DUP2 DUP2 ADD SWAP1 SWAP3 MSTORE PUSH2 0x14BC SWAP1 DUP1 PUSH2 0x2DF4 DUP7 DUP10 PUSH1 0x80 DUP5 ADD PUSH2 0x9F0D JUMP JUMPDEST PUSH1 0x40 MLOAD PUSH1 0x20 DUP2 DUP4 SUB SUB DUP2 MSTORE SWAP1 PUSH1 0x40 MSTORE DUP2 MSTORE PUSH1 0x20 ADD DUP7 DUP9 PUSH1 0x40 MLOAD PUSH1 0x20 ADD PUSH2 0x2E1B SWAP3 SWAP2 SWAP1 PUSH2 0x9F0D JUMP JUMPDEST PUSH1 0x40 MLOAD PUSH1 0x20 DUP2 DUP4 SUB SUB DUP2 MSTORE SWAP1 PUSH1 0x40 MSTORE DUP2 MSTORE PUSH1 0x20 ADD PUSH2 0x74B4 DUP2 MSTORE POP DUP4 PUSH2 0x6A00 JUMP JUMPDEST PUSH1 0x60 PUSH2 0x2E48 DUP5 DUP5 DUP5 PUSH2 0xB27 JUMP JUMPDEST SWAP1 POP PUSH1 0x0 JUMPDEST DUP5 MLOAD DUP2 LT ISZERO PUSH2 0xC92 JUMPI DUP2 DUP2 DUP2 MLOAD DUP2 LT PUSH2 0x2E62 JUMPI INVALID JUMPDEST PUSH1 0x20 MUL PUSH1 0x20 ADD ADD MLOAD PUSH1 0x0 EQ PUSH2 0x2EE8 JUMPI PUSH2 0x2ECF DUP3 DUP3 DUP2 MLOAD DUP2 LT PUSH2 0x2E80 JUMPI INVALID JUMPDEST PUSH1 0x20 MUL PUSH1 0x20 ADD ADD MLOAD DUP7 DUP4 DUP2 MLOAD DUP2 LT PUSH2 0x2E94 JUMPI INVALID JUMPDEST PUSH1 0x20 MUL PUSH1 0x20 ADD ADD MLOAD PUSH1 0x60 ADD MLOAD PUSH1 0x1 PUSH1 0x1 PUSH1 0x80 SHL SUB AND DUP8 DUP5 DUP2 MLOAD DUP2 LT PUSH2 0x2EB5 JUMPI INVALID JUMPDEST PUSH1 0x20 MUL PUSH1 0x20 ADD ADD MLOAD PUSH1 0x40 ADD MLOAD PUSH1 0x1 PUSH1 0x1 PUSH1 0x80 SHL SUB AND PUSH2 0x75C8 JUMP JUMPDEST DUP3 DUP3 DUP2 MLOAD DUP2 LT PUSH2 0x2EDB JUMPI INVALID JUMPDEST PUSH1 0x20 MUL PUSH1 0x20 ADD ADD DUP2 DUP2 MSTORE POP POP JUMPDEST PUSH1 0x1 ADD PUSH2 0x2E4D JUMP JUMPDEST PUSH1 0x60 DUP2 PUSH1 0x1 PUSH1 0x1 PUSH1 0x40 SHL SUB DUP2 GT DUP1 ISZERO PUSH2 0x2F08 JUMPI PUSH1 0x0 DUP1 REVERT JUMPDEST POP PUSH1 0x40 MLOAD SWAP1 DUP1 DUP3 MSTORE DUP1 PUSH1 0x20 MUL PUSH1 0x20 ADD DUP3 ADD PUSH1 0x40 MSTORE DUP1 ISZERO PUSH2 0x2F42 JUMPI DUP2 PUSH1 0x20 ADD JUMPDEST PUSH2 0x2F2F PUSH2 0x857A JUMP JUMPDEST DUP2 MSTORE PUSH1 0x20 ADD SWAP1 PUSH1 0x1 SWAP1 SUB SWAP1 DUP2 PUSH2 0x2F27 JUMPI SWAP1 POP JUMPDEST POP SWAP1 POP PUSH1 0x0 JUMPDEST DUP1 DUP4 EQ PUSH2 0x304A JUMPI PUSH1 0x1 DUP3 DUP3 DUP2 MLOAD DUP2 LT PUSH2 0x2F5D JUMPI INVALID JUMPDEST PUSH1 0x20 SWAP1 DUP2 MUL SWAP2 SWAP1 SWAP2 ADD DUP2 ADD MLOAD SWAP2 ISZERO ISZERO SWAP2 ADD MSTORE DUP4 DUP4 DUP3 DUP2 DUP2 LT PUSH2 0x2F7B JUMPI INVALID JUMPDEST SWAP1 POP PUSH1 0x20 MUL DUP2 ADD SWAP1 PUSH2 0x2F8D SWAP2 SWAP1 PUSH2 0xA7AF JUMP JUMPDEST ISZERO ISZERO SWAP1 POP PUSH2 0x2F9A JUMPI PUSH2 0x3042 JUMP JUMPDEST ADDRESS DUP5 DUP5 DUP4 DUP2 DUP2 LT PUSH2 0x2FA7 JUMPI INVALID JUMPDEST SWAP1 POP PUSH1 0x20 MUL DUP2 ADD SWAP1 PUSH2 0x2FB9 SWAP2 SWAP1 PUSH2 0xA7AF JUMP JUMPDEST PUSH1 0x40 MLOAD PUSH2 0x2FC7 SWAP3 SWAP2 SWAP1 PUSH2 0x9EB4 JUMP JUMPDEST PUSH1 0x0 PUSH1 0x40 MLOAD DUP1 DUP4 SUB DUP2 PUSH1 0x0 DUP7 GAS CALL SWAP2 POP POP RETURNDATASIZE DUP1 PUSH1 0x0 DUP2 EQ PUSH2 0x3004 JUMPI PUSH1 0x40 MLOAD SWAP2 POP PUSH1 0x1F NOT PUSH1 0x3F RETURNDATASIZE ADD AND DUP3 ADD PUSH1 0x40 MSTORE RETURNDATASIZE DUP3 MSTORE RETURNDATASIZE PUSH1 0x0 PUSH1 0x20 DUP5 ADD RETURNDATACOPY PUSH2 0x3009 JUMP JUMPDEST PUSH1 0x60 SWAP2 POP JUMPDEST POP DUP4 DUP4 DUP2 MLOAD DUP2 LT PUSH2 0x3016 JUMPI INVALID JUMPDEST PUSH1 0x20 MUL PUSH1 0x20 ADD ADD MLOAD PUSH1 0x20 ADD DUP5 DUP5 DUP2 MLOAD DUP2 LT PUSH2 0x302D JUMPI INVALID JUMPDEST PUSH1 0x20 SWAP1 DUP2 MUL SWAP2 SWAP1 SWAP2 ADD ADD MLOAD SWAP2 SWAP1 SWAP2 MSTORE SWAP1 ISZERO ISZERO SWAP1 MSTORE JUMPDEST PUSH1 0x1 ADD PUSH2 0x2F48 JUMP JUMPDEST POP SWAP3 SWAP2 POP POP JUMP JUMPDEST PUSH1 0x60 DUP2 MLOAD PUSH1 0x1 PUSH1 0x1 PUSH1 0x40 SHL SUB DUP2 GT DUP1 ISZERO PUSH2 0x306A JUMPI PUSH1 0x0 DUP1 REVERT JUMPDEST POP PUSH1 0x40 MLOAD SWAP1 DUP1 DUP3 MSTORE DUP1 PUSH1 0x20 MUL PUSH1 0x20 ADD DUP3 ADD PUSH1 0x40 MSTORE DUP1 ISZERO PUSH2 0x3094 JUMPI DUP2 PUSH1 0x20 ADD PUSH1 0x20 DUP3 MUL DUP1 CALLDATASIZE DUP4 CALLDATACOPY ADD SWAP1 POP JUMPDEST POP SWAP1 POP PUSH1 0x0 JUMPDEST DUP3 MLOAD DUP2 EQ PUSH2 0x313D JUMPI PUSH32 0x0 PUSH1 0x1 PUSH1 0x1 PUSH1 0xA0 SHL SUB AND DUP4 DUP3 DUP2 MLOAD DUP2 LT PUSH2 0x30D8 JUMPI INVALID JUMPDEST PUSH1 0x20 MUL PUSH1 0x20 ADD ADD MLOAD PUSH1 0x1 PUSH1 0x1 PUSH1 0xA0 SHL SUB AND EQ PUSH2 0x3118 JUMPI PUSH2 0x3113 DUP4 DUP3 DUP2 MLOAD DUP2 LT PUSH2 0x30FD JUMPI INVALID JUMPDEST PUSH1 0x20 MUL PUSH1 0x20 ADD ADD MLOAD PUSH1 0x1 PUSH1 0x1 PUSH1 0xA0 SHL SUB AND PUSH2 0x75EC JUMP JUMPDEST PUSH2 0x311B JUMP JUMPDEST PUSH1 0x12 JUMPDEST PUSH1 0xFF AND DUP3 DUP3 DUP2 MLOAD DUP2 LT PUSH2 0x312A JUMPI INVALID JUMPDEST PUSH1 0x20 SWAP1 DUP2 MUL SWAP2 SWAP1 SWAP2 ADD ADD MSTORE PUSH1 0x1 ADD PUSH2 0x309A JUMP JUMPDEST POP SWAP2 SWAP1 POP JUMP JUMPDEST PUSH1 0x0 PUSH1 0x60 DUP1 SWAP5 POP SWAP5 POP SWAP5 SWAP2 POP POP JUMP JUMPDEST PUSH1 0x60 PUSH2 0x315E DUP4 DUP6 PUSH2 0x63B3 JUMP JUMPDEST PUSH1 0x0 DUP6 PUSH1 0x0 ADD MLOAD SWAP1 POP PUSH1 0x0 DUP2 PUSH1 0x1 PUSH1 0x1 PUSH1 0xA0 SHL SUB AND PUSH4 0x36569E77 PUSH1 0x40 MLOAD DUP2 PUSH4 0xFFFFFFFF AND PUSH1 0xE0 SHL DUP2 MSTORE PUSH1 0x4 ADD PUSH1 0x20 PUSH1 0x40 MLOAD DUP1 DUP4 SUB DUP2 DUP7 DUP1 EXTCODESIZE ISZERO DUP1 ISZERO PUSH2 0x31A2 JUMPI PUSH1 0x0 DUP1 REVERT JUMPDEST POP GAS STATICCALL ISZERO DUP1 ISZERO PUSH2 0x31B6 JUMPI RETURNDATASIZE PUSH1 0x0 DUP1 RETURNDATACOPY RETURNDATASIZE PUSH1 0x0 REVERT JUMPDEST POP POP POP POP PUSH1 0x40 MLOAD RETURNDATASIZE PUSH1 0x1F NOT PUSH1 0x1F DUP3 ADD AND DUP3 ADD DUP1 PUSH1 0x40 MSTORE POP DUP2 ADD SWAP1 PUSH2 0x31DA SWAP2 SWAP1 PUSH2 0x8CFC JUMP JUMPDEST DUP5 MLOAD SWAP1 SWAP2 POP DUP1 PUSH1 0x1 PUSH1 0x1 PUSH1 0x40 SHL SUB DUP2 GT DUP1 ISZERO PUSH2 0x31F5 JUMPI PUSH1 0x0 DUP1 REVERT JUMPDEST POP PUSH1 0x40 MLOAD SWAP1 DUP1 DUP3 MSTORE DUP1 PUSH1 0x20 MUL PUSH1 0x20 ADD DUP3 ADD PUSH1 0x40 MSTORE DUP1 ISZERO PUSH2 0x321F JUMPI DUP2 PUSH1 0x20 ADD PUSH1 0x20 DUP3 MUL DUP1 CALLDATASIZE DUP4 CALLDATACOPY ADD SWAP1 POP JUMPDEST POP SWAP4 POP DUP3 PUSH1 0x1 PUSH1 0x1 PUSH1 0xA0 SHL SUB AND PUSH4 0xF4B9FA75 PUSH1 0x40 MLOAD DUP2 PUSH4 0xFFFFFFFF AND PUSH1 0xE0 SHL DUP2 MSTORE PUSH1 0x4 ADD PUSH1 0x20 PUSH1 0x40 MLOAD DUP1 DUP4 SUB DUP2 DUP7 DUP1 EXTCODESIZE ISZERO DUP1 ISZERO PUSH2 0x325B JUMPI PUSH1 0x0 DUP1 REVERT JUMPDEST POP GAS STATICCALL ISZERO DUP1 ISZERO PUSH2 0x326F JUMPI RETURNDATASIZE PUSH1 0x0 DUP1 RETURNDATACOPY RETURNDATASIZE PUSH1 0x0 REVERT JUMPDEST POP POP POP POP PUSH1 0x40 MLOAD RETURNDATASIZE PUSH1 0x1F NOT PUSH1 0x1F DUP3 ADD AND DUP3 ADD DUP1 PUSH1 0x40 MSTORE POP DUP2 ADD SWAP1 PUSH2 0x3293 SWAP2 SWAP1 PUSH2 0x8CFC JUMP JUMPDEST PUSH1 0x1 PUSH1 0x1 PUSH1 0xA0 SHL SUB AND DUP7 PUSH1 0x1 PUSH1 0x1 PUSH1 0xA0 SHL SUB AND EQ ISZERO DUP1 ISZERO PUSH2 0x3336 JUMPI POP DUP3 PUSH1 0x1 PUSH1 0x1 PUSH1 0xA0 SHL SUB AND PUSH4 0xF4B9FA75 PUSH1 0x40 MLOAD DUP2 PUSH4 0xFFFFFFFF AND PUSH1 0xE0 SHL DUP2 MSTORE PUSH1 0x4 ADD PUSH1 0x20 PUSH1 0x40 MLOAD DUP1 DUP4 SUB DUP2 DUP7 DUP1 EXTCODESIZE ISZERO DUP1 ISZERO PUSH2 0x32E8 JUMPI PUSH1 0x0 DUP1 REVERT JUMPDEST POP GAS STATICCALL ISZERO DUP1 ISZERO PUSH2 0x32FC JUMPI RETURNDATASIZE PUSH1 0x0 DUP1 RETURNDATACOPY RETURNDATASIZE PUSH1 0x0 REVERT JUMPDEST POP POP POP POP PUSH1 0x40 MLOAD RETURNDATASIZE PUSH1 0x1F NOT PUSH1 0x1F DUP3 ADD AND DUP3 ADD DUP1 PUSH1 0x40 MSTORE POP DUP2 ADD SWAP1 PUSH2 0x3320 SWAP2 SWAP1 PUSH2 0x8CFC JUMP JUMPDEST PUSH1 0x1 PUSH1 0x1 PUSH1 0xA0 SHL SUB AND DUP8 PUSH1 0x1 PUSH1 0x1 PUSH1 0xA0 SHL SUB AND EQ ISZERO JUMPDEST ISZERO PUSH2 0x3343 JUMPI POP POP POP PUSH2 0x144E JUMP JUMPDEST PUSH1 0x0 JUMPDEST DUP2 DUP2 LT ISZERO PUSH2 0x11F5 JUMPI PUSH1 0x0 PUSH2 0x3371 DUP11 DUP10 DUP12 DUP11 DUP7 DUP2 MLOAD DUP2 LT PUSH2 0x3362 JUMPI INVALID JUMPDEST PUSH1 0x20 MUL PUSH1 0x20 ADD ADD MLOAD DUP10 DUP10 PUSH2 0x768E JUMP JUMPDEST SWAP1 POP DUP1 PUSH2 0x337E JUMPI POP PUSH2 0x11F5 JUMP JUMPDEST DUP1 DUP7 DUP4 DUP2 MLOAD DUP2 LT PUSH2 0x338B JUMPI INVALID JUMPDEST PUSH1 0x20 SWAP1 DUP2 MUL SWAP2 SWAP1 SWAP2 ADD ADD MSTORE POP PUSH1 0x1 ADD PUSH2 0x3346 JUMP JUMPDEST PUSH1 0x60 PUSH1 0x0 DUP6 PUSH1 0x0 ADD MLOAD PUSH1 0x1 PUSH1 0x1 PUSH1 0xA0 SHL SUB AND PUSH4 0xBBD7F255 DUP6 PUSH1 0xF SIGNEXTEND PUSH1 0x40 MLOAD DUP3 PUSH4 0xFFFFFFFF AND PUSH1 0xE0 SHL DUP2 MSTORE PUSH1 0x4 ADD PUSH2 0x33D6 SWAP2 SWAP1 PUSH2 0xA313 JUMP JUMPDEST PUSH1 0x20 PUSH1 0x40 MLOAD DUP1 DUP4 SUB DUP2 DUP7 DUP1 EXTCODESIZE ISZERO DUP1 ISZERO PUSH2 0x33EE JUMPI PUSH1 0x0 DUP1 REVERT JUMPDEST POP GAS STATICCALL ISZERO DUP1 ISZERO PUSH2 0x3402 JUMPI RETURNDATASIZE PUSH1 0x0 DUP1 RETURNDATACOPY RETURNDATASIZE PUSH1 0x0 REVERT JUMPDEST POP POP POP POP PUSH1 0x40 MLOAD RETURNDATASIZE PUSH1 0x1F NOT PUSH1 0x1F DUP3 ADD AND DUP3 ADD DUP1 PUSH1 0x40 MSTORE POP DUP2 ADD SWAP1 PUSH2 0x3426 SWAP2 SWAP1 PUSH2 0x9556 JUMP JUMPDEST DUP7 MLOAD PUSH1 0x40 MLOAD PUSH4 0x1E010439 PUSH1 0xE0 SHL DUP2 MSTORE PUSH1 0x1 PUSH1 0x1 PUSH1 0xA0 SHL SUB SWAP1 SWAP2 AND SWAP1 PUSH4 0x1E010439 SWAP1 PUSH2 0x3459 SWAP1 PUSH1 0xF DUP10 SWAP1 SIGNEXTEND SWAP1 PUSH1 0x4 ADD PUSH2 0xA313 JUMP JUMPDEST PUSH1 0x20 PUSH1 0x40 MLOAD DUP1 DUP4 SUB DUP2 DUP7 DUP1 EXTCODESIZE ISZERO DUP1 ISZERO PUSH2 0x3471 JUMPI PUSH1 0x0 DUP1 REVERT JUMPDEST POP GAS STATICCALL ISZERO DUP1 ISZERO PUSH2 0x3485 JUMPI RETURNDATASIZE PUSH1 0x0 DUP1 RETURNDATACOPY RETURNDATASIZE PUSH1 0x0 REVERT JUMPDEST POP POP POP POP PUSH1 0x40 MLOAD RETURNDATASIZE PUSH1 0x1F NOT PUSH1 0x1F DUP3 ADD AND DUP3 ADD DUP1 PUSH1 0x40 MSTORE POP DUP2 ADD SWAP1 PUSH2 0x34A9 SWAP2 SWAP1 PUSH2 0x9556 JUMP JUMPDEST SUB SWAP1 POP PUSH1 0x0 DUP7 PUSH1 0x0 ADD MLOAD PUSH1 0x1 PUSH1 0x1 PUSH1 0xA0 SHL SUB AND PUSH4 0xC5829514 DUP7 PUSH1 0xF SIGNEXTEND PUSH1 0x40 MLOAD DUP3 PUSH4 0xFFFFFFFF AND PUSH1 0xE0 SHL DUP2 MSTORE PUSH1 0x4 ADD PUSH2 0x34E1 SWAP2 SWAP1 PUSH2 0xA313 JUMP JUMPDEST PUSH1 0x80 PUSH1 0x40 MLOAD DUP1 DUP4 SUB DUP2 DUP7 DUP1 EXTCODESIZE ISZERO DUP1 ISZERO PUSH2 0x34F9 JUMPI PUSH1 0x0 DUP1 REVERT JUMPDEST POP GAS STATICCALL ISZERO DUP1 ISZERO PUSH2 0x350D JUMPI RETURNDATASIZE PUSH1 0x0 DUP1 RETURNDATACOPY RETURNDATASIZE PUSH1 0x0 REVERT JUMPDEST POP POP POP POP PUSH1 0x40 MLOAD RETURNDATASIZE PUSH1 0x1F NOT PUSH1 0x1F DUP3 ADD AND DUP3 ADD DUP1 PUSH1 0x40 MSTORE POP DUP2 ADD SWAP1 PUSH2 0x3531 SWAP2 SWAP1 PUSH2 0x9B6B JUMP JUMPDEST SWAP4 POP POP POP POP DUP1 PUSH1 0x12 SUB PUSH1 0xA EXP DUP3 DUP2 PUSH2 0x3545 JUMPI INVALID JUMPDEST DUP6 MLOAD SWAP2 SWAP1 DIV SWAP3 POP DUP1 PUSH1 0x1 PUSH1 0x1 PUSH1 0x40 SHL SUB DUP2 GT DUP1 ISZERO PUSH2 0x3562 JUMPI PUSH1 0x0 DUP1 REVERT JUMPDEST POP PUSH1 0x40 MLOAD SWAP1 DUP1 DUP3 MSTORE DUP1 PUSH1 0x20 MUL PUSH1 0x20 ADD DUP3 ADD PUSH1 0x40 MSTORE DUP1 ISZERO PUSH2 0x358C JUMPI DUP2 PUSH1 0x20 ADD PUSH1 0x20 DUP3 MUL DUP1 CALLDATASIZE DUP4 CALLDATACOPY ADD SWAP1 POP JUMPDEST POP SWAP4 POP PUSH1 0x0 JUMPDEST DUP2 DUP2 LT ISZERO PUSH2 0x11F5 JUMPI PUSH1 0x0 PUSH1 0x60 DUP11 PUSH1 0x0 ADD MLOAD PUSH1 0x1 PUSH1 0x1 PUSH1 0xA0 SHL SUB AND PUSH3 0x927C0 DUP13 PUSH1 0x20 ADD MLOAD DUP13 DUP13 DUP13 DUP9 DUP2 MLOAD DUP2 LT PUSH2 0x35C3 JUMPI INVALID JUMPDEST PUSH1 0x20 MUL PUSH1 0x20 ADD ADD MLOAD PUSH1 0x40 MLOAD PUSH1 0x24 ADD PUSH2 0x35DD SWAP4 SWAP3 SWAP2 SWAP1 PUSH2 0xA464 JUMP JUMPDEST PUSH1 0x40 DUP1 MLOAD PUSH1 0x1F NOT DUP2 DUP5 SUB ADD DUP2 MSTORE SWAP2 DUP2 MSTORE PUSH1 0x20 DUP3 ADD DUP1 MLOAD PUSH1 0x1 PUSH1 0x1 PUSH1 0xE0 SHL SUB AND PUSH1 0x1 PUSH1 0x1 PUSH1 0xE0 SHL SUB NOT SWAP1 SWAP5 AND SWAP4 SWAP1 SWAP4 OR SWAP1 SWAP3 MSTORE SWAP1 MLOAD PUSH2 0x361B SWAP2 SWAP1 PUSH2 0x9EC4 JUMP JUMPDEST PUSH1 0x0 PUSH1 0x40 MLOAD DUP1 DUP4 SUB DUP2 DUP7 DUP7 STATICCALL SWAP3 POP POP POP RETURNDATASIZE DUP1 PUSH1 0x0 DUP2 EQ PUSH2 0x3657 JUMPI PUSH1 0x40 MLOAD SWAP2 POP PUSH1 0x1F NOT PUSH1 0x3F RETURNDATASIZE ADD AND DUP3 ADD PUSH1 0x40 MSTORE RETURNDATASIZE DUP3 MSTORE RETURNDATASIZE PUSH1 0x0 PUSH1 0x20 DUP5 ADD RETURNDATACOPY PUSH2 0x365C JUMP JUMPDEST PUSH1 0x60 SWAP2 POP JUMPDEST POP SWAP2 POP SWAP2 POP PUSH1 0x0 DUP3 ISZERO PUSH2 0x3680 JUMPI DUP2 DUP1 PUSH1 0x20 ADD SWAP1 MLOAD DUP2 ADD SWAP1 PUSH2 0x367D SWAP2 SWAP1 PUSH2 0x9556 JUMP JUMPDEST SWAP1 POP JUMPDEST DUP7 DUP2 LT PUSH2 0x36BA JUMPI DUP4 JUMPDEST DUP6 DUP2 LT ISZERO PUSH2 0x36B1 JUMPI DUP8 DUP10 DUP3 DUP2 MLOAD DUP2 LT PUSH2 0x369E JUMPI INVALID JUMPDEST PUSH1 0x20 SWAP1 DUP2 MUL SWAP2 SWAP1 SWAP2 ADD ADD MSTORE PUSH1 0x1 ADD PUSH2 0x3689 JUMP JUMPDEST POP POP POP POP PUSH2 0x11F5 JUMP JUMPDEST DUP1 DUP9 DUP6 DUP2 MLOAD DUP2 LT PUSH2 0x36C7 JUMPI INVALID JUMPDEST PUSH1 0x20 MUL PUSH1 0x20 ADD ADD DUP2 DUP2 MSTORE POP POP DUP8 DUP5 DUP2 MLOAD DUP2 LT PUSH2 0x36DF JUMPI INVALID JUMPDEST PUSH1 0x20 MUL PUSH1 0x20 ADD ADD MLOAD PUSH1 0x0 EQ ISZERO PUSH2 0x36F7 JUMPI POP POP POP PUSH2 0x11F5 JUMP JUMPDEST POP POP POP PUSH1 0x1 ADD PUSH2 0x3592 JUMP JUMPDEST PUSH2 0x370A PUSH2 0x8592 JUMP JUMPDEST PUSH2 0x3712 PUSH2 0x8592 JUMP JUMPDEST PUSH1 0x0 DUP1 DUP1 JUMPDEST DUP8 MLOAD DUP2 EQ PUSH2 0x3817 JUMPI PUSH2 0x375E PUSH1 0x20 DUP10 DUP4 DUP2 MLOAD DUP2 LT PUSH2 0x3730 JUMPI INVALID JUMPDEST PUSH1 0x20 MUL PUSH1 0x20 ADD ADD MLOAD MLOAD SUB DUP8 DUP11 DUP5 DUP2 MLOAD DUP2 LT PUSH2 0x3747 JUMPI INVALID JUMPDEST PUSH1 0x20 MUL PUSH1 0x20 ADD ADD MLOAD PUSH2 0x7920 SWAP1 SWAP3 SWAP2 SWAP1 PUSH4 0xFFFFFFFF AND JUMP JUMPDEST PUSH1 0x0 PUSH1 0x60 ADDRESS PUSH1 0x1 PUSH1 0x1 PUSH1 0xA0 SHL SUB AND DUP11 DUP5 DUP2 MLOAD DUP2 LT PUSH2 0x3778 JUMPI INVALID JUMPDEST PUSH1 0x20 MUL PUSH1 0x20 ADD ADD MLOAD PUSH1 0x40 MLOAD PUSH2 0x378D SWAP2 SWAP1 PUSH2 0x9EC4 JUMP JUMPDEST PUSH1 0x0 PUSH1 0x40 MLOAD DUP1 DUP4 SUB DUP2 PUSH1 0x0 DUP7 GAS CALL SWAP2 POP POP RETURNDATASIZE DUP1 PUSH1 0x0 DUP2 EQ PUSH2 0x37CA JUMPI PUSH1 0x40 MLOAD SWAP2 POP PUSH1 0x1F NOT PUSH1 0x3F RETURNDATASIZE ADD AND DUP3 ADD PUSH1 0x40 MSTORE RETURNDATASIZE DUP3 MSTORE RETURNDATASIZE PUSH1 0x0 PUSH1 0x20 DUP5 ADD RETURNDATACOPY PUSH2 0x37CF JUMP JUMPDEST PUSH1 0x60 SWAP2 POP JUMPDEST POP SWAP2 POP SWAP2 POP DUP2 ISZERO PUSH2 0x380D JUMPI PUSH1 0x0 PUSH2 0x37F3 PUSH1 0x20 DUP4 MLOAD SUB DUP4 PUSH2 0x7930 SWAP1 SWAP2 SWAP1 PUSH4 0xFFFFFFFF AND JUMP JUMPDEST SWAP1 POP DUP5 DUP2 GT ISZERO PUSH2 0x380B JUMPI DUP4 DUP9 MSTORE PUSH1 0x20 DUP9 ADD DUP3 SWAP1 MSTORE SWAP4 POP DUP4 JUMPDEST POP JUMPDEST POP POP PUSH1 0x1 ADD PUSH2 0x3717 JUMP JUMPDEST POP DUP1 PUSH2 0x3823 JUMPI POP PUSH2 0x3912 JUMP JUMPDEST PUSH1 0x0 JUMPDEST DUP7 MLOAD DUP2 EQ PUSH2 0x390F JUMPI PUSH2 0x3856 PUSH1 0x20 DUP9 DUP4 DUP2 MLOAD DUP2 LT PUSH2 0x383F JUMPI INVALID JUMPDEST PUSH1 0x20 MUL PUSH1 0x20 ADD ADD MLOAD MLOAD SUB DUP4 DUP10 DUP5 DUP2 MLOAD DUP2 LT PUSH2 0x3747 JUMPI INVALID JUMPDEST PUSH1 0x0 PUSH1 0x60 ADDRESS PUSH1 0x1 PUSH1 0x1 PUSH1 0xA0 SHL SUB AND DUP10 DUP5 DUP2 MLOAD DUP2 LT PUSH2 0x3870 JUMPI INVALID JUMPDEST PUSH1 0x20 MUL PUSH1 0x20 ADD ADD MLOAD PUSH1 0x40 MLOAD PUSH2 0x3885 SWAP2 SWAP1 PUSH2 0x9EC4 JUMP JUMPDEST PUSH1 0x0 PUSH1 0x40 MLOAD DUP1 DUP4 SUB DUP2 PUSH1 0x0 DUP7 GAS CALL SWAP2 POP POP RETURNDATASIZE DUP1 PUSH1 0x0 DUP2 EQ PUSH2 0x38C2 JUMPI PUSH1 0x40 MLOAD SWAP2 POP PUSH1 0x1F NOT PUSH1 0x3F RETURNDATASIZE ADD AND DUP3 ADD PUSH1 0x40 MSTORE RETURNDATASIZE DUP3 MSTORE RETURNDATASIZE PUSH1 0x0 PUSH1 0x20 DUP5 ADD RETURNDATACOPY PUSH2 0x38C7 JUMP JUMPDEST PUSH1 0x60 SWAP2 POP JUMPDEST POP SWAP2 POP SWAP2 POP DUP2 ISZERO PUSH2 0x3905 JUMPI PUSH1 0x0 PUSH2 0x38EB PUSH1 0x20 DUP4 MLOAD SUB DUP4 PUSH2 0x7930 SWAP1 SWAP2 SWAP1 PUSH4 0xFFFFFFFF AND JUMP JUMPDEST SWAP1 POP DUP6 DUP2 GT ISZERO PUSH2 0x3903 JUMPI DUP4 DUP8 MSTORE PUSH1 0x20 DUP8 ADD DUP3 SWAP1 MSTORE SWAP5 POP DUP5 JUMPDEST POP JUMPDEST POP POP PUSH1 0x1 ADD PUSH2 0x3826 JUMP JUMPDEST POP POP JUMPDEST SWAP4 POP SWAP4 POP SWAP4 SWAP1 POP JUMP JUMPDEST PUSH1 0x40 DUP5 ADD MLOAD PUSH1 0x60 SWAP1 PUSH1 0x1 PUSH1 0x1 PUSH1 0xE0 SHL SUB NOT AND PUSH2 0x399D JUMPI PUSH1 0x40 DUP1 MLOAD PUSH1 0x60 DUP2 ADD SWAP1 SWAP2 MSTORE PUSH2 0x3996 SWAP1 DUP1 PUSH2 0x394F DUP7 DUP10 PUSH1 0x80 DUP5 ADD PUSH2 0xA482 JUMP JUMPDEST PUSH1 0x40 MLOAD PUSH1 0x20 DUP2 DUP4 SUB SUB DUP2 MSTORE SWAP1 PUSH1 0x40 MSTORE DUP2 MSTORE PUSH1 0x20 ADD DUP7 DUP9 PUSH1 0x40 MLOAD PUSH1 0x20 ADD PUSH2 0x3976 SWAP3 SWAP2 SWAP1 PUSH2 0xA482 JUMP JUMPDEST PUSH1 0x40 MLOAD PUSH1 0x20 DUP2 DUP4 SUB SUB DUP2 MSTORE SWAP1 PUSH1 0x40 MSTORE DUP2 MSTORE PUSH1 0x20 ADD PUSH2 0x793C DUP2 MSTORE POP DUP4 PUSH2 0x6A00 JUMP JUMPDEST SWAP1 POP PUSH2 0x144E JUMP JUMPDEST DUP2 MLOAD DUP1 PUSH1 0x1 PUSH1 0x1 PUSH1 0x40 SHL SUB DUP2 GT DUP1 ISZERO PUSH2 0x39B5 JUMPI PUSH1 0x0 DUP1 REVERT JUMPDEST POP PUSH1 0x40 MLOAD SWAP1 DUP1 DUP3 MSTORE DUP1 PUSH1 0x20 MUL PUSH1 0x20 ADD DUP3 ADD PUSH1 0x40 MSTORE DUP1 ISZERO PUSH2 0x39DF JUMPI DUP2 PUSH1 0x20 ADD PUSH1 0x20 DUP3 MUL DUP1 CALLDATASIZE DUP4 CALLDATACOPY ADD SWAP1 POP JUMPDEST POP SWAP2 POP PUSH1 0x0 JUMPDEST DUP2 DUP2 LT ISZERO PUSH2 0x1A95 JUMPI PUSH1 0x0 PUSH1 0x60 DUP9 PUSH1 0x0 ADD MLOAD PUSH1 0x1 PUSH1 0x1 PUSH1 0xA0 SHL SUB AND PUSH3 0x1E8480 DUP11 PUSH1 0x40 ADD MLOAD DUP11 DUP11 DUP11 DUP9 DUP2 MLOAD DUP2 LT PUSH2 0x3A16 JUMPI INVALID JUMPDEST PUSH1 0x20 MUL PUSH1 0x20 ADD ADD MLOAD PUSH1 0x40 MLOAD PUSH1 0x24 ADD PUSH2 0x3A30 SWAP4 SWAP3 SWAP2 SWAP1 PUSH2 0xA464 JUMP JUMPDEST PUSH1 0x40 DUP1 MLOAD PUSH1 0x1F NOT DUP2 DUP5 SUB ADD DUP2 MSTORE SWAP2 DUP2 MSTORE PUSH1 0x20 DUP3 ADD DUP1 MLOAD PUSH1 0x1 PUSH1 0x1 PUSH1 0xE0 SHL SUB AND PUSH1 0x1 PUSH1 0x1 PUSH1 0xE0 SHL SUB NOT SWAP1 SWAP5 AND SWAP4 SWAP1 SWAP4 OR SWAP1 SWAP3 MSTORE SWAP1 MLOAD PUSH2 0x3A6E SWAP2 SWAP1 PUSH2 0x9EC4 JUMP JUMPDEST PUSH1 0x0 PUSH1 0x40 MLOAD DUP1 DUP4 SUB DUP2 DUP7 DUP7 STATICCALL SWAP3 POP POP POP RETURNDATASIZE DUP1 PUSH1 0x0 DUP2 EQ PUSH2 0x3AAA JUMPI PUSH1 0x40 MLOAD SWAP2 POP PUSH1 0x1F NOT PUSH1 0x3F RETURNDATASIZE ADD AND DUP3 ADD PUSH1 0x40 MSTORE RETURNDATASIZE DUP3 MSTORE RETURNDATASIZE PUSH1 0x0 PUSH1 0x20 DUP5 ADD RETURNDATACOPY PUSH2 0x3AAF JUMP JUMPDEST PUSH1 0x60 SWAP2 POP JUMPDEST POP SWAP2 POP SWAP2 POP PUSH1 0x0 DUP3 ISZERO PUSH2 0x3AD3 JUMPI DUP2 DUP1 PUSH1 0x20 ADD SWAP1 MLOAD DUP2 ADD SWAP1 PUSH2 0x3AD0 SWAP2 SWAP1 PUSH2 0x9556 JUMP JUMPDEST SWAP1 POP JUMPDEST DUP1 DUP7 DUP6 DUP2 MLOAD DUP2 LT PUSH2 0x3AE0 JUMPI INVALID JUMPDEST PUSH1 0x20 MUL PUSH1 0x20 ADD ADD DUP2 DUP2 MSTORE POP POP DUP6 DUP5 DUP2 MLOAD DUP2 LT PUSH2 0x3AF8 JUMPI INVALID JUMPDEST PUSH1 0x20 MUL PUSH1 0x20 ADD ADD MLOAD PUSH1 0x0 EQ ISZERO PUSH2 0x3B10 JUMPI POP POP POP PUSH2 0x1A95 JUMP JUMPDEST POP POP POP PUSH1 0x1 ADD PUSH2 0x39E5 JUMP JUMPDEST DUP1 MLOAD PUSH1 0x60 SWAP1 DUP6 SWAP1 DUP1 PUSH1 0x1 PUSH1 0x1 PUSH1 0x40 SHL SUB DUP2 GT DUP1 ISZERO PUSH2 0x3B38 JUMPI PUSH1 0x0 DUP1 REVERT JUMPDEST POP PUSH1 0x40 MLOAD SWAP1 DUP1 DUP3 MSTORE DUP1 PUSH1 0x20 MUL PUSH1 0x20 ADD DUP3 ADD PUSH1 0x40 MSTORE DUP1 ISZERO PUSH2 0x3B62 JUMPI DUP2 PUSH1 0x20 ADD PUSH1 0x20 DUP3 MUL DUP1 CALLDATASIZE DUP4 CALLDATACOPY ADD SWAP1 POP JUMPDEST POP PUSH1 0x40 MLOAD PUSH4 0xBCDED89 PUSH1 0xE2 SHL DUP2 MSTORE SWAP1 SWAP4 POP PUSH1 0x1 PUSH1 0x1 PUSH1 0xA0 SHL SUB DUP4 AND SWAP1 PUSH4 0x2F37B624 SWAP1 PUSH2 0x3B92 SWAP1 DUP10 SWAP1 PUSH1 0x4 ADD PUSH2 0x9EE0 JUMP JUMPDEST PUSH1 0x20 PUSH1 0x40 MLOAD DUP1 DUP4 SUB DUP2 DUP7 DUP1 EXTCODESIZE ISZERO DUP1 ISZERO PUSH2 0x3BAA JUMPI PUSH1 0x0 DUP1 REVERT JUMPDEST POP GAS STATICCALL ISZERO DUP1 ISZERO PUSH2 0x3BBE JUMPI RETURNDATASIZE PUSH1 0x0 DUP1 RETURNDATACOPY RETURNDATASIZE PUSH1 0x0 REVERT JUMPDEST POP POP POP POP PUSH1 0x40 MLOAD RETURNDATASIZE PUSH1 0x1F NOT PUSH1 0x1F DUP3 ADD AND DUP3 ADD DUP1 PUSH1 0x40 MSTORE POP DUP2 ADD SWAP1 PUSH2 0x3BE2 SWAP2 SWAP1 PUSH2 0x953A JUMP JUMPDEST ISZERO DUP1 PUSH2 0x3C67 JUMPI POP PUSH1 0x40 MLOAD PUSH4 0xBCDED89 PUSH1 0xE2 SHL DUP2 MSTORE PUSH1 0x1 PUSH1 0x1 PUSH1 0xA0 SHL SUB DUP4 AND SWAP1 PUSH4 0x2F37B624 SWAP1 PUSH2 0x3C15 SWAP1 DUP9 SWAP1 PUSH1 0x4 ADD PUSH2 0x9EE0 JUMP JUMPDEST PUSH1 0x20 PUSH1 0x40 MLOAD DUP1 DUP4 SUB DUP2 DUP7 DUP1 EXTCODESIZE ISZERO DUP1 ISZERO PUSH2 0x3C2D JUMPI PUSH1 0x0 DUP1 REVERT JUMPDEST POP GAS STATICCALL ISZERO DUP1 ISZERO PUSH2 0x3C41 JUMPI RETURNDATASIZE PUSH1 0x0 DUP1 RETURNDATACOPY RETURNDATASIZE PUSH1 0x0 REVERT JUMPDEST POP POP POP POP PUSH1 0x40 MLOAD RETURNDATASIZE PUSH1 0x1F NOT PUSH1 0x1F DUP3 ADD AND DUP3 ADD DUP1 PUSH1 0x40 MSTORE POP DUP2 ADD SWAP1 PUSH2 0x3C65 SWAP2 SWAP1 PUSH2 0x953A JUMP JUMPDEST ISZERO JUMPDEST ISZERO PUSH2 0x3C73 JUMPI POP POP PUSH2 0x144E JUMP JUMPDEST PUSH2 0x3C7B PUSH2 0x854B JUMP JUMPDEST PUSH1 0x40 MLOAD PUSH4 0xF8B2CB4F PUSH1 0xE0 SHL DUP2 MSTORE PUSH1 0x1 PUSH1 0x1 PUSH1 0xA0 SHL SUB DUP5 AND SWAP1 PUSH4 0xF8B2CB4F SWAP1 PUSH2 0x3CA7 SWAP1 DUP11 SWAP1 PUSH1 0x4 ADD PUSH2 0x9EE0 JUMP JUMPDEST PUSH1 0x20 PUSH1 0x40 MLOAD DUP1 DUP4 SUB DUP2 DUP7 DUP1 EXTCODESIZE ISZERO DUP1 ISZERO PUSH2 0x3CBF JUMPI PUSH1 0x0 DUP1 REVERT JUMPDEST POP GAS STATICCALL ISZERO DUP1 ISZERO PUSH2 0x3CD3 JUMPI RETURNDATASIZE PUSH1 0x0 DUP1 RETURNDATACOPY RETURNDATASIZE PUSH1 0x0 REVERT JUMPDEST POP POP POP POP PUSH1 0x40 MLOAD RETURNDATASIZE PUSH1 0x1F NOT PUSH1 0x1F DUP3 ADD AND DUP3 ADD DUP1 PUSH1 0x40 MSTORE POP DUP2 ADD SWAP1 PUSH2 0x3CF7 SWAP2 SWAP1 PUSH2 0x9556 JUMP JUMPDEST DUP2 MSTORE PUSH1 0x40 MLOAD PUSH4 0xF8B2CB4F PUSH1 0xE0 SHL DUP2 MSTORE PUSH1 0x1 PUSH1 0x1 PUSH1 0xA0 SHL SUB DUP5 AND SWAP1 PUSH4 0xF8B2CB4F SWAP1 PUSH2 0x3D25 SWAP1 DUP10 SWAP1 PUSH1 0x4 ADD PUSH2 0x9EE0 JUMP JUMPDEST PUSH1 0x20 PUSH1 0x40 MLOAD DUP1 DUP4 SUB DUP2 DUP7 DUP1 EXTCODESIZE ISZERO DUP1 ISZERO PUSH2 0x3D3D JUMPI PUSH1 0x0 DUP1 REVERT JUMPDEST POP GAS STATICCALL ISZERO DUP1 ISZERO PUSH2 0x3D51 JUMPI RETURNDATASIZE PUSH1 0x0 DUP1 RETURNDATACOPY RETURNDATASIZE PUSH1 0x0 REVERT JUMPDEST POP POP POP POP PUSH1 0x40 MLOAD RETURNDATASIZE PUSH1 0x1F NOT PUSH1 0x1F DUP3 ADD AND DUP3 ADD DUP1 PUSH1 0x40 MSTORE POP DUP2 ADD SWAP1 PUSH2 0x3D75 SWAP2 SWAP1 PUSH2 0x9556 JUMP JUMPDEST PUSH1 0x20 DUP3 ADD MSTORE PUSH1 0x40 MLOAD PUSH4 0x4A46C673 PUSH1 0xE1 SHL DUP2 MSTORE PUSH1 0x1 PUSH1 0x1 PUSH1 0xA0 SHL SUB DUP5 AND SWAP1 PUSH4 0x948D8CE6 SWAP1 PUSH2 0x3DA6 SWAP1 DUP11 SWAP1 PUSH1 0x4 ADD PUSH2 0x9EE0 JUMP JUMPDEST PUSH1 0x20 PUSH1 0x40 MLOAD DUP1 DUP4 SUB DUP2 DUP7 DUP1 EXTCODESIZE ISZERO DUP1 ISZERO PUSH2 0x3DBE JUMPI PUSH1 0x0 DUP1 REVERT JUMPDEST POP GAS STATICCALL ISZERO DUP1 ISZERO PUSH2 0x3DD2 JUMPI RETURNDATASIZE PUSH1 0x0 DUP1 RETURNDATACOPY RETURNDATASIZE PUSH1 0x0 REVERT JUMPDEST POP POP POP POP PUSH1 0x40 MLOAD RETURNDATASIZE PUSH1 0x1F NOT PUSH1 0x1F DUP3 ADD AND DUP3 ADD DUP1 PUSH1 0x40 MSTORE POP DUP2 ADD SWAP1 PUSH2 0x3DF6 SWAP2 SWAP1 PUSH2 0x9556 JUMP JUMPDEST PUSH1 0x40 DUP1 DUP4 ADD SWAP2 SWAP1 SWAP2 MSTORE MLOAD PUSH4 0x4A46C673 PUSH1 0xE1 SHL DUP2 MSTORE PUSH1 0x1 PUSH1 0x1 PUSH1 0xA0 SHL SUB DUP5 AND SWAP1 PUSH4 0x948D8CE6 SWAP1 PUSH2 0x3E29 SWAP1 DUP10 SWAP1 PUSH1 0x4 ADD PUSH2 0x9EE0 JUMP JUMPDEST PUSH1 0x20 PUSH1 0x40 MLOAD DUP1 DUP4 SUB DUP2 DUP7 DUP1 EXTCODESIZE ISZERO DUP1 ISZERO PUSH2 0x3E41 JUMPI PUSH1 0x0 DUP1 REVERT JUMPDEST POP GAS STATICCALL ISZERO DUP1 ISZERO PUSH2 0x3E55 JUMPI RETURNDATASIZE PUSH1 0x0 DUP1 RETURNDATACOPY RETURNDATASIZE PUSH1 0x0 REVERT JUMPDEST POP POP POP POP PUSH1 0x40 MLOAD RETURNDATASIZE PUSH1 0x1F NOT PUSH1 0x1F DUP3 ADD AND DUP3 ADD DUP1 PUSH1 0x40 MSTORE POP DUP2 ADD SWAP1 PUSH2 0x3E79 SWAP2 SWAP1 PUSH2 0x9556 JUMP JUMPDEST DUP2 PUSH1 0x60 ADD DUP2 DUP2 MSTORE POP POP DUP3 PUSH1 0x1 PUSH1 0x1 PUSH1 0xA0 SHL SUB AND PUSH4 0xD4CADF68 PUSH1 0x40 MLOAD DUP2 PUSH4 0xFFFFFFFF AND PUSH1 0xE0 SHL DUP2 MSTORE PUSH1 0x4 ADD PUSH1 0x20 PUSH1 0x40 MLOAD DUP1 DUP4 SUB DUP2 DUP7 DUP1 EXTCODESIZE ISZERO DUP1 ISZERO PUSH2 0x3EBB JUMPI PUSH1 0x0 DUP1 REVERT JUMPDEST POP GAS STATICCALL ISZERO DUP1 ISZERO PUSH2 0x3ECF JUMPI RETURNDATASIZE PUSH1 0x0 DUP1 RETURNDATACOPY RETURNDATASIZE PUSH1 0x0 REVERT JUMPDEST POP POP POP POP PUSH1 0x40 MLOAD RETURNDATASIZE PUSH1 0x1F NOT PUSH1 0x1F DUP3 ADD AND DUP3 ADD DUP1 PUSH1 0x40 MSTORE POP DUP2 ADD SWAP1 PUSH2 0x3EF3 SWAP2 SWAP1 PUSH2 0x9556 JUMP JUMPDEST PUSH1 0x80 DUP3 ADD MSTORE PUSH1 0x0 JUMPDEST DUP3 DUP2 LT ISZERO PUSH2 0x11F5 JUMPI DUP2 MLOAD PUSH2 0x3F19 SWAP1 PUSH1 0x2 PUSH8 0xDE0B6B3A7640000 PUSH2 0x2B39 JUMP JUMPDEST DUP7 DUP3 DUP2 MLOAD DUP2 LT PUSH2 0x3F25 JUMPI INVALID JUMPDEST PUSH1 0x20 MUL PUSH1 0x20 ADD ADD MLOAD GT ISZERO PUSH2 0x3F38 JUMPI PUSH2 0x11F5 JUMP JUMPDEST DUP4 PUSH1 0x1 PUSH1 0x1 PUSH1 0xA0 SHL SUB AND PUSH4 0xBA9530A6 PUSH3 0x493E0 DUP5 PUSH1 0x0 ADD MLOAD DUP6 PUSH1 0x40 ADD MLOAD DUP7 PUSH1 0x20 ADD MLOAD DUP8 PUSH1 0x60 ADD MLOAD DUP13 DUP9 DUP2 MLOAD DUP2 LT PUSH2 0x3F6B JUMPI INVALID JUMPDEST PUSH1 0x20 MUL PUSH1 0x20 ADD ADD MLOAD DUP10 PUSH1 0x80 ADD MLOAD PUSH1 0x40 MLOAD DUP9 PUSH4 0xFFFFFFFF AND PUSH1 0xE0 SHL DUP2 MSTORE PUSH1 0x4 ADD PUSH2 0x3F99 SWAP7 SWAP6 SWAP5 SWAP4 SWAP3 SWAP2 SWAP1 PUSH2 0xA787 JUMP JUMPDEST PUSH1 0x20 PUSH1 0x40 MLOAD DUP1 DUP4 SUB DUP2 DUP8 DUP1 EXTCODESIZE ISZERO DUP1 ISZERO PUSH2 0x3FB1 JUMPI PUSH1 0x0 DUP1 REVERT JUMPDEST POP DUP7 STATICCALL SWAP4 POP POP POP POP DUP1 ISZERO PUSH2 0x3FE2 JUMPI POP PUSH1 0x40 DUP1 MLOAD PUSH1 0x1F RETURNDATASIZE SWAP1 DUP2 ADD PUSH1 0x1F NOT AND DUP3 ADD SWAP1 SWAP3 MSTORE PUSH2 0x3FDF SWAP2 DUP2 ADD SWAP1 PUSH2 0x9556 JUMP JUMPDEST PUSH1 0x1 JUMPDEST PUSH2 0x4010 JUMPI RETURNDATASIZE DUP1 DUP1 ISZERO PUSH2 0x2B1B JUMPI PUSH1 0x40 MLOAD SWAP2 POP PUSH1 0x1F NOT PUSH1 0x3F RETURNDATASIZE ADD AND DUP3 ADD PUSH1 0x40 MSTORE RETURNDATASIZE DUP3 MSTORE RETURNDATASIZE PUSH1 0x0 PUSH1 0x20 DUP5 ADD RETURNDATACOPY PUSH2 0x2B20 JUMP JUMPDEST DUP1 DUP7 DUP4 DUP2 MLOAD DUP2 LT PUSH2 0x401D JUMPI INVALID JUMPDEST PUSH1 0x20 MUL PUSH1 0x20 ADD ADD DUP2 DUP2 MSTORE POP POP DUP6 DUP3 DUP2 MLOAD DUP2 LT PUSH2 0x4035 JUMPI INVALID JUMPDEST PUSH1 0x20 MUL PUSH1 0x20 ADD ADD MLOAD PUSH1 0x0 EQ ISZERO PUSH2 0x404B JUMPI POP PUSH2 0x11F5 JUMP JUMPDEST POP PUSH1 0x1 ADD PUSH2 0x3EFB JUMP JUMPDEST PUSH1 0x0 DUP1 DUP4 MLOAD PUSH1 0x3 DUP2 GT ISZERO PUSH2 0x4064 JUMPI INVALID JUMPDEST EQ DUP1 PUSH2 0x407C JUMPI POP PUSH1 0x1 DUP4 MLOAD PUSH1 0x3 DUP2 GT ISZERO PUSH2 0x407A JUMPI INVALID JUMPDEST EQ JUMPDEST DUP1 PUSH2 0x4092 JUMPI POP PUSH1 0x40 DUP5 ADD MLOAD PUSH1 0x1 PUSH1 0x1 PUSH1 0x80 SHL SUB AND ISZERO JUMPDEST DUP1 PUSH2 0x40A8 JUMPI POP PUSH1 0x60 DUP5 ADD MLOAD PUSH1 0x1 PUSH1 0x1 PUSH1 0x80 SHL SUB AND ISZERO JUMPDEST ISZERO PUSH2 0x40B5 JUMPI POP PUSH1 0x0 PUSH2 0x4194 JUMP JUMPDEST PUSH2 0x40BD PUSH2 0x85AC JUMP JUMPDEST PUSH1 0x0 DUP1 DUP5 PUSH1 0x1 PUSH1 0x1 PUSH1 0xA0 SHL SUB AND PUSH4 0x1FB09795 DUP9 DUP9 PUSH1 0x40 MLOAD DUP4 PUSH4 0xFFFFFFFF AND PUSH1 0xE0 SHL DUP2 MSTORE PUSH1 0x4 ADD PUSH2 0x40EE SWAP3 SWAP2 SWAP1 PUSH2 0xA676 JUMP JUMPDEST PUSH1 0xA0 PUSH1 0x40 MLOAD DUP1 DUP4 SUB DUP2 DUP7 DUP1 EXTCODESIZE ISZERO DUP1 ISZERO PUSH2 0x4106 JUMPI PUSH1 0x0 DUP1 REVERT JUMPDEST POP GAS STATICCALL ISZERO DUP1 ISZERO PUSH2 0x411A JUMPI RETURNDATASIZE PUSH1 0x0 DUP1 RETURNDATACOPY RETURNDATASIZE PUSH1 0x0 REVERT JUMPDEST POP POP POP POP PUSH1 0x40 MLOAD RETURNDATASIZE PUSH1 0x1F NOT PUSH1 0x1F DUP3 ADD AND DUP3 ADD DUP1 PUSH1 0x40 MSTORE POP DUP2 ADD SWAP1 PUSH2 0x413E SWAP2 SWAP1 PUSH2 0x9AA9 JUMP JUMPDEST SWAP2 SWAP5 POP SWAP3 POP SWAP1 POP PUSH1 0x1 DUP4 PUSH1 0x20 ADD MLOAD PUSH1 0x4 DUP2 GT ISZERO PUSH2 0x4157 JUMPI INVALID JUMPDEST EQ ISZERO DUP1 PUSH2 0x4162 JUMPI POP DUP1 ISZERO JUMPDEST DUP1 PUSH2 0x4175 JUMPI POP DUP7 MLOAD PUSH1 0x1 PUSH1 0x1 PUSH1 0xA0 SHL SUB AND ISZERO JUMPDEST ISZERO PUSH2 0x4186 JUMPI PUSH1 0x0 SWAP4 POP POP POP POP PUSH2 0x4194 JUMP JUMPDEST POP PUSH1 0x1 PUSH1 0x1 PUSH1 0x80 SHL SUB AND SWAP2 POP POP JUMPDEST SWAP4 SWAP3 POP POP POP JUMP JUMPDEST PUSH1 0x0 PUSH1 0x60 DUP1 PUSH2 0x41AA DUP6 DUP8 PUSH2 0x63B3 JUMP JUMPDEST PUSH2 0x41B5 DUP8 DUP8 DUP8 PUSH2 0x7990 JUMP JUMPDEST SWAP3 POP DUP3 PUSH2 0x41C1 JUMPI PUSH2 0xDF0 JUMP JUMPDEST PUSH1 0x40 MLOAD PUSH4 0x276FDAD9 PUSH1 0xE1 SHL DUP2 MSTORE ADDRESS SWAP1 PUSH4 0x4EDFB5B2 SWAP1 PUSH2 0x41EA SWAP1 DUP11 SWAP1 DUP8 SWAP1 DUP12 SWAP1 DUP12 SWAP1 PUSH1 0x4 ADD PUSH2 0xA63D JUMP JUMPDEST PUSH1 0x0 PUSH1 0x40 MLOAD DUP1 DUP4 SUB DUP2 DUP7 DUP1 EXTCODESIZE ISZERO DUP1 ISZERO PUSH2 0x4202 JUMPI PUSH1 0x0 DUP1 REVERT JUMPDEST POP GAS STATICCALL ISZERO DUP1 ISZERO PUSH2 0x4216 JUMPI RETURNDATASIZE PUSH1 0x0 DUP1 RETURNDATACOPY RETURNDATASIZE PUSH1 0x0 REVERT JUMPDEST POP POP POP POP PUSH1 0x40 MLOAD RETURNDATASIZE PUSH1 0x0 DUP3 RETURNDATACOPY PUSH1 0x1F RETURNDATASIZE SWAP1 DUP2 ADD PUSH1 0x1F NOT AND DUP3 ADD PUSH1 0x40 MSTORE PUSH2 0x423E SWAP2 SWAP1 DUP2 ADD SWAP1 PUSH2 0x956E JUMP JUMPDEST DUP8 PUSH1 0x80 ADD DUP2 SWAP1 MSTORE POP DUP7 PUSH1 0x80 ADD MLOAD SWAP2 POP PUSH2 0x42B5 PUSH1 0x40 MLOAD DUP1 PUSH1 0x60 ADD PUSH1 0x40 MSTORE DUP1 DUP8 DUP11 PUSH1 0x40 MLOAD PUSH1 0x20 ADD PUSH2 0x426E SWAP3 SWAP2 SWAP1 PUSH2 0xA181 JUMP JUMPDEST PUSH1 0x40 MLOAD PUSH1 0x20 DUP2 DUP4 SUB SUB DUP2 MSTORE SWAP1 PUSH1 0x40 MSTORE DUP2 MSTORE PUSH1 0x20 ADD DUP9 DUP11 PUSH1 0x40 MLOAD PUSH1 0x20 ADD PUSH2 0x4295 SWAP3 SWAP2 SWAP1 PUSH2 0xA181 JUMP JUMPDEST PUSH1 0x40 MLOAD PUSH1 0x20 DUP2 DUP4 SUB SUB DUP2 MSTORE SWAP1 PUSH1 0x40 MSTORE DUP2 MSTORE PUSH1 0x20 ADD PUSH2 0x7AF7 DUP2 MSTORE POP DUP6 PUSH2 0x6A00 JUMP JUMPDEST SWAP1 POP SWAP5 POP SWAP5 POP SWAP5 SWAP2 POP POP JUMP JUMPDEST PUSH1 0x0 DUP1 DUP6 PUSH1 0x1 PUSH1 0x1 PUSH1 0xA0 SHL SUB AND PUSH4 0x901754D7 DUP7 DUP7 PUSH1 0x40 MLOAD DUP4 PUSH4 0xFFFFFFFF AND PUSH1 0xE0 SHL DUP2 MSTORE PUSH1 0x4 ADD PUSH2 0x42F2 SWAP3 SWAP2 SWAP1 PUSH2 0x9F0D JUMP JUMPDEST PUSH1 0x20 PUSH1 0x40 MLOAD DUP1 DUP4 SUB DUP2 DUP7 DUP1 EXTCODESIZE ISZERO DUP1 ISZERO PUSH2 0x430A JUMPI PUSH1 0x0 DUP1 REVERT JUMPDEST POP GAS STATICCALL ISZERO DUP1 ISZERO PUSH2 0x431E JUMPI RETURNDATASIZE PUSH1 0x0 DUP1 RETURNDATACOPY RETURNDATASIZE PUSH1 0x0 REVERT JUMPDEST POP POP POP POP PUSH1 0x40 MLOAD RETURNDATASIZE PUSH1 0x1F NOT PUSH1 0x1F DUP3 ADD AND DUP3 ADD DUP1 PUSH1 0x40 MSTORE POP DUP2 ADD SWAP1 PUSH2 0x4342 SWAP2 SWAP1 PUSH2 0x8CFC JUMP JUMPDEST SWAP1 POP PUSH1 0x1 PUSH1 0x1 PUSH1 0xA0 SHL SUB DUP2 AND PUSH2 0x435C JUMPI PUSH1 0x0 SWAP2 POP POP PUSH2 0x144E JUMP JUMPDEST PUSH1 0x0 PUSH1 0x1 PUSH1 0x1 PUSH1 0xA0 SHL SUB DUP7 AND ISZERO PUSH2 0x43EE JUMPI PUSH1 0x40 MLOAD PUSH4 0x70A08231 PUSH1 0xE0 SHL DUP2 MSTORE PUSH1 0x1 PUSH1 0x1 PUSH1 0xA0 SHL SUB DUP8 AND SWAP1 PUSH4 0x70A08231 SWAP1 PUSH2 0x4399 SWAP1 DUP6 SWAP1 PUSH1 0x4 ADD PUSH2 0x9EE0 JUMP JUMPDEST PUSH1 0x20 PUSH1 0x40 MLOAD DUP1 DUP4 SUB DUP2 DUP7 DUP1 EXTCODESIZE ISZERO DUP1 ISZERO PUSH2 0x43B1 JUMPI PUSH1 0x0 DUP1 REVERT JUMPDEST POP GAS STATICCALL ISZERO DUP1 ISZERO PUSH2 0x43C5 JUMPI RETURNDATASIZE PUSH1 0x0 DUP1 RETURNDATACOPY RETURNDATASIZE PUSH1 0x0 REVERT JUMPDEST POP POP POP POP PUSH1 0x40 MLOAD RETURNDATASIZE PUSH1 0x1F NOT PUSH1 0x1F DUP3 ADD AND DUP3 ADD DUP1 PUSH1 0x40 MSTORE POP DUP2 ADD SWAP1 PUSH2 0x43E9 SWAP2 SWAP1 PUSH2 0x9556 JUMP JUMPDEST PUSH2 0x43FA JUMP JUMPDEST DUP2 PUSH1 0x1 PUSH1 0x1 PUSH1 0xA0 SHL SUB AND BALANCE JUMPDEST SWAP1 POP DUP4 DUP2 LT ISZERO PUSH2 0x440F JUMPI PUSH1 0x0 SWAP3 POP POP POP PUSH2 0x144E JUMP JUMPDEST PUSH1 0x40 MLOAD PUSH4 0x3C2803F PUSH1 0xE3 SHL DUP2 MSTORE PUSH1 0x1 PUSH1 0x1 PUSH1 0xA0 SHL SUB DUP4 AND SWAP1 PUSH4 0x1E1401F8 SWAP1 PUSH3 0x249F0 SWAP1 PUSH2 0x4444 SWAP1 DUP11 SWAP1 DUP11 SWAP1 DUP11 SWAP1 PUSH1 0x4 ADD PUSH2 0xA008 JUMP JUMPDEST PUSH1 0x20 PUSH1 0x40 MLOAD DUP1 DUP4 SUB DUP2 DUP8 DUP1 EXTCODESIZE ISZERO DUP1 ISZERO PUSH2 0x445C JUMPI PUSH1 0x0 DUP1 REVERT JUMPDEST POP DUP7 STATICCALL SWAP4 POP POP POP POP DUP1 ISZERO PUSH2 0x448D JUMPI POP PUSH1 0x40 DUP1 MLOAD PUSH1 0x1F RETURNDATASIZE SWAP1 DUP2 ADD PUSH1 0x1F NOT AND DUP3 ADD SWAP1 SWAP3 MSTORE PUSH2 0x448A SWAP2 DUP2 ADD SWAP1 PUSH2 0x9556 JUMP JUMPDEST PUSH1 0x1 JUMPDEST PUSH2 0x44CD JUMPI RETURNDATASIZE DUP1 DUP1 ISZERO PUSH2 0x44BB JUMPI PUSH1 0x40 MLOAD SWAP2 POP PUSH1 0x1F NOT PUSH1 0x3F RETURNDATASIZE ADD AND DUP3 ADD PUSH1 0x40 MSTORE RETURNDATASIZE DUP3 MSTORE RETURNDATASIZE PUSH1 0x0 PUSH1 0x20 DUP5 ADD RETURNDATACOPY PUSH2 0x44C0 JUMP JUMPDEST PUSH1 0x60 SWAP2 POP JUMPDEST POP PUSH1 0x0 SWAP4 POP POP POP POP PUSH2 0x144E JUMP JUMPDEST SWAP3 POP PUSH2 0x144E SWAP2 POP POP JUMP JUMPDEST PUSH1 0x60 PUSH2 0x44E3 DUP4 DUP6 PUSH2 0x63B3 JUMP JUMPDEST PUSH1 0x20 DUP6 ADD MLOAD PUSH1 0x40 DUP1 MLOAD PUSH1 0x2 DUP1 DUP3 MSTORE PUSH1 0x60 DUP3 DUP2 ADD SWAP1 SWAP4 MSTORE DUP2 PUSH1 0x20 ADD PUSH1 0x20 DUP3 MUL DUP1 CALLDATASIZE DUP4 CALLDATACOPY ADD SWAP1 POP POP SWAP1 POP DUP6 DUP2 PUSH1 0x0 DUP2 MLOAD DUP2 LT PUSH2 0x4519 JUMPI INVALID JUMPDEST PUSH1 0x20 MUL PUSH1 0x20 ADD ADD SWAP1 PUSH1 0x1 PUSH1 0x1 PUSH1 0xA0 SHL SUB AND SWAP1 DUP2 PUSH1 0x1 PUSH1 0x1 PUSH1 0xA0 SHL SUB AND DUP2 MSTORE POP POP DUP5 DUP2 PUSH1 0x1 DUP2 MLOAD DUP2 LT PUSH2 0x4547 JUMPI INVALID JUMPDEST PUSH1 0x1 PUSH1 0x1 PUSH1 0xA0 SHL SUB SWAP1 SWAP3 AND PUSH1 0x20 SWAP3 DUP4 MUL SWAP2 SWAP1 SWAP2 ADD SWAP1 SWAP2 ADD MSTORE DUP4 MLOAD DUP1 PUSH1 0x1 PUSH1 0x1 PUSH1 0x40 SHL SUB DUP2 GT DUP1 ISZERO PUSH2 0x4577 JUMPI PUSH1 0x0 DUP1 REVERT JUMPDEST POP PUSH1 0x40 MLOAD SWAP1 DUP1 DUP3 MSTORE DUP1 PUSH1 0x20 MUL PUSH1 0x20 ADD DUP3 ADD PUSH1 0x40 MSTORE DUP1 ISZERO PUSH2 0x45A1 JUMPI DUP2 PUSH1 0x20 ADD PUSH1 0x20 DUP3 MUL DUP1 CALLDATASIZE DUP4 CALLDATACOPY ADD SWAP1 POP JUMPDEST POP SWAP4 POP PUSH2 0x45AC PUSH2 0x8524 JUMP JUMPDEST PUSH2 0x45B4 PUSH2 0x63E9 JUMP JUMPDEST SWAP1 POP PUSH1 0x0 JUMPDEST DUP3 DUP2 LT ISZERO PUSH2 0x101E JUMPI PUSH1 0x60 PUSH2 0x45D3 DUP12 DUP10 DUP5 DUP2 MLOAD DUP2 LT PUSH2 0xF00 JUMPI INVALID JUMPDEST PUSH1 0x40 MLOAD PUSH4 0x7C268337 PUSH1 0xE1 SHL DUP2 MSTORE SWAP1 SWAP2 POP PUSH1 0x1 PUSH1 0x1 PUSH1 0xA0 SHL SUB DUP8 AND SWAP1 PUSH4 0xF84D066E SWAP1 PUSH2 0x4609 SWAP1 PUSH1 0x1 SWAP1 DUP6 SWAP1 DUP11 SWAP1 DUP10 SWAP1 PUSH1 0x4 ADD PUSH2 0xA3D6 JUMP JUMPDEST PUSH1 0x0 PUSH1 0x40 MLOAD DUP1 DUP4 SUB DUP2 PUSH1 0x0 DUP8 DUP1 EXTCODESIZE ISZERO DUP1 ISZERO PUSH2 0x4623 JUMPI PUSH1 0x0 DUP1 REVERT JUMPDEST POP GAS CALL SWAP3 POP POP POP DUP1 ISZERO PUSH2 0x4658 JUMPI POP PUSH1 0x40 MLOAD RETURNDATASIZE PUSH1 0x0 DUP3 RETURNDATACOPY PUSH1 0x1F RETURNDATASIZE SWAP1 DUP2 ADD PUSH1 0x1F NOT AND DUP3 ADD PUSH1 0x40 MSTORE PUSH2 0x4655 SWAP2 SWAP1 DUP2 ADD SWAP1 PUSH2 0x93B6 JUMP JUMPDEST PUSH1 0x1 JUMPDEST PUSH2 0x4686 JUMPI RETURNDATASIZE DUP1 DUP1 ISZERO PUSH2 0xFC0 JUMPI PUSH1 0x40 MLOAD SWAP2 POP PUSH1 0x1F NOT PUSH1 0x3F RETURNDATASIZE ADD AND DUP3 ADD PUSH1 0x40 MSTORE RETURNDATASIZE DUP3 MSTORE RETURNDATASIZE PUSH1 0x0 PUSH1 0x20 DUP5 ADD RETURNDATACOPY PUSH2 0xFC5 JUMP JUMPDEST PUSH1 0x0 DUP2 PUSH1 0x0 DUP2 MLOAD DUP2 LT PUSH2 0x4695 JUMPI INVALID JUMPDEST PUSH1 0x20 MUL PUSH1 0x20 ADD ADD MLOAD SWAP1 POP PUSH1 0x0 DUP2 SGT PUSH2 0x46AF JUMPI POP POP POP PUSH2 0x101E JUMP JUMPDEST DUP1 DUP10 DUP6 DUP2 MLOAD DUP2 LT PUSH2 0x46BC JUMPI INVALID JUMPDEST PUSH1 0x20 MUL PUSH1 0x20 ADD ADD DUP2 DUP2 MSTORE POP POP POP POP POP PUSH1 0x1 ADD PUSH2 0x45B9 JUMP JUMPDEST DUP1 MLOAD PUSH1 0x60 SWAP1 DUP1 PUSH1 0x1 PUSH1 0x1 PUSH1 0x40 SHL SUB DUP2 GT DUP1 ISZERO PUSH2 0x46EE JUMPI PUSH1 0x0 DUP1 REVERT JUMPDEST POP PUSH1 0x40 MLOAD SWAP1 DUP1 DUP3 MSTORE DUP1 PUSH1 0x20 MUL PUSH1 0x20 ADD DUP3 ADD PUSH1 0x40 MSTORE DUP1 ISZERO PUSH2 0x4718 JUMPI DUP2 PUSH1 0x20 ADD PUSH1 0x20 DUP3 MUL DUP1 CALLDATASIZE DUP4 CALLDATACOPY ADD SWAP1 POP JUMPDEST POP SWAP2 POP PUSH1 0x0 JUMPDEST DUP2 DUP2 LT ISZERO PUSH2 0x1A95 JUMPI DUP7 PUSH1 0x1 PUSH1 0x1 PUSH1 0xA0 SHL SUB AND PUSH4 0x343FBCDD PUSH3 0x61A80 DUP9 DUP9 DUP9 DUP7 DUP2 MLOAD DUP2 LT PUSH2 0x4747 JUMPI INVALID JUMPDEST PUSH1 0x20 MUL PUSH1 0x20 ADD ADD MLOAD PUSH1 0x40 MLOAD DUP6 PUSH4 0xFFFFFFFF AND PUSH1 0xE0 SHL DUP2 MSTORE PUSH1 0x4 ADD PUSH2 0x476D SWAP4 SWAP3 SWAP2 SWAP1 PUSH2 0xA008 JUMP JUMPDEST PUSH1 0x20 PUSH1 0x40 MLOAD DUP1 DUP4 SUB DUP2 DUP8 DUP1 EXTCODESIZE ISZERO DUP1 ISZERO PUSH2 0x4785 JUMPI PUSH1 0x0 DUP1 REVERT JUMPDEST POP DUP7 STATICCALL SWAP4 POP POP POP POP DUP1 ISZERO PUSH2 0x47B6 JUMPI POP PUSH1 0x40 DUP1 MLOAD PUSH1 0x1F RETURNDATASIZE SWAP1 DUP2 ADD PUSH1 0x1F NOT AND DUP3 ADD SWAP1 SWAP3 MSTORE PUSH2 0x47B3 SWAP2 DUP2 ADD SWAP1 PUSH2 0x9556 JUMP JUMPDEST PUSH1 0x1 JUMPDEST PUSH2 0x47E4 JUMPI RETURNDATASIZE DUP1 DUP1 ISZERO PUSH2 0x1A45 JUMPI PUSH1 0x40 MLOAD SWAP2 POP PUSH1 0x1F NOT PUSH1 0x3F RETURNDATASIZE ADD AND DUP3 ADD PUSH1 0x40 MSTORE RETURNDATASIZE DUP3 MSTORE RETURNDATASIZE PUSH1 0x0 PUSH1 0x20 DUP5 ADD RETURNDATACOPY PUSH2 0x1A4A JUMP JUMPDEST DUP1 DUP5 DUP4 DUP2 MLOAD DUP2 LT PUSH2 0x47F1 JUMPI INVALID JUMPDEST PUSH1 0x20 MUL PUSH1 0x20 ADD ADD DUP2 DUP2 MSTORE POP POP DUP4 DUP3 DUP2 MLOAD DUP2 LT PUSH2 0x4809 JUMPI INVALID JUMPDEST PUSH1 0x20 MUL PUSH1 0x20 ADD ADD MLOAD PUSH1 0x0 EQ ISZERO PUSH2 0x481F JUMPI POP PUSH2 0x1A95 JUMP JUMPDEST POP PUSH1 0x1 ADD PUSH2 0x471E JUMP JUMPDEST PUSH1 0x0 DUP1 PUSH1 0x60 PUSH2 0x4837 DUP6 DUP8 PUSH2 0x63B3 JUMP JUMPDEST DUP4 MLOAD DUP1 PUSH1 0x1 PUSH1 0x1 PUSH1 0x40 SHL SUB DUP2 GT DUP1 ISZERO PUSH2 0x484F JUMPI PUSH1 0x0 DUP1 REVERT JUMPDEST POP PUSH1 0x40 MLOAD SWAP1 DUP1 DUP3 MSTORE DUP1 PUSH1 0x20 MUL PUSH1 0x20 ADD DUP3 ADD PUSH1 0x40 MSTORE DUP1 ISZERO PUSH2 0x4879 JUMPI DUP2 PUSH1 0x20 ADD PUSH1 0x20 DUP3 MUL DUP1 CALLDATASIZE DUP4 CALLDATACOPY ADD SWAP1 POP JUMPDEST POP SWAP2 POP PUSH2 0x4888 DUP10 DUP10 DUP10 DUP10 PUSH2 0x7BDE JUMP JUMPDEST SWAP5 POP SWAP3 POP PUSH1 0x1 PUSH1 0x1 PUSH1 0xA0 SHL SUB DUP4 AND PUSH2 0x48A0 JUMPI POP PUSH2 0x495A JUMP JUMPDEST PUSH1 0x0 JUMPDEST DUP2 DUP2 LT ISZERO PUSH2 0x4957 JUMPI PUSH1 0x0 PUSH2 0x4911 DUP10 DUP7 DUP9 PUSH1 0x40 MLOAD PUSH1 0x20 ADD PUSH2 0x48C5 SWAP4 SWAP3 SWAP2 SWAP1 PUSH2 0x9FB0 JUMP JUMPDEST PUSH1 0x40 MLOAD PUSH1 0x20 DUP2 DUP4 SUB SUB DUP2 MSTORE SWAP1 PUSH1 0x40 MSTORE DUP10 DUP8 DUP10 PUSH1 0x40 MLOAD PUSH1 0x20 ADD PUSH2 0x48E9 SWAP4 SWAP3 SWAP2 SWAP1 PUSH2 0x9FB0 JUMP JUMPDEST PUSH1 0x40 MLOAD PUSH1 0x20 DUP2 DUP4 SUB SUB DUP2 MSTORE SWAP1 PUSH1 0x40 MSTORE DUP10 DUP6 DUP2 MLOAD DUP2 LT PUSH2 0x4904 JUMPI INVALID JUMPDEST PUSH1 0x20 MUL PUSH1 0x20 ADD ADD MLOAD PUSH2 0x7D33 JUMP JUMPDEST SWAP1 POP DUP1 DUP5 DUP4 DUP2 MLOAD DUP2 LT PUSH2 0x4920 JUMPI INVALID JUMPDEST PUSH1 0x20 MUL PUSH1 0x20 ADD ADD DUP2 DUP2 MSTORE POP POP DUP4 DUP3 DUP2 MLOAD DUP2 LT PUSH2 0x4938 JUMPI INVALID JUMPDEST PUSH1 0x20 MUL PUSH1 0x20 ADD ADD MLOAD PUSH1 0x0 EQ ISZERO PUSH2 0x494E JUMPI POP PUSH2 0x4957 JUMP JUMPDEST POP PUSH1 0x1 ADD PUSH2 0x48A3 JUMP JUMPDEST POP POP JUMPDEST SWAP6 POP SWAP6 POP SWAP6 SWAP3 POP POP POP JUMP JUMPDEST PUSH1 0x60 PUSH2 0x4971 DUP4 DUP6 PUSH2 0x63B3 JUMP JUMPDEST DUP2 MLOAD DUP1 PUSH1 0x1 PUSH1 0x1 PUSH1 0x40 SHL SUB DUP2 GT DUP1 ISZERO PUSH2 0x4989 JUMPI PUSH1 0x0 DUP1 REVERT JUMPDEST POP PUSH1 0x40 MLOAD SWAP1 DUP1 DUP3 MSTORE DUP1 PUSH1 0x20 MUL PUSH1 0x20 ADD DUP3 ADD PUSH1 0x40 MSTORE DUP1 ISZERO PUSH2 0x49B3 JUMPI DUP2 PUSH1 0x20 ADD PUSH1 0x20 DUP3 MUL DUP1 CALLDATASIZE DUP4 CALLDATACOPY ADD SWAP1 POP JUMPDEST POP SWAP2 POP PUSH1 0x0 JUMPDEST DUP2 DUP2 LT ISZERO PUSH2 0x1A95 JUMPI DUP7 PUSH1 0x1 PUSH1 0x1 PUSH1 0xA0 SHL SUB AND PUSH4 0x144A2752 PUSH3 0xF4240 DUP8 DUP10 DUP9 DUP7 DUP2 MLOAD DUP2 LT PUSH2 0x49E2 JUMPI INVALID JUMPDEST PUSH1 0x20 MUL PUSH1 0x20 ADD ADD MLOAD PUSH1 0x40 MLOAD DUP6 PUSH4 0xFFFFFFFF AND PUSH1 0xE0 SHL DUP2 MSTORE PUSH1 0x4 ADD PUSH2 0x4A08 SWAP4 SWAP3 SWAP2 SWAP1 PUSH2 0xA008 JUMP JUMPDEST PUSH1 0x20 PUSH1 0x40 MLOAD DUP1 DUP4 SUB DUP2 DUP8 DUP1 EXTCODESIZE ISZERO DUP1 ISZERO PUSH2 0x4A20 JUMPI PUSH1 0x0 DUP1 REVERT JUMPDEST POP DUP7 STATICCALL SWAP4 POP POP POP POP DUP1 ISZERO PUSH2 0x4A51 JUMPI POP PUSH1 0x40 DUP1 MLOAD PUSH1 0x1F RETURNDATASIZE SWAP1 DUP2 ADD PUSH1 0x1F NOT AND DUP3 ADD SWAP1 SWAP3 MSTORE PUSH2 0x4A4E SWAP2 DUP2 ADD SWAP1 PUSH2 0x9556 JUMP JUMPDEST PUSH1 0x1 JUMPDEST PUSH2 0x4A7F JUMPI RETURNDATASIZE DUP1 DUP1 ISZERO PUSH2 0x1A45 JUMPI PUSH1 0x40 MLOAD SWAP2 POP PUSH1 0x1F NOT PUSH1 0x3F RETURNDATASIZE ADD AND DUP3 ADD PUSH1 0x40 MSTORE RETURNDATASIZE DUP3 MSTORE RETURNDATASIZE PUSH1 0x0 PUSH1 0x20 DUP5 ADD RETURNDATACOPY PUSH2 0x1A4A JUMP JUMPDEST DUP1 DUP5 DUP4 DUP2 MLOAD DUP2 LT PUSH2 0x4A8C JUMPI INVALID JUMPDEST PUSH1 0x20 MUL PUSH1 0x20 ADD ADD DUP2 DUP2 MSTORE POP POP DUP4 DUP3 DUP2 MLOAD DUP2 LT PUSH2 0x4AA4 JUMPI INVALID JUMPDEST PUSH1 0x20 MUL PUSH1 0x20 ADD ADD MLOAD PUSH1 0x0 EQ ISZERO PUSH2 0x4ABA JUMPI POP PUSH2 0x1A95 JUMP JUMPDEST POP PUSH1 0x1 ADD PUSH2 0x49B9 JUMP JUMPDEST PUSH1 0x0 PUSH1 0x60 PUSH2 0x4AD1 DUP5 DUP7 PUSH2 0x63B3 JUMP JUMPDEST DUP3 MLOAD DUP1 PUSH1 0x1 PUSH1 0x1 PUSH1 0x40 SHL SUB DUP2 GT DUP1 ISZERO PUSH2 0x4AE9 JUMPI PUSH1 0x0 DUP1 REVERT JUMPDEST POP PUSH1 0x40 MLOAD SWAP1 DUP1 DUP3 MSTORE DUP1 PUSH1 0x20 MUL PUSH1 0x20 ADD DUP3 ADD PUSH1 0x40 MSTORE DUP1 ISZERO PUSH2 0x4B13 JUMPI DUP2 PUSH1 0x20 ADD PUSH1 0x20 DUP3 MUL DUP1 CALLDATASIZE DUP4 CALLDATACOPY ADD SWAP1 POP JUMPDEST POP SWAP2 POP PUSH1 0x0 JUMPDEST DUP2 DUP2 LT ISZERO PUSH2 0x4B88 JUMPI PUSH1 0x0 PUSH2 0x4B42 DUP10 DUP10 DUP10 DUP10 DUP7 DUP2 MLOAD DUP2 LT PUSH2 0x4B35 JUMPI INVALID JUMPDEST PUSH1 0x20 MUL PUSH1 0x20 ADD ADD MLOAD PUSH2 0x42C1 JUMP JUMPDEST SWAP1 POP DUP1 DUP5 DUP4 DUP2 MLOAD DUP2 LT PUSH2 0x4B51 JUMPI INVALID JUMPDEST PUSH1 0x20 MUL PUSH1 0x20 ADD ADD DUP2 DUP2 MSTORE POP POP DUP4 DUP3 DUP2 MLOAD DUP2 LT PUSH2 0x4B69 JUMPI INVALID JUMPDEST PUSH1 0x20 MUL PUSH1 0x20 ADD ADD MLOAD PUSH1 0x0 EQ ISZERO PUSH2 0x4B7F JUMPI POP PUSH2 0x4B88 JUMP JUMPDEST POP PUSH1 0x1 ADD PUSH2 0x4B19 JUMP JUMPDEST POP PUSH1 0x40 MLOAD PUSH4 0x901754D7 PUSH1 0xE0 SHL DUP2 MSTORE PUSH1 0x1 PUSH1 0x1 PUSH1 0xA0 SHL SUB DUP9 AND SWAP1 PUSH4 0x901754D7 SWAP1 PUSH2 0x4BB7 SWAP1 DUP10 SWAP1 DUP10 SWAP1 PUSH1 0x4 ADD PUSH2 0x9F0D JUMP JUMPDEST PUSH1 0x20 PUSH1 0x40 MLOAD DUP1 DUP4 SUB DUP2 DUP7 DUP1 EXTCODESIZE ISZERO DUP1 ISZERO PUSH2 0x4BCF JUMPI PUSH1 0x0 DUP1 REVERT JUMPDEST POP GAS STATICCALL ISZERO DUP1 ISZERO PUSH2 0x4BE3 JUMPI RETURNDATASIZE PUSH1 0x0 DUP1 RETURNDATACOPY RETURNDATASIZE PUSH1 0x0 REVERT JUMPDEST POP POP POP POP PUSH1 0x40 MLOAD RETURNDATASIZE PUSH1 0x1F NOT PUSH1 0x1F DUP3 ADD AND DUP3 ADD DUP1 PUSH1 0x40 MSTORE POP DUP2 ADD SWAP1 PUSH2 0x4C07 SWAP2 SWAP1 PUSH2 0x8CFC JUMP JUMPDEST SWAP3 POP POP SWAP5 POP SWAP5 SWAP3 POP POP POP JUMP JUMPDEST PUSH1 0x40 DUP1 MLOAD PUSH1 0x60 DUP2 DUP2 ADD SWAP1 SWAP3 MSTORE PUSH2 0x14BC SWAP1 DUP1 PUSH2 0x4C32 DUP7 DUP10 PUSH1 0x80 DUP5 ADD PUSH2 0x9F0D JUMP JUMPDEST PUSH1 0x40 MLOAD PUSH1 0x20 DUP2 DUP4 SUB SUB DUP2 MSTORE SWAP1 PUSH1 0x40 MSTORE DUP2 MSTORE PUSH1 0x20 ADD DUP7 DUP9 PUSH1 0x40 MLOAD PUSH1 0x20 ADD PUSH2 0x4C59 SWAP3 SWAP2 SWAP1 PUSH2 0x9F0D JUMP JUMPDEST PUSH1 0x40 MLOAD PUSH1 0x20 DUP2 DUP4 SUB SUB DUP2 MSTORE SWAP1 PUSH1 0x40 MSTORE DUP2 MSTORE PUSH1 0x20 ADD PUSH2 0x7E25 DUP2 MSTORE POP DUP4 PUSH2 0x6A00 JUMP JUMPDEST PUSH1 0x60 DUP3 MLOAD PUSH1 0x1 PUSH1 0x1 PUSH1 0x40 SHL SUB DUP2 GT DUP1 ISZERO PUSH2 0x4C92 JUMPI PUSH1 0x0 DUP1 REVERT JUMPDEST POP PUSH1 0x40 MLOAD SWAP1 DUP1 DUP3 MSTORE DUP1 PUSH1 0x20 MUL PUSH1 0x20 ADD DUP3 ADD PUSH1 0x40 MSTORE DUP1 ISZERO PUSH2 0x4CBC JUMPI DUP2 PUSH1 0x20 ADD PUSH1 0x20 DUP3 MUL DUP1 CALLDATASIZE DUP4 CALLDATACOPY ADD SWAP1 POP JUMPDEST POP SWAP1 POP PUSH1 0x0 JUMPDEST DUP4 MLOAD DUP2 EQ PUSH2 0x304A JUMPI PUSH32 0x0 PUSH1 0x1 PUSH1 0x1 PUSH1 0xA0 SHL SUB AND DUP5 DUP3 DUP2 MLOAD DUP2 LT PUSH2 0x4D00 JUMPI INVALID JUMPDEST PUSH1 0x20 MUL PUSH1 0x20 ADD ADD MLOAD PUSH1 0x1 PUSH1 0x1 PUSH1 0xA0 SHL SUB AND EQ PUSH2 0x4D4A JUMPI PUSH2 0x4D45 DUP4 DUP6 DUP4 DUP2 MLOAD DUP2 LT PUSH2 0x4D26 JUMPI INVALID JUMPDEST PUSH1 0x20 MUL PUSH1 0x20 ADD ADD MLOAD PUSH1 0x1 PUSH1 0x1 PUSH1 0xA0 SHL SUB AND PUSH2 0x7E6C SWAP1 SWAP2 SWAP1 PUSH4 0xFFFFFFFF AND JUMP JUMPDEST PUSH2 0x4D56 JUMP JUMPDEST DUP3 PUSH1 0x1 PUSH1 0x1 PUSH1 0xA0 SHL SUB AND BALANCE JUMPDEST DUP3 DUP3 DUP2 MLOAD DUP2 LT PUSH2 0x4D62 JUMPI INVALID JUMPDEST PUSH1 0x20 SWAP1 DUP2 MUL SWAP2 SWAP1 SWAP2 ADD ADD MSTORE PUSH1 0x1 ADD PUSH2 0x4CC2 JUMP JUMPDEST PUSH1 0x40 DUP1 MLOAD PUSH1 0x60 DUP2 DUP2 ADD SWAP1 SWAP3 MSTORE PUSH2 0x14BC SWAP1 DUP1 PUSH2 0x4D94 DUP7 DUP10 PUSH1 0x80 DUP5 ADD PUSH2 0x9F0D JUMP JUMPDEST PUSH1 0x40 MLOAD PUSH1 0x20 DUP2 DUP4 SUB SUB DUP2 MSTORE SWAP1 PUSH1 0x40 MSTORE DUP2 MSTORE PUSH1 0x20 ADD DUP7 DUP9 PUSH1 0x40 MLOAD PUSH1 0x20 ADD PUSH2 0x4DBB SWAP3 SWAP2 SWAP1 PUSH2 0x9F0D JUMP JUMPDEST PUSH1 0x40 MLOAD PUSH1 0x20 DUP2 DUP4 SUB SUB DUP2 MSTORE SWAP1 PUSH1 0x40 MSTORE DUP2 MSTORE PUSH1 0x20 ADD PUSH2 0x7F36 DUP2 MSTORE POP DUP4 PUSH2 0x6A00 JUMP JUMPDEST PUSH1 0x60 PUSH2 0x4DE7 DUP4 DUP6 PUSH2 0x63B3 JUMP JUMPDEST DUP2 MLOAD DUP1 PUSH1 0x1 PUSH1 0x1 PUSH1 0x40 SHL SUB DUP2 GT DUP1 ISZERO PUSH2 0x4DFF JUMPI PUSH1 0x0 DUP1 REVERT JUMPDEST POP PUSH1 0x40 MLOAD SWAP1 DUP1 DUP3 MSTORE DUP1 PUSH1 0x20 MUL PUSH1 0x20 ADD DUP3 ADD PUSH1 0x40 MSTORE DUP1 ISZERO PUSH2 0x4E29 JUMPI DUP2 PUSH1 0x20 ADD PUSH1 0x20 DUP3 MUL DUP1 CALLDATASIZE DUP4 CALLDATACOPY ADD SWAP1 POP JUMPDEST POP SWAP2 POP PUSH1 0x0 PUSH1 0x1 PUSH1 0x1 PUSH1 0xA0 SHL SUB DUP7 AND ISZERO PUSH2 0x4E4C JUMPI PUSH2 0x4E47 DUP8 DUP8 PUSH2 0x64AA JUMP JUMPDEST PUSH2 0x4E4F JUMP JUMPDEST PUSH1 0x0 JUMPDEST SWAP1 POP PUSH1 0x0 PUSH1 0x1 PUSH1 0x1 PUSH1 0xA0 SHL SUB DUP7 AND ISZERO PUSH2 0x4E71 JUMPI PUSH2 0x4E6C DUP9 DUP8 PUSH2 0x64AA JUMP JUMPDEST PUSH2 0x4E74 JUMP JUMPDEST PUSH1 0x0 JUMPDEST SWAP1 POP PUSH1 0x0 JUMPDEST DUP4 DUP2 LT ISZERO PUSH2 0x11F5 JUMPI PUSH1 0x1 PUSH1 0x1 PUSH1 0x1 PUSH1 0xA0 SHL SUB DUP9 AND PUSH2 0x4ECA JUMPI PUSH2 0x4EA9 DUP5 PUSH4 0x95B68FE7 PUSH1 0xE0 SHL DUP10 DUP6 DUP2 MLOAD DUP2 LT PUSH2 0x10F9 JUMPI INVALID JUMPDEST DUP8 DUP5 DUP2 MLOAD DUP2 LT PUSH2 0x4EB5 JUMPI INVALID JUMPDEST PUSH1 0x20 MUL PUSH1 0x20 ADD ADD DUP2 SWAP4 POP DUP3 DUP2 MSTORE POP POP POP PUSH2 0x4F64 JUMP JUMPDEST PUSH1 0x1 PUSH1 0x1 PUSH1 0xA0 SHL SUB DUP10 AND PUSH2 0x4EF0 JUMPI PUSH2 0x4EA9 DUP4 PUSH4 0xCD7724C3 PUSH1 0xE0 SHL DUP10 DUP6 DUP2 MLOAD DUP2 LT PUSH2 0x10F9 JUMPI INVALID JUMPDEST PUSH1 0x0 PUSH2 0x4F0A DUP6 PUSH4 0x95B68FE7 PUSH1 0xE0 SHL DUP11 DUP7 DUP2 MLOAD DUP2 LT PUSH2 0x10F9 JUMPI INVALID JUMPDEST SWAP3 POP SWAP1 POP DUP1 ISZERO PUSH2 0x4F47 JUMPI PUSH2 0x4F26 DUP5 PUSH4 0xCD7724C3 PUSH1 0xE0 SHL DUP4 PUSH2 0x6529 JUMP JUMPDEST DUP9 DUP6 DUP2 MLOAD DUP2 LT PUSH2 0x4F32 JUMPI INVALID JUMPDEST PUSH1 0x20 MUL PUSH1 0x20 ADD ADD DUP2 SWAP5 POP DUP3 DUP2 MSTORE POP POP POP PUSH2 0x4F62 JUMP JUMPDEST PUSH1 0x0 DUP8 DUP5 DUP2 MLOAD DUP2 LT PUSH2 0x4F55 JUMPI INVALID JUMPDEST PUSH1 0x20 MUL PUSH1 0x20 ADD ADD DUP2 DUP2 MSTORE POP POP JUMPDEST POP JUMPDEST DUP1 ISZERO DUP1 PUSH2 0x4F84 JUMPI POP DUP6 DUP3 DUP2 MLOAD DUP2 LT PUSH2 0x4F78 JUMPI INVALID JUMPDEST PUSH1 0x20 MUL PUSH1 0x20 ADD ADD MLOAD PUSH1 0x0 EQ JUMPDEST ISZERO PUSH2 0x4F8F JUMPI POP PUSH2 0x11F5 JUMP JUMPDEST POP PUSH1 0x1 ADD PUSH2 0x4E79 JUMP JUMPDEST DUP1 MLOAD PUSH1 0x60 SWAP1 DUP1 PUSH1 0x1 PUSH1 0x1 PUSH1 0x40 SHL SUB DUP2 GT DUP1 ISZERO PUSH2 0x4FB3 JUMPI PUSH1 0x0 DUP1 REVERT JUMPDEST POP PUSH1 0x40 MLOAD SWAP1 DUP1 DUP3 MSTORE DUP1 PUSH1 0x20 MUL PUSH1 0x20 ADD DUP3 ADD PUSH1 0x40 MSTORE DUP1 ISZERO PUSH2 0x4FDD JUMPI DUP2 PUSH1 0x20 ADD PUSH1 0x20 DUP3 MUL DUP1 CALLDATASIZE DUP4 CALLDATACOPY ADD SWAP1 POP JUMPDEST POP SWAP2 POP PUSH1 0x0 JUMPDEST DUP2 DUP2 LT ISZERO PUSH2 0x1C1A JUMPI DUP6 PUSH1 0x1 PUSH1 0x1 PUSH1 0xA0 SHL SUB AND PUSH4 0x1F00CA74 PUSH3 0x249F0 DUP7 DUP5 DUP2 MLOAD DUP2 LT PUSH2 0x500A JUMPI INVALID JUMPDEST PUSH1 0x20 MUL PUSH1 0x20 ADD ADD MLOAD DUP9 PUSH1 0x40 MLOAD DUP5 PUSH4 0xFFFFFFFF AND PUSH1 0xE0 SHL DUP2 MSTORE PUSH1 0x4 ADD PUSH2 0x5030 SWAP3 SWAP2 SWAP1 PUSH2 0xA6CA JUMP JUMPDEST PUSH1 0x0 PUSH1 0x40 MLOAD DUP1 DUP4 SUB DUP2 DUP8 DUP1 EXTCODESIZE ISZERO DUP1 ISZERO PUSH2 0x5048 JUMPI PUSH1 0x0 DUP1 REVERT JUMPDEST POP DUP7 STATICCALL SWAP4 POP POP POP POP DUP1 ISZERO PUSH2 0x507E JUMPI POP PUSH1 0x40 MLOAD RETURNDATASIZE PUSH1 0x0 DUP3 RETURNDATACOPY PUSH1 0x1F RETURNDATASIZE SWAP1 DUP2 ADD PUSH1 0x1F NOT AND DUP3 ADD PUSH1 0x40 MSTORE PUSH2 0x507B SWAP2 SWAP1 DUP2 ADD SWAP1 PUSH2 0x9508 JUMP JUMPDEST PUSH1 0x1 JUMPDEST PUSH2 0x50AC JUMPI RETURNDATASIZE DUP1 DUP1 ISZERO PUSH2 0x1BB3 JUMPI PUSH1 0x40 MLOAD SWAP2 POP PUSH1 0x1F NOT PUSH1 0x3F RETURNDATASIZE ADD AND DUP3 ADD PUSH1 0x40 MSTORE RETURNDATASIZE DUP3 MSTORE RETURNDATASIZE PUSH1 0x0 PUSH1 0x20 DUP5 ADD RETURNDATACOPY PUSH2 0x1BB8 JUMP JUMPDEST DUP1 PUSH1 0x0 DUP2 MLOAD DUP2 LT PUSH2 0x50B9 JUMPI INVALID JUMPDEST PUSH1 0x20 MUL PUSH1 0x20 ADD ADD MLOAD DUP5 DUP4 DUP2 MLOAD DUP2 LT PUSH2 0x50CD JUMPI INVALID JUMPDEST PUSH1 0x20 MUL PUSH1 0x20 ADD ADD DUP2 DUP2 MSTORE POP POP DUP4 DUP3 DUP2 MLOAD DUP2 LT PUSH2 0x50E5 JUMPI INVALID JUMPDEST PUSH1 0x20 MUL PUSH1 0x20 ADD ADD MLOAD PUSH1 0x0 EQ ISZERO PUSH2 0x50FB JUMPI POP PUSH2 0x1C1A JUMP JUMPDEST POP PUSH1 0x1 ADD PUSH2 0x4FE3 JUMP JUMPDEST PUSH1 0x60 PUSH2 0x5110 DUP4 DUP6 PUSH2 0x63B3 JUMP JUMPDEST DUP2 MLOAD DUP1 PUSH1 0x1 PUSH1 0x1 PUSH1 0x40 SHL SUB DUP2 GT DUP1 ISZERO PUSH2 0x5128 JUMPI PUSH1 0x0 DUP1 REVERT JUMPDEST POP PUSH1 0x40 MLOAD SWAP1 DUP1 DUP3 MSTORE DUP1 PUSH1 0x20 MUL PUSH1 0x20 ADD DUP3 ADD PUSH1 0x40 MSTORE DUP1 ISZERO PUSH2 0x5152 JUMPI DUP2 PUSH1 0x20 ADD PUSH1 0x20 DUP3 MUL DUP1 CALLDATASIZE DUP4 CALLDATACOPY ADD SWAP1 POP JUMPDEST POP SWAP2 POP PUSH1 0x0 JUMPDEST DUP2 DUP2 LT ISZERO PUSH2 0x1A95 JUMPI DUP7 PUSH1 0x1 PUSH1 0x1 PUSH1 0xA0 SHL SUB AND PUSH4 0xFF1FD974 PUSH3 0xF4240 DUP9 DUP9 DUP9 DUP7 DUP2 MLOAD DUP2 LT PUSH2 0x5181 JUMPI INVALID JUMPDEST PUSH1 0x20 MUL PUSH1 0x20 ADD ADD MLOAD PUSH1 0x40 MLOAD DUP6 PUSH4 0xFFFFFFFF AND PUSH1 0xE0 SHL DUP2 MSTORE PUSH1 0x4 ADD PUSH2 0x51A7 SWAP4 SWAP3 SWAP2 SWAP1 PUSH2 0xA008 JUMP JUMPDEST PUSH1 0x20 PUSH1 0x40 MLOAD DUP1 DUP4 SUB DUP2 DUP8 DUP1 EXTCODESIZE ISZERO DUP1 ISZERO PUSH2 0x51BF JUMPI PUSH1 0x0 DUP1 REVERT JUMPDEST POP DUP7 STATICCALL SWAP4 POP POP POP POP DUP1 ISZERO PUSH2 0x51F0 JUMPI POP PUSH1 0x40 DUP1 MLOAD PUSH1 0x1F RETURNDATASIZE SWAP1 DUP2 ADD PUSH1 0x1F NOT AND DUP3 ADD SWAP1 SWAP3 MSTORE PUSH2 0x51ED SWAP2 DUP2 ADD SWAP1 PUSH2 0x9556 JUMP JUMPDEST PUSH1 0x1 JUMPDEST PUSH2 0x521E JUMPI RETURNDATASIZE DUP1 DUP1 ISZERO PUSH2 0x1A45 JUMPI PUSH1 0x40 MLOAD SWAP2 POP PUSH1 0x1F NOT PUSH1 0x3F RETURNDATASIZE ADD AND DUP3 ADD PUSH1 0x40 MSTORE RETURNDATASIZE DUP3 MSTORE RETURNDATASIZE PUSH1 0x0 PUSH1 0x20 DUP5 ADD RETURNDATACOPY PUSH2 0x1A4A JUMP JUMPDEST DUP1 DUP5 DUP4 DUP2 MLOAD DUP2 LT PUSH2 0x522B JUMPI INVALID JUMPDEST PUSH1 0x20 MUL PUSH1 0x20 ADD ADD DUP2 DUP2 MSTORE POP POP DUP4 DUP3 DUP2 MLOAD DUP2 LT PUSH2 0x5243 JUMPI INVALID JUMPDEST PUSH1 0x20 MUL PUSH1 0x20 ADD ADD MLOAD PUSH1 0x0 EQ ISZERO PUSH2 0x5259 JUMPI POP PUSH2 0x1A95 JUMP JUMPDEST POP PUSH1 0x1 ADD PUSH2 0x5158 JUMP JUMPDEST PUSH1 0x0 PUSH1 0x60 DUP1 PUSH2 0x5271 DUP6 DUP8 PUSH2 0x63B3 JUMP JUMPDEST PUSH2 0x527C DUP8 DUP8 DUP8 PUSH2 0x7990 JUMP JUMPDEST SWAP3 POP DUP3 PUSH2 0x5288 JUMPI PUSH2 0xDF0 JUMP JUMPDEST PUSH1 0x40 MLOAD PUSH4 0x276FDAD9 PUSH1 0xE1 SHL DUP2 MSTORE ADDRESS SWAP1 PUSH4 0x4EDFB5B2 SWAP1 PUSH2 0x52B1 SWAP1 DUP11 SWAP1 DUP8 SWAP1 DUP12 SWAP1 DUP12 SWAP1 PUSH1 0x4 ADD PUSH2 0xA63D JUMP JUMPDEST PUSH1 0x0 PUSH1 0x40 MLOAD DUP1 DUP4 SUB DUP2 DUP7 DUP1 EXTCODESIZE ISZERO DUP1 ISZERO PUSH2 0x52C9 JUMPI PUSH1 0x0 DUP1 REVERT JUMPDEST POP GAS STATICCALL ISZERO DUP1 ISZERO PUSH2 0x52DD JUMPI RETURNDATASIZE PUSH1 0x0 DUP1 RETURNDATACOPY RETURNDATASIZE PUSH1 0x0 REVERT JUMPDEST POP POP POP POP PUSH1 0x40 MLOAD RETURNDATASIZE PUSH1 0x0 DUP3 RETURNDATACOPY PUSH1 0x1F RETURNDATASIZE SWAP1 DUP2 ADD PUSH1 0x1F NOT AND DUP3 ADD PUSH1 0x40 MSTORE PUSH2 0x5305 SWAP2 SWAP1 DUP2 ADD SWAP1 PUSH2 0x956E JUMP JUMPDEST PUSH1 0x80 DUP9 ADD DUP2 SWAP1 MSTORE DUP5 MLOAD SWAP1 SWAP3 POP DUP1 PUSH1 0x1 PUSH1 0x1 PUSH1 0x40 SHL SUB DUP2 GT DUP1 ISZERO PUSH2 0x5327 JUMPI PUSH1 0x0 DUP1 REVERT JUMPDEST POP PUSH1 0x40 MLOAD SWAP1 DUP1 DUP3 MSTORE DUP1 PUSH1 0x20 MUL PUSH1 0x20 ADD DUP3 ADD PUSH1 0x40 MSTORE DUP1 ISZERO PUSH2 0x5351 JUMPI DUP2 PUSH1 0x20 ADD PUSH1 0x20 DUP3 MUL DUP1 CALLDATASIZE DUP4 CALLDATACOPY ADD SWAP1 POP JUMPDEST POP SWAP2 POP PUSH1 0x0 JUMPDEST DUP2 DUP2 LT ISZERO PUSH2 0x543C JUMPI PUSH1 0x0 ADDRESS PUSH1 0x1 PUSH1 0x1 PUSH1 0xA0 SHL SUB AND PUSH4 0xF1ED7FA4 DUP12 DUP12 DUP12 DUP12 DUP8 DUP2 MLOAD DUP2 LT PUSH2 0x537F JUMPI INVALID JUMPDEST PUSH1 0x20 MUL PUSH1 0x20 ADD ADD MLOAD PUSH1 0x40 MLOAD DUP6 PUSH4 0xFFFFFFFF AND PUSH1 0xE0 SHL DUP2 MSTORE PUSH1 0x4 ADD PUSH2 0x53A6 SWAP5 SWAP4 SWAP3 SWAP2 SWAP1 PUSH2 0xA607 JUMP JUMPDEST PUSH1 0x20 PUSH1 0x40 MLOAD DUP1 DUP4 SUB DUP2 DUP7 DUP1 EXTCODESIZE ISZERO DUP1 ISZERO PUSH2 0x53BE JUMPI PUSH1 0x0 DUP1 REVERT JUMPDEST POP GAS STATICCALL ISZERO DUP1 ISZERO PUSH2 0x53D2 JUMPI RETURNDATASIZE PUSH1 0x0 DUP1 RETURNDATACOPY RETURNDATASIZE PUSH1 0x0 REVERT JUMPDEST POP POP POP POP PUSH1 0x40 MLOAD RETURNDATASIZE PUSH1 0x1F NOT PUSH1 0x1F DUP3 ADD AND DUP3 ADD DUP1 PUSH1 0x40 MSTORE POP DUP2 ADD SWAP1 PUSH2 0x53F6 SWAP2 SWAP1 PUSH2 0x9556 JUMP JUMPDEST SWAP1 POP DUP1 DUP5 DUP4 DUP2 MLOAD DUP2 LT PUSH2 0x5405 JUMPI INVALID JUMPDEST PUSH1 0x20 MUL PUSH1 0x20 ADD ADD DUP2 DUP2 MSTORE POP POP DUP4 DUP3 DUP2 MLOAD DUP2 LT PUSH2 0x541D JUMPI INVALID JUMPDEST PUSH1 0x20 MUL PUSH1 0x20 ADD ADD MLOAD PUSH1 0x0 EQ ISZERO PUSH2 0x5433 JUMPI POP PUSH2 0x543C JUMP JUMPDEST POP PUSH1 0x1 ADD PUSH2 0x5357 JUMP JUMPDEST POP POP SWAP5 POP SWAP5 POP SWAP5 SWAP2 POP POP JUMP JUMPDEST PUSH1 0x0 DUP1 PUSH1 0x60 PUSH2 0x5457 DUP6 DUP8 PUSH2 0x63B3 JUMP JUMPDEST PUSH2 0x5463 DUP9 DUP9 DUP9 DUP9 PUSH2 0x7BDE JUMP JUMPDEST SWAP4 POP SWAP2 POP PUSH1 0x1 PUSH1 0x1 PUSH1 0xA0 SHL SUB DUP3 AND PUSH2 0x547A JUMPI PUSH2 0x495A JUMP JUMPDEST DUP4 MLOAD DUP1 PUSH1 0x1 PUSH1 0x1 PUSH1 0x40 SHL SUB DUP2 GT DUP1 ISZERO PUSH2 0x5492 JUMPI PUSH1 0x0 DUP1 REVERT JUMPDEST POP PUSH1 0x40 MLOAD SWAP1 DUP1 DUP3 MSTORE DUP1 PUSH1 0x20 MUL PUSH1 0x20 ADD DUP3 ADD PUSH1 0x40 MSTORE DUP1 ISZERO PUSH2 0x54BC JUMPI DUP2 PUSH1 0x20 ADD PUSH1 0x20 DUP3 MUL DUP1 CALLDATASIZE DUP4 CALLDATACOPY ADD SWAP1 POP JUMPDEST POP PUSH1 0x40 DUP1 MLOAD PUSH1 0x60 DUP2 ADD SWAP1 SWAP2 MSTORE SWAP1 SWAP3 POP PUSH2 0x5529 SWAP1 DUP1 PUSH2 0x54E0 DUP10 DUP8 DUP10 ISZERO PUSH1 0x80 DUP6 ADD PUSH2 0x9FB0 JUMP JUMPDEST PUSH1 0x40 MLOAD PUSH1 0x20 DUP2 DUP4 SUB SUB DUP2 MSTORE SWAP1 PUSH1 0x40 MSTORE DUP2 MSTORE PUSH1 0x20 ADD DUP10 DUP7 DUP9 PUSH1 0x40 MLOAD PUSH1 0x20 ADD PUSH2 0x5509 SWAP4 SWAP3 SWAP2 SWAP1 PUSH2 0x9FB0 JUMP JUMPDEST PUSH1 0x40 MLOAD PUSH1 0x20 DUP2 DUP4 SUB SUB DUP2 MSTORE SWAP1 PUSH1 0x40 MSTORE DUP2 MSTORE PUSH1 0x20 ADD PUSH2 0x7D33 DUP2 MSTORE POP DUP7 PUSH2 0x6A00 JUMP JUMPDEST SWAP2 POP POP SWAP6 POP SWAP6 POP SWAP6 SWAP3 POP POP POP JUMP JUMPDEST PUSH1 0x0 DUP1 PUSH1 0x60 PUSH2 0x5546 DUP6 DUP8 PUSH2 0x63B3 JUMP JUMPDEST DUP4 MLOAD DUP1 PUSH1 0x1 PUSH1 0x1 PUSH1 0x40 SHL SUB DUP2 GT DUP1 ISZERO PUSH2 0x555E JUMPI PUSH1 0x0 DUP1 REVERT JUMPDEST POP PUSH1 0x40 MLOAD SWAP1 DUP1 DUP3 MSTORE DUP1 PUSH1 0x20 MUL PUSH1 0x20 ADD DUP3 ADD PUSH1 0x40 MSTORE DUP1 ISZERO PUSH2 0x5588 JUMPI DUP2 PUSH1 0x20 ADD PUSH1 0x20 DUP3 MUL DUP1 CALLDATASIZE DUP4 CALLDATACOPY ADD SWAP1 POP JUMPDEST POP DUP9 MLOAD PUSH1 0x40 MLOAD PUSH4 0x939D863 PUSH1 0xE1 SHL DUP2 MSTORE SWAP2 SWAP4 POP PUSH1 0x1 PUSH1 0x1 PUSH1 0xA0 SHL SUB AND SWAP1 PUSH4 0x1273B0C6 SWAP1 PUSH2 0x55BB SWAP1 DUP11 SWAP1 DUP11 SWAP1 PUSH1 0x4 ADD PUSH2 0x9F0D JUMP JUMPDEST PUSH1 0x20 PUSH1 0x40 MLOAD DUP1 DUP4 SUB DUP2 DUP7 DUP1 EXTCODESIZE ISZERO DUP1 ISZERO PUSH2 0x55D3 JUMPI PUSH1 0x0 DUP1 REVERT JUMPDEST POP GAS STATICCALL ISZERO DUP1 ISZERO PUSH2 0x55E7 JUMPI RETURNDATASIZE PUSH1 0x0 DUP1 RETURNDATACOPY RETURNDATASIZE PUSH1 0x0 REVERT JUMPDEST POP POP POP POP PUSH1 0x40 MLOAD RETURNDATASIZE PUSH1 0x1F NOT PUSH1 0x1F DUP3 ADD AND DUP3 ADD DUP1 PUSH1 0x40 MSTORE POP DUP2 ADD SWAP1 PUSH2 0x560B SWAP2 SWAP1 PUSH2 0x8CFC JUMP JUMPDEST SWAP3 POP PUSH1 0x0 PUSH1 0x1 PUSH1 0x1 PUSH1 0xA0 SHL SUB DUP5 AND ISZERO PUSH2 0x5629 JUMPI POP PUSH1 0x1 SWAP4 POP DUP7 PUSH2 0x56C8 JUMP JUMPDEST DUP9 MLOAD PUSH1 0x40 MLOAD PUSH4 0x939D863 PUSH1 0xE1 SHL DUP2 MSTORE PUSH1 0x1 PUSH1 0x1 PUSH1 0xA0 SHL SUB SWAP1 SWAP2 AND SWAP1 PUSH4 0x1273B0C6 SWAP1 PUSH2 0x565A SWAP1 DUP11 SWAP1 DUP13 SWAP1 PUSH1 0x4 ADD PUSH2 0x9F0D JUMP JUMPDEST PUSH1 0x20 PUSH1 0x40 MLOAD DUP1 DUP4 SUB DUP2 DUP7 DUP1 EXTCODESIZE ISZERO DUP1 ISZERO PUSH2 0x5672 JUMPI PUSH1 0x0 DUP1 REVERT JUMPDEST POP GAS STATICCALL ISZERO DUP1 ISZERO PUSH2 0x5686 JUMPI RETURNDATASIZE PUSH1 0x0 DUP1 RETURNDATACOPY RETURNDATASIZE PUSH1 0x0 REVERT JUMPDEST POP POP POP POP PUSH1 0x40 MLOAD RETURNDATASIZE PUSH1 0x1F NOT PUSH1 0x1F DUP3 ADD AND DUP3 ADD DUP1 PUSH1 0x40 MSTORE POP DUP2 ADD SWAP1 PUSH2 0x56AA SWAP2 SWAP1 PUSH2 0x8CFC JUMP JUMPDEST SWAP4 POP PUSH1 0x1 PUSH1 0x1 PUSH1 0xA0 SHL SUB DUP5 AND PUSH2 0x56C1 JUMPI POP POP PUSH2 0xDF0 JUMP JUMPDEST POP PUSH1 0x0 SWAP4 POP DUP6 JUMPDEST DUP4 PUSH1 0x1 PUSH1 0x1 PUSH1 0xA0 SHL SUB AND PUSH4 0xDD58B41C PUSH1 0x40 MLOAD DUP2 PUSH4 0xFFFFFFFF AND PUSH1 0xE0 SHL DUP2 MSTORE PUSH1 0x4 ADD PUSH1 0x20 PUSH1 0x40 MLOAD DUP1 DUP4 SUB DUP2 DUP7 DUP1 EXTCODESIZE ISZERO DUP1 ISZERO PUSH2 0x5701 JUMPI PUSH1 0x0 DUP1 REVERT JUMPDEST POP GAS STATICCALL ISZERO DUP1 ISZERO PUSH2 0x5715 JUMPI RETURNDATASIZE PUSH1 0x0 DUP1 RETURNDATACOPY RETURNDATASIZE PUSH1 0x0 REVERT JUMPDEST POP POP POP POP PUSH1 0x40 MLOAD RETURNDATASIZE PUSH1 0x1F NOT PUSH1 0x1F DUP3 ADD AND DUP3 ADD DUP1 PUSH1 0x40 MSTORE POP DUP2 ADD SWAP1 PUSH2 0x5739 SWAP2 SWAP1 PUSH2 0x953A JUMP JUMPDEST PUSH2 0x5744 JUMPI POP POP PUSH2 0xDF0 JUMP JUMPDEST PUSH2 0x57BC PUSH1 0x40 MLOAD DUP1 PUSH1 0x60 ADD PUSH1 0x40 MSTORE DUP1 DUP10 DUP8 DUP6 DUP15 PUSH1 0x20 ADD MLOAD PUSH1 0x40 MLOAD PUSH1 0x20 ADD PUSH2 0x576D SWAP5 SWAP4 SWAP3 SWAP2 SWAP1 PUSH2 0x9F27 JUMP JUMPDEST PUSH1 0x40 MLOAD PUSH1 0x20 DUP2 DUP4 SUB SUB DUP2 MSTORE SWAP1 PUSH1 0x40 MSTORE DUP2 MSTORE PUSH1 0x20 ADD DUP11 DUP8 DUP6 DUP15 PUSH1 0x20 ADD MLOAD PUSH1 0x40 MLOAD PUSH1 0x20 ADD PUSH2 0x579C SWAP5 SWAP4 SWAP3 SWAP2 SWAP1 PUSH2 0x9F27 JUMP JUMPDEST PUSH1 0x40 MLOAD PUSH1 0x20 DUP2 DUP4 SUB SUB DUP2 MSTORE SWAP1 PUSH1 0x40 MSTORE DUP2 MSTORE PUSH1 0x20 ADD PUSH2 0x6BFD DUP2 MSTORE POP DUP8 PUSH2 0x6A00 JUMP JUMPDEST SWAP3 POP POP POP SWAP5 POP SWAP5 POP SWAP5 SWAP2 POP POP JUMP JUMPDEST PUSH1 0x60 DUP4 MLOAD PUSH1 0x1 PUSH1 0x1 PUSH1 0x40 SHL SUB DUP2 GT DUP1 ISZERO PUSH2 0x57E3 JUMPI PUSH1 0x0 DUP1 REVERT JUMPDEST POP PUSH1 0x40 MLOAD SWAP1 DUP1 DUP3 MSTORE DUP1 PUSH1 0x20 MUL PUSH1 0x20 ADD DUP3 ADD PUSH1 0x40 MSTORE DUP1 ISZERO PUSH2 0x580D JUMPI DUP2 PUSH1 0x20 ADD PUSH1 0x20 DUP3 MUL DUP1 CALLDATASIZE DUP4 CALLDATACOPY ADD SWAP1 POP JUMPDEST POP SWAP1 POP PUSH1 0x0 JUMPDEST DUP5 MLOAD DUP2 EQ PUSH2 0xC92 JUMPI PUSH32 0x0 PUSH1 0x1 PUSH1 0x1 PUSH1 0xA0 SHL SUB AND DUP6 DUP3 DUP2 MLOAD DUP2 LT PUSH2 0x5851 JUMPI INVALID JUMPDEST PUSH1 0x20 MUL PUSH1 0x20 ADD ADD MLOAD PUSH1 0x1 PUSH1 0x1 PUSH1 0xA0 SHL SUB AND EQ PUSH2 0x589D JUMPI PUSH2 0x5898 DUP5 DUP5 DUP8 DUP5 DUP2 MLOAD DUP2 LT PUSH2 0x5878 JUMPI INVALID JUMPDEST PUSH1 0x20 MUL PUSH1 0x20 ADD ADD MLOAD PUSH1 0x1 PUSH1 0x1 PUSH1 0xA0 SHL SUB AND PUSH2 0x7FEB SWAP1 SWAP3 SWAP2 SWAP1 PUSH4 0xFFFFFFFF AND JUMP JUMPDEST PUSH2 0x58A0 JUMP JUMPDEST PUSH1 0x0 JUMPDEST DUP3 DUP3 DUP2 MLOAD DUP2 LT PUSH2 0x58AC JUMPI INVALID JUMPDEST PUSH1 0x20 SWAP1 DUP2 MUL SWAP2 SWAP1 SWAP2 ADD ADD MSTORE PUSH1 0x1 ADD PUSH2 0x5813 JUMP JUMPDEST DUP1 MLOAD PUSH1 0x60 SWAP1 DUP1 PUSH1 0x1 PUSH1 0x1 PUSH1 0x40 SHL SUB DUP2 GT DUP1 ISZERO PUSH2 0x58DA JUMPI PUSH1 0x0 DUP1 REVERT JUMPDEST POP PUSH1 0x40 MLOAD SWAP1 DUP1 DUP3 MSTORE DUP1 PUSH1 0x20 MUL PUSH1 0x20 ADD DUP3 ADD PUSH1 0x40 MSTORE DUP1 ISZERO PUSH2 0x5904 JUMPI DUP2 PUSH1 0x20 ADD PUSH1 0x20 DUP3 MUL DUP1 CALLDATASIZE DUP4 CALLDATACOPY ADD SWAP1 POP JUMPDEST POP SWAP2 POP PUSH1 0x0 JUMPDEST DUP2 DUP2 LT ISZERO PUSH2 0x1A95 JUMPI DUP7 PUSH1 0x1 PUSH1 0x1 PUSH1 0xA0 SHL SUB AND PUSH4 0x838E6A22 PUSH3 0x493E0 DUP9 DUP9 DUP9 DUP7 DUP2 MLOAD DUP2 LT PUSH2 0x5933 JUMPI INVALID JUMPDEST PUSH1 0x20 MUL PUSH1 0x20 ADD ADD MLOAD PUSH1 0x40 MLOAD DUP6 PUSH4 0xFFFFFFFF AND PUSH1 0xE0 SHL DUP2 MSTORE PUSH1 0x4 ADD PUSH2 0x5959 SWAP4 SWAP3 SWAP2 SWAP1 PUSH2 0xA008 JUMP JUMPDEST PUSH1 0x20 PUSH1 0x40 MLOAD DUP1 DUP4 SUB DUP2 DUP8 DUP1 EXTCODESIZE ISZERO DUP1 ISZERO PUSH2 0x5971 JUMPI PUSH1 0x0 DUP1 REVERT JUMPDEST POP DUP7 STATICCALL SWAP4 POP POP POP POP DUP1 ISZERO PUSH2 0x59A2 JUMPI POP PUSH1 0x40 DUP1 MLOAD PUSH1 0x1F RETURNDATASIZE SWAP1 DUP2 ADD PUSH1 0x1F NOT AND DUP3 ADD SWAP1 SWAP3 MSTORE PUSH2 0x599F SWAP2 DUP2 ADD SWAP1 PUSH2 0x9556 JUMP JUMPDEST PUSH1 0x1 JUMPDEST PUSH2 0x59D0 JUMPI RETURNDATASIZE DUP1 DUP1 ISZERO PUSH2 0x1A45 JUMPI PUSH1 0x40 MLOAD SWAP2 POP PUSH1 0x1F NOT PUSH1 0x3F RETURNDATASIZE ADD AND DUP3 ADD PUSH1 0x40 MSTORE RETURNDATASIZE DUP3 MSTORE RETURNDATASIZE PUSH1 0x0 PUSH1 0x20 DUP5 ADD RETURNDATACOPY PUSH2 0x1A4A JUMP JUMPDEST DUP1 DUP5 DUP4 DUP2 MLOAD DUP2 LT PUSH2 0x59DD JUMPI INVALID JUMPDEST PUSH1 0x20 MUL PUSH1 0x20 ADD ADD DUP2 DUP2 MSTORE POP POP POP PUSH1 0x1 ADD PUSH2 0x590A JUMP JUMPDEST PUSH1 0x0 DUP5 PUSH1 0x80 ADD MLOAD MLOAD PUSH1 0x0 EQ ISZERO PUSH2 0x5A0A JUMPI POP PUSH1 0x0 PUSH2 0x144E JUMP JUMPDEST DUP5 PUSH1 0x40 ADD MLOAD PUSH1 0x1 PUSH1 0x1 PUSH1 0xA0 SHL SUB AND PUSH4 0x418436BC PUSH3 0x7A120 DUP8 PUSH1 0x60 ADD MLOAD PUSH1 0x1 PUSH1 0x1 PUSH1 0xA0 SHL SUB AND DUP8 PUSH1 0x1 PUSH1 0x1 PUSH1 0xA0 SHL SUB AND EQ PUSH2 0x5A44 JUMPI DUP7 PUSH2 0x5A5A JUMP JUMPDEST PUSH20 0xEEEEEEEEEEEEEEEEEEEEEEEEEEEEEEEEEEEEEEEE JUMPDEST DUP9 PUSH1 0x60 ADD MLOAD PUSH1 0x1 PUSH1 0x1 PUSH1 0xA0 SHL SUB AND DUP8 PUSH1 0x1 PUSH1 0x1 PUSH1 0xA0 SHL SUB AND EQ PUSH2 0x5A7D JUMPI DUP7 PUSH2 0x5A93 JUMP JUMPDEST PUSH20 0xEEEEEEEEEEEEEEEEEEEEEEEEEEEEEEEEEEEEEEEE JUMPDEST DUP7 PUSH1 0x0 DUP12 PUSH1 0x80 ADD MLOAD PUSH1 0x40 MLOAD DUP8 PUSH4 0xFFFFFFFF AND PUSH1 0xE0 SHL DUP2 MSTORE PUSH1 0x4 ADD PUSH2 0x5ABB SWAP6 SWAP5 SWAP4 SWAP3 SWAP2 SWAP1 PUSH2 0xA02C JUMP JUMPDEST PUSH1 0x20 PUSH1 0x40 MLOAD DUP1 DUP4 SUB DUP2 DUP8 DUP1 EXTCODESIZE ISZERO DUP1 ISZERO PUSH2 0x5AD3 JUMPI PUSH1 0x0 DUP1 REVERT JUMPDEST POP DUP7 STATICCALL SWAP4 POP POP POP POP DUP1 ISZERO PUSH2 0x5B04 JUMPI POP PUSH1 0x40 DUP1 MLOAD PUSH1 0x1F RETURNDATASIZE SWAP1 DUP2 ADD PUSH1 0x1F NOT AND DUP3 ADD SWAP1 SWAP3 MSTORE PUSH2 0x5B01 SWAP2 DUP2 ADD SWAP1 PUSH2 0x9556 JUMP JUMPDEST PUSH1 0x1 JUMPDEST PUSH2 0x5B42 JUMPI RETURNDATASIZE DUP1 DUP1 ISZERO PUSH2 0x5B32 JUMPI PUSH1 0x40 MLOAD SWAP2 POP PUSH1 0x1F NOT PUSH1 0x3F RETURNDATASIZE ADD AND DUP3 ADD PUSH1 0x40 MSTORE RETURNDATASIZE DUP3 MSTORE RETURNDATASIZE PUSH1 0x0 PUSH1 0x20 DUP5 ADD RETURNDATACOPY PUSH2 0x5B37 JUMP JUMPDEST PUSH1 0x60 SWAP2 POP JUMPDEST POP PUSH1 0x0 SWAP2 POP POP PUSH2 0x144E JUMP JUMPDEST PUSH1 0x0 PUSH2 0x5B4D DUP6 PUSH2 0x80B7 JUMP JUMPDEST PUSH1 0xFF AND SWAP1 POP PUSH1 0x0 PUSH2 0x5B5D DUP8 PUSH2 0x80B7 JUMP JUMPDEST PUSH1 0xFF AND SWAP1 POP PUSH8 0xDE0B6B3A7640000 DUP2 PUSH1 0xA EXP DUP4 PUSH1 0xA EXP DUP8 DUP7 MUL MUL DUP2 PUSH2 0x5B7E JUMPI INVALID JUMPDEST DIV DUP2 PUSH2 0x5B86 JUMPI INVALID JUMPDEST DIV SWAP4 POP POP POP POP PUSH2 0x144E JUMP JUMPDEST PUSH1 0x0 PUSH1 0x60 PUSH2 0x5B9F DUP5 DUP7 PUSH2 0x63B3 JUMP JUMPDEST DUP3 MLOAD DUP1 PUSH1 0x1 PUSH1 0x1 PUSH1 0x40 SHL SUB DUP2 GT DUP1 ISZERO PUSH2 0x5BB7 JUMPI PUSH1 0x0 DUP1 REVERT JUMPDEST POP PUSH1 0x40 MLOAD SWAP1 DUP1 DUP3 MSTORE DUP1 PUSH1 0x20 MUL PUSH1 0x20 ADD DUP3 ADD PUSH1 0x40 MSTORE DUP1 ISZERO PUSH2 0x5BE1 JUMPI DUP2 PUSH1 0x20 ADD PUSH1 0x20 DUP3 MUL DUP1 CALLDATASIZE DUP4 CALLDATACOPY ADD SWAP1 POP JUMPDEST POP SWAP2 POP PUSH2 0x5C4C PUSH1 0x40 MLOAD DUP1 PUSH1 0x60 ADD PUSH1 0x40 MSTORE DUP1 DUP10 DUP9 PUSH1 0x40 MLOAD PUSH1 0x20 ADD PUSH2 0x5C05 SWAP3 SWAP2 SWAP1 PUSH2 0x9F0D JUMP JUMPDEST PUSH1 0x40 MLOAD PUSH1 0x20 DUP2 DUP4 SUB SUB DUP2 MSTORE SWAP1 PUSH1 0x40 MSTORE DUP2 MSTORE PUSH1 0x20 ADD DUP10 DUP10 PUSH1 0x40 MLOAD PUSH1 0x20 ADD PUSH2 0x5C2C SWAP3 SWAP2 SWAP1 PUSH2 0x9F0D JUMP JUMPDEST PUSH1 0x40 MLOAD PUSH1 0x20 DUP2 DUP4 SUB SUB DUP2 MSTORE SWAP1 PUSH1 0x40 MSTORE DUP2 MSTORE PUSH1 0x20 ADD PUSH2 0x80C2 DUP2 MSTORE POP DUP6 PUSH2 0x6A00 JUMP JUMPDEST PUSH1 0x40 MLOAD PUSH4 0x901754D7 PUSH1 0xE0 SHL DUP2 MSTORE SWAP1 SWAP3 POP PUSH1 0x1 PUSH1 0x1 PUSH1 0xA0 SHL SUB DUP9 AND SWAP1 PUSH4 0x901754D7 SWAP1 PUSH2 0x4BB7 SWAP1 DUP10 SWAP1 DUP10 SWAP1 PUSH1 0x4 ADD PUSH2 0x9F0D JUMP JUMPDEST PUSH2 0x5C85 PUSH2 0x8592 JUMP JUMPDEST PUSH2 0x5C8D PUSH2 0x8592 JUMP JUMPDEST PUSH1 0x0 NOT DUP1 PUSH1 0x0 JUMPDEST DUP7 MLOAD DUP2 EQ PUSH2 0x5D89 JUMPI PUSH2 0x5CC4 PUSH1 0x20 DUP9 DUP4 DUP2 MLOAD DUP2 LT PUSH2 0x5CAD JUMPI INVALID JUMPDEST PUSH1 0x20 MUL PUSH1 0x20 ADD ADD MLOAD MLOAD SUB DUP8 DUP10 DUP5 DUP2 MLOAD DUP2 LT PUSH2 0x3747 JUMPI INVALID JUMPDEST PUSH1 0x0 PUSH1 0x60 ADDRESS PUSH1 0x1 PUSH1 0x1 PUSH1 0xA0 SHL SUB AND DUP10 DUP5 DUP2 MLOAD DUP2 LT PUSH2 0x5CDE JUMPI INVALID JUMPDEST PUSH1 0x20 MUL PUSH1 0x20 ADD ADD MLOAD PUSH1 0x40 MLOAD PUSH2 0x5CF3 SWAP2 SWAP1 PUSH2 0x9EC4 JUMP JUMPDEST PUSH1 0x0 PUSH1 0x40 MLOAD DUP1 DUP4 SUB DUP2 PUSH1 0x0 DUP7 GAS CALL SWAP2 POP POP RETURNDATASIZE DUP1 PUSH1 0x0 DUP2 EQ PUSH2 0x5D30 JUMPI PUSH1 0x40 MLOAD SWAP2 POP PUSH1 0x1F NOT PUSH1 0x3F RETURNDATASIZE ADD AND DUP3 ADD PUSH1 0x40 MSTORE RETURNDATASIZE DUP3 MSTORE RETURNDATASIZE PUSH1 0x0 PUSH1 0x20 DUP5 ADD RETURNDATACOPY PUSH2 0x5D35 JUMP JUMPDEST PUSH1 0x60 SWAP2 POP JUMPDEST POP SWAP2 POP SWAP2 POP DUP2 ISZERO PUSH2 0x5D7F JUMPI PUSH1 0x0 PUSH2 0x5D59 PUSH1 0x20 DUP4 MLOAD SUB DUP4 PUSH2 0x7930 SWAP1 SWAP2 SWAP1 PUSH4 0xFFFFFFFF AND JUMP JUMPDEST SWAP1 POP PUSH1 0x0 DUP2 GT DUP1 ISZERO PUSH2 0x5D6A JUMPI POP DUP5 DUP2 LT JUMPDEST ISZERO PUSH2 0x5D7D JUMPI DUP4 DUP8 MSTORE PUSH1 0x20 DUP8 ADD DUP3 SWAP1 MSTORE SWAP4 POP DUP4 JUMPDEST POP JUMPDEST POP POP PUSH1 0x1 ADD PUSH2 0x5C94 JUMP JUMPDEST POP PUSH1 0x0 NOT DUP2 EQ ISZERO PUSH2 0x5D9A JUMPI POP PUSH2 0x3912 JUMP JUMPDEST PUSH1 0x0 JUMPDEST DUP8 MLOAD DUP2 EQ PUSH2 0x390F JUMPI PUSH2 0x5DCD PUSH1 0x20 DUP10 DUP4 DUP2 MLOAD DUP2 LT PUSH2 0x5DB6 JUMPI INVALID JUMPDEST PUSH1 0x20 MUL PUSH1 0x20 ADD ADD MLOAD MLOAD SUB DUP4 DUP11 DUP5 DUP2 MLOAD DUP2 LT PUSH2 0x3747 JUMPI INVALID JUMPDEST PUSH1 0x0 PUSH1 0x60 ADDRESS PUSH1 0x1 PUSH1 0x1 PUSH1 0xA0 SHL SUB AND DUP11 DUP5 DUP2 MLOAD DUP2 LT PUSH2 0x5DE7 JUMPI INVALID JUMPDEST PUSH1 0x20 MUL PUSH1 0x20 ADD ADD MLOAD PUSH1 0x40 MLOAD PUSH2 0x5DFC SWAP2 SWAP1 PUSH2 0x9EC4 JUMP JUMPDEST PUSH1 0x0 PUSH1 0x40 MLOAD DUP1 DUP4 SUB DUP2 PUSH1 0x0 DUP7 GAS CALL SWAP2 POP POP RETURNDATASIZE DUP1 PUSH1 0x0 DUP2 EQ PUSH2 0x5E39 JUMPI PUSH1 0x40 MLOAD SWAP2 POP PUSH1 0x1F NOT PUSH1 0x3F RETURNDATASIZE ADD AND DUP3 ADD PUSH1 0x40 MSTORE RETURNDATASIZE DUP3 MSTORE RETURNDATASIZE PUSH1 0x0 PUSH1 0x20 DUP5 ADD RETURNDATACOPY PUSH2 0x5E3E JUMP JUMPDEST PUSH1 0x60 SWAP2 POP JUMPDEST POP SWAP2 POP SWAP2 POP DUP2 ISZERO PUSH2 0x5E88 JUMPI PUSH1 0x0 PUSH2 0x5E62 PUSH1 0x20 DUP4 MLOAD SUB DUP4 PUSH2 0x7930 SWAP1 SWAP2 SWAP1 PUSH4 0xFFFFFFFF AND JUMP JUMPDEST SWAP1 POP PUSH1 0x0 DUP2 GT DUP1 ISZERO PUSH2 0x5E73 JUMPI POP DUP6 DUP2 LT JUMPDEST ISZERO PUSH2 0x5E86 JUMPI DUP4 DUP9 MSTORE PUSH1 0x20 DUP9 ADD DUP3 SWAP1 MSTORE SWAP5 POP DUP5 JUMPDEST POP JUMPDEST POP POP PUSH1 0x1 ADD PUSH2 0x5D9D JUMP JUMPDEST PUSH1 0x60 PUSH1 0x0 DUP4 PUSH1 0x1 PUSH1 0x1 PUSH1 0xA0 SHL SUB AND PUSH4 0xC45A0155 PUSH1 0x40 MLOAD DUP2 PUSH4 0xFFFFFFFF AND PUSH1 0xE0 SHL DUP2 MSTORE PUSH1 0x4 ADD PUSH1 0x20 PUSH1 0x40 MLOAD DUP1 DUP4 SUB DUP2 DUP7 DUP1 EXTCODESIZE ISZERO DUP1 ISZERO PUSH2 0x5ECF JUMPI PUSH1 0x0 DUP1 REVERT JUMPDEST POP GAS STATICCALL ISZERO DUP1 ISZERO PUSH2 0x5EE3 JUMPI RETURNDATASIZE PUSH1 0x0 DUP1 RETURNDATACOPY RETURNDATASIZE PUSH1 0x0 REVERT JUMPDEST POP POP POP POP PUSH1 0x40 MLOAD RETURNDATASIZE PUSH1 0x1F NOT PUSH1 0x1F DUP3 ADD AND DUP3 ADD DUP1 PUSH1 0x40 MSTORE POP DUP2 ADD SWAP1 PUSH2 0x5F07 SWAP2 SWAP1 PUSH2 0x8CFC JUMP JUMPDEST SWAP1 POP PUSH1 0x1 DUP4 MLOAD SUB PUSH1 0x1 PUSH1 0x1 PUSH1 0x40 SHL SUB DUP2 GT DUP1 ISZERO PUSH2 0x5F23 JUMPI PUSH1 0x0 DUP1 REVERT JUMPDEST POP PUSH1 0x40 MLOAD SWAP1 DUP1 DUP3 MSTORE DUP1 PUSH1 0x20 MUL PUSH1 0x20 ADD DUP3 ADD PUSH1 0x40 MSTORE DUP1 ISZERO PUSH2 0x5F4D JUMPI DUP2 PUSH1 0x20 ADD PUSH1 0x20 DUP3 MUL DUP1 CALLDATASIZE DUP4 CALLDATACOPY ADD SWAP1 POP JUMPDEST POP SWAP2 POP PUSH1 0x0 JUMPDEST DUP3 MLOAD DUP2 LT ISZERO PUSH2 0x6178 JUMPI PUSH1 0x60 DUP3 PUSH1 0x1 PUSH1 0x1 PUSH1 0xA0 SHL SUB AND PUSH4 0x5B1DC86F PUSH3 0x249F0 DUP8 DUP6 DUP2 MLOAD DUP2 LT PUSH2 0x5F7D JUMPI INVALID JUMPDEST PUSH1 0x20 MUL PUSH1 0x20 ADD ADD MLOAD DUP9 DUP7 PUSH1 0x1 ADD DUP2 MLOAD DUP2 LT PUSH2 0x5F94 JUMPI INVALID JUMPDEST PUSH1 0x20 MUL PUSH1 0x20 ADD ADD MLOAD PUSH1 0x40 MLOAD DUP5 PUSH4 0xFFFFFFFF AND PUSH1 0xE0 SHL DUP2 MSTORE PUSH1 0x4 ADD PUSH2 0x5FB9 SWAP3 SWAP2 SWAP1 PUSH2 0x9F0D JUMP JUMPDEST PUSH1 0x0 PUSH1 0x40 MLOAD DUP1 DUP4 SUB DUP2 DUP8 DUP1 EXTCODESIZE ISZERO DUP1 ISZERO PUSH2 0x5FD1 JUMPI PUSH1 0x0 DUP1 REVERT JUMPDEST POP DUP7 STATICCALL SWAP4 POP POP POP POP DUP1 ISZERO PUSH2 0x6007 JUMPI POP PUSH1 0x40 MLOAD RETURNDATASIZE PUSH1 0x0 DUP3 RETURNDATACOPY PUSH1 0x1F RETURNDATASIZE SWAP1 DUP2 ADD PUSH1 0x1F NOT AND DUP3 ADD PUSH1 0x40 MSTORE PUSH2 0x6004 SWAP2 SWAP1 DUP2 ADD SWAP1 PUSH2 0x90B1 JUMP JUMPDEST PUSH1 0x1 JUMPDEST PUSH2 0x6056 JUMPI RETURNDATASIZE DUP1 DUP1 ISZERO PUSH2 0x6035 JUMPI PUSH1 0x40 MLOAD SWAP2 POP PUSH1 0x1F NOT PUSH1 0x3F RETURNDATASIZE ADD AND DUP3 ADD PUSH1 0x40 MSTORE RETURNDATASIZE DUP3 MSTORE RETURNDATASIZE PUSH1 0x0 PUSH1 0x20 DUP5 ADD RETURNDATACOPY PUSH2 0x603A JUMP JUMPDEST PUSH1 0x60 SWAP2 POP JUMPDEST POP POP PUSH1 0x40 DUP1 MLOAD PUSH1 0x0 DUP2 MSTORE PUSH1 0x20 DUP2 ADD SWAP1 SWAP2 MSTORE SWAP4 POP PUSH2 0x617B SWAP3 POP POP POP JUMP JUMPDEST PUSH1 0x0 PUSH1 0x1 DUP3 MLOAD LT ISZERO PUSH2 0x6083 JUMPI PUSH1 0x40 MLOAD PUSH3 0x461BCD PUSH1 0xE5 SHL DUP2 MSTORE PUSH1 0x4 ADD PUSH2 0x607A SWAP1 PUSH2 0xA568 JUMP JUMPDEST PUSH1 0x40 MLOAD DUP1 SWAP2 SUB SWAP1 REVERT JUMPDEST PUSH1 0x0 JUMPDEST DUP3 MLOAD DUP2 LT ISZERO PUSH2 0x616C JUMPI PUSH1 0x0 DUP4 DUP3 DUP2 MLOAD DUP2 LT PUSH2 0x609D JUMPI INVALID JUMPDEST PUSH1 0x20 MUL PUSH1 0x20 ADD ADD MLOAD PUSH1 0x1 PUSH1 0x1 PUSH1 0xA0 SHL SUB AND PUSH4 0x18160DDD PUSH1 0x40 MLOAD DUP2 PUSH4 0xFFFFFFFF AND PUSH1 0xE0 SHL DUP2 MSTORE PUSH1 0x4 ADD PUSH1 0x20 PUSH1 0x40 MLOAD DUP1 DUP4 SUB DUP2 DUP7 DUP1 EXTCODESIZE ISZERO DUP1 ISZERO PUSH2 0x60DD JUMPI PUSH1 0x0 DUP1 REVERT JUMPDEST POP GAS STATICCALL ISZERO DUP1 ISZERO PUSH2 0x60F1 JUMPI RETURNDATASIZE PUSH1 0x0 DUP1 RETURNDATACOPY RETURNDATASIZE PUSH1 0x0 REVERT JUMPDEST POP POP POP POP PUSH1 0x40 MLOAD RETURNDATASIZE PUSH1 0x1F NOT PUSH1 0x1F DUP3 ADD AND DUP3 ADD DUP1 PUSH1 0x40 MSTORE POP DUP2 ADD SWAP1 PUSH2 0x6115 SWAP2 SWAP1 PUSH2 0x9556 JUMP JUMPDEST SWAP1 POP DUP3 DUP2 GT ISZERO PUSH2 0x6163 JUMPI DUP1 SWAP3 POP DUP4 DUP3 DUP2 MLOAD DUP2 LT PUSH2 0x612E JUMPI INVALID JUMPDEST PUSH1 0x20 MUL PUSH1 0x20 ADD ADD MLOAD DUP9 DUP8 DUP2 MLOAD DUP2 LT PUSH2 0x6142 JUMPI INVALID JUMPDEST PUSH1 0x20 MUL PUSH1 0x20 ADD ADD SWAP1 PUSH1 0x1 PUSH1 0x1 PUSH1 0xA0 SHL SUB AND SWAP1 DUP2 PUSH1 0x1 PUSH1 0x1 PUSH1 0xA0 SHL SUB AND DUP2 MSTORE POP POP JUMPDEST POP PUSH1 0x1 ADD PUSH2 0x6086 JUMP JUMPDEST POP POP POP POP PUSH1 0x1 ADD PUSH2 0x5F53 JUMP JUMPDEST POP POP JUMPDEST SWAP3 SWAP2 POP POP JUMP JUMPDEST PUSH1 0x0 PUSH1 0x60 DUP6 PUSH1 0x0 ADD MLOAD PUSH1 0x1 PUSH1 0x1 PUSH1 0xA0 SHL SUB AND PUSH4 0x21F8A721 DUP8 PUSH1 0x0 ADD MLOAD PUSH1 0x1 PUSH1 0x1 PUSH1 0xA0 SHL SUB AND PUSH4 0x9232494E PUSH1 0x40 MLOAD DUP2 PUSH4 0xFFFFFFFF AND PUSH1 0xE0 SHL DUP2 MSTORE PUSH1 0x4 ADD PUSH1 0x20 PUSH1 0x40 MLOAD DUP1 DUP4 SUB DUP2 DUP7 DUP1 EXTCODESIZE ISZERO DUP1 ISZERO PUSH2 0x61D5 JUMPI PUSH1 0x0 DUP1 REVERT JUMPDEST POP GAS STATICCALL ISZERO DUP1 ISZERO PUSH2 0x61E9 JUMPI RETURNDATASIZE PUSH1 0x0 DUP1 RETURNDATACOPY RETURNDATASIZE PUSH1 0x0 REVERT JUMPDEST POP POP POP POP PUSH1 0x40 MLOAD RETURNDATASIZE PUSH1 0x1F NOT PUSH1 0x1F DUP3 ADD AND DUP3 ADD DUP1 PUSH1 0x40 MSTORE POP DUP2 ADD SWAP1 PUSH2 0x620D SWAP2 SWAP1 PUSH2 0x9556 JUMP JUMPDEST PUSH1 0x40 MLOAD DUP3 PUSH4 0xFFFFFFFF AND PUSH1 0xE0 SHL DUP2 MSTORE PUSH1 0x4 ADD PUSH2 0x6229 SWAP2 SWAP1 PUSH2 0xA313 JUMP JUMPDEST PUSH1 0x20 PUSH1 0x40 MLOAD DUP1 DUP4 SUB DUP2 DUP7 DUP1 EXTCODESIZE ISZERO DUP1 ISZERO PUSH2 0x6241 JUMPI PUSH1 0x0 DUP1 REVERT JUMPDEST POP GAS STATICCALL ISZERO DUP1 ISZERO PUSH2 0x6255 JUMPI RETURNDATASIZE PUSH1 0x0 DUP1 RETURNDATACOPY RETURNDATASIZE PUSH1 0x0 REVERT JUMPDEST POP POP POP POP PUSH1 0x40 MLOAD RETURNDATASIZE PUSH1 0x1F NOT PUSH1 0x1F DUP3 ADD AND DUP3 ADD DUP1 PUSH1 0x40 MSTORE POP DUP2 ADD SWAP1 PUSH2 0x6279 SWAP2 SWAP1 PUSH2 0x8CFC JUMP JUMPDEST SWAP2 POP DUP6 PUSH1 0x20 ADD MLOAD MLOAD PUSH1 0x0 EQ ISZERO PUSH2 0x628E JUMPI PUSH2 0x63AA JUMP JUMPDEST PUSH1 0x0 DUP1 JUMPDEST DUP8 PUSH1 0x20 ADD MLOAD MLOAD DUP2 LT ISZERO PUSH2 0x63A7 JUMPI PUSH1 0x2 DUP9 PUSH1 0x20 ADD MLOAD DUP3 DUP2 MLOAD DUP2 LT PUSH2 0x62B1 JUMPI INVALID JUMPDEST PUSH1 0x20 MUL PUSH1 0x20 ADD ADD MLOAD MLOAD LT ISZERO PUSH2 0x62C5 JUMPI PUSH2 0x639F JUMP JUMPDEST DUP4 PUSH1 0x1 PUSH1 0x1 PUSH1 0xA0 SHL SUB AND PUSH4 0x7F9C0ECD PUSH3 0x493E0 DUP11 PUSH1 0x20 ADD MLOAD DUP5 DUP2 MLOAD DUP2 LT PUSH2 0x62E8 JUMPI INVALID JUMPDEST PUSH1 0x20 MUL PUSH1 0x20 ADD ADD MLOAD DUP9 PUSH1 0x1 DUP11 MLOAD SUB DUP2 MLOAD DUP2 LT PUSH2 0x6300 JUMPI INVALID JUMPDEST PUSH1 0x20 MUL PUSH1 0x20 ADD ADD MLOAD PUSH1 0x40 MLOAD DUP5 PUSH4 0xFFFFFFFF AND PUSH1 0xE0 SHL DUP2 MSTORE PUSH1 0x4 ADD PUSH2 0x6325 SWAP3 SWAP2 SWAP1 PUSH2 0xA1CA JUMP JUMPDEST PUSH1 0x20 PUSH1 0x40 MLOAD DUP1 DUP4 SUB DUP2 DUP8 DUP1 EXTCODESIZE ISZERO DUP1 ISZERO PUSH2 0x633D JUMPI PUSH1 0x0 DUP1 REVERT JUMPDEST POP DUP7 STATICCALL SWAP4 POP POP POP POP DUP1 ISZERO PUSH2 0x636E JUMPI POP PUSH1 0x40 DUP1 MLOAD PUSH1 0x1F RETURNDATASIZE SWAP1 DUP2 ADD PUSH1 0x1F NOT AND DUP3 ADD SWAP1 SWAP3 MSTORE PUSH2 0x636B SWAP2 DUP2 ADD SWAP1 PUSH2 0x9556 JUMP JUMPDEST PUSH1 0x1 JUMPDEST PUSH2 0x6377 JUMPI PUSH2 0x639F JUMP JUMPDEST DUP3 DUP2 GT ISZERO PUSH2 0x639D JUMPI DUP1 SWAP3 POP DUP9 PUSH1 0x20 ADD MLOAD DUP3 DUP2 MLOAD DUP2 LT PUSH2 0x6392 JUMPI INVALID JUMPDEST PUSH1 0x20 MUL PUSH1 0x20 ADD ADD MLOAD SWAP4 POP JUMPDEST POP JUMPDEST PUSH1 0x1 ADD PUSH2 0x6292 JUMP JUMPDEST POP POP JUMPDEST SWAP5 POP SWAP5 SWAP3 POP POP POP JUMP JUMPDEST DUP1 PUSH1 0x1 PUSH1 0x1 PUSH1 0xA0 SHL SUB AND DUP3 PUSH1 0x1 PUSH1 0x1 PUSH1 0xA0 SHL SUB AND EQ ISZERO PUSH2 0x63E5 JUMPI PUSH1 0x40 MLOAD PUSH3 0x461BCD PUSH1 0xE5 SHL DUP2 MSTORE PUSH1 0x4 ADD PUSH2 0x607A SWAP1 PUSH2 0xA4DE JUMP JUMPDEST POP POP JUMP JUMPDEST PUSH2 0x63F1 PUSH2 0x8524 JUMP JUMPDEST POP PUSH1 0x40 DUP1 MLOAD PUSH1 0x80 DUP2 ADD DUP3 MSTORE ADDRESS DUP1 DUP3 MSTORE PUSH1 0x0 PUSH1 0x20 DUP4 ADD DUP2 SWAP1 MSTORE SWAP3 DUP3 ADD MSTORE PUSH1 0x60 DUP2 ADD SWAP2 SWAP1 SWAP2 MSTORE SWAP1 JUMP JUMPDEST PUSH1 0x40 DUP1 MLOAD PUSH1 0x1 DUP1 DUP3 MSTORE DUP2 DUP4 ADD SWAP1 SWAP3 MSTORE PUSH1 0x60 SWAP2 DUP3 SWAP2 SWAP1 DUP2 PUSH1 0x20 ADD JUMPDEST PUSH2 0x643A PUSH2 0x85CE JUMP JUMPDEST DUP2 MSTORE PUSH1 0x20 ADD SWAP1 PUSH1 0x1 SWAP1 SUB SWAP1 DUP2 PUSH2 0x6432 JUMPI SWAP1 POP POP SWAP1 POP PUSH1 0x40 MLOAD DUP1 PUSH1 0xA0 ADD PUSH1 0x40 MSTORE DUP1 DUP6 PUSH1 0x0 ADD MLOAD DUP2 MSTORE PUSH1 0x20 ADD PUSH1 0x0 DUP2 MSTORE PUSH1 0x20 ADD PUSH1 0x1 DUP2 MSTORE PUSH1 0x20 ADD DUP5 DUP2 MSTORE PUSH1 0x20 ADD PUSH1 0x40 MLOAD DUP1 PUSH1 0x20 ADD PUSH1 0x40 MSTORE DUP1 PUSH1 0x0 DUP2 MSTORE POP DUP2 MSTORE POP DUP2 PUSH1 0x0 DUP2 MLOAD DUP2 LT PUSH2 0x6498 JUMPI INVALID JUMPDEST PUSH1 0x20 SWAP1 DUP2 MUL SWAP2 SWAP1 SWAP2 ADD ADD MSTORE SWAP4 SWAP3 POP POP POP JUMP JUMPDEST PUSH1 0x40 MLOAD PUSH4 0x3795FB1 PUSH1 0xE1 SHL DUP2 MSTORE PUSH1 0x0 SWAP1 PUSH1 0x1 PUSH1 0x1 PUSH1 0xA0 SHL SUB DUP5 AND SWAP1 PUSH4 0x6F2BF62 SWAP1 PUSH2 0x64D9 SWAP1 DUP6 SWAP1 PUSH1 0x4 ADD PUSH2 0x9EE0 JUMP JUMPDEST PUSH1 0x20 PUSH1 0x40 MLOAD DUP1 DUP4 SUB DUP2 DUP7 DUP1 EXTCODESIZE ISZERO DUP1 ISZERO PUSH2 0x64F1 JUMPI PUSH1 0x0 DUP1 REVERT JUMPDEST POP GAS STATICCALL ISZERO DUP1 ISZERO PUSH2 0x6505 JUMPI RETURNDATASIZE PUSH1 0x0 DUP1 RETURNDATACOPY RETURNDATASIZE PUSH1 0x0 REVERT JUMPDEST POP POP POP POP PUSH1 0x40 MLOAD RETURNDATASIZE PUSH1 0x1F NOT PUSH1 0x1F DUP3 ADD AND DUP3 ADD DUP1 PUSH1 0x40 MSTORE POP DUP2 ADD SWAP1 PUSH2 0x4194 SWAP2 SWAP1 PUSH2 0x8CFC JUMP JUMPDEST PUSH1 0x0 DUP1 PUSH1 0x1 PUSH1 0x1 PUSH1 0xA0 SHL SUB DUP6 AND PUSH2 0x653F JUMPI PUSH2 0xB1F JUMP JUMPDEST PUSH1 0x60 DUP6 PUSH1 0x1 PUSH1 0x1 PUSH1 0xA0 SHL SUB AND PUSH3 0x249F0 DUP7 DUP7 PUSH1 0x40 MLOAD PUSH1 0x24 ADD PUSH2 0x6561 SWAP2 SWAP1 PUSH2 0xA313 JUMP JUMPDEST PUSH1 0x40 DUP1 MLOAD PUSH1 0x1F NOT DUP2 DUP5 SUB ADD DUP2 MSTORE SWAP2 DUP2 MSTORE PUSH1 0x20 DUP3 ADD DUP1 MLOAD PUSH1 0x1 PUSH1 0x1 PUSH1 0xE0 SHL SUB AND PUSH1 0x1 PUSH1 0x1 PUSH1 0xE0 SHL SUB NOT SWAP1 SWAP5 AND SWAP4 SWAP1 SWAP4 OR SWAP1 SWAP3 MSTORE SWAP1 MLOAD PUSH2 0x659F SWAP2 SWAP1 PUSH2 0x9EC4 JUMP JUMPDEST PUSH1 0x0 PUSH1 0x40 MLOAD DUP1 DUP4 SUB DUP2 DUP7 DUP7 STATICCALL SWAP3 POP POP POP RETURNDATASIZE DUP1 PUSH1 0x0 DUP2 EQ PUSH2 0x65DB JUMPI PUSH1 0x40 MLOAD SWAP2 POP PUSH1 0x1F NOT PUSH1 0x3F RETURNDATASIZE ADD AND DUP3 ADD PUSH1 0x40 MSTORE RETURNDATASIZE DUP3 MSTORE RETURNDATASIZE PUSH1 0x0 PUSH1 0x20 DUP5 ADD RETURNDATACOPY PUSH2 0x65E0 JUMP JUMPDEST PUSH1 0x60 SWAP2 POP JUMPDEST POP SWAP1 SWAP3 POP SWAP1 POP DUP2 ISZERO PUSH2 0x6603 JUMPI DUP1 DUP1 PUSH1 0x20 ADD SWAP1 MLOAD DUP2 ADD SWAP1 PUSH2 0x6600 SWAP2 SWAP1 PUSH2 0x9556 JUMP JUMPDEST SWAP3 POP JUMPDEST POP SWAP4 POP SWAP4 SWAP2 POP POP JUMP JUMPDEST PUSH1 0x0 DUP1 PUSH1 0x0 DUP1 DUP5 PUSH1 0x1 PUSH1 0x1 PUSH1 0xA0 SHL SUB AND PUSH4 0xD9638D36 DUP12 PUSH1 0x20 ADD MLOAD PUSH1 0x40 MLOAD DUP3 PUSH4 0xFFFFFFFF AND PUSH1 0xE0 SHL DUP2 MSTORE PUSH1 0x4 ADD PUSH2 0x6642 SWAP2 SWAP1 PUSH2 0xA313 JUMP JUMPDEST PUSH1 0xA0 PUSH1 0x40 MLOAD DUP1 DUP4 SUB DUP2 DUP7 DUP1 EXTCODESIZE ISZERO DUP1 ISZERO PUSH2 0x665A JUMPI PUSH1 0x0 DUP1 REVERT JUMPDEST POP GAS STATICCALL ISZERO DUP1 ISZERO PUSH2 0x666E JUMPI RETURNDATASIZE PUSH1 0x0 DUP1 RETURNDATACOPY RETURNDATASIZE PUSH1 0x0 REVERT JUMPDEST POP POP POP POP PUSH1 0x40 MLOAD RETURNDATASIZE PUSH1 0x1F NOT PUSH1 0x1F DUP3 ADD AND DUP3 ADD DUP1 PUSH1 0x40 MSTORE POP DUP2 ADD SWAP1 PUSH2 0x6692 SWAP2 SWAP1 PUSH2 0x9BA0 JUMP JUMPDEST SWAP5 POP SWAP5 POP POP POP SWAP3 POP PUSH1 0x0 PUSH3 0xF4240 SWAP1 POP DUP11 PUSH1 0x40 ADD MLOAD PUSH1 0x1 PUSH1 0x1 PUSH1 0xA0 SHL SUB AND DUP10 PUSH1 0x1 PUSH1 0x1 PUSH1 0xA0 SHL SUB AND EQ ISZERO PUSH2 0x67BA JUMPI PUSH1 0x0 PUSH2 0x66D1 DUP10 PUSH5 0xE8D4A51000 PUSH2 0x8112 JUMP JUMPDEST SWAP1 POP PUSH1 0x0 PUSH2 0x66F5 PUSH12 0x33B2E3C9FD0803CE8000000 PUSH2 0x66EF DUP9 DUP6 PUSH2 0x8148 JUMP JUMPDEST SWAP1 PUSH2 0x8112 JUMP JUMPDEST SWAP1 POP DUP5 DUP2 LT PUSH2 0x670D JUMPI PUSH1 0x0 SWAP7 POP POP POP POP POP POP POP PUSH2 0x68C3 JUMP JUMPDEST PUSH1 0x0 PUSH2 0x679C PUSH8 0xDE0B6B3A7640000 PUSH2 0x6796 DUP13 PUSH1 0x1 PUSH1 0x1 PUSH1 0xA0 SHL SUB AND PUSH4 0x568D4B6F PUSH1 0x40 MLOAD DUP2 PUSH4 0xFFFFFFFF AND PUSH1 0xE0 SHL DUP2 MSTORE PUSH1 0x4 ADD PUSH1 0x20 PUSH1 0x40 MLOAD DUP1 DUP4 SUB DUP2 DUP7 DUP1 EXTCODESIZE ISZERO DUP1 ISZERO PUSH2 0x6757 JUMPI PUSH1 0x0 DUP1 REVERT JUMPDEST POP GAS STATICCALL ISZERO DUP1 ISZERO PUSH2 0x676B JUMPI RETURNDATASIZE PUSH1 0x0 DUP1 RETURNDATACOPY RETURNDATASIZE PUSH1 0x0 REVERT JUMPDEST POP POP POP POP PUSH1 0x40 MLOAD RETURNDATASIZE PUSH1 0x1F NOT PUSH1 0x1F DUP3 ADD AND DUP3 ADD DUP1 PUSH1 0x40 MSTORE POP DUP2 ADD SWAP1 PUSH2 0x678F SWAP2 SWAP1 PUSH2 0x9556 JUMP JUMPDEST DUP7 SWAP1 PUSH2 0x8112 JUMP JUMPDEST SWAP1 PUSH2 0x8164 JUMP JUMPDEST SWAP1 POP PUSH1 0x0 PUSH2 0x67AA DUP5 DUP4 PUSH2 0x818E JUMP JUMPDEST SWAP9 POP PUSH2 0x68C3 SWAP8 POP POP POP POP POP POP POP POP JUMP JUMPDEST DUP11 PUSH1 0x40 ADD MLOAD PUSH1 0x1 PUSH1 0x1 PUSH1 0xA0 SHL SUB AND DUP11 PUSH1 0x1 PUSH1 0x1 PUSH1 0xA0 SHL SUB AND EQ ISZERO PUSH2 0x68BA JUMPI DUP8 DUP5 DUP2 GT ISZERO PUSH2 0x67EF JUMPI PUSH1 0x0 SWAP6 POP POP POP POP POP POP PUSH2 0x68C3 JUMP JUMPDEST PUSH1 0x0 PUSH2 0x680B PUSH12 0x33B2E3C9FD0803CE8000000 PUSH2 0x66EF DUP9 DUP6 PUSH2 0x818E JUMP JUMPDEST SWAP1 POP DUP4 DUP2 GT PUSH2 0x6823 JUMPI PUSH1 0x0 SWAP7 POP POP POP POP POP POP POP PUSH2 0x68C3 JUMP JUMPDEST PUSH1 0x0 PUSH2 0x68A8 DUP11 PUSH1 0x1 PUSH1 0x1 PUSH1 0xA0 SHL SUB AND PUSH4 0xFAE036D5 PUSH1 0x40 MLOAD DUP2 PUSH4 0xFFFFFFFF AND PUSH1 0xE0 SHL DUP2 MSTORE PUSH1 0x4 ADD PUSH1 0x20 PUSH1 0x40 MLOAD DUP1 DUP4 SUB DUP2 DUP7 DUP1 EXTCODESIZE ISZERO DUP1 ISZERO PUSH2 0x6861 JUMPI PUSH1 0x0 DUP1 REVERT JUMPDEST POP GAS STATICCALL ISZERO DUP1 ISZERO PUSH2 0x6875 JUMPI RETURNDATASIZE PUSH1 0x0 DUP1 RETURNDATACOPY RETURNDATASIZE PUSH1 0x0 REVERT JUMPDEST POP POP POP POP PUSH1 0x40 MLOAD RETURNDATASIZE PUSH1 0x1F NOT PUSH1 0x1F DUP3 ADD AND DUP3 ADD DUP1 PUSH1 0x40 MSTORE POP DUP2 ADD SWAP1 PUSH2 0x6899 SWAP2 SWAP1 PUSH2 0x9556 JUMP JUMPDEST PUSH8 0xDE0B6B3A7640000 SWAP1 PUSH2 0x8148 JUMP JUMPDEST SWAP1 POP PUSH1 0x0 PUSH2 0x67AA DUP3 PUSH2 0x6796 DUP7 DUP9 PUSH2 0x8112 JUMP JUMPDEST PUSH1 0x0 SWAP5 POP POP POP POP POP JUMPDEST SWAP7 SWAP6 POP POP POP POP POP POP JUMP JUMPDEST PUSH1 0x0 DUP1 PUSH2 0x68D8 PUSH2 0x8600 JUMP JUMPDEST DUP6 DUP1 PUSH1 0x20 ADD SWAP1 MLOAD DUP2 ADD SWAP1 PUSH2 0x68EC SWAP2 SWAP1 PUSH2 0x9602 JUMP JUMPDEST SWAP2 POP SWAP2 POP PUSH1 0x0 DUP6 DUP1 PUSH1 0x20 ADD SWAP1 MLOAD DUP2 ADD SWAP1 PUSH2 0x6906 SWAP2 SWAP1 PUSH2 0x95E6 JUMP JUMPDEST SWAP1 POP PUSH1 0x0 PUSH1 0x60 ADDRESS PUSH4 0x22DB5ED1 PUSH1 0xE2 SHL DUP6 DUP8 DUP7 PUSH2 0x6921 DUP13 PUSH2 0x81AD JUMP JUMPDEST PUSH1 0x40 MLOAD PUSH1 0x24 ADD PUSH2 0x6934 SWAP5 SWAP4 SWAP3 SWAP2 SWAP1 PUSH2 0xA59F JUMP JUMPDEST PUSH1 0x40 DUP1 MLOAD PUSH1 0x1F NOT DUP2 DUP5 SUB ADD DUP2 MSTORE SWAP2 DUP2 MSTORE PUSH1 0x20 DUP3 ADD DUP1 MLOAD PUSH1 0x1 PUSH1 0x1 PUSH1 0xE0 SHL SUB AND PUSH1 0x1 PUSH1 0x1 PUSH1 0xE0 SHL SUB NOT SWAP1 SWAP5 AND SWAP4 SWAP1 SWAP4 OR SWAP1 SWAP3 MSTORE SWAP1 MLOAD PUSH2 0x6972 SWAP2 SWAP1 PUSH2 0x9EC4 JUMP JUMPDEST PUSH1 0x0 PUSH1 0x40 MLOAD DUP1 DUP4 SUB DUP2 DUP6 GAS STATICCALL SWAP2 POP POP RETURNDATASIZE DUP1 PUSH1 0x0 DUP2 EQ PUSH2 0x69AD JUMPI PUSH1 0x40 MLOAD SWAP2 POP PUSH1 0x1F NOT PUSH1 0x3F RETURNDATASIZE ADD AND DUP3 ADD PUSH1 0x40 MSTORE RETURNDATASIZE DUP3 MSTORE RETURNDATASIZE PUSH1 0x0 PUSH1 0x20 DUP5 ADD RETURNDATACOPY PUSH2 0x69B2 JUMP JUMPDEST PUSH1 0x60 SWAP2 POP JUMPDEST POP SWAP2 POP SWAP2 POP DUP2 PUSH2 0x69CA JUMPI PUSH1 0x0 SWAP6 POP POP POP POP POP POP PUSH2 0x4194 JUMP JUMPDEST DUP1 DUP1 PUSH1 0x20 ADD SWAP1 MLOAD DUP2 ADD SWAP1 PUSH2 0x69DE SWAP2 SWAP1 PUSH2 0x9508 JUMP JUMPDEST PUSH1 0x0 DUP2 MLOAD DUP2 LT PUSH2 0x69EA JUMPI INVALID JUMPDEST PUSH1 0x20 MUL PUSH1 0x20 ADD ADD MLOAD SWAP6 POP POP POP POP POP POP SWAP4 SWAP3 POP POP POP JUMP JUMPDEST PUSH1 0x60 DUP2 MLOAD PUSH1 0x1 PUSH1 0x1 PUSH1 0x40 SHL SUB DUP2 GT DUP1 ISZERO PUSH2 0x6A19 JUMPI PUSH1 0x0 DUP1 REVERT JUMPDEST POP PUSH1 0x40 MLOAD SWAP1 DUP1 DUP3 MSTORE DUP1 PUSH1 0x20 MUL PUSH1 0x20 ADD DUP3 ADD PUSH1 0x40 MSTORE DUP1 ISZERO PUSH2 0x6A43 JUMPI DUP2 PUSH1 0x20 ADD PUSH1 0x20 DUP3 MUL DUP1 CALLDATASIZE DUP4 CALLDATACOPY ADD SWAP1 POP JUMPDEST POP SWAP1 POP DUP2 MLOAD PUSH1 0x0 EQ ISZERO PUSH2 0x6A55 JUMPI PUSH2 0x617B JUMP JUMPDEST PUSH1 0x0 PUSH2 0x6A86 DUP5 PUSH1 0x0 ADD MLOAD DUP6 PUSH1 0x20 ADD MLOAD DUP6 PUSH1 0x0 DUP2 MLOAD DUP2 LT PUSH2 0x6A71 JUMPI INVALID JUMPDEST PUSH1 0x20 MUL PUSH1 0x20 ADD ADD MLOAD DUP8 PUSH1 0x40 ADD MLOAD PUSH4 0xFFFFFFFF AND JUMP JUMPDEST SWAP1 POP DUP1 PUSH2 0x6A93 JUMPI POP PUSH2 0x617B JUMP JUMPDEST PUSH1 0x0 PUSH2 0x6AB0 DUP6 PUSH1 0x20 ADD MLOAD DUP7 PUSH1 0x0 ADD MLOAD DUP5 DUP9 PUSH1 0x40 ADD MLOAD PUSH4 0xFFFFFFFF AND JUMP JUMPDEST SWAP1 POP DUP1 PUSH2 0x6ABE JUMPI POP POP PUSH2 0x617B JUMP JUMPDEST PUSH1 0x0 JUMPDEST DUP5 MLOAD DUP2 LT ISZERO PUSH2 0x6BF4 JUMPI PUSH1 0x0 JUMPDEST PUSH1 0x5 DUP2 LT ISZERO PUSH2 0x6BB6 JUMPI PUSH2 0x6AF4 DUP7 DUP4 DUP2 MLOAD DUP2 LT PUSH2 0x6AE5 JUMPI INVALID JUMPDEST PUSH1 0x20 MUL PUSH1 0x20 ADD ADD MLOAD DUP5 DUP7 PUSH2 0x81EE JUMP JUMPDEST SWAP4 POP DUP4 PUSH2 0x6B00 JUMPI PUSH2 0x6BB6 JUMP JUMPDEST PUSH2 0x6B0F PUSH2 0x2715 PUSH2 0x2710 DUP7 PUSH2 0x81EE JUMP JUMPDEST SWAP4 POP DUP4 PUSH2 0x6B1B JUMPI PUSH2 0x6BB6 JUMP JUMPDEST PUSH1 0x0 PUSH2 0x6B38 DUP9 PUSH1 0x20 ADD MLOAD DUP10 PUSH1 0x0 ADD MLOAD DUP8 DUP12 PUSH1 0x40 ADD MLOAD PUSH4 0xFFFFFFFF AND JUMP JUMPDEST SWAP1 POP DUP1 PUSH2 0x6B45 JUMPI POP PUSH2 0x6BB6 JUMP JUMPDEST DUP1 SWAP4 POP DUP7 DUP4 DUP2 MLOAD DUP2 LT PUSH2 0x6B54 JUMPI INVALID JUMPDEST PUSH1 0x20 MUL PUSH1 0x20 ADD ADD MLOAD DUP5 LT PUSH2 0x6BAD JUMPI PUSH1 0x0 DUP8 DUP5 DUP2 MLOAD DUP2 LT PUSH2 0x6B70 JUMPI INVALID JUMPDEST PUSH1 0x20 MUL PUSH1 0x20 ADD ADD MLOAD PUSH2 0x2710 DUP10 DUP7 DUP2 MLOAD DUP2 LT PUSH2 0x6B87 JUMPI INVALID JUMPDEST PUSH1 0x20 MUL PUSH1 0x20 ADD ADD MLOAD DUP8 SUB MUL DUP2 PUSH2 0x6B99 JUMPI INVALID JUMPDEST DIV SWAP1 POP PUSH1 0x5 DUP2 GT PUSH2 0x6BAB JUMPI POP POP PUSH2 0x6BB6 JUMP JUMPDEST POP JUMPDEST POP PUSH1 0x1 ADD PUSH2 0x6ACD JUMP JUMPDEST POP PUSH2 0x6BD5 DUP6 DUP3 DUP2 MLOAD DUP2 LT PUSH2 0x6BC6 JUMPI INVALID JUMPDEST PUSH1 0x20 MUL PUSH1 0x20 ADD ADD MLOAD DUP4 DUP6 PUSH2 0x81EE JUMP JUMPDEST DUP5 DUP3 DUP2 MLOAD DUP2 LT PUSH2 0x6BE1 JUMPI INVALID JUMPDEST PUSH1 0x20 SWAP1 DUP2 MUL SWAP2 SWAP1 SWAP2 ADD ADD MSTORE PUSH1 0x1 ADD PUSH2 0x6AC1 JUMP JUMPDEST POP POP POP SWAP3 SWAP2 POP POP JUMP JUMPDEST PUSH1 0x0 DUP1 PUSH1 0x0 DUP1 PUSH1 0x0 DUP8 DUP1 PUSH1 0x20 ADD SWAP1 MLOAD DUP2 ADD SWAP1 PUSH2 0x6C19 SWAP2 SWAP1 PUSH2 0x8D51 JUMP JUMPDEST SWAP4 POP SWAP4 POP SWAP4 POP SWAP4 POP DUP2 PUSH1 0x1 PUSH1 0x1 PUSH1 0xA0 SHL SUB AND DUP5 PUSH1 0x1 PUSH1 0x1 PUSH1 0xA0 SHL SUB AND EQ ISZERO PUSH2 0x6D03 JUMPI PUSH1 0x40 MLOAD PUSH4 0x51400F0B PUSH1 0xE1 SHL DUP2 MSTORE PUSH1 0x1 PUSH1 0x1 PUSH1 0xA0 SHL SUB DUP5 AND SWAP1 PUSH4 0xA2801E16 SWAP1 PUSH3 0x493E0 SWAP1 PUSH2 0x6C6C SWAP1 DUP11 SWAP1 PUSH1 0x4 ADD PUSH2 0xA313 JUMP JUMPDEST PUSH1 0x20 PUSH1 0x40 MLOAD DUP1 DUP4 SUB DUP2 DUP8 DUP1 EXTCODESIZE ISZERO DUP1 ISZERO PUSH2 0x6C84 JUMPI PUSH1 0x0 DUP1 REVERT JUMPDEST POP DUP7 STATICCALL SWAP4 POP POP POP POP DUP1 ISZERO PUSH2 0x6CB5 JUMPI POP PUSH1 0x40 DUP1 MLOAD PUSH1 0x1F RETURNDATASIZE SWAP1 DUP2 ADD PUSH1 0x1F NOT AND DUP3 ADD SWAP1 SWAP3 MSTORE PUSH2 0x6CB2 SWAP2 DUP2 ADD SWAP1 PUSH2 0x9556 JUMP JUMPDEST PUSH1 0x1 JUMPDEST PUSH2 0x6CF7 JUMPI RETURNDATASIZE DUP1 DUP1 ISZERO PUSH2 0x6CE3 JUMPI PUSH1 0x40 MLOAD SWAP2 POP PUSH1 0x1F NOT PUSH1 0x3F RETURNDATASIZE ADD AND DUP3 ADD PUSH1 0x40 MSTORE RETURNDATASIZE DUP3 MSTORE RETURNDATASIZE PUSH1 0x0 PUSH1 0x20 DUP5 ADD RETURNDATACOPY PUSH2 0x6CE8 JUMP JUMPDEST PUSH1 0x60 SWAP2 POP JUMPDEST POP PUSH1 0x0 SWAP6 POP POP POP POP POP POP PUSH2 0x4194 JUMP JUMPDEST SWAP5 POP PUSH2 0x4194 SWAP4 POP POP POP POP JUMP JUMPDEST PUSH1 0x40 MLOAD PUSH4 0xCA19EBD9 PUSH1 0xE0 SHL DUP2 MSTORE PUSH1 0x1 PUSH1 0x1 PUSH1 0xA0 SHL SUB DUP3 AND SWAP1 PUSH4 0xCA19EBD9 SWAP1 PUSH3 0x493E0 SWAP1 PUSH2 0x6C6C SWAP1 DUP8 SWAP1 DUP12 SWAP1 PUSH1 0x4 ADD PUSH2 0x9EF4 JUMP JUMPDEST PUSH1 0x60 PUSH1 0x2 DUP3 DUP5 MLOAD SUB LT ISZERO PUSH2 0x6D5C JUMPI PUSH1 0x40 MLOAD PUSH3 0x461BCD PUSH1 0xE5 SHL DUP2 MSTORE PUSH1 0x4 ADD PUSH2 0x607A SWAP1 PUSH2 0xA49A JUMP JUMPDEST PUSH2 0x6D64 PUSH2 0x8620 JUMP JUMPDEST POP PUSH1 0x40 DUP1 MLOAD PUSH1 0x60 DUP1 DUP3 ADD DUP4 MSTORE PUSH2 0x1F4 DUP3 MSTORE PUSH2 0xBB8 PUSH1 0x20 DUP4 ADD MSTORE PUSH2 0x2710 DUP3 DUP5 ADD MSTORE DUP3 MLOAD PUSH1 0x3 DUP1 DUP3 MSTORE PUSH1 0x80 DUP3 ADD SWAP1 SWAP5 MSTORE SWAP2 SWAP3 SWAP1 SWAP2 SWAP1 DUP2 PUSH1 0x20 ADD PUSH1 0x20 DUP3 MUL DUP1 CALLDATASIZE DUP4 CALLDATACOPY ADD SWAP1 POP POP SWAP1 POP PUSH1 0x0 DUP1 DUP7 DUP7 DUP2 MLOAD DUP2 LT PUSH2 0x6DB8 JUMPI INVALID JUMPDEST PUSH1 0x20 MUL PUSH1 0x20 ADD ADD MLOAD SWAP1 POP PUSH1 0x0 DUP8 DUP8 PUSH1 0x1 ADD DUP2 MLOAD DUP2 LT PUSH2 0x6DD3 JUMPI INVALID JUMPDEST PUSH1 0x20 MUL PUSH1 0x20 ADD ADD MLOAD SWAP1 POP PUSH1 0x0 JUMPDEST PUSH1 0x3 DUP2 LT ISZERO PUSH2 0x6EC8 JUMPI PUSH1 0x0 DUP11 PUSH1 0x1 PUSH1 0x1 PUSH1 0xA0 SHL SUB AND PUSH4 0x1698EE82 DUP6 DUP6 DUP11 DUP7 PUSH1 0x3 DUP2 LT PUSH2 0x6E08 JUMPI INVALID JUMPDEST PUSH1 0x20 MUL ADD MLOAD PUSH1 0x40 MLOAD DUP5 PUSH4 0xFFFFFFFF AND PUSH1 0xE0 SHL DUP2 MSTORE PUSH1 0x4 ADD PUSH2 0x6E2B SWAP4 SWAP3 SWAP2 SWAP1 PUSH2 0xA35B JUMP JUMPDEST PUSH1 0x20 PUSH1 0x40 MLOAD DUP1 DUP4 SUB DUP2 DUP7 DUP1 EXTCODESIZE ISZERO DUP1 ISZERO PUSH2 0x6E43 JUMPI PUSH1 0x0 DUP1 REVERT JUMPDEST POP GAS STATICCALL ISZERO DUP1 ISZERO PUSH2 0x6E57 JUMPI RETURNDATASIZE PUSH1 0x0 DUP1 RETURNDATACOPY RETURNDATASIZE PUSH1 0x0 REVERT JUMPDEST POP POP POP POP PUSH1 0x40 MLOAD RETURNDATASIZE PUSH1 0x1F NOT PUSH1 0x1F DUP3 ADD AND DUP3 ADD DUP1 PUSH1 0x40 MSTORE POP DUP2 ADD SWAP1 PUSH2 0x6E7B SWAP2 SWAP1 PUSH2 0x8CFC JUMP JUMPDEST SWAP1 POP PUSH2 0x6E86 DUP2 PUSH2 0x8246 JUMP JUMPDEST ISZERO PUSH2 0x6EBF JUMPI DUP1 DUP7 DUP7 DUP1 PUSH1 0x1 ADD SWAP8 POP DUP2 MLOAD DUP2 LT PUSH2 0x6E9E JUMPI INVALID JUMPDEST PUSH1 0x20 MUL PUSH1 0x20 ADD ADD SWAP1 PUSH1 0x1 PUSH1 0x1 PUSH1 0xA0 SHL SUB AND SWAP1 DUP2 PUSH1 0x1 PUSH1 0x1 PUSH1 0xA0 SHL SUB AND DUP2 MSTORE POP POP JUMPDEST POP PUSH1 0x1 ADD PUSH2 0x6DE0 JUMP JUMPDEST POP POP POP DUP1 PUSH2 0x6ED8 JUMPI POP POP POP PUSH2 0x4194 JUMP JUMPDEST DUP6 MLOAD DUP6 PUSH1 0x2 ADD EQ ISZERO PUSH2 0x6FCE JUMPI DUP1 PUSH1 0x1 PUSH1 0x1 PUSH1 0x40 SHL SUB DUP2 GT DUP1 ISZERO PUSH2 0x6EFA JUMPI PUSH1 0x0 DUP1 REVERT JUMPDEST POP PUSH1 0x40 MLOAD SWAP1 DUP1 DUP3 MSTORE DUP1 PUSH1 0x20 MUL PUSH1 0x20 ADD DUP3 ADD PUSH1 0x40 MSTORE DUP1 ISZERO PUSH2 0x6F2E JUMPI DUP2 PUSH1 0x20 ADD JUMPDEST PUSH1 0x60 DUP2 MSTORE PUSH1 0x20 ADD SWAP1 PUSH1 0x1 SWAP1 SUB SWAP1 DUP2 PUSH2 0x6F19 JUMPI SWAP1 POP JUMPDEST POP SWAP4 POP PUSH1 0x0 JUMPDEST DUP2 DUP2 LT ISZERO PUSH2 0x6FC5 JUMPI PUSH1 0x40 DUP1 MLOAD PUSH1 0x1 DUP1 DUP3 MSTORE DUP2 DUP4 ADD SWAP1 SWAP3 MSTORE SWAP1 PUSH1 0x20 DUP1 DUP4 ADD SWAP1 DUP1 CALLDATASIZE DUP4 CALLDATACOPY ADD SWAP1 POP POP DUP6 DUP3 DUP2 MLOAD DUP2 LT PUSH2 0x6F66 JUMPI INVALID JUMPDEST PUSH1 0x20 MUL PUSH1 0x20 ADD ADD DUP2 SWAP1 MSTORE POP DUP3 DUP2 DUP2 MLOAD DUP2 LT PUSH2 0x6F7D JUMPI INVALID JUMPDEST PUSH1 0x20 MUL PUSH1 0x20 ADD ADD MLOAD DUP6 DUP3 DUP2 MLOAD DUP2 LT PUSH2 0x6F91 JUMPI INVALID JUMPDEST PUSH1 0x20 MUL PUSH1 0x20 ADD ADD MLOAD PUSH1 0x0 DUP2 MLOAD DUP2 LT PUSH2 0x6FA5 JUMPI INVALID JUMPDEST PUSH1 0x1 PUSH1 0x1 PUSH1 0xA0 SHL SUB SWAP1 SWAP3 AND PUSH1 0x20 SWAP3 DUP4 MUL SWAP2 SWAP1 SWAP2 ADD SWAP1 SWAP2 ADD MSTORE PUSH1 0x1 ADD PUSH2 0x6F34 JUMP JUMPDEST POP POP POP POP PUSH2 0x4194 JUMP JUMPDEST PUSH1 0x60 PUSH2 0x6FDE DUP9 DUP9 DUP9 PUSH1 0x1 ADD PUSH2 0x6D36 JUMP JUMPDEST SWAP1 POP DUP1 MLOAD PUSH1 0x0 EQ ISZERO PUSH2 0x6FF3 JUMPI POP POP POP POP PUSH2 0x4194 JUMP JUMPDEST DUP1 MLOAD DUP3 MUL PUSH1 0x1 PUSH1 0x1 PUSH1 0x40 SHL SUB DUP2 GT DUP1 ISZERO PUSH2 0x700C JUMPI PUSH1 0x0 DUP1 REVERT JUMPDEST POP PUSH1 0x40 MLOAD SWAP1 DUP1 DUP3 MSTORE DUP1 PUSH1 0x20 MUL PUSH1 0x20 ADD DUP3 ADD PUSH1 0x40 MSTORE DUP1 ISZERO PUSH2 0x7040 JUMPI DUP2 PUSH1 0x20 ADD JUMPDEST PUSH1 0x60 DUP2 MSTORE PUSH1 0x20 ADD SWAP1 PUSH1 0x1 SWAP1 SUB SWAP1 DUP2 PUSH2 0x702B JUMPI SWAP1 POP JUMPDEST POP SWAP5 POP PUSH1 0x0 JUMPDEST DUP3 DUP2 LT ISZERO PUSH2 0x71C0 JUMPI PUSH1 0x0 JUMPDEST DUP3 MLOAD DUP2 LT ISZERO PUSH2 0x71B7 JUMPI DUP3 MLOAD DUP3 DUP2 MUL DUP3 ADD SWAP1 DUP5 SWAP1 DUP4 SWAP1 DUP2 LT PUSH2 0x706E JUMPI INVALID JUMPDEST PUSH1 0x20 MUL PUSH1 0x20 ADD ADD MLOAD MLOAD PUSH1 0x1 ADD PUSH1 0x1 PUSH1 0x1 PUSH1 0x40 SHL SUB DUP2 GT DUP1 ISZERO PUSH2 0x708F JUMPI PUSH1 0x0 DUP1 REVERT JUMPDEST POP PUSH1 0x40 MLOAD SWAP1 DUP1 DUP3 MSTORE DUP1 PUSH1 0x20 MUL PUSH1 0x20 ADD DUP3 ADD PUSH1 0x40 MSTORE DUP1 ISZERO PUSH2 0x70B9 JUMPI DUP2 PUSH1 0x20 ADD PUSH1 0x20 DUP3 MUL DUP1 CALLDATASIZE DUP4 CALLDATACOPY ADD SWAP1 POP JUMPDEST POP DUP9 DUP3 DUP2 MLOAD DUP2 LT PUSH2 0x70C6 JUMPI INVALID JUMPDEST PUSH1 0x20 MUL PUSH1 0x20 ADD ADD DUP2 SWAP1 MSTORE POP DUP6 DUP4 DUP2 MLOAD DUP2 LT PUSH2 0x70DD JUMPI INVALID JUMPDEST PUSH1 0x20 MUL PUSH1 0x20 ADD ADD MLOAD DUP9 DUP3 DUP2 MLOAD DUP2 LT PUSH2 0x70F1 JUMPI INVALID JUMPDEST PUSH1 0x20 MUL PUSH1 0x20 ADD ADD MLOAD PUSH1 0x0 DUP2 MLOAD DUP2 LT PUSH2 0x7105 JUMPI INVALID JUMPDEST PUSH1 0x20 MUL PUSH1 0x20 ADD ADD SWAP1 PUSH1 0x1 PUSH1 0x1 PUSH1 0xA0 SHL SUB AND SWAP1 DUP2 PUSH1 0x1 PUSH1 0x1 PUSH1 0xA0 SHL SUB AND DUP2 MSTORE POP POP PUSH1 0x0 JUMPDEST DUP5 DUP4 DUP2 MLOAD DUP2 LT PUSH2 0x7134 JUMPI INVALID JUMPDEST PUSH1 0x20 MUL PUSH1 0x20 ADD ADD MLOAD MLOAD DUP2 LT ISZERO PUSH2 0x71AD JUMPI DUP5 DUP4 DUP2 MLOAD DUP2 LT PUSH2 0x7150 JUMPI INVALID JUMPDEST PUSH1 0x20 MUL PUSH1 0x20 ADD ADD MLOAD DUP2 DUP2 MLOAD DUP2 LT PUSH2 0x7163 JUMPI INVALID JUMPDEST PUSH1 0x20 MUL PUSH1 0x20 ADD ADD MLOAD DUP10 DUP4 DUP2 MLOAD DUP2 LT PUSH2 0x7177 JUMPI INVALID JUMPDEST PUSH1 0x20 MUL PUSH1 0x20 ADD ADD MLOAD DUP3 PUSH1 0x1 ADD DUP2 MLOAD DUP2 LT PUSH2 0x718D JUMPI INVALID JUMPDEST PUSH1 0x1 PUSH1 0x1 PUSH1 0xA0 SHL SUB SWAP1 SWAP3 AND PUSH1 0x20 SWAP3 DUP4 MUL SWAP2 SWAP1 SWAP2 ADD SWAP1 SWAP2 ADD MSTORE PUSH1 0x1 ADD PUSH2 0x7128 JUMP JUMPDEST POP POP PUSH1 0x1 ADD PUSH2 0x7051 JUMP JUMPDEST POP PUSH1 0x1 ADD PUSH2 0x7046 JUMP JUMPDEST POP POP POP POP POP SWAP4 SWAP3 POP POP POP JUMP JUMPDEST PUSH1 0x60 PUSH1 0x2 DUP4 MLOAD LT ISZERO DUP1 ISZERO PUSH2 0x71E4 JUMPI POP DUP2 MLOAD PUSH1 0x1 ADD DUP4 MLOAD EQ JUMPDEST PUSH2 0x7200 JUMPI PUSH1 0x40 MLOAD PUSH3 0x461BCD PUSH1 0xE5 SHL DUP2 MSTORE PUSH1 0x4 ADD PUSH2 0x607A SWAP1 PUSH2 0xA523 JUMP JUMPDEST DUP2 MLOAD PUSH1 0x3 MUL DUP4 MLOAD PUSH1 0x14 MUL ADD PUSH1 0x1 PUSH1 0x1 PUSH1 0x40 SHL SUB DUP2 GT DUP1 ISZERO PUSH2 0x7220 JUMPI PUSH1 0x0 DUP1 REVERT JUMPDEST POP PUSH1 0x40 MLOAD SWAP1 DUP1 DUP3 MSTORE DUP1 PUSH1 0x1F ADD PUSH1 0x1F NOT AND PUSH1 0x20 ADD DUP3 ADD PUSH1 0x40 MSTORE DUP1 ISZERO PUSH2 0x724B JUMPI PUSH1 0x20 DUP3 ADD DUP2 DUP1 CALLDATASIZE DUP4 CALLDATACOPY ADD SWAP1 POP JUMPDEST POP SWAP1 POP PUSH1 0x20 DUP2 ADD PUSH1 0x0 JUMPDEST DUP5 MLOAD DUP2 LT ISZERO PUSH2 0x6178 JUMPI DUP1 ISZERO PUSH2 0x72FA JUMPI PUSH1 0x0 DUP5 PUSH1 0x1 DUP4 SUB DUP2 MLOAD DUP2 LT PUSH2 0x7275 JUMPI INVALID JUMPDEST PUSH1 0x20 MUL PUSH1 0x20 ADD ADD MLOAD PUSH1 0x1 PUSH1 0x1 PUSH1 0xA0 SHL SUB AND PUSH4 0xDDCA3F43 PUSH1 0x40 MLOAD DUP2 PUSH4 0xFFFFFFFF AND PUSH1 0xE0 SHL DUP2 MSTORE PUSH1 0x4 ADD PUSH1 0x20 PUSH1 0x40 MLOAD DUP1 DUP4 SUB DUP2 DUP7 DUP1 EXTCODESIZE ISZERO DUP1 ISZERO PUSH2 0x72B5 JUMPI PUSH1 0x0 DUP1 REVERT JUMPDEST POP GAS STATICCALL ISZERO DUP1 ISZERO PUSH2 0x72C9 JUMPI RETURNDATASIZE PUSH1 0x0 DUP1 RETURNDATACOPY RETURNDATASIZE PUSH1 0x0 REVERT JUMPDEST POP POP POP POP PUSH1 0x40 MLOAD RETURNDATASIZE PUSH1 0x1F NOT PUSH1 0x1F DUP3 ADD AND DUP3 ADD DUP1 PUSH1 0x40 MSTORE POP DUP2 ADD SWAP1 PUSH2 0x72ED SWAP2 SWAP1 PUSH2 0x9B25 JUMP JUMPDEST PUSH1 0xE8 SHL DUP4 MSTORE POP PUSH1 0x3 SWAP1 SWAP2 ADD SWAP1 JUMPDEST PUSH1 0x0 DUP6 DUP3 DUP2 MLOAD DUP2 LT PUSH2 0x7308 JUMPI INVALID JUMPDEST PUSH1 0x20 SWAP1 DUP2 MUL SWAP2 SWAP1 SWAP2 ADD ADD MLOAD PUSH1 0x60 SHL DUP4 MSTORE POP PUSH1 0x14 SWAP1 SWAP2 ADD SWAP1 PUSH1 0x1 ADD PUSH2 0x7255 JUMP JUMPDEST PUSH1 0x0 DUP3 DUP3 MUL DUP4 ISZERO DUP1 ISZERO SWAP1 PUSH2 0x7344 JUMPI POP DUP3 DUP5 DUP3 DUP2 PUSH2 0x7340 JUMPI INVALID JUMPDEST DIV EQ ISZERO JUMPDEST ISZERO PUSH2 0x7353 JUMPI PUSH1 0x0 SWAP2 POP POP PUSH2 0x617B JUMP JUMPDEST PUSH8 0x6F05B59D3B20000 DUP2 ADD DUP2 DUP2 LT ISZERO PUSH2 0x7371 JUMPI PUSH1 0x0 SWAP3 POP POP POP PUSH2 0x617B JUMP JUMPDEST PUSH8 0xDE0B6B3A7640000 SWAP1 DIV SWAP5 SWAP4 POP POP POP POP JUMP JUMPDEST PUSH1 0x60 DUP2 MLOAD PUSH1 0x1 PUSH1 0x1 PUSH1 0x40 SHL SUB DUP2 GT DUP1 ISZERO PUSH2 0x739D JUMPI PUSH1 0x0 DUP1 REVERT JUMPDEST POP PUSH1 0x40 MLOAD SWAP1 DUP1 DUP3 MSTORE DUP1 PUSH1 0x20 MUL PUSH1 0x20 ADD DUP3 ADD PUSH1 0x40 MSTORE DUP1 ISZERO PUSH2 0x73C7 JUMPI DUP2 PUSH1 0x20 ADD PUSH1 0x20 DUP3 MUL DUP1 CALLDATASIZE DUP4 CALLDATACOPY ADD SWAP1 POP JUMPDEST POP SWAP1 POP PUSH1 0x0 JUMPDEST DUP3 MLOAD DUP2 LT ISZERO PUSH2 0x313D JUMPI DUP3 PUSH1 0x1 DUP3 DUP6 MLOAD SUB SUB DUP2 MLOAD DUP2 LT PUSH2 0x73E8 JUMPI INVALID JUMPDEST PUSH1 0x20 MUL PUSH1 0x20 ADD ADD MLOAD DUP3 DUP3 DUP2 MLOAD DUP2 LT PUSH2 0x73FC JUMPI INVALID JUMPDEST PUSH1 0x1 PUSH1 0x1 PUSH1 0xA0 SHL SUB SWAP1 SWAP3 AND PUSH1 0x20 SWAP3 DUP4 MUL SWAP2 SWAP1 SWAP2 ADD SWAP1 SWAP2 ADD MSTORE PUSH1 0x1 ADD PUSH2 0x73CD JUMP JUMPDEST PUSH1 0x60 DUP2 MLOAD PUSH1 0x1 PUSH1 0x1 PUSH1 0x40 SHL SUB DUP2 GT DUP1 ISZERO PUSH2 0x7435 JUMPI PUSH1 0x0 DUP1 REVERT JUMPDEST POP PUSH1 0x40 MLOAD SWAP1 DUP1 DUP3 MSTORE DUP1 PUSH1 0x20 MUL PUSH1 0x20 ADD DUP3 ADD PUSH1 0x40 MSTORE DUP1 ISZERO PUSH2 0x745F JUMPI DUP2 PUSH1 0x20 ADD PUSH1 0x20 DUP3 MUL DUP1 CALLDATASIZE DUP4 CALLDATACOPY ADD SWAP1 POP JUMPDEST POP SWAP1 POP PUSH1 0x0 JUMPDEST DUP3 MLOAD DUP2 LT ISZERO PUSH2 0x313D JUMPI DUP3 PUSH1 0x1 DUP3 DUP6 MLOAD SUB SUB DUP2 MLOAD DUP2 LT PUSH2 0x7480 JUMPI INVALID JUMPDEST PUSH1 0x20 MUL PUSH1 0x20 ADD ADD MLOAD DUP3 DUP3 DUP2 MLOAD DUP2 LT PUSH2 0x7494 JUMPI INVALID JUMPDEST PUSH1 0x1 PUSH1 0x1 PUSH1 0xA0 SHL SUB SWAP1 SWAP3 AND PUSH1 0x20 SWAP3 DUP4 MUL SWAP2 SWAP1 SWAP2 ADD SWAP1 SWAP2 ADD MSTORE PUSH1 0x1 ADD PUSH2 0x7465 JUMP JUMPDEST PUSH1 0x0 DUP1 PUSH1 0x0 DUP6 DUP1 PUSH1 0x20 ADD SWAP1 MLOAD DUP2 ADD SWAP1 PUSH2 0x74CD SWAP2 SWAP1 PUSH2 0x8D18 JUMP JUMPDEST SWAP2 POP SWAP2 POP PUSH1 0x0 DUP6 DUP1 PUSH1 0x20 ADD SWAP1 MLOAD DUP2 ADD SWAP1 PUSH2 0x74E7 SWAP2 SWAP1 PUSH2 0x8CFC JUMP JUMPDEST SWAP1 POP ADDRESS PUSH4 0xE8E4AF09 DUP4 DUP6 DUP5 PUSH2 0x74FB DUP11 PUSH2 0x81AD JUMP JUMPDEST PUSH1 0x40 MLOAD DUP6 PUSH4 0xFFFFFFFF AND PUSH1 0xE0 SHL DUP2 MSTORE PUSH1 0x4 ADD PUSH2 0x751A SWAP5 SWAP4 SWAP3 SWAP2 SWAP1 PUSH2 0x9F52 JUMP JUMPDEST PUSH1 0x0 PUSH1 0x40 MLOAD DUP1 DUP4 SUB DUP2 DUP7 DUP1 EXTCODESIZE ISZERO DUP1 ISZERO PUSH2 0x7532 JUMPI PUSH1 0x0 DUP1 REVERT JUMPDEST POP GAS STATICCALL SWAP3 POP POP POP DUP1 ISZERO PUSH2 0x7567 JUMPI POP PUSH1 0x40 MLOAD RETURNDATASIZE PUSH1 0x0 DUP3 RETURNDATACOPY PUSH1 0x1F RETURNDATASIZE SWAP1 DUP2 ADD PUSH1 0x1F NOT AND DUP3 ADD PUSH1 0x40 MSTORE PUSH2 0x7564 SWAP2 SWAP1 DUP2 ADD SWAP1 PUSH2 0x9508 JUMP JUMPDEST PUSH1 0x1 JUMPDEST PUSH2 0x75A8 JUMPI RETURNDATASIZE DUP1 DUP1 ISZERO PUSH2 0x7595 JUMPI PUSH1 0x40 MLOAD SWAP2 POP PUSH1 0x1F NOT PUSH1 0x3F RETURNDATASIZE ADD AND DUP3 ADD PUSH1 0x40 MSTORE RETURNDATASIZE DUP3 MSTORE RETURNDATASIZE PUSH1 0x0 PUSH1 0x20 DUP5 ADD RETURNDATACOPY PUSH2 0x759A JUMP JUMPDEST PUSH1 0x60 SWAP2 POP JUMPDEST POP PUSH1 0x0 SWAP5 POP POP POP POP POP PUSH2 0x4194 JUMP JUMPDEST DUP1 PUSH1 0x0 DUP2 MLOAD DUP2 LT PUSH2 0x75B5 JUMPI INVALID JUMPDEST PUSH1 0x20 MUL PUSH1 0x20 ADD ADD MLOAD SWAP5 POP POP POP POP POP PUSH2 0x4194 JUMP JUMPDEST PUSH1 0x0 PUSH2 0x144E DUP4 PUSH2 0x6796 PUSH2 0x75DC DUP3 PUSH1 0x1 PUSH2 0x818E JUMP JUMPDEST PUSH2 0x75E6 DUP9 DUP8 PUSH2 0x8112 JUMP JUMPDEST SWAP1 PUSH2 0x8148 JUMP JUMPDEST PUSH1 0x0 PUSH1 0x12 SWAP1 POP PUSH1 0x0 PUSH1 0x60 DUP4 PUSH1 0x1 PUSH1 0x1 PUSH1 0xA0 SHL SUB AND PUSH1 0x40 MLOAD DUP1 PUSH1 0x40 ADD PUSH1 0x40 MSTORE DUP1 PUSH1 0x4 DUP2 MSTORE PUSH1 0x20 ADD PUSH4 0x313CE567 PUSH1 0xE0 SHL DUP2 MSTORE POP PUSH1 0x40 MLOAD PUSH2 0x762A SWAP2 SWAP1 PUSH2 0x9EC4 JUMP JUMPDEST PUSH1 0x0 PUSH1 0x40 MLOAD DUP1 DUP4 SUB DUP2 DUP6 GAS STATICCALL SWAP2 POP POP RETURNDATASIZE DUP1 PUSH1 0x0 DUP2 EQ PUSH2 0x7665 JUMPI PUSH1 0x40 MLOAD SWAP2 POP PUSH1 0x1F NOT PUSH1 0x3F RETURNDATASIZE ADD AND DUP3 ADD PUSH1 0x40 MSTORE RETURNDATASIZE DUP3 MSTORE RETURNDATASIZE PUSH1 0x0 PUSH1 0x20 DUP5 ADD RETURNDATACOPY PUSH2 0x766A JUMP JUMPDEST PUSH1 0x60 SWAP2 POP JUMPDEST POP SWAP2 POP SWAP2 POP DUP2 DUP1 ISZERO PUSH2 0x767E JUMPI POP PUSH1 0x20 DUP2 MLOAD LT ISZERO JUMPDEST ISZERO PUSH2 0x97A JUMPI PUSH2 0x144E DUP2 PUSH1 0x0 PUSH2 0x7930 JUMP JUMPDEST PUSH1 0x0 DUP1 PUSH1 0x0 DUP1 DUP5 PUSH1 0x1 PUSH1 0x1 PUSH1 0xA0 SHL SUB AND PUSH4 0xD9638D36 DUP12 PUSH1 0x20 ADD MLOAD PUSH1 0x40 MLOAD DUP3 PUSH4 0xFFFFFFFF AND PUSH1 0xE0 SHL DUP2 MSTORE PUSH1 0x4 ADD PUSH2 0x76C4 SWAP2 SWAP1 PUSH2 0xA313 JUMP JUMPDEST PUSH1 0xA0 PUSH1 0x40 MLOAD DUP1 DUP4 SUB DUP2 DUP7 DUP1 EXTCODESIZE ISZERO DUP1 ISZERO PUSH2 0x76DC JUMPI PUSH1 0x0 DUP1 REVERT JUMPDEST POP GAS STATICCALL ISZERO DUP1 ISZERO PUSH2 0x76F0 JUMPI RETURNDATASIZE PUSH1 0x0 DUP1 RETURNDATACOPY RETURNDATASIZE PUSH1 0x0 REVERT JUMPDEST POP POP POP POP PUSH1 0x40 MLOAD RETURNDATASIZE PUSH1 0x1F NOT PUSH1 0x1F DUP3 ADD AND DUP3 ADD DUP1 PUSH1 0x40 MSTORE POP DUP2 ADD SWAP1 PUSH2 0x7714 SWAP2 SWAP1 PUSH2 0x9BA0 JUMP JUMPDEST SWAP5 POP SWAP5 POP POP POP SWAP3 POP DUP10 PUSH1 0x40 ADD MLOAD PUSH1 0x1 PUSH1 0x1 PUSH1 0xA0 SHL SUB AND DUP9 PUSH1 0x1 PUSH1 0x1 PUSH1 0xA0 SHL SUB AND EQ ISZERO PUSH2 0x782B JUMPI PUSH1 0x0 DUP8 SWAP1 POP PUSH1 0x0 PUSH2 0x77C4 DUP9 PUSH1 0x1 PUSH1 0x1 PUSH1 0xA0 SHL SUB AND PUSH4 0x568D4B6F PUSH1 0x40 MLOAD DUP2 PUSH4 0xFFFFFFFF AND PUSH1 0xE0 SHL DUP2 MSTORE PUSH1 0x4 ADD PUSH1 0x20 PUSH1 0x40 MLOAD DUP1 DUP4 SUB DUP2 DUP7 DUP1 EXTCODESIZE ISZERO DUP1 ISZERO PUSH2 0x777D JUMPI PUSH1 0x0 DUP1 REVERT JUMPDEST POP GAS STATICCALL ISZERO DUP1 ISZERO PUSH2 0x7791 JUMPI RETURNDATASIZE PUSH1 0x0 DUP1 RETURNDATACOPY RETURNDATASIZE PUSH1 0x0 REVERT JUMPDEST POP POP POP POP PUSH1 0x40 MLOAD RETURNDATASIZE PUSH1 0x1F NOT PUSH1 0x1F DUP3 ADD AND DUP3 ADD DUP1 PUSH1 0x40 MSTORE POP DUP2 ADD SWAP1 PUSH2 0x77B5 SWAP2 SWAP1 PUSH2 0x9556 JUMP JUMPDEST PUSH8 0xDE0B6B3A7640000 SWAP1 PUSH2 0x818E JUMP JUMPDEST SWAP1 POP PUSH1 0x0 PUSH2 0x77DE DUP3 PUSH2 0x6796 DUP6 PUSH8 0xDE0B6B3A7640000 PUSH2 0x8112 JUMP JUMPDEST SWAP1 POP PUSH1 0x0 PUSH2 0x77FC PUSH12 0x33B2E3C9FD0803CE8000000 PUSH2 0x66EF DUP10 DUP6 PUSH2 0x8148 JUMP JUMPDEST SWAP1 POP DUP6 DUP2 LT PUSH2 0x7815 JUMPI PUSH1 0x0 SWAP8 POP POP POP POP POP POP POP POP PUSH2 0x68C3 JUMP JUMPDEST PUSH1 0x0 PUSH2 0x67AA PUSH1 0x1 PUSH2 0x75E6 DUP6 PUSH5 0xE8D4A51000 PUSH2 0x8164 JUMP JUMPDEST DUP10 PUSH1 0x40 ADD MLOAD PUSH1 0x1 PUSH1 0x1 PUSH1 0xA0 SHL SUB AND DUP10 PUSH1 0x1 PUSH1 0x1 PUSH1 0xA0 SHL SUB AND EQ ISZERO PUSH2 0x7910 JUMPI PUSH1 0x0 PUSH2 0x785A DUP9 PUSH5 0xE8D4A51000 PUSH2 0x8112 JUMP JUMPDEST SWAP1 POP PUSH1 0x0 PUSH2 0x789A DUP9 PUSH1 0x1 PUSH1 0x1 PUSH1 0xA0 SHL SUB AND PUSH4 0xFAE036D5 PUSH1 0x40 MLOAD DUP2 PUSH4 0xFFFFFFFF AND PUSH1 0xE0 SHL DUP2 MSTORE PUSH1 0x4 ADD PUSH1 0x20 PUSH1 0x40 MLOAD DUP1 DUP4 SUB DUP2 DUP7 DUP1 EXTCODESIZE ISZERO DUP1 ISZERO PUSH2 0x6861 JUMPI PUSH1 0x0 DUP1 REVERT JUMPDEST SWAP1 POP PUSH1 0x0 PUSH2 0x78B4 PUSH8 0xDE0B6B3A7640000 PUSH2 0x6796 DUP6 DUP6 PUSH2 0x8112 JUMP JUMPDEST SWAP1 POP DUP6 DUP2 GT ISZERO PUSH2 0x78CD JUMPI PUSH1 0x0 SWAP7 POP POP POP POP POP POP POP PUSH2 0x68C3 JUMP JUMPDEST PUSH1 0x0 PUSH2 0x78E9 PUSH12 0x33B2E3C9FD0803CE8000000 PUSH2 0x66EF DUP10 DUP6 PUSH2 0x818E JUMP JUMPDEST SWAP1 POP DUP5 DUP2 GT PUSH2 0x7902 JUMPI PUSH1 0x0 SWAP8 POP POP POP POP POP POP POP POP PUSH2 0x68C3 JUMP JUMPDEST POP SWAP6 POP PUSH2 0x68C3 SWAP5 POP POP POP POP POP JUMP JUMPDEST POP PUSH1 0x0 SWAP10 SWAP9 POP POP POP POP POP POP POP POP POP JUMP JUMPDEST PUSH2 0x792B DUP4 DUP4 DUP4 PUSH2 0x8452 JUMP JUMPDEST POP POP POP JUMP JUMPDEST PUSH1 0x0 PUSH2 0x4194 DUP4 DUP4 PUSH2 0x8479 JUMP JUMPDEST PUSH1 0x0 DUP1 PUSH2 0x7947 PUSH2 0x8600 JUMP JUMPDEST DUP6 DUP1 PUSH1 0x20 ADD SWAP1 MLOAD DUP2 ADD SWAP1 PUSH2 0x795B SWAP2 SWAP1 PUSH2 0x9602 JUMP JUMPDEST SWAP2 POP SWAP2 POP PUSH1 0x0 DUP6 DUP1 PUSH1 0x20 ADD SWAP1 MLOAD DUP2 ADD SWAP1 PUSH2 0x7975 SWAP2 SWAP1 PUSH2 0x95E6 JUMP JUMPDEST SWAP1 POP PUSH1 0x0 PUSH1 0x60 ADDRESS PUSH4 0x205E01D7 PUSH1 0xE1 SHL DUP6 DUP8 DUP7 PUSH2 0x6921 DUP13 PUSH2 0x81AD JUMP JUMPDEST PUSH1 0x0 DUP1 DUP5 PUSH1 0x20 ADD MLOAD SWAP1 POP PUSH1 0x60 DUP2 PUSH1 0x1 PUSH1 0x1 PUSH1 0xA0 SHL SUB AND PUSH4 0x910FFC71 DUP8 PUSH1 0x60 ADD MLOAD PUSH1 0x1 PUSH1 0x1 PUSH1 0xA0 SHL SUB AND DUP8 PUSH1 0x1 PUSH1 0x1 PUSH1 0xA0 SHL SUB AND EQ PUSH2 0x79CE JUMPI DUP7 PUSH2 0x79E4 JUMP JUMPDEST PUSH20 0xEEEEEEEEEEEEEEEEEEEEEEEEEEEEEEEEEEEEEEEE JUMPDEST DUP9 PUSH1 0x60 ADD MLOAD PUSH1 0x1 PUSH1 0x1 PUSH1 0xA0 SHL SUB AND DUP8 PUSH1 0x1 PUSH1 0x1 PUSH1 0xA0 SHL SUB AND EQ PUSH2 0x7A07 JUMPI DUP7 PUSH2 0x7A1D JUMP JUMPDEST PUSH20 0xEEEEEEEEEEEEEEEEEEEEEEEEEEEEEEEEEEEEEEEE JUMPDEST PUSH1 0x40 DUP1 MLOAD PUSH1 0x0 DUP2 MSTORE PUSH1 0x20 DUP2 ADD SWAP2 DUP3 SWAP1 MSTORE PUSH1 0x1 PUSH1 0x1 PUSH1 0xE0 SHL SUB NOT PUSH1 0xE0 DUP7 SWAP1 SHL AND SWAP1 SWAP2 MSTORE PUSH2 0x7A51 SWAP3 SWAP2 SWAP1 PUSH1 0x1 SWAP1 PUSH1 0x24 DUP2 ADD PUSH2 0x9FD4 JUMP JUMPDEST PUSH1 0x0 PUSH1 0x40 MLOAD DUP1 DUP4 SUB DUP2 DUP7 DUP1 EXTCODESIZE ISZERO DUP1 ISZERO PUSH2 0x7A69 JUMPI PUSH1 0x0 DUP1 REVERT JUMPDEST POP GAS STATICCALL ISZERO DUP1 ISZERO PUSH2 0x7A7D JUMPI RETURNDATASIZE PUSH1 0x0 DUP1 RETURNDATACOPY RETURNDATASIZE PUSH1 0x0 REVERT JUMPDEST POP POP POP POP PUSH1 0x40 MLOAD RETURNDATASIZE PUSH1 0x0 DUP3 RETURNDATACOPY PUSH1 0x1F RETURNDATASIZE SWAP1 DUP2 ADD PUSH1 0x1F NOT AND DUP3 ADD PUSH1 0x40 MSTORE PUSH2 0x7AA5 SWAP2 SWAP1 DUP2 ADD SWAP1 PUSH2 0x9149 JUMP JUMPDEST POP POP SWAP1 POP DUP1 MLOAD DUP7 PUSH1 0x0 ADD MLOAD LT PUSH2 0x7AC1 JUMPI POP PUSH1 0x0 SWAP2 POP PUSH2 0x4194 SWAP1 POP JUMP JUMPDEST DUP1 DUP7 PUSH1 0x0 ADD MLOAD DUP2 MLOAD DUP2 LT PUSH2 0x7AD1 JUMPI INVALID JUMPDEST PUSH1 0x20 MUL PUSH1 0x20 ADD ADD MLOAD SWAP3 POP PUSH1 0xF8 DUP4 SWAP1 SHR PUSH1 0x0 SHR PUSH1 0xBB EQ ISZERO PUSH2 0x1C1A JUMPI POP PUSH1 0x0 SWAP2 POP PUSH2 0x4194 SWAP1 POP JUMP JUMPDEST PUSH1 0x0 DUP1 PUSH2 0x7B02 PUSH2 0x863E JUMP JUMPDEST DUP5 DUP1 PUSH1 0x20 ADD SWAP1 MLOAD DUP2 ADD SWAP1 PUSH2 0x7B16 SWAP2 SWAP1 PUSH2 0x8DFF JUMP JUMPDEST SWAP2 POP SWAP2 POP PUSH1 0x0 DUP7 DUP1 PUSH1 0x20 ADD SWAP1 MLOAD DUP2 ADD SWAP1 PUSH2 0x7B30 SWAP2 SWAP1 PUSH2 0x8DFF JUMP JUMPDEST POP PUSH1 0x40 MLOAD PUSH4 0x3C7B5FE9 PUSH1 0xE2 SHL DUP2 MSTORE SWAP1 SWAP2 POP ADDRESS SWAP1 PUSH4 0xF1ED7FA4 SWAP1 PUSH2 0x7B5D SWAP1 DUP6 SWAP1 DUP6 SWAP1 DUP9 SWAP1 DUP12 SWAP1 PUSH1 0x4 ADD PUSH2 0xA607 JUMP JUMPDEST PUSH1 0x20 PUSH1 0x40 MLOAD DUP1 DUP4 SUB DUP2 DUP7 DUP1 EXTCODESIZE ISZERO DUP1 ISZERO PUSH2 0x7B75 JUMPI PUSH1 0x0 DUP1 REVERT JUMPDEST POP GAS STATICCALL SWAP3 POP POP POP DUP1 ISZERO PUSH2 0x7BA5 JUMPI POP PUSH1 0x40 DUP1 MLOAD PUSH1 0x1F RETURNDATASIZE SWAP1 DUP2 ADD PUSH1 0x1F NOT AND DUP3 ADD SWAP1 SWAP3 MSTORE PUSH2 0x7BA2 SWAP2 DUP2 ADD SWAP1 PUSH2 0x9556 JUMP JUMPDEST PUSH1 0x1 JUMPDEST PUSH2 0x7BD3 JUMPI RETURNDATASIZE DUP1 DUP1 ISZERO PUSH2 0x7595 JUMPI PUSH1 0x40 MLOAD SWAP2 POP PUSH1 0x1F NOT PUSH1 0x3F RETURNDATASIZE ADD AND DUP3 ADD PUSH1 0x40 MSTORE RETURNDATASIZE DUP3 MSTORE RETURNDATASIZE PUSH1 0x0 PUSH1 0x20 DUP5 ADD RETURNDATACOPY PUSH2 0x759A JUMP JUMPDEST SWAP4 POP PUSH2 0x4194 SWAP3 POP POP POP JUMP JUMPDEST PUSH1 0x0 DUP1 PUSH1 0x60 DUP7 PUSH1 0x1 PUSH1 0x1 PUSH1 0xA0 SHL SUB AND PUSH4 0x57A281DC DUP7 DUP7 PUSH1 0x40 MLOAD DUP4 PUSH4 0xFFFFFFFF AND PUSH1 0xE0 SHL DUP2 MSTORE PUSH1 0x4 ADD PUSH2 0x7C11 SWAP3 SWAP2 SWAP1 PUSH2 0x9F0D JUMP JUMPDEST PUSH1 0x0 PUSH1 0x40 MLOAD DUP1 DUP4 SUB DUP2 DUP7 DUP1 EXTCODESIZE ISZERO DUP1 ISZERO PUSH2 0x7C29 JUMPI PUSH1 0x0 DUP1 REVERT JUMPDEST POP GAS STATICCALL ISZERO DUP1 ISZERO PUSH2 0x7C3D JUMPI RETURNDATASIZE PUSH1 0x0 DUP1 RETURNDATACOPY RETURNDATASIZE PUSH1 0x0 REVERT JUMPDEST POP POP POP POP PUSH1 0x40 MLOAD RETURNDATASIZE PUSH1 0x0 DUP3 RETURNDATACOPY PUSH1 0x1F RETURNDATASIZE SWAP1 DUP2 ADD PUSH1 0x1F NOT AND DUP3 ADD PUSH1 0x40 MSTORE PUSH2 0x7C65 SWAP2 SWAP1 DUP2 ADD SWAP1 PUSH2 0x90B1 JUMP JUMPDEST SWAP1 POP PUSH1 0x1 SWAP2 POP DUP1 MLOAD PUSH1 0x0 EQ ISZERO PUSH2 0x7CFE JUMPI PUSH1 0x40 MLOAD PUSH4 0x15E8A077 PUSH1 0xE2 SHL DUP2 MSTORE PUSH1 0x1 PUSH1 0x1 PUSH1 0xA0 SHL SUB DUP9 AND SWAP1 PUSH4 0x57A281DC SWAP1 PUSH2 0x7CA3 SWAP1 DUP8 SWAP1 DUP10 SWAP1 PUSH1 0x4 ADD PUSH2 0x9F0D JUMP JUMPDEST PUSH1 0x0 PUSH1 0x40 MLOAD DUP1 DUP4 SUB DUP2 DUP7 DUP1 EXTCODESIZE ISZERO DUP1 ISZERO PUSH2 0x7CBB JUMPI PUSH1 0x0 DUP1 REVERT JUMPDEST POP GAS STATICCALL ISZERO DUP1 ISZERO PUSH2 0x7CCF JUMPI RETURNDATASIZE PUSH1 0x0 DUP1 RETURNDATACOPY RETURNDATASIZE PUSH1 0x0 REVERT JUMPDEST POP POP POP POP PUSH1 0x40 MLOAD RETURNDATASIZE PUSH1 0x0 DUP3 RETURNDATACOPY PUSH1 0x1F RETURNDATASIZE SWAP1 DUP2 ADD PUSH1 0x1F NOT AND DUP3 ADD PUSH1 0x40 MSTORE PUSH2 0x7CF7 SWAP2 SWAP1 DUP2 ADD SWAP1 PUSH2 0x90B1 JUMP JUMPDEST SWAP1 POP PUSH1 0x0 SWAP2 POP JUMPDEST DUP1 MLOAD DUP7 LT PUSH2 0x7D13 JUMPI PUSH1 0x0 DUP1 SWAP3 POP SWAP3 POP POP PUSH2 0x63AA JUMP JUMPDEST DUP1 DUP7 DUP2 MLOAD DUP2 LT PUSH2 0x7D1F JUMPI INVALID JUMPDEST PUSH1 0x20 MUL PUSH1 0x20 ADD ADD MLOAD SWAP3 POP POP SWAP5 POP SWAP5 SWAP3 POP POP POP JUMP JUMPDEST PUSH1 0x0 DUP1 PUSH1 0x0 DUP1 DUP7 DUP1 PUSH1 0x20 ADD SWAP1 MLOAD DUP2 ADD SWAP1 PUSH2 0x7D4D SWAP2 SWAP1 PUSH2 0x8DAF JUMP JUMPDEST SWAP3 POP SWAP3 POP SWAP3 POP DUP1 ISZERO PUSH2 0x7DF1 JUMPI PUSH1 0x40 MLOAD PUSH4 0x3CD0243B PUSH1 0xE1 SHL DUP2 MSTORE PUSH1 0x1 PUSH1 0x1 PUSH1 0xA0 SHL SUB DUP4 AND SWAP1 PUSH4 0x79A04876 SWAP1 PUSH3 0x493E0 SWAP1 PUSH2 0x7D8D SWAP1 PUSH1 0x0 SWAP1 DUP11 SWAP1 PUSH1 0x4 ADD PUSH2 0x9EF4 JUMP JUMPDEST PUSH1 0x40 DUP1 MLOAD DUP1 DUP4 SUB DUP2 DUP8 DUP1 EXTCODESIZE ISZERO DUP1 ISZERO PUSH2 0x7DA4 JUMPI PUSH1 0x0 DUP1 REVERT JUMPDEST POP DUP7 STATICCALL SWAP4 POP POP POP POP DUP1 ISZERO PUSH2 0x7DD5 JUMPI POP PUSH1 0x40 DUP1 MLOAD PUSH1 0x1F RETURNDATASIZE SWAP1 DUP2 ADD PUSH1 0x1F NOT AND DUP3 ADD SWAP1 SWAP3 MSTORE PUSH2 0x7DD2 SWAP2 DUP2 ADD SWAP1 PUSH2 0x9B48 JUMP JUMPDEST PUSH1 0x1 JUMPDEST PUSH2 0x7DE5 JUMPI PUSH1 0x0 SWAP4 POP POP POP POP PUSH2 0x4194 JUMP JUMPDEST POP SWAP4 POP PUSH2 0x4194 SWAP3 POP POP POP JUMP JUMPDEST PUSH1 0x40 MLOAD PUSH4 0x66410A21 PUSH1 0xE0 SHL DUP2 MSTORE PUSH1 0x1 PUSH1 0x1 PUSH1 0xA0 SHL SUB DUP4 AND SWAP1 PUSH4 0x66410A21 SWAP1 PUSH3 0x493E0 SWAP1 PUSH2 0x7D8D SWAP1 PUSH1 0x0 SWAP1 DUP11 SWAP1 PUSH1 0x4 ADD PUSH2 0x9EF4 JUMP JUMPDEST PUSH1 0x0 DUP1 PUSH1 0x0 DUP6 DUP1 PUSH1 0x20 ADD SWAP1 MLOAD DUP2 ADD SWAP1 PUSH2 0x7E3E SWAP2 SWAP1 PUSH2 0x8D18 JUMP JUMPDEST SWAP2 POP SWAP2 POP PUSH1 0x0 DUP6 DUP1 PUSH1 0x20 ADD SWAP1 MLOAD DUP2 ADD SWAP1 PUSH2 0x7E58 SWAP2 SWAP1 PUSH2 0x8CFC JUMP JUMPDEST SWAP1 POP ADDRESS PUSH4 0x30D6570D DUP4 DUP6 DUP5 PUSH2 0x74FB DUP11 PUSH2 0x81AD JUMP JUMPDEST PUSH1 0x0 DUP1 PUSH1 0x60 DUP5 PUSH1 0x1 PUSH1 0x1 PUSH1 0xA0 SHL SUB AND PUSH4 0x70A08231 PUSH1 0xE0 SHL DUP6 PUSH1 0x40 MLOAD PUSH1 0x24 ADD PUSH2 0x7E94 SWAP2 SWAP1 PUSH2 0x9EE0 JUMP JUMPDEST PUSH1 0x40 DUP1 MLOAD PUSH1 0x1F NOT DUP2 DUP5 SUB ADD DUP2 MSTORE SWAP2 DUP2 MSTORE PUSH1 0x20 DUP3 ADD DUP1 MLOAD PUSH1 0x1 PUSH1 0x1 PUSH1 0xE0 SHL SUB AND PUSH1 0x1 PUSH1 0x1 PUSH1 0xE0 SHL SUB NOT SWAP1 SWAP5 AND SWAP4 SWAP1 SWAP4 OR SWAP1 SWAP3 MSTORE SWAP1 MLOAD PUSH2 0x7ED2 SWAP2 SWAP1 PUSH2 0x9EC4 JUMP JUMPDEST PUSH1 0x0 PUSH1 0x40 MLOAD DUP1 DUP4 SUB DUP2 DUP6 GAS STATICCALL SWAP2 POP POP RETURNDATASIZE DUP1 PUSH1 0x0 DUP2 EQ PUSH2 0x7F0D JUMPI PUSH1 0x40 MLOAD SWAP2 POP PUSH1 0x1F NOT PUSH1 0x3F RETURNDATASIZE ADD AND DUP3 ADD PUSH1 0x40 MSTORE RETURNDATASIZE DUP3 MSTORE RETURNDATASIZE PUSH1 0x0 PUSH1 0x20 DUP5 ADD RETURNDATACOPY PUSH2 0x7F12 JUMP JUMPDEST PUSH1 0x60 SWAP2 POP JUMPDEST POP SWAP2 POP SWAP2 POP DUP2 DUP1 ISZERO PUSH2 0x7F26 JUMPI POP PUSH1 0x20 DUP2 MLOAD LT ISZERO JUMPDEST ISZERO PUSH2 0x6178 JUMPI PUSH2 0x14BC DUP2 PUSH1 0x0 PUSH2 0x7930 JUMP JUMPDEST PUSH1 0x0 DUP1 PUSH1 0x0 DUP6 DUP1 PUSH1 0x20 ADD SWAP1 MLOAD DUP2 ADD SWAP1 PUSH2 0x7F4F SWAP2 SWAP1 PUSH2 0x8D18 JUMP JUMPDEST SWAP2 POP SWAP2 POP PUSH1 0x0 DUP6 DUP1 PUSH1 0x20 ADD SWAP1 MLOAD DUP2 ADD SWAP1 PUSH2 0x7F69 SWAP2 SWAP1 PUSH2 0x8CFC JUMP JUMPDEST SWAP1 POP ADDRESS PUSH4 0xA4698417 PUSH3 0x61A80 DUP5 DUP7 DUP6 PUSH2 0x7F81 DUP12 PUSH2 0x81AD JUMP JUMPDEST PUSH1 0x40 MLOAD DUP7 PUSH4 0xFFFFFFFF AND PUSH1 0xE0 SHL DUP2 MSTORE PUSH1 0x4 ADD PUSH2 0x7FA0 SWAP5 SWAP4 SWAP3 SWAP2 SWAP1 PUSH2 0x9F52 JUMP JUMPDEST PUSH1 0x0 PUSH1 0x40 MLOAD DUP1 DUP4 SUB DUP2 DUP8 DUP1 EXTCODESIZE ISZERO DUP1 ISZERO PUSH2 0x7FB8 JUMPI PUSH1 0x0 DUP1 REVERT JUMPDEST POP DUP7 STATICCALL SWAP4 POP POP POP POP DUP1 ISZERO PUSH2 0x7567 JUMPI POP PUSH1 0x40 MLOAD RETURNDATASIZE PUSH1 0x0 DUP3 RETURNDATACOPY PUSH1 0x1F RETURNDATASIZE SWAP1 DUP2 ADD PUSH1 0x1F NOT AND DUP3 ADD PUSH1 0x40 MSTORE PUSH2 0x7564 SWAP2 SWAP1 DUP2 ADD SWAP1 PUSH2 0x9508 JUMP JUMPDEST PUSH1 0x0 DUP1 PUSH1 0x60 DUP6 PUSH1 0x1 PUSH1 0x1 PUSH1 0xA0 SHL SUB AND PUSH4 0xDD62ED3E PUSH1 0xE0 SHL DUP7 DUP7 PUSH1 0x40 MLOAD PUSH1 0x24 ADD PUSH2 0x8015 SWAP3 SWAP2 SWAP1 PUSH2 0x9F0D JUMP JUMPDEST PUSH1 0x40 DUP1 MLOAD PUSH1 0x1F NOT DUP2 DUP5 SUB ADD DUP2 MSTORE SWAP2 DUP2 MSTORE PUSH1 0x20 DUP3 ADD DUP1 MLOAD PUSH1 0x1 PUSH1 0x1 PUSH1 0xE0 SHL SUB AND PUSH1 0x1 PUSH1 0x1 PUSH1 0xE0 SHL SUB NOT SWAP1 SWAP5 AND SWAP4 SWAP1 SWAP4 OR SWAP1 SWAP3 MSTORE SWAP1 MLOAD PUSH2 0x8053 SWAP2 SWAP1 PUSH2 0x9EC4 JUMP JUMPDEST PUSH1 0x0 PUSH1 0x40 MLOAD DUP1 DUP4 SUB DUP2 DUP6 GAS STATICCALL SWAP2 POP POP RETURNDATASIZE DUP1 PUSH1 0x0 DUP2 EQ PUSH2 0x808E JUMPI PUSH1 0x40 MLOAD SWAP2 POP PUSH1 0x1F NOT PUSH1 0x3F RETURNDATASIZE ADD AND DUP3 ADD PUSH1 0x40 MSTORE RETURNDATASIZE DUP3 MSTORE RETURNDATASIZE PUSH1 0x0 PUSH1 0x20 DUP5 ADD RETURNDATACOPY PUSH2 0x8093 JUMP JUMPDEST PUSH1 0x60 SWAP2 POP JUMPDEST POP SWAP2 POP SWAP2 POP DUP2 DUP1 ISZERO PUSH2 0x80A7 JUMPI POP PUSH1 0x20 DUP2 MLOAD LT ISZERO JUMPDEST ISZERO PUSH2 0x1C1A JUMPI PUSH2 0x68C3 DUP2 PUSH1 0x0 PUSH2 0x7930 JUMP JUMPDEST PUSH1 0x0 PUSH2 0x617B DUP3 PUSH2 0x75EC JUMP JUMPDEST PUSH1 0x0 DUP1 PUSH1 0x0 DUP6 DUP1 PUSH1 0x20 ADD SWAP1 MLOAD DUP2 ADD SWAP1 PUSH2 0x80DB SWAP2 SWAP1 PUSH2 0x8D18 JUMP JUMPDEST SWAP2 POP SWAP2 POP PUSH1 0x0 DUP1 DUP7 DUP1 PUSH1 0x20 ADD SWAP1 MLOAD DUP2 ADD SWAP1 PUSH2 0x80F6 SWAP2 SWAP1 PUSH2 0x8D18 JUMP JUMPDEST SWAP2 POP SWAP2 POP PUSH2 0x8106 DUP5 DUP5 DUP4 DUP10 PUSH2 0x42C1 JUMP JUMPDEST SWAP9 SWAP8 POP POP POP POP POP POP POP POP JUMP JUMPDEST PUSH1 0x0 DUP3 PUSH2 0x8121 JUMPI POP PUSH1 0x0 PUSH2 0x617B JUMP JUMPDEST DUP3 DUP3 MUL DUP3 DUP5 DUP3 DUP2 PUSH2 0x812E JUMPI INVALID JUMPDEST DIV EQ PUSH2 0x4194 JUMPI PUSH2 0x4194 PUSH2 0x8143 PUSH1 0x1 DUP7 DUP7 PUSH2 0x84A3 JUMP JUMPDEST PUSH2 0x84FD JUMP JUMPDEST PUSH1 0x0 DUP3 DUP3 ADD DUP4 DUP2 LT ISZERO PUSH2 0x4194 JUMPI PUSH2 0x4194 PUSH2 0x8143 PUSH1 0x0 DUP7 DUP7 PUSH2 0x84A3 JUMP JUMPDEST PUSH1 0x0 DUP2 PUSH2 0x817A JUMPI PUSH2 0x817A PUSH2 0x8143 PUSH1 0x3 DUP6 DUP6 PUSH2 0x84A3 JUMP JUMPDEST PUSH1 0x0 DUP3 DUP5 DUP2 PUSH2 0x8185 JUMPI INVALID JUMPDEST DIV SWAP5 SWAP4 POP POP POP POP JUMP JUMPDEST PUSH1 0x0 DUP3 DUP3 GT ISZERO PUSH2 0x81A7 JUMPI PUSH2 0x81A7 PUSH2 0x8143 PUSH1 0x2 DUP6 DUP6 PUSH2 0x84A3 JUMP JUMPDEST POP SWAP1 SUB SWAP1 JUMP JUMPDEST PUSH1 0x40 DUP1 MLOAD PUSH1 0x1 DUP1 DUP3 MSTORE DUP2 DUP4 ADD SWAP1 SWAP3 MSTORE PUSH1 0x60 SWAP2 PUSH1 0x20 DUP1 DUP4 ADD SWAP1 DUP1 CALLDATASIZE DUP4 CALLDATACOPY ADD SWAP1 POP POP SWAP1 POP DUP2 DUP2 PUSH1 0x0 DUP2 MLOAD DUP2 LT PUSH2 0x81DD JUMPI INVALID JUMPDEST PUSH1 0x20 MUL PUSH1 0x20 ADD ADD DUP2 DUP2 MSTORE POP POP SWAP2 SWAP1 POP JUMP JUMPDEST PUSH1 0x0 DUP4 ISZERO DUP1 PUSH2 0x81FB JUMPI POP DUP2 ISZERO JUMPDEST DUP1 PUSH2 0x8204 JUMPI POP DUP3 ISZERO JUMPDEST ISZERO PUSH2 0x8211 JUMPI POP PUSH1 0x0 PUSH2 0x4194 JUMP JUMPDEST DUP4 DUP3 MUL DUP3 DUP6 DUP3 DUP2 PUSH2 0x821E JUMPI INVALID JUMPDEST DIV EQ PUSH2 0x822E JUMPI PUSH1 0x0 SWAP2 POP POP PUSH2 0x4194 JUMP JUMPDEST DUP4 PUSH1 0x1 DUP6 SUB DUP3 ADD DUP2 PUSH2 0x823C JUMPI INVALID JUMPDEST DIV SWAP6 SWAP5 POP POP POP POP POP JUMP JUMPDEST PUSH1 0x0 DUP2 EXTCODESIZE DUP1 PUSH2 0x8259 JUMPI PUSH1 0x0 SWAP2 POP POP PUSH2 0xDFF JUMP JUMPDEST POP DUP2 PUSH1 0x1 PUSH1 0x1 PUSH1 0xA0 SHL SUB AND PUSH4 0xDFE1681 PUSH1 0x40 MLOAD DUP2 PUSH4 0xFFFFFFFF AND PUSH1 0xE0 SHL DUP2 MSTORE PUSH1 0x4 ADD PUSH1 0x20 PUSH1 0x40 MLOAD DUP1 DUP4 SUB DUP2 DUP7 DUP1 EXTCODESIZE ISZERO DUP1 ISZERO PUSH2 0x8293 JUMPI PUSH1 0x0 DUP1 REVERT JUMPDEST POP GAS STATICCALL ISZERO DUP1 ISZERO PUSH2 0x82A7 JUMPI RETURNDATASIZE PUSH1 0x0 DUP1 RETURNDATACOPY RETURNDATASIZE PUSH1 0x0 REVERT JUMPDEST POP POP POP POP PUSH1 0x40 MLOAD RETURNDATASIZE PUSH1 0x1F NOT PUSH1 0x1F DUP3 ADD AND DUP3 ADD DUP1 PUSH1 0x40 MSTORE POP DUP2 ADD SWAP1 PUSH2 0x82CB SWAP2 SWAP1 PUSH2 0x8CFC JUMP JUMPDEST PUSH1 0x1 PUSH1 0x1 PUSH1 0xA0 SHL SUB AND PUSH4 0x70A08231 DUP4 PUSH1 0x40 MLOAD DUP3 PUSH4 0xFFFFFFFF AND PUSH1 0xE0 SHL DUP2 MSTORE PUSH1 0x4 ADD PUSH2 0x82F6 SWAP2 SWAP1 PUSH2 0x9EE0 JUMP JUMPDEST PUSH1 0x20 PUSH1 0x40 MLOAD DUP1 DUP4 SUB DUP2 DUP7 DUP1 EXTCODESIZE ISZERO DUP1 ISZERO PUSH2 0x830E JUMPI PUSH1 0x0 DUP1 REVERT JUMPDEST POP GAS STATICCALL ISZERO DUP1 ISZERO PUSH2 0x8322 JUMPI RETURNDATASIZE PUSH1 0x0 DUP1 RETURNDATACOPY RETURNDATASIZE PUSH1 0x0 REVERT JUMPDEST POP POP POP POP PUSH1 0x40 MLOAD RETURNDATASIZE PUSH1 0x1F NOT PUSH1 0x1F DUP3 ADD AND DUP3 ADD DUP1 PUSH1 0x40 MSTORE POP DUP2 ADD SWAP1 PUSH2 0x8346 SWAP2 SWAP1 PUSH2 0x9556 JUMP JUMPDEST PUSH2 0x8352 JUMPI POP PUSH1 0x0 PUSH2 0xDFF JUMP JUMPDEST DUP2 PUSH1 0x1 PUSH1 0x1 PUSH1 0xA0 SHL SUB AND PUSH4 0xD21220A7 PUSH1 0x40 MLOAD DUP2 PUSH4 0xFFFFFFFF AND PUSH1 0xE0 SHL DUP2 MSTORE PUSH1 0x4 ADD PUSH1 0x20 PUSH1 0x40 MLOAD DUP1 DUP4 SUB DUP2 DUP7 DUP1 EXTCODESIZE ISZERO DUP1 ISZERO PUSH2 0x838B JUMPI PUSH1 0x0 DUP1 REVERT JUMPDEST POP GAS STATICCALL ISZERO DUP1 ISZERO PUSH2 0x839F JUMPI RETURNDATASIZE PUSH1 0x0 DUP1 RETURNDATACOPY RETURNDATASIZE PUSH1 0x0 REVERT JUMPDEST POP POP POP POP PUSH1 0x40 MLOAD RETURNDATASIZE PUSH1 0x1F NOT PUSH1 0x1F DUP3 ADD AND DUP3 ADD DUP1 PUSH1 0x40 MSTORE POP DUP2 ADD SWAP1 PUSH2 0x83C3 SWAP2 SWAP1 PUSH2 0x8CFC JUMP JUMPDEST PUSH1 0x1 PUSH1 0x1 PUSH1 0xA0 SHL SUB AND PUSH4 0x70A08231 DUP4 PUSH1 0x40 MLOAD DUP3 PUSH4 0xFFFFFFFF AND PUSH1 0xE0 SHL DUP2 MSTORE PUSH1 0x4 ADD PUSH2 0x83EE SWAP2 SWAP1 PUSH2 0x9EE0 JUMP JUMPDEST PUSH1 0x20 PUSH1 0x40 MLOAD DUP1 DUP4 SUB DUP2 DUP7 DUP1 EXTCODESIZE ISZERO DUP1 ISZERO PUSH2 0x8406 JUMPI PUSH1 0x0 DUP1 REVERT JUMPDEST POP GAS STATICCALL ISZERO DUP1 ISZERO PUSH2 0x841A JUMPI RETURNDATASIZE PUSH1 0x0 DUP1 RETURNDATACOPY RETURNDATASIZE PUSH1 0x0 REVERT JUMPDEST POP POP POP POP PUSH1 0x40 MLOAD RETURNDATASIZE PUSH1 0x1F NOT PUSH1 0x1F DUP3 ADD AND DUP3 ADD DUP1 PUSH1 0x40 MSTORE POP DUP2 ADD SWAP1 PUSH2 0x843E SWAP2 SWAP1 PUSH2 0x9556 JUMP JUMPDEST PUSH2 0x844A JUMPI POP PUSH1 0x0 PUSH2 0xDFF JUMP JUMPDEST POP PUSH1 0x1 SWAP2 SWAP1 POP JUMP JUMPDEST DUP2 PUSH1 0x20 ADD DUP4 MLOAD LT ISZERO PUSH2 0x8471 JUMPI PUSH2 0x8471 PUSH2 0x8143 PUSH1 0x5 DUP6 MLOAD DUP6 PUSH1 0x20 ADD PUSH2 0x8505 JUMP JUMPDEST SWAP2 ADD PUSH1 0x20 ADD MSTORE JUMP JUMPDEST PUSH1 0x0 DUP2 PUSH1 0x20 ADD DUP4 MLOAD LT ISZERO PUSH2 0x849A JUMPI PUSH2 0x849A PUSH2 0x8143 PUSH1 0x5 DUP6 MLOAD DUP6 PUSH1 0x20 ADD PUSH2 0x8505 JUMP JUMPDEST POP ADD PUSH1 0x20 ADD MLOAD SWAP1 JUMP JUMPDEST PUSH1 0x60 PUSH4 0xE946C1BB PUSH1 0xE0 SHL DUP5 DUP5 DUP5 PUSH1 0x40 MLOAD PUSH1 0x24 ADD PUSH2 0x84C2 SWAP4 SWAP3 SWAP2 SWAP1 PUSH2 0xA3A7 JUMP JUMPDEST PUSH1 0x40 DUP1 MLOAD PUSH1 0x1F NOT DUP2 DUP5 SUB ADD DUP2 MSTORE SWAP2 SWAP1 MSTORE PUSH1 0x20 DUP2 ADD DUP1 MLOAD PUSH1 0x1 PUSH1 0x1 PUSH1 0xE0 SHL SUB AND PUSH1 0x1 PUSH1 0x1 PUSH1 0xE0 SHL SUB NOT SWAP1 SWAP4 AND SWAP3 SWAP1 SWAP3 OR SWAP1 SWAP2 MSTORE SWAP1 POP SWAP4 SWAP3 POP POP POP JUMP JUMPDEST DUP1 MLOAD PUSH1 0x20 DUP3 ADD REVERT JUMPDEST PUSH1 0x60 PUSH4 0x28006595 PUSH1 0xE0 SHL DUP5 DUP5 DUP5 PUSH1 0x40 MLOAD PUSH1 0x24 ADD PUSH2 0x84C2 SWAP4 SWAP3 SWAP2 SWAP1 PUSH2 0xA3C8 JUMP JUMPDEST PUSH1 0x40 DUP1 MLOAD PUSH1 0x80 DUP2 ADD DUP3 MSTORE PUSH1 0x0 DUP1 DUP3 MSTORE PUSH1 0x20 DUP3 ADD DUP2 SWAP1 MSTORE SWAP2 DUP2 ADD DUP3 SWAP1 MSTORE PUSH1 0x60 DUP2 ADD SWAP2 SWAP1 SWAP2 MSTORE SWAP1 JUMP JUMPDEST PUSH1 0x40 MLOAD DUP1 PUSH1 0xA0 ADD PUSH1 0x40 MSTORE DUP1 PUSH1 0x0 DUP2 MSTORE PUSH1 0x20 ADD PUSH1 0x0 DUP2 MSTORE PUSH1 0x20 ADD PUSH1 0x0 DUP2 MSTORE PUSH1 0x20 ADD PUSH1 0x0 DUP2 MSTORE PUSH1 0x20 ADD PUSH1 0x0 DUP2 MSTORE POP SWAP1 JUMP JUMPDEST PUSH1 0x40 DUP1 MLOAD DUP1 DUP3 ADD SWAP1 SWAP2 MSTORE PUSH1 0x60 DUP2 MSTORE PUSH1 0x0 PUSH1 0x20 DUP3 ADD MSTORE SWAP1 JUMP JUMPDEST PUSH1 0x40 MLOAD DUP1 PUSH1 0x40 ADD PUSH1 0x40 MSTORE DUP1 PUSH1 0x0 DUP2 MSTORE PUSH1 0x20 ADD PUSH1 0x60 DUP2 MSTORE POP SWAP1 JUMP JUMPDEST PUSH1 0x40 DUP1 MLOAD PUSH1 0x60 DUP2 ADD SWAP1 SWAP2 MSTORE PUSH1 0x0 DUP1 DUP3 MSTORE PUSH1 0x20 DUP3 ADD SWAP1 DUP2 MSTORE PUSH1 0x0 PUSH1 0x20 SWAP1 SWAP2 ADD MSTORE SWAP1 JUMP JUMPDEST PUSH1 0x40 MLOAD DUP1 PUSH1 0xA0 ADD PUSH1 0x40 MSTORE DUP1 PUSH1 0x0 DUP1 NOT AND DUP2 MSTORE PUSH1 0x20 ADD PUSH1 0x0 DUP2 MSTORE PUSH1 0x20 ADD PUSH1 0x0 DUP2 MSTORE PUSH1 0x20 ADD PUSH1 0x0 DUP2 MSTORE PUSH1 0x20 ADD PUSH1 0x60 DUP2 MSTORE POP SWAP1 JUMP JUMPDEST PUSH1 0x40 DUP1 MLOAD PUSH1 0x60 DUP2 ADD DUP3 MSTORE PUSH1 0x0 DUP1 DUP3 MSTORE PUSH1 0x20 DUP3 ADD DUP2 SWAP1 MSTORE SWAP2 DUP2 ADD SWAP2 SWAP1 SWAP2 MSTORE SWAP1 JUMP JUMPDEST PUSH1 0x40 MLOAD DUP1 PUSH1 0x60 ADD PUSH1 0x40 MSTORE DUP1 PUSH1 0x3 SWAP1 PUSH1 0x20 DUP3 MUL DUP1 CALLDATASIZE DUP4 CALLDATACOPY POP SWAP2 SWAP3 SWAP2 POP POP JUMP JUMPDEST PUSH1 0x40 MLOAD DUP1 PUSH1 0xA0 ADD PUSH1 0x40 MSTORE DUP1 PUSH1 0x0 DUP2 MSTORE PUSH1 0x20 ADD PUSH1 0x0 PUSH1 0x1 PUSH1 0x1 PUSH1 0xA0 SHL SUB AND DUP2 MSTORE PUSH1 0x20 ADD PUSH1 0x0 PUSH1 0x1 PUSH1 0x1 PUSH1 0xA0 SHL SUB AND DUP2 MSTORE PUSH1 0x20 ADD PUSH1 0x0 PUSH1 0x1 PUSH1 0x1 PUSH1 0xA0 SHL SUB AND DUP2 MSTORE PUSH1 0x20 ADD PUSH1 0x60 DUP2 MSTORE POP SWAP1 JUMP JUMPDEST DUP1 CALLDATALOAD PUSH2 0x617B DUP2 PUSH2 0xA89F JUMP JUMPDEST DUP1 MLOAD PUSH2 0x617B DUP2 PUSH2 0xA89F JUMP JUMPDEST PUSH1 0x0 DUP3 PUSH1 0x1F DUP4 ADD SLT PUSH2 0x86AE JUMPI DUP1 DUP2 REVERT JUMPDEST DUP2 CALLDATALOAD PUSH2 0x86C1 PUSH2 0x86BC DUP3 PUSH2 0xA820 JUMP JUMPDEST PUSH2 0xA7FA JUMP JUMPDEST DUP2 DUP2 MSTORE SWAP2 POP PUSH1 0x20 DUP1 DUP4 ADD SWAP1 DUP5 DUP2 ADD DUP2 DUP5 MUL DUP7 ADD DUP3 ADD DUP8 LT ISZERO PUSH2 0x86E2 JUMPI PUSH1 0x0 DUP1 REVERT JUMPDEST PUSH1 0x0 JUMPDEST DUP5 DUP2 LT ISZERO PUSH2 0x870A JUMPI DUP2 CALLDATALOAD PUSH2 0x86F8 DUP2 PUSH2 0xA89F JUMP JUMPDEST DUP5 MSTORE SWAP3 DUP3 ADD SWAP3 SWAP1 DUP3 ADD SWAP1 PUSH1 0x1 ADD PUSH2 0x86E5 JUMP JUMPDEST POP POP POP POP POP SWAP3 SWAP2 POP POP JUMP JUMPDEST PUSH1 0x0 DUP3 PUSH1 0x1F DUP4 ADD SLT PUSH2 0x8725 JUMPI DUP1 DUP2 REVERT JUMPDEST DUP2 CALLDATALOAD PUSH2 0x8733 PUSH2 0x86BC DUP3 PUSH2 0xA820 JUMP JUMPDEST DUP2 DUP2 MSTORE SWAP2 POP PUSH1 0x20 DUP1 DUP4 ADD SWAP1 DUP5 DUP2 ADD PUSH1 0x0 JUMPDEST DUP5 DUP2 LT ISZERO PUSH2 0x870A JUMPI PUSH2 0x875B DUP9 DUP5 DUP5 CALLDATALOAD DUP11 ADD ADD PUSH2 0x869E JUMP JUMPDEST DUP5 MSTORE SWAP3 DUP3 ADD SWAP3 SWAP1 DUP3 ADD SWAP1 PUSH1 0x1 ADD PUSH2 0x8744 JUMP JUMPDEST PUSH1 0x0 DUP3 PUSH1 0x1F DUP4 ADD SLT PUSH2 0x877D JUMPI DUP1 DUP2 REVERT JUMPDEST DUP2 CALLDATALOAD PUSH2 0x878B PUSH2 0x86BC DUP3 PUSH2 0xA820 JUMP JUMPDEST DUP2 DUP2 MSTORE SWAP2 POP PUSH1 0x20 DUP1 DUP4 ADD SWAP1 DUP5 DUP2 ADD PUSH1 0x0 JUMPDEST DUP5 DUP2 LT ISZERO PUSH2 0x870A JUMPI PUSH2 0x87B3 DUP9 DUP5 DUP5 CALLDATALOAD DUP11 ADD ADD PUSH2 0x895C JUMP JUMPDEST DUP5 MSTORE SWAP3 DUP3 ADD SWAP3 SWAP1 DUP3 ADD SWAP1 PUSH1 0x1 ADD PUSH2 0x879C JUMP JUMPDEST PUSH1 0x0 DUP3 PUSH1 0x1F DUP4 ADD SLT PUSH2 0x87D5 JUMPI DUP1 DUP2 REVERT JUMPDEST DUP2 CALLDATALOAD PUSH2 0x87E3 PUSH2 0x86BC DUP3 PUSH2 0xA820 JUMP JUMPDEST DUP2 DUP2 MSTORE SWAP2 POP PUSH1 0x20 DUP1 DUP4 ADD SWAP1 DUP5 DUP2 ADD DUP2 DUP5 MUL DUP7 ADD DUP3 ADD DUP8 LT ISZERO PUSH2 0x8804 JUMPI PUSH1 0x0 DUP1 REVERT JUMPDEST PUSH1 0x0 JUMPDEST DUP5 DUP2 LT ISZERO PUSH2 0x870A JUMPI DUP2 CALLDATALOAD PUSH2 0x881A DUP2 PUSH2 0xA89F JUMP JUMPDEST DUP5 MSTORE SWAP3 DUP3 ADD SWAP3 SWAP1 DUP3 ADD SWAP1 PUSH1 0x1 ADD PUSH2 0x8807 JUMP JUMPDEST PUSH1 0x0 DUP3 PUSH1 0x1F DUP4 ADD SLT PUSH2 0x883C JUMPI DUP1 DUP2 REVERT JUMPDEST DUP2 CALLDATALOAD PUSH2 0x884A PUSH2 0x86BC DUP3 PUSH2 0xA820 JUMP JUMPDEST DUP2 DUP2 MSTORE SWAP2 POP PUSH1 0x20 DUP1 DUP4 ADD SWAP1 DUP5 DUP2 ADD PUSH1 0x80 DUP1 DUP6 MUL DUP8 ADD DUP4 ADD DUP9 LT ISZERO PUSH2 0x886D JUMPI PUSH1 0x0 DUP1 REVERT JUMPDEST PUSH1 0x0 JUMPDEST DUP6 DUP2 LT ISZERO PUSH2 0x8894 JUMPI PUSH2 0x8882 DUP10 DUP5 PUSH2 0x8C5B JUMP JUMPDEST DUP6 MSTORE SWAP4 DUP4 ADD SWAP4 SWAP2 DUP2 ADD SWAP2 PUSH1 0x1 ADD PUSH2 0x8870 JUMP JUMPDEST POP POP POP POP POP POP SWAP3 SWAP2 POP POP JUMP JUMPDEST PUSH1 0x0 DUP3 PUSH1 0x1F DUP4 ADD SLT PUSH2 0x88B0 JUMPI DUP1 DUP2 REVERT JUMPDEST DUP2 CALLDATALOAD PUSH2 0x88BE PUSH2 0x86BC DUP3 PUSH2 0xA820 JUMP JUMPDEST DUP2 DUP2 MSTORE SWAP2 POP PUSH1 0x20 DUP1 DUP4 ADD SWAP1 DUP5 DUP2 ADD DUP2 DUP5 MUL DUP7 ADD DUP3 ADD DUP8 LT ISZERO PUSH2 0x88DF JUMPI PUSH1 0x0 DUP1 REVERT JUMPDEST PUSH1 0x0 JUMPDEST DUP5 DUP2 LT ISZERO PUSH2 0x870A JUMPI DUP2 CALLDATALOAD DUP5 MSTORE SWAP3 DUP3 ADD SWAP3 SWAP1 DUP3 ADD SWAP1 PUSH1 0x1 ADD PUSH2 0x88E2 JUMP JUMPDEST PUSH1 0x0 DUP3 PUSH1 0x1F DUP4 ADD SLT PUSH2 0x890E JUMPI DUP1 DUP2 REVERT JUMPDEST DUP2 MLOAD PUSH2 0x891C PUSH2 0x86BC DUP3 PUSH2 0xA820 JUMP JUMPDEST DUP2 DUP2 MSTORE SWAP2 POP PUSH1 0x20 DUP1 DUP4 ADD SWAP1 DUP5 DUP2 ADD DUP2 DUP5 MUL DUP7 ADD DUP3 ADD DUP8 LT ISZERO PUSH2 0x893D JUMPI PUSH1 0x0 DUP1 REVERT JUMPDEST PUSH1 0x0 JUMPDEST DUP5 DUP2 LT ISZERO PUSH2 0x870A JUMPI DUP2 MLOAD DUP5 MSTORE SWAP3 DUP3 ADD SWAP3 SWAP1 DUP3 ADD SWAP1 PUSH1 0x1 ADD PUSH2 0x8940 JUMP JUMPDEST PUSH1 0x0 DUP3 PUSH1 0x1F DUP4 ADD SLT PUSH2 0x896C JUMPI DUP1 DUP2 REVERT JUMPDEST DUP2 CALLDATALOAD PUSH2 0x897A PUSH2 0x86BC DUP3 PUSH2 0xA83F JUMP JUMPDEST SWAP2 POP DUP1 DUP3 MSTORE DUP4 PUSH1 0x20 DUP3 DUP6 ADD ADD GT ISZERO PUSH2 0x8991 JUMPI PUSH1 0x0 DUP1 REVERT JUMPDEST DUP1 PUSH1 0x20 DUP5 ADD PUSH1 0x20 DUP5 ADD CALLDATACOPY PUSH1 0x0 SWAP1 DUP3 ADD PUSH1 0x20 ADD MSTORE SWAP3 SWAP2 POP POP JUMP JUMPDEST PUSH1 0x0 DUP3 PUSH1 0x1F DUP4 ADD SLT PUSH2 0x89BA JUMPI DUP1 DUP2 REVERT JUMPDEST DUP2 MLOAD PUSH2 0x89C8 PUSH2 0x86BC DUP3 PUSH2 0xA83F JUMP JUMPDEST SWAP2 POP DUP1 DUP3 MSTORE DUP4 PUSH1 0x20 DUP3 DUP6 ADD ADD GT ISZERO PUSH2 0x89DF JUMPI PUSH1 0x0 DUP1 REVERT JUMPDEST PUSH2 0x304A DUP2 PUSH1 0x20 DUP5 ADD PUSH1 0x20 DUP7 ADD PUSH2 0xA862 JUMP JUMPDEST DUP1 MLOAD PUSH1 0x2 DUP2 LT PUSH2 0x617B JUMPI PUSH1 0x0 DUP1 REVERT JUMPDEST PUSH1 0x0 PUSH1 0x60 DUP3 DUP5 SUB SLT ISZERO PUSH2 0x8A10 JUMPI DUP1 DUP2 REVERT JUMPDEST PUSH2 0x8A1A PUSH1 0x60 PUSH2 0xA7FA JUMP JUMPDEST SWAP1 POP DUP2 CALLDATALOAD PUSH2 0x8A27 DUP2 PUSH2 0xA89F JUMP JUMPDEST DUP2 MSTORE PUSH1 0x20 DUP3 ADD CALLDATALOAD PUSH2 0x8A37 DUP2 PUSH2 0xA8C2 JUMP JUMPDEST PUSH1 0x20 DUP3 ADD MSTORE PUSH1 0x40 DUP3 ADD CALLDATALOAD PUSH2 0x8A4A DUP2 PUSH2 0xA8C2 JUMP JUMPDEST PUSH1 0x40 DUP3 ADD MSTORE SWAP3 SWAP2 POP POP JUMP JUMPDEST PUSH1 0x0 PUSH1 0x60 DUP3 DUP5 SUB SLT ISZERO PUSH2 0x8A66 JUMPI DUP1 DUP2 REVERT JUMPDEST PUSH2 0x8A70 PUSH1 0x60 PUSH2 0xA7FA JUMP JUMPDEST SWAP1 POP DUP2 MLOAD PUSH2 0x8A7D DUP2 PUSH2 0xA89F JUMP JUMPDEST DUP2 MSTORE PUSH1 0x20 DUP3 ADD MLOAD PUSH2 0x8A8D DUP2 PUSH2 0xA8C2 JUMP JUMPDEST PUSH1 0x20 DUP3 ADD MSTORE PUSH1 0x40 DUP3 ADD MLOAD PUSH2 0x8A4A DUP2 PUSH2 0xA8C2 JUMP JUMPDEST PUSH1 0x0 PUSH1 0x40 DUP3 DUP5 SUB SLT ISZERO PUSH2 0x8AB1 JUMPI DUP1 DUP2 REVERT JUMPDEST PUSH2 0x8ABB PUSH1 0x40 PUSH2 0xA7FA JUMP JUMPDEST SWAP1 POP DUP2 CALLDATALOAD PUSH2 0x8AC8 DUP2 PUSH2 0xA89F JUMP JUMPDEST DUP2 MSTORE PUSH1 0x20 DUP3 ADD CALLDATALOAD PUSH2 0x8AD8 DUP2 PUSH2 0xA89F JUMP JUMPDEST PUSH1 0x20 DUP3 ADD MSTORE SWAP3 SWAP2 POP POP JUMP JUMPDEST PUSH1 0x0 PUSH1 0xA0 DUP3 DUP5 SUB SLT ISZERO PUSH2 0x8AF4 JUMPI DUP1 DUP2 REVERT JUMPDEST PUSH2 0x8AFE PUSH1 0xA0 PUSH2 0xA7FA JUMP JUMPDEST SWAP1 POP DUP2 CALLDATALOAD DUP2 MSTORE PUSH1 0x20 DUP3 ADD CALLDATALOAD PUSH2 0x8B12 DUP2 PUSH2 0xA89F JUMP JUMPDEST PUSH1 0x20 DUP3 ADD MSTORE PUSH1 0x40 DUP3 ADD CALLDATALOAD PUSH2 0x8B25 DUP2 PUSH2 0xA89F JUMP JUMPDEST PUSH1 0x40 DUP3 ADD MSTORE PUSH1 0x60 DUP3 ADD CALLDATALOAD PUSH2 0x8B38 DUP2 PUSH2 0xA89F JUMP JUMPDEST PUSH1 0x60 DUP3 ADD MSTORE PUSH1 0x80 DUP3 ADD CALLDATALOAD PUSH1 0x1 PUSH1 0x1 PUSH1 0x40 SHL SUB DUP2 GT ISZERO PUSH2 0x8B56 JUMPI PUSH1 0x0 DUP1 REVERT JUMPDEST PUSH2 0x8B62 DUP5 DUP3 DUP6 ADD PUSH2 0x895C JUMP JUMPDEST PUSH1 0x80 DUP4 ADD MSTORE POP SWAP3 SWAP2 POP POP JUMP JUMPDEST PUSH1 0x0 PUSH2 0x180 DUP1 DUP4 DUP6 SUB SLT ISZERO PUSH2 0x8B81 JUMPI DUP2 DUP3 REVERT JUMPDEST PUSH2 0x8B8A DUP2 PUSH2 0xA7FA JUMP JUMPDEST SWAP2 POP POP PUSH2 0x8B97 DUP4 DUP4 PUSH2 0x8688 JUMP JUMPDEST DUP2 MSTORE PUSH2 0x8BA6 DUP4 PUSH1 0x20 DUP5 ADD PUSH2 0x8688 JUMP JUMPDEST PUSH1 0x20 DUP3 ADD MSTORE PUSH2 0x8BB8 DUP4 PUSH1 0x40 DUP5 ADD PUSH2 0x8CBE JUMP JUMPDEST PUSH1 0x40 DUP3 ADD MSTORE PUSH2 0x8BCA DUP4 PUSH1 0x60 DUP5 ADD PUSH2 0x8CBE JUMP JUMPDEST PUSH1 0x60 DUP3 ADD MSTORE PUSH2 0x8BDC DUP4 PUSH1 0x80 DUP5 ADD PUSH2 0x8CBE JUMP JUMPDEST PUSH1 0x80 DUP3 ADD MSTORE PUSH2 0x8BEE DUP4 PUSH1 0xA0 DUP5 ADD PUSH2 0x8688 JUMP JUMPDEST PUSH1 0xA0 DUP3 ADD MSTORE PUSH2 0x8C00 DUP4 PUSH1 0xC0 DUP5 ADD PUSH2 0x8688 JUMP JUMPDEST PUSH1 0xC0 DUP3 ADD MSTORE PUSH2 0x8C12 DUP4 PUSH1 0xE0 DUP5 ADD PUSH2 0x8688 JUMP JUMPDEST PUSH1 0xE0 DUP3 ADD MSTORE PUSH2 0x100 PUSH2 0x8C26 DUP5 DUP3 DUP6 ADD PUSH2 0x8688 JUMP JUMPDEST SWAP1 DUP3 ADD MSTORE PUSH2 0x120 DUP3 DUP2 ADD CALLDATALOAD SWAP1 DUP3 ADD MSTORE PUSH2 0x140 PUSH2 0x8C44 DUP5 DUP3 DUP6 ADD PUSH2 0x8CC9 JUMP JUMPDEST DUP2 DUP4 ADD MSTORE POP PUSH2 0x160 DUP1 DUP4 ADD CALLDATALOAD DUP2 DUP4 ADD MSTORE POP SWAP3 SWAP2 POP POP JUMP JUMPDEST PUSH1 0x0 PUSH1 0x80 DUP3 DUP5 SUB SLT ISZERO PUSH2 0x8C6C JUMPI DUP1 DUP2 REVERT JUMPDEST PUSH2 0x8C76 PUSH1 0x80 PUSH2 0xA7FA JUMP JUMPDEST SWAP1 POP DUP2 CALLDATALOAD PUSH1 0x4 DUP2 LT PUSH2 0x8C87 JUMPI PUSH1 0x0 DUP1 REVERT JUMPDEST DUP2 MSTORE PUSH1 0x20 DUP3 ADD CALLDATALOAD PUSH1 0xFF DUP2 AND DUP2 EQ PUSH2 0x8C9D JUMPI PUSH1 0x0 DUP1 REVERT JUMPDEST DUP1 PUSH1 0x20 DUP4 ADD MSTORE POP PUSH1 0x40 DUP3 ADD CALLDATALOAD PUSH1 0x40 DUP3 ADD MSTORE PUSH1 0x60 DUP3 ADD CALLDATALOAD PUSH1 0x60 DUP3 ADD MSTORE SWAP3 SWAP2 POP POP JUMP JUMPDEST DUP1 CALLDATALOAD PUSH2 0x617B DUP2 PUSH2 0xA8E7 JUMP JUMPDEST DUP1 CALLDATALOAD PUSH1 0x1 PUSH1 0x1 PUSH1 0x40 SHL SUB DUP2 AND DUP2 EQ PUSH2 0x617B JUMPI PUSH1 0x0 DUP1 REVERT JUMPDEST PUSH1 0x0 PUSH1 0x20 DUP3 DUP5 SUB SLT ISZERO PUSH2 0x8CF1 JUMPI DUP1 DUP2 REVERT JUMPDEST DUP2 CALLDATALOAD PUSH2 0x4194 DUP2 PUSH2 0xA89F JUMP JUMPDEST PUSH1 0x0 PUSH1 0x20 DUP3 DUP5 SUB SLT ISZERO PUSH2 0x8D0D JUMPI DUP1 DUP2 REVERT JUMPDEST DUP2 MLOAD PUSH2 0x4194 DUP2 PUSH2 0xA89F JUMP JUMPDEST PUSH1 0x0 DUP1 PUSH1 0x40 DUP4 DUP6 SUB SLT ISZERO PUSH2 0x8D2A JUMPI DUP1 DUP2 REVERT JUMPDEST DUP3 MLOAD PUSH2 0x8D35 DUP2 PUSH2 0xA89F JUMP JUMPDEST PUSH1 0x20 DUP5 ADD MLOAD SWAP1 SWAP3 POP PUSH2 0x8D46 DUP2 PUSH2 0xA89F JUMP JUMPDEST DUP1 SWAP2 POP POP SWAP3 POP SWAP3 SWAP1 POP JUMP JUMPDEST PUSH1 0x0 DUP1 PUSH1 0x0 DUP1 PUSH1 0x80 DUP6 DUP8 SUB SLT ISZERO PUSH2 0x8D66 JUMPI DUP2 DUP3 REVERT JUMPDEST DUP5 MLOAD PUSH2 0x8D71 DUP2 PUSH2 0xA89F JUMP JUMPDEST PUSH1 0x20 DUP7 ADD MLOAD SWAP1 SWAP5 POP PUSH2 0x8D82 DUP2 PUSH2 0xA89F JUMP JUMPDEST PUSH1 0x40 DUP7 ADD MLOAD SWAP1 SWAP4 POP PUSH2 0x8D93 DUP2 PUSH2 0xA89F JUMP JUMPDEST PUSH1 0x60 DUP7 ADD MLOAD SWAP1 SWAP3 POP PUSH2 0x8DA4 DUP2 PUSH2 0xA89F JUMP JUMPDEST SWAP4 SWAP7 SWAP3 SWAP6 POP SWAP1 SWAP4 POP POP JUMP JUMPDEST PUSH1 0x0 DUP1 PUSH1 0x0 PUSH1 0x60 DUP5 DUP7 SUB SLT ISZERO PUSH2 0x8DC3 JUMPI DUP1 DUP2 REVERT JUMPDEST DUP4 MLOAD PUSH2 0x8DCE DUP2 PUSH2 0xA89F JUMP JUMPDEST PUSH1 0x20 DUP6 ADD MLOAD SWAP1 SWAP4 POP PUSH2 0x8DDF DUP2 PUSH2 0xA89F JUMP JUMPDEST PUSH1 0x40 DUP6 ADD MLOAD SWAP1 SWAP3 POP DUP1 ISZERO ISZERO DUP2 EQ PUSH2 0x8DF4 JUMPI DUP2 DUP3 REVERT JUMPDEST DUP1 SWAP2 POP POP SWAP3 POP SWAP3 POP SWAP3 JUMP JUMPDEST PUSH1 0x0 DUP1 PUSH1 0x40 DUP4 DUP6 SUB SLT ISZERO PUSH2 0x8E11 JUMPI DUP2 DUP3 REVERT JUMPDEST DUP3 MLOAD PUSH2 0x8E1C DUP2 PUSH2 0xA89F JUMP JUMPDEST PUSH1 0x20 DUP5 ADD MLOAD SWAP1 SWAP3 POP PUSH1 0x1 PUSH1 0x1 PUSH1 0x40 SHL SUB DUP1 DUP3 GT ISZERO PUSH2 0x8E38 JUMPI DUP3 DUP4 REVERT JUMPDEST SWAP1 DUP5 ADD SWAP1 PUSH1 0xA0 DUP3 DUP8 SUB SLT ISZERO PUSH2 0x8E4B JUMPI DUP3 DUP4 REVERT JUMPDEST PUSH2 0x8E55 PUSH1 0xA0 PUSH2 0xA7FA JUMP JUMPDEST DUP3 MLOAD DUP2 MSTORE PUSH2 0x8E66 DUP8 PUSH1 0x20 DUP6 ADD PUSH2 0x8693 JUMP JUMPDEST PUSH1 0x20 DUP3 ADD MSTORE PUSH2 0x8E78 DUP8 PUSH1 0x40 DUP6 ADD PUSH2 0x8693 JUMP JUMPDEST PUSH1 0x40 DUP3 ADD MSTORE PUSH2 0x8E8A DUP8 PUSH1 0x60 DUP6 ADD PUSH2 0x8693 JUMP JUMPDEST PUSH1 0x60 DUP3 ADD MSTORE PUSH1 0x80 DUP4 ADD MLOAD DUP3 DUP2 GT ISZERO PUSH2 0x8EA0 JUMPI DUP5 DUP6 REVERT JUMPDEST PUSH2 0x8EAC DUP9 DUP3 DUP7 ADD PUSH2 0x89AA JUMP JUMPDEST PUSH1 0x80 DUP4 ADD MSTORE POP DUP1 SWAP4 POP POP POP POP SWAP3 POP SWAP3 SWAP1 POP JUMP JUMPDEST PUSH1 0x0 DUP1 PUSH1 0x0 DUP1 PUSH1 0x0 PUSH1 0xA0 DUP7 DUP9 SUB SLT ISZERO PUSH2 0x8ED6 JUMPI DUP3 DUP4 REVERT JUMPDEST DUP6 CALLDATALOAD PUSH2 0x8EE1 DUP2 PUSH2 0xA89F JUMP JUMPDEST SWAP5 POP PUSH1 0x20 DUP7 ADD CALLDATALOAD PUSH2 0x8EF1 DUP2 PUSH2 0xA89F JUMP JUMPDEST SWAP4 POP PUSH1 0x40 DUP7 ADD CALLDATALOAD PUSH2 0x8F01 DUP2 PUSH2 0xA89F JUMP JUMPDEST SWAP3 POP PUSH1 0x60 DUP7 ADD CALLDATALOAD PUSH2 0x8F11 DUP2 PUSH2 0xA89F JUMP JUMPDEST SWAP2 POP PUSH1 0x80 DUP7 ADD CALLDATALOAD PUSH1 0x1 PUSH1 0x1 PUSH1 0x40 SHL SUB DUP2 GT ISZERO PUSH2 0x8F2B JUMPI DUP2 DUP3 REVERT JUMPDEST PUSH2 0x8F37 DUP9 DUP3 DUP10 ADD PUSH2 0x88A0 JUMP JUMPDEST SWAP2 POP POP SWAP3 SWAP6 POP SWAP3 SWAP6 SWAP1 SWAP4 POP JUMP JUMPDEST PUSH1 0x0 DUP1 PUSH1 0x0 DUP1 PUSH1 0x80 DUP6 DUP8 SUB SLT ISZERO PUSH2 0x8F59 JUMPI DUP2 DUP3 REVERT JUMPDEST DUP5 CALLDATALOAD PUSH2 0x8F64 DUP2 PUSH2 0xA89F JUMP JUMPDEST SWAP4 POP PUSH1 0x20 DUP6 ADD CALLDATALOAD PUSH2 0x8F74 DUP2 PUSH2 0xA89F JUMP JUMPDEST SWAP3 POP PUSH1 0x40 DUP6 ADD CALLDATALOAD PUSH2 0x8F84 DUP2 PUSH2 0xA89F JUMP JUMPDEST SWAP2 POP PUSH1 0x60 DUP6 ADD CALLDATALOAD PUSH1 0x1 PUSH1 0x1 PUSH1 0x40 SHL SUB DUP2 GT ISZERO PUSH2 0x8F9E JUMPI DUP2 DUP3 REVERT JUMPDEST PUSH2 0x8FAA DUP8 DUP3 DUP9 ADD PUSH2 0x88A0 JUMP JUMPDEST SWAP2 POP POP SWAP3 SWAP6 SWAP2 SWAP5 POP SWAP3 POP JUMP JUMPDEST PUSH1 0x0 DUP1 PUSH1 0x0 DUP1 PUSH1 0x80 DUP6 DUP8 SUB SLT ISZERO PUSH2 0x8FCB JUMPI DUP2 DUP3 REVERT JUMPDEST DUP5 CALLDATALOAD PUSH2 0x8FD6 DUP2 PUSH2 0xA89F JUMP JUMPDEST SWAP4 POP PUSH1 0x20 DUP6 ADD CALLDATALOAD PUSH2 0x8FE6 DUP2 PUSH2 0xA89F JUMP JUMPDEST SWAP3 POP PUSH1 0x40 DUP6 ADD CALLDATALOAD PUSH2 0x8FF6 DUP2 PUSH2 0xA89F JUMP JUMPDEST SWAP4 SWAP7 SWAP3 SWAP6 POP SWAP3 SWAP4 PUSH1 0x60 ADD CALLDATALOAD SWAP3 POP POP JUMP JUMPDEST PUSH1 0x0 DUP1 PUSH1 0x0 PUSH1 0x60 DUP5 DUP7 SUB SLT ISZERO PUSH2 0x901A JUMPI DUP1 DUP2 REVERT JUMPDEST DUP4 CALLDATALOAD PUSH2 0x9025 DUP2 PUSH2 0xA89F JUMP JUMPDEST SWAP3 POP PUSH1 0x20 DUP5 ADD CALLDATALOAD PUSH1 0x1 PUSH1 0x1 PUSH1 0x40 SHL SUB DUP1 DUP3 GT ISZERO PUSH2 0x9040 JUMPI DUP3 DUP4 REVERT JUMPDEST PUSH2 0x904C DUP8 DUP4 DUP9 ADD PUSH2 0x869E JUMP JUMPDEST SWAP4 POP PUSH1 0x40 DUP7 ADD CALLDATALOAD SWAP2 POP DUP1 DUP3 GT ISZERO PUSH2 0x9061 JUMPI DUP3 DUP4 REVERT JUMPDEST POP PUSH2 0x906E DUP7 DUP3 DUP8 ADD PUSH2 0x88A0 JUMP JUMPDEST SWAP2 POP POP SWAP3 POP SWAP3 POP SWAP3 JUMP JUMPDEST PUSH1 0x0 DUP1 PUSH1 0x0 DUP1 PUSH1 0x0 PUSH1 0xA0 DUP7 DUP9 SUB SLT ISZERO PUSH2 0x908F JUMPI DUP3 DUP4 REVERT JUMPDEST DUP6 CALLDATALOAD PUSH2 0x909A DUP2 PUSH2 0xA89F JUMP JUMPDEST SWAP5 POP PUSH1 0x20 DUP7 ADD CALLDATALOAD SWAP4 POP PUSH1 0x40 DUP7 ADD CALLDATALOAD PUSH2 0x8F01 DUP2 PUSH2 0xA89F JUMP JUMPDEST PUSH1 0x0 PUSH1 0x20 DUP1 DUP4 DUP6 SUB SLT ISZERO PUSH2 0x90C3 JUMPI DUP2 DUP3 REVERT JUMPDEST DUP3 MLOAD PUSH1 0x1 PUSH1 0x1 PUSH1 0x40 SHL SUB DUP2 GT ISZERO PUSH2 0x90D8 JUMPI DUP3 DUP4 REVERT JUMPDEST DUP4 ADD PUSH1 0x1F DUP2 ADD DUP6 SGT PUSH2 0x90E8 JUMPI DUP3 DUP4 REVERT JUMPDEST DUP1 MLOAD PUSH2 0x90F6 PUSH2 0x86BC DUP3 PUSH2 0xA820 JUMP JUMPDEST DUP2 DUP2 MSTORE DUP4 DUP2 ADD SWAP1 DUP4 DUP6 ADD DUP6 DUP5 MUL DUP6 ADD DUP7 ADD DUP10 LT ISZERO PUSH2 0x9112 JUMPI DUP7 DUP8 REVERT JUMPDEST DUP7 SWAP5 POP JUMPDEST DUP4 DUP6 LT ISZERO PUSH2 0x913D JUMPI DUP1 MLOAD PUSH2 0x9129 DUP2 PUSH2 0xA89F JUMP JUMPDEST DUP4 MSTORE PUSH1 0x1 SWAP5 SWAP1 SWAP5 ADD SWAP4 SWAP2 DUP6 ADD SWAP2 DUP6 ADD PUSH2 0x9116 JUMP JUMPDEST POP SWAP8 SWAP7 POP POP POP POP POP POP POP JUMP JUMPDEST PUSH1 0x0 DUP1 PUSH1 0x0 PUSH1 0x60 DUP5 DUP7 SUB SLT ISZERO PUSH2 0x915D JUMPI DUP1 DUP2 REVERT JUMPDEST DUP4 MLOAD PUSH1 0x1 PUSH1 0x1 PUSH1 0x40 SHL SUB DUP1 DUP3 GT ISZERO PUSH2 0x9173 JUMPI DUP3 DUP4 REVERT JUMPDEST DUP2 DUP7 ADD SWAP2 POP DUP7 PUSH1 0x1F DUP4 ADD SLT PUSH2 0x9186 JUMPI DUP3 DUP4 REVERT JUMPDEST DUP2 MLOAD PUSH2 0x9194 PUSH2 0x86BC DUP3 PUSH2 0xA820 JUMP JUMPDEST DUP1 DUP3 DUP3 MSTORE PUSH1 0x20 DUP1 DUP4 ADD SWAP3 POP DUP1 DUP7 ADD DUP12 DUP3 DUP4 DUP8 MUL DUP10 ADD ADD GT ISZERO PUSH2 0x91B4 JUMPI DUP8 DUP9 REVERT JUMPDEST DUP8 SWAP7 POP JUMPDEST DUP5 DUP8 LT ISZERO PUSH2 0x91D6 JUMPI DUP1 MLOAD DUP5 MSTORE PUSH1 0x1 SWAP7 SWAP1 SWAP7 ADD SWAP6 SWAP3 DUP2 ADD SWAP3 DUP2 ADD PUSH2 0x91B8 JUMP JUMPDEST POP DUP10 ADD MLOAD SWAP1 SWAP8 POP SWAP4 POP POP POP DUP1 DUP3 GT ISZERO PUSH2 0x91ED JUMPI DUP3 DUP4 REVERT JUMPDEST POP PUSH2 0x91FA DUP7 DUP3 DUP8 ADD PUSH2 0x88FE JUMP JUMPDEST SWAP3 POP POP PUSH2 0x920A DUP6 PUSH1 0x40 DUP7 ADD PUSH2 0x89F0 JUMP JUMPDEST SWAP1 POP SWAP3 POP SWAP3 POP SWAP3 JUMP JUMPDEST PUSH1 0x0 DUP1 PUSH1 0x20 DUP4 DUP6 SUB SLT ISZERO PUSH2 0x9225 JUMPI DUP2 DUP3 REVERT JUMPDEST DUP3 CALLDATALOAD PUSH1 0x1 PUSH1 0x1 PUSH1 0x40 SHL SUB DUP1 DUP3 GT ISZERO PUSH2 0x923B JUMPI DUP4 DUP5 REVERT JUMPDEST DUP2 DUP6 ADD SWAP2 POP DUP6 PUSH1 0x1F DUP4 ADD SLT PUSH2 0x924E JUMPI DUP4 DUP5 REVERT JUMPDEST DUP2 CALLDATALOAD DUP2 DUP2 GT ISZERO PUSH2 0x925C JUMPI DUP5 DUP6 REVERT JUMPDEST DUP7 PUSH1 0x20 DUP1 DUP4 MUL DUP6 ADD ADD GT ISZERO PUSH2 0x926F JUMPI DUP5 DUP6 REVERT JUMPDEST PUSH1 0x20 SWAP3 SWAP1 SWAP3 ADD SWAP7 SWAP2 SWAP6 POP SWAP1 SWAP4 POP POP POP POP JUMP JUMPDEST PUSH1 0x0 DUP1 PUSH1 0x0 PUSH1 0x60 DUP5 DUP7 SUB SLT ISZERO PUSH2 0x9295 JUMPI DUP1 DUP2 REVERT JUMPDEST DUP4 CALLDATALOAD PUSH1 0x1 PUSH1 0x1 PUSH1 0x40 SHL SUB DUP1 DUP3 GT ISZERO PUSH2 0x92AB JUMPI DUP3 DUP4 REVERT JUMPDEST PUSH2 0x92B7 DUP8 DUP4 DUP9 ADD PUSH2 0x876D JUMP JUMPDEST SWAP5 POP PUSH1 0x20 DUP7 ADD CALLDATALOAD SWAP2 POP DUP1 DUP3 GT ISZERO PUSH2 0x92CC JUMPI DUP3 DUP4 REVERT JUMPDEST POP PUSH2 0x92D9 DUP7 DUP3 DUP8 ADD PUSH2 0x876D JUMP JUMPDEST SWAP3 POP POP PUSH1 0x40 DUP5 ADD CALLDATALOAD SWAP1 POP SWAP3 POP SWAP3 POP SWAP3 JUMP JUMPDEST PUSH1 0x0 PUSH1 0x20 DUP3 DUP5 SUB SLT ISZERO PUSH2 0x92FB JUMPI DUP1 DUP2 REVERT JUMPDEST DUP2 CALLDATALOAD PUSH1 0x1 PUSH1 0x1 PUSH1 0x40 SHL SUB DUP2 GT ISZERO PUSH2 0x9310 JUMPI DUP2 DUP3 REVERT JUMPDEST PUSH2 0x144E DUP5 DUP3 DUP6 ADD PUSH2 0x87C5 JUMP JUMPDEST PUSH1 0x0 DUP1 PUSH1 0x40 DUP4 DUP6 SUB SLT ISZERO PUSH2 0x932E JUMPI DUP2 DUP3 REVERT JUMPDEST DUP3 CALLDATALOAD PUSH1 0x1 PUSH1 0x1 PUSH1 0x40 SHL SUB DUP2 GT ISZERO PUSH2 0x9343 JUMPI DUP3 DUP4 REVERT JUMPDEST PUSH2 0x934F DUP6 DUP3 DUP7 ADD PUSH2 0x87C5 JUMP JUMPDEST SWAP3 POP POP PUSH1 0x20 DUP4 ADD CALLDATALOAD PUSH2 0x8D46 DUP2 PUSH2 0xA89F JUMP JUMPDEST PUSH1 0x0 DUP1 PUSH1 0x0 PUSH1 0x60 DUP5 DUP7 SUB SLT ISZERO PUSH2 0x9374 JUMPI DUP1 DUP2 REVERT JUMPDEST DUP4 CALLDATALOAD PUSH1 0x1 PUSH1 0x1 PUSH1 0x40 SHL SUB DUP2 GT ISZERO PUSH2 0x9389 JUMPI DUP2 DUP3 REVERT JUMPDEST PUSH2 0x9395 DUP7 DUP3 DUP8 ADD PUSH2 0x87C5 JUMP JUMPDEST SWAP4 POP POP PUSH1 0x20 DUP5 ADD CALLDATALOAD PUSH2 0x93A6 DUP2 PUSH2 0xA89F JUMP JUMPDEST SWAP2 POP PUSH1 0x40 DUP5 ADD CALLDATALOAD PUSH2 0x8DF4 DUP2 PUSH2 0xA89F JUMP JUMPDEST PUSH1 0x0 PUSH1 0x20 DUP1 DUP4 DUP6 SUB SLT ISZERO PUSH2 0x93C8 JUMPI DUP2 DUP3 REVERT JUMPDEST DUP3 MLOAD PUSH1 0x1 PUSH1 0x1 PUSH1 0x40 SHL SUB DUP2 GT ISZERO PUSH2 0x93DD JUMPI DUP3 DUP4 REVERT JUMPDEST DUP4 ADD PUSH1 0x1F DUP2 ADD DUP6 SGT PUSH2 0x93ED JUMPI DUP3 DUP4 REVERT JUMPDEST DUP1 MLOAD PUSH2 0x93FB PUSH2 0x86BC DUP3 PUSH2 0xA820 JUMP JUMPDEST DUP2 DUP2 MSTORE DUP4 DUP2 ADD SWAP1 DUP4 DUP6 ADD DUP6 DUP5 MUL DUP6 ADD DUP7 ADD DUP10 LT ISZERO PUSH2 0x9417 JUMPI DUP7 DUP8 REVERT JUMPDEST DUP7 SWAP5 POP JUMPDEST DUP4 DUP6 LT ISZERO PUSH2 0x913D JUMPI DUP1 MLOAD DUP4 MSTORE PUSH1 0x1 SWAP5 SWAP1 SWAP5 ADD SWAP4 SWAP2 DUP6 ADD SWAP2 DUP6 ADD PUSH2 0x941B JUMP JUMPDEST PUSH1 0x0 DUP1 PUSH1 0x0 PUSH1 0x60 DUP5 DUP7 SUB SLT ISZERO PUSH2 0x944D JUMPI DUP1 DUP2 REVERT JUMPDEST DUP4 CALLDATALOAD PUSH1 0x1 PUSH1 0x1 PUSH1 0x40 SHL SUB DUP1 DUP3 GT ISZERO PUSH2 0x9463 JUMPI DUP3 DUP4 REVERT JUMPDEST DUP2 DUP7 ADD SWAP2 POP DUP7 PUSH1 0x1F DUP4 ADD SLT PUSH2 0x9476 JUMPI DUP3 DUP4 REVERT JUMPDEST DUP2 CALLDATALOAD PUSH2 0x9484 PUSH2 0x86BC DUP3 PUSH2 0xA820 JUMP JUMPDEST DUP1 DUP3 DUP3 MSTORE PUSH1 0x20 DUP1 DUP4 ADD SWAP3 POP DUP1 DUP7 ADD PUSH2 0x180 DUP13 DUP4 DUP3 DUP9 MUL DUP11 ADD ADD GT ISZERO PUSH2 0x94A7 JUMPI DUP9 DUP10 REVERT JUMPDEST DUP9 SWAP8 POP JUMPDEST DUP6 DUP9 LT ISZERO PUSH2 0x94D3 JUMPI PUSH2 0x94BD DUP14 DUP4 PUSH2 0x8B6E JUMP JUMPDEST DUP6 MSTORE PUSH1 0x1 SWAP8 SWAP1 SWAP8 ADD SWAP7 SWAP4 DUP3 ADD SWAP4 SWAP1 DUP2 ADD SWAP1 PUSH2 0x94AB JUMP JUMPDEST POP SWAP2 SWAP9 POP DUP10 ADD CALLDATALOAD SWAP5 POP POP POP POP DUP1 DUP3 GT ISZERO PUSH2 0x94EB JUMPI DUP3 DUP4 REVERT JUMPDEST POP PUSH2 0x94F8 DUP7 DUP3 DUP8 ADD PUSH2 0x882C JUMP JUMPDEST SWAP3 POP POP PUSH2 0x920A DUP6 PUSH1 0x40 DUP7 ADD PUSH2 0x8688 JUMP JUMPDEST PUSH1 0x0 PUSH1 0x20 DUP3 DUP5 SUB SLT ISZERO PUSH2 0x9519 JUMPI DUP1 DUP2 REVERT JUMPDEST DUP2 MLOAD PUSH1 0x1 PUSH1 0x1 PUSH1 0x40 SHL SUB DUP2 GT ISZERO PUSH2 0x952E JUMPI DUP2 DUP3 REVERT JUMPDEST PUSH2 0x144E DUP5 DUP3 DUP6 ADD PUSH2 0x88FE JUMP JUMPDEST PUSH1 0x0 PUSH1 0x20 DUP3 DUP5 SUB SLT ISZERO PUSH2 0x954B JUMPI DUP1 DUP2 REVERT JUMPDEST DUP2 MLOAD PUSH2 0x4194 DUP2 PUSH2 0xA8B4 JUMP JUMPDEST PUSH1 0x0 PUSH1 0x20 DUP3 DUP5 SUB SLT ISZERO PUSH2 0x9567 JUMPI DUP1 DUP2 REVERT JUMPDEST POP MLOAD SWAP2 SWAP1 POP JUMP JUMPDEST PUSH1 0x0 PUSH1 0x20 DUP3 DUP5 SUB SLT ISZERO PUSH2 0x957F JUMPI DUP1 DUP2 REVERT JUMPDEST DUP2 MLOAD PUSH1 0x1 PUSH1 0x1 PUSH1 0x40 SHL SUB DUP2 GT ISZERO PUSH2 0x9594 JUMPI DUP2 DUP3 REVERT JUMPDEST PUSH2 0x144E DUP5 DUP3 DUP6 ADD PUSH2 0x89AA JUMP JUMPDEST PUSH1 0x0 DUP1 PUSH1 0x0 PUSH1 0x60 DUP5 DUP7 SUB SLT ISZERO PUSH2 0x95B4 JUMPI DUP1 DUP2 REVERT JUMPDEST DUP4 CALLDATALOAD PUSH2 0x95BF DUP2 PUSH2 0xA89F JUMP JUMPDEST SWAP3 POP PUSH1 0x20 DUP5 ADD CALLDATALOAD PUSH1 0x1 PUSH1 0x1 PUSH1 0x40 SHL SUB DUP1 DUP3 GT ISZERO PUSH2 0x95DA JUMPI DUP3 DUP4 REVERT JUMPDEST PUSH2 0x904C DUP8 DUP4 DUP9 ADD PUSH2 0x87C5 JUMP JUMPDEST PUSH1 0x0 PUSH1 0x20 DUP3 DUP5 SUB SLT ISZERO PUSH2 0x95F7 JUMPI DUP1 DUP2 REVERT JUMPDEST DUP2 MLOAD PUSH2 0x4194 DUP2 PUSH2 0xA8D8 JUMP JUMPDEST PUSH1 0x0 DUP1 PUSH1 0x80 DUP4 DUP6 SUB SLT ISZERO PUSH2 0x9614 JUMPI DUP2 DUP3 REVERT JUMPDEST DUP3 MLOAD PUSH2 0x961F DUP2 PUSH2 0xA8D8 JUMP JUMPDEST SWAP2 POP PUSH2 0x962E DUP5 PUSH1 0x20 DUP6 ADD PUSH2 0x8A55 JUMP JUMPDEST SWAP1 POP SWAP3 POP SWAP3 SWAP1 POP JUMP JUMPDEST PUSH1 0x0 DUP1 PUSH1 0x0 DUP1 DUP5 DUP7 SUB PUSH1 0xA0 DUP2 SLT ISZERO PUSH2 0x964D JUMPI DUP3 DUP4 REVERT JUMPDEST PUSH1 0x40 DUP2 SLT ISZERO PUSH2 0x965A JUMPI DUP3 DUP4 REVERT JUMPDEST POP PUSH2 0x9665 PUSH1 0x40 PUSH2 0xA7FA JUMP JUMPDEST DUP6 CALLDATALOAD DUP2 MSTORE PUSH1 0x20 DUP7 ADD CALLDATALOAD PUSH2 0x9677 DUP2 PUSH2 0xA89F JUMP JUMPDEST PUSH1 0x20 DUP3 ADD MSTORE SWAP4 POP PUSH1 0x40 DUP6 ADD CALLDATALOAD PUSH2 0x968C DUP2 PUSH2 0xA89F JUMP JUMPDEST SWAP3 POP PUSH1 0x60 DUP6 ADD CALLDATALOAD PUSH2 0x969C DUP2 PUSH2 0xA89F JUMP JUMPDEST SWAP2 POP PUSH1 0x80 DUP6 ADD CALLDATALOAD PUSH1 0x1 PUSH1 0x1 PUSH1 0x40 SHL SUB DUP2 GT ISZERO PUSH2 0x8F9E JUMPI DUP2 DUP3 REVERT JUMPDEST PUSH1 0x0 DUP1 PUSH1 0x0 DUP1 PUSH1 0x80 DUP6 DUP8 SUB SLT ISZERO PUSH2 0x96CB JUMPI DUP2 DUP3 REVERT JUMPDEST DUP5 CALLDATALOAD PUSH1 0x1 PUSH1 0x1 PUSH1 0x40 SHL SUB DUP1 DUP3 GT ISZERO PUSH2 0x96E1 JUMPI DUP4 DUP5 REVERT JUMPDEST SWAP1 DUP7 ADD SWAP1 PUSH1 0x40 DUP3 DUP10 SUB SLT ISZERO PUSH2 0x96F4 JUMPI DUP4 DUP5 REVERT JUMPDEST PUSH2 0x96FE PUSH1 0x40 PUSH2 0xA7FA JUMP JUMPDEST PUSH2 0x9708 DUP10 DUP5 PUSH2 0x8688 JUMP JUMPDEST DUP2 MSTORE PUSH1 0x20 DUP4 ADD CALLDATALOAD DUP3 DUP2 GT ISZERO PUSH2 0x971B JUMPI DUP6 DUP7 REVERT JUMPDEST PUSH2 0x9727 DUP11 DUP3 DUP7 ADD PUSH2 0x8715 JUMP JUMPDEST PUSH1 0x20 DUP4 ADD MSTORE POP DUP1 SWAP7 POP POP PUSH2 0x973E DUP9 PUSH1 0x20 DUP10 ADD PUSH2 0x8688 JUMP JUMPDEST SWAP5 POP PUSH2 0x974D DUP9 PUSH1 0x40 DUP10 ADD PUSH2 0x8688 JUMP JUMPDEST SWAP4 POP PUSH1 0x60 DUP8 ADD CALLDATALOAD SWAP2 POP DUP1 DUP3 GT ISZERO PUSH2 0x9762 JUMPI DUP3 DUP4 REVERT JUMPDEST POP PUSH2 0x8FAA DUP8 DUP3 DUP9 ADD PUSH2 0x88A0 JUMP JUMPDEST PUSH1 0x0 DUP1 PUSH1 0x0 DUP1 PUSH1 0xC0 DUP6 DUP8 SUB SLT ISZERO PUSH2 0x9784 JUMPI DUP2 DUP3 REVERT JUMPDEST PUSH2 0x978E DUP7 DUP7 PUSH2 0x89FF JUMP JUMPDEST SWAP4 POP PUSH1 0x60 DUP6 ADD CALLDATALOAD PUSH2 0x979E DUP2 PUSH2 0xA8D8 JUMP JUMPDEST SWAP3 POP PUSH1 0x80 DUP6 ADD CALLDATALOAD PUSH2 0x97AE DUP2 PUSH2 0xA8D8 JUMP JUMPDEST SWAP2 POP PUSH1 0xA0 DUP6 ADD CALLDATALOAD PUSH1 0x1 PUSH1 0x1 PUSH1 0x40 SHL SUB DUP2 GT ISZERO PUSH2 0x8F9E JUMPI DUP2 DUP3 REVERT JUMPDEST PUSH1 0x0 DUP1 PUSH1 0x0 DUP1 PUSH1 0xA0 DUP6 DUP8 SUB SLT ISZERO PUSH2 0x97DD JUMPI DUP2 DUP3 REVERT JUMPDEST PUSH2 0x97E7 DUP7 DUP7 PUSH2 0x8AA0 JUMP JUMPDEST SWAP4 POP PUSH1 0x40 DUP6 ADD CALLDATALOAD PUSH2 0x968C DUP2 PUSH2 0xA89F JUMP JUMPDEST PUSH1 0x0 PUSH1 0x20 DUP3 DUP5 SUB SLT ISZERO PUSH2 0x9808 JUMPI DUP1 DUP2 REVERT JUMPDEST DUP2 CALLDATALOAD PUSH1 0x1 PUSH1 0x1 PUSH1 0x40 SHL SUB DUP1 DUP3 GT ISZERO PUSH2 0x981E JUMPI DUP3 DUP4 REVERT JUMPDEST SWAP1 DUP4 ADD SWAP1 PUSH1 0xA0 DUP3 DUP7 SUB SLT ISZERO PUSH2 0x9831 JUMPI DUP3 DUP4 REVERT JUMPDEST PUSH2 0x983B PUSH1 0xA0 PUSH2 0xA7FA JUMP JUMPDEST PUSH2 0x9845 DUP7 DUP5 PUSH2 0x8688 JUMP JUMPDEST DUP2 MSTORE PUSH1 0x20 DUP4 ADD CALLDATALOAD DUP3 DUP2 GT ISZERO PUSH2 0x9858 JUMPI DUP5 DUP6 REVERT JUMPDEST PUSH2 0x9864 DUP8 DUP3 DUP7 ADD PUSH2 0x869E JUMP JUMPDEST PUSH1 0x20 DUP4 ADD MSTORE POP PUSH1 0x40 DUP4 ADD CALLDATALOAD DUP3 DUP2 GT ISZERO PUSH2 0x987B JUMPI DUP5 DUP6 REVERT JUMPDEST PUSH2 0x9887 DUP8 DUP3 DUP7 ADD PUSH2 0x876D JUMP JUMPDEST PUSH1 0x40 DUP4 ADD MSTORE POP PUSH1 0x60 DUP4 ADD CALLDATALOAD DUP3 DUP2 GT ISZERO PUSH2 0x989E JUMPI DUP5 DUP6 REVERT JUMPDEST PUSH2 0x98AA DUP8 DUP3 DUP7 ADD PUSH2 0x869E JUMP JUMPDEST PUSH1 0x60 DUP4 ADD MSTORE POP PUSH1 0x80 DUP4 ADD CALLDATALOAD DUP3 DUP2 GT ISZERO PUSH2 0x98C1 JUMPI DUP5 DUP6 REVERT JUMPDEST PUSH2 0x98CD DUP8 DUP3 DUP7 ADD PUSH2 0x88A0 JUMP JUMPDEST PUSH1 0x80 DUP4 ADD MSTORE POP SWAP6 SWAP5 POP POP POP POP POP JUMP JUMPDEST PUSH1 0x0 DUP1 PUSH1 0x0 DUP1 PUSH1 0x80 DUP6 DUP8 SUB SLT ISZERO PUSH2 0x98F1 JUMPI DUP2 DUP3 REVERT JUMPDEST DUP5 CALLDATALOAD PUSH1 0x1 PUSH1 0x1 PUSH1 0x40 SHL SUB DUP1 DUP3 GT ISZERO PUSH2 0x9907 JUMPI DUP4 DUP5 REVERT JUMPDEST PUSH2 0x9913 DUP9 DUP4 DUP10 ADD PUSH2 0x8AE3 JUMP JUMPDEST SWAP6 POP PUSH1 0x20 DUP8 ADD CALLDATALOAD SWAP2 POP PUSH2 0x9925 DUP3 PUSH2 0xA89F JUMP JUMPDEST SWAP1 SWAP4 POP PUSH1 0x40 DUP7 ADD CALLDATALOAD SWAP1 PUSH2 0x9937 DUP3 PUSH2 0xA89F JUMP JUMPDEST SWAP1 SWAP3 POP PUSH1 0x60 DUP7 ADD CALLDATALOAD SWAP1 DUP1 DUP3 GT ISZERO PUSH2 0x9762 JUMPI DUP3 DUP4 REVERT JUMPDEST PUSH1 0x0 DUP1 PUSH1 0x0 DUP1 PUSH1 0x80 DUP6 DUP8 SUB SLT ISZERO PUSH2 0x9961 JUMPI DUP2 DUP3 REVERT JUMPDEST DUP5 CALLDATALOAD PUSH1 0x1 PUSH1 0x1 PUSH1 0x40 SHL SUB DUP2 GT ISZERO PUSH2 0x9976 JUMPI DUP3 DUP4 REVERT JUMPDEST PUSH2 0x9982 DUP8 DUP3 DUP9 ADD PUSH2 0x8AE3 JUMP JUMPDEST SWAP5 POP POP PUSH1 0x20 DUP6 ADD CALLDATALOAD PUSH2 0x8FE6 DUP2 PUSH2 0xA89F JUMP JUMPDEST PUSH1 0x0 DUP1 PUSH1 0x0 DUP1 PUSH1 0x80 DUP6 DUP8 SUB SLT ISZERO PUSH2 0x99A8 JUMPI DUP2 DUP3 REVERT JUMPDEST DUP5 CALLDATALOAD PUSH1 0x1 PUSH1 0x1 PUSH1 0x40 SHL SUB DUP2 GT ISZERO PUSH2 0x99BD JUMPI DUP3 DUP4 REVERT JUMPDEST PUSH2 0x99C9 DUP8 DUP3 DUP9 ADD PUSH2 0x8AE3 JUMP JUMPDEST SWAP5 POP POP PUSH1 0x20 DUP6 ADD CALLDATALOAD SWAP3 POP PUSH1 0x40 DUP6 ADD CALLDATALOAD PUSH2 0x99E1 DUP2 PUSH2 0xA89F JUMP JUMPDEST SWAP2 POP PUSH1 0x60 DUP6 ADD CALLDATALOAD PUSH2 0x8DA4 DUP2 PUSH2 0xA89F JUMP JUMPDEST PUSH1 0x0 DUP1 PUSH1 0x0 PUSH2 0x220 DUP5 DUP7 SUB SLT ISZERO PUSH2 0x9A06 JUMPI DUP1 DUP2 REVERT JUMPDEST PUSH2 0x9A10 DUP6 DUP6 PUSH2 0x8B6E JUMP JUMPDEST SWAP3 POP PUSH2 0x9A20 DUP6 PUSH2 0x180 DUP7 ADD PUSH2 0x8C5B JUMP JUMPDEST SWAP2 POP PUSH2 0x200 DUP5 ADD CALLDATALOAD PUSH2 0x8DF4 DUP2 PUSH2 0xA89F JUMP JUMPDEST PUSH1 0x0 DUP1 PUSH1 0x0 DUP1 DUP5 DUP7 SUB PUSH1 0xC0 DUP2 SLT ISZERO PUSH2 0x9A47 JUMPI DUP3 DUP4 REVERT JUMPDEST PUSH1 0x60 DUP2 SLT ISZERO PUSH2 0x9A54 JUMPI DUP3 DUP4 REVERT JUMPDEST POP PUSH2 0x9A5F PUSH1 0x60 PUSH2 0xA7FA JUMP JUMPDEST DUP6 CALLDATALOAD PUSH2 0x9A6A DUP2 PUSH2 0xA89F JUMP JUMPDEST DUP2 MSTORE PUSH1 0x20 DUP7 DUP2 ADD CALLDATALOAD SWAP1 DUP3 ADD MSTORE PUSH1 0x40 DUP7 ADD CALLDATALOAD PUSH2 0x9A84 DUP2 PUSH2 0xA89F JUMP JUMPDEST PUSH1 0x40 DUP3 ADD MSTORE SWAP4 POP PUSH1 0x60 DUP6 ADD CALLDATALOAD PUSH2 0x9A99 DUP2 PUSH2 0xA89F JUMP JUMPDEST SWAP3 POP PUSH1 0x80 DUP6 ADD CALLDATALOAD PUSH2 0x97AE DUP2 PUSH2 0xA89F JUMP JUMPDEST PUSH1 0x0 DUP1 PUSH1 0x0 DUP4 DUP6 SUB PUSH1 0xA0 DUP2 SLT ISZERO PUSH2 0x9ABE JUMPI DUP2 DUP3 REVERT JUMPDEST PUSH1 0x60 DUP2 SLT ISZERO PUSH2 0x9ACB JUMPI DUP2 DUP3 REVERT JUMPDEST POP PUSH2 0x9AD6 PUSH1 0x60 PUSH2 0xA7FA JUMP JUMPDEST DUP5 MLOAD DUP2 MSTORE PUSH1 0x20 DUP6 ADD MLOAD PUSH1 0x5 DUP2 LT PUSH2 0x9AEB JUMPI DUP3 DUP4 REVERT JUMPDEST PUSH1 0x20 DUP3 ADD MSTORE PUSH1 0x40 DUP6 ADD MLOAD PUSH2 0x9AFE DUP2 PUSH2 0xA8E7 JUMP JUMPDEST PUSH1 0x40 DUP3 ADD MSTORE PUSH1 0x60 DUP6 ADD MLOAD SWAP1 SWAP4 POP PUSH2 0x9B14 DUP2 PUSH2 0xA8E7 JUMP JUMPDEST PUSH1 0x80 DUP6 ADD MLOAD SWAP1 SWAP3 POP PUSH2 0x8DF4 DUP2 PUSH2 0xA8B4 JUMP JUMPDEST PUSH1 0x0 PUSH1 0x20 DUP3 DUP5 SUB SLT ISZERO PUSH2 0x9B36 JUMPI DUP1 DUP2 REVERT JUMPDEST DUP2 MLOAD PUSH3 0xFFFFFF DUP2 AND DUP2 EQ PUSH2 0x4194 JUMPI DUP2 DUP3 REVERT JUMPDEST PUSH1 0x0 DUP1 PUSH1 0x40 DUP4 DUP6 SUB SLT ISZERO PUSH2 0x9B5A JUMPI DUP2 DUP3 REVERT JUMPDEST POP POP DUP1 MLOAD PUSH1 0x20 SWAP1 SWAP2 ADD MLOAD SWAP1 SWAP3 SWAP1 SWAP2 POP JUMP JUMPDEST PUSH1 0x0 DUP1 PUSH1 0x0 DUP1 PUSH1 0x80 DUP6 DUP8 SUB SLT ISZERO PUSH2 0x9B80 JUMPI DUP2 DUP3 REVERT JUMPDEST POP POP DUP3 MLOAD PUSH1 0x20 DUP5 ADD MLOAD PUSH1 0x40 DUP6 ADD MLOAD PUSH1 0x60 SWAP1 SWAP6 ADD MLOAD SWAP2 SWAP7 SWAP1 SWAP6 POP SWAP1 SWAP3 POP SWAP1 POP JUMP JUMPDEST PUSH1 0x0 DUP1 PUSH1 0x0 DUP1 PUSH1 0x0 PUSH1 0xA0 DUP7 DUP9 SUB SLT ISZERO PUSH2 0x9BB7 JUMPI DUP3 DUP4 REVERT JUMPDEST POP POP DUP4 MLOAD PUSH1 0x20 DUP6 ADD MLOAD PUSH1 0x40 DUP7 ADD MLOAD PUSH1 0x60 DUP8 ADD MLOAD PUSH1 0x80 SWAP1 SWAP8 ADD MLOAD SWAP3 SWAP9 SWAP2 SWAP8 POP SWAP6 SWAP5 POP SWAP1 SWAP3 POP SWAP1 POP JUMP JUMPDEST PUSH1 0x1 PUSH1 0x1 PUSH1 0xA0 SHL SUB AND SWAP1 MSTORE JUMP JUMPDEST PUSH1 0x0 DUP2 MLOAD DUP1 DUP5 MSTORE PUSH1 0x20 DUP1 DUP6 ADD SWAP5 POP DUP1 DUP5 ADD DUP4 JUMPDEST DUP4 DUP2 LT ISZERO PUSH2 0x9C24 JUMPI DUP2 MLOAD PUSH1 0x1 PUSH1 0x1 PUSH1 0xA0 SHL SUB AND DUP8 MSTORE SWAP6 DUP3 ADD SWAP6 SWAP1 DUP3 ADD SWAP1 PUSH1 0x1 ADD PUSH2 0x9BFF JUMP JUMPDEST POP SWAP5 SWAP6 SWAP5 POP POP POP POP POP JUMP JUMPDEST PUSH1 0x0 DUP2 MLOAD DUP1 DUP5 MSTORE PUSH1 0x20 DUP1 DUP6 ADD SWAP5 POP DUP1 DUP5 ADD DUP4 JUMPDEST DUP4 DUP2 LT ISZERO PUSH2 0x9C24 JUMPI DUP2 MLOAD DUP8 MSTORE SWAP6 DUP3 ADD SWAP6 SWAP1 DUP3 ADD SWAP1 PUSH1 0x1 ADD PUSH2 0x9C42 JUMP JUMPDEST PUSH1 0x0 DUP2 MLOAD DUP1 DUP5 MSTORE PUSH2 0x9C76 DUP2 PUSH1 0x20 DUP7 ADD PUSH1 0x20 DUP7 ADD PUSH2 0xA862 JUMP JUMPDEST PUSH1 0x1F ADD PUSH1 0x1F NOT AND SWAP3 SWAP1 SWAP3 ADD PUSH1 0x20 ADD SWAP3 SWAP2 POP POP JUMP JUMPDEST PUSH1 0x0 DUP2 MLOAD DUP4 MSTORE PUSH1 0x20 DUP3 ADD MLOAD PUSH1 0x20 DUP5 ADD MSTORE PUSH1 0x40 DUP3 ADD MLOAD PUSH1 0x40 DUP5 ADD MSTORE PUSH1 0x60 DUP3 ADD MLOAD PUSH1 0x60 DUP5 ADD MSTORE PUSH1 0x80 DUP3 ADD MLOAD PUSH1 0xA0 PUSH1 0x80 DUP6 ADD MSTORE PUSH2 0x144E PUSH1 0xA0 DUP6 ADD DUP3 PUSH2 0x9C5E JUMP JUMPDEST DUP1 MLOAD PUSH1 0x1 PUSH1 0x1 PUSH1 0xA0 SHL SUB AND DUP3 MSTORE PUSH1 0x20 DUP1 DUP3 ADD MLOAD PUSH1 0x1 PUSH1 0x1 PUSH1 0xE0 SHL SUB NOT SWAP1 DUP2 AND SWAP2 DUP5 ADD SWAP2 SWAP1 SWAP2 MSTORE PUSH1 0x40 SWAP2 DUP3 ADD MLOAD AND SWAP2 ADD MSTORE JUMP JUMPDEST DUP1 MLOAD PUSH1 0x1 PUSH1 0x1 PUSH1 0xA0 SHL SUB SWAP1 DUP2 AND DUP4 MSTORE PUSH1 0x20 DUP1 DUP4 ADD MLOAD ISZERO ISZERO SWAP1 DUP5 ADD MSTORE PUSH1 0x40 DUP1 DUP4 ADD MLOAD SWAP1 SWAP2 AND SWAP1 DUP4 ADD MSTORE PUSH1 0x60 SWAP1 DUP2 ADD MLOAD ISZERO ISZERO SWAP2 ADD MSTORE JUMP JUMPDEST PUSH1 0x0 DUP2 MLOAD DUP4 MSTORE PUSH1 0x20 DUP3 ADD MLOAD PUSH1 0x40 PUSH1 0x20 DUP6 ADD MSTORE PUSH2 0x144E PUSH1 0x40 DUP6 ADD DUP3 PUSH2 0x9C5E JUMP JUMPDEST PUSH1 0x0 DUP2 MLOAD DUP4 MSTORE PUSH1 0x20 DUP3 ADD MLOAD PUSH1 0x1 DUP1 PUSH1 0xA0 SHL SUB DUP1 DUP3 AND PUSH1 0x20 DUP7 ADD MSTORE DUP1 PUSH1 0x40 DUP6 ADD MLOAD AND PUSH1 0x40 DUP7 ADD MSTORE DUP1 PUSH1 0x60 DUP6 ADD MLOAD AND PUSH1 0x60 DUP7 ADD MSTORE POP POP PUSH1 0x80 DUP3 ADD MLOAD PUSH1 0xA0 PUSH1 0x80 DUP6 ADD MSTORE PUSH2 0x144E PUSH1 0xA0 DUP6 ADD DUP3 PUSH2 0x9C5E JUMP JUMPDEST PUSH2 0x9DA5 DUP3 DUP3 MLOAD PUSH2 0x9BDF JUMP JUMPDEST PUSH1 0x20 DUP2 ADD MLOAD PUSH2 0x9DB7 PUSH1 0x20 DUP5 ADD DUP3 PUSH2 0x9BDF JUMP JUMPDEST POP PUSH1 0x40 DUP2 ADD MLOAD PUSH2 0x9DCA PUSH1 0x40 DUP5 ADD DUP3 PUSH2 0x9E9A JUMP JUMPDEST POP PUSH1 0x60 DUP2 ADD MLOAD PUSH2 0x9DDD PUSH1 0x60 DUP5 ADD DUP3 PUSH2 0x9E9A JUMP JUMPDEST POP PUSH1 0x80 DUP2 ADD MLOAD PUSH2 0x9DF0 PUSH1 0x80 DUP5 ADD DUP3 PUSH2 0x9E9A JUMP JUMPDEST POP PUSH1 0xA0 DUP2 ADD MLOAD PUSH2 0x9E03 PUSH1 0xA0 DUP5 ADD DUP3 PUSH2 0x9BDF JUMP JUMPDEST POP PUSH1 0xC0 DUP2 ADD MLOAD PUSH2 0x9E16 PUSH1 0xC0 DUP5 ADD DUP3 PUSH2 0x9BDF JUMP JUMPDEST POP PUSH1 0xE0 DUP2 ADD MLOAD PUSH2 0x9E29 PUSH1 0xE0 DUP5 ADD DUP3 PUSH2 0x9BDF JUMP JUMPDEST POP PUSH2 0x100 DUP1 DUP3 ADD MLOAD PUSH2 0x9E3D DUP3 DUP6 ADD DUP3 PUSH2 0x9BDF JUMP JUMPDEST POP POP PUSH2 0x120 DUP2 DUP2 ADD MLOAD SWAP1 DUP4 ADD MSTORE PUSH2 0x140 DUP1 DUP3 ADD MLOAD PUSH2 0x9E5D DUP3 DUP6 ADD DUP3 PUSH2 0x9EA7 JUMP JUMPDEST POP POP PUSH2 0x160 SWAP1 DUP2 ADD MLOAD SWAP2 ADD MSTORE JUMP JUMPDEST DUP1 MLOAD PUSH2 0x9E76 DUP2 PUSH2 0xA892 JUMP JUMPDEST DUP3 MSTORE PUSH1 0x20 DUP2 DUP2 ADD MLOAD PUSH1 0xFF AND SWAP1 DUP4 ADD MSTORE PUSH1 0x40 DUP1 DUP3 ADD MLOAD SWAP1 DUP4 ADD MSTORE PUSH1 0x60 SWAP1 DUP2 ADD MLOAD SWAP2 ADD MSTORE JUMP JUMPDEST PUSH1 0x1 PUSH1 0x1 PUSH1 0x80 SHL SUB AND SWAP1 MSTORE JUMP JUMPDEST PUSH1 0x1 PUSH1 0x1 PUSH1 0x40 SHL SUB AND SWAP1 MSTORE JUMP JUMPDEST PUSH1 0x0 DUP3 DUP5 DUP4 CALLDATACOPY SWAP2 ADD SWAP1 DUP2 MSTORE SWAP2 SWAP1 POP JUMP JUMPDEST PUSH1 0x0 DUP3 MLOAD PUSH2 0x9ED6 DUP2 DUP5 PUSH1 0x20 DUP8 ADD PUSH2 0xA862 JUMP JUMPDEST SWAP2 SWAP1 SWAP2 ADD SWAP3 SWAP2 POP POP JUMP JUMPDEST PUSH1 0x1 PUSH1 0x1 PUSH1 0xA0 SHL SUB SWAP2 SWAP1 SWAP2 AND DUP2 MSTORE PUSH1 0x20 ADD SWAP1 JUMP JUMPDEST PUSH1 0x1 PUSH1 0x1 PUSH1 0xA0 SHL SUB SWAP3 SWAP1 SWAP3 AND DUP3 MSTORE PUSH1 0x20 DUP3 ADD MSTORE PUSH1 0x40 ADD SWAP1 JUMP JUMPDEST PUSH1 0x1 PUSH1 0x1 PUSH1 0xA0 SHL SUB SWAP3 DUP4 AND DUP2 MSTORE SWAP2 AND PUSH1 0x20 DUP3 ADD MSTORE PUSH1 0x40 ADD SWAP1 JUMP JUMPDEST PUSH1 0x1 PUSH1 0x1 PUSH1 0xA0 SHL SUB SWAP5 DUP6 AND DUP2 MSTORE SWAP3 DUP5 AND PUSH1 0x20 DUP5 ADD MSTORE SWAP1 DUP4 AND PUSH1 0x40 DUP4 ADD MSTORE SWAP1 SWAP2 AND PUSH1 0x60 DUP3 ADD MSTORE PUSH1 0x80 ADD SWAP1 JUMP JUMPDEST PUSH1 0x1 PUSH1 0x1 PUSH1 0xA0 SHL SUB DUP6 DUP2 AND DUP3 MSTORE DUP5 DUP2 AND PUSH1 0x20 DUP4 ADD MSTORE DUP4 AND PUSH1 0x40 DUP3 ADD MSTORE PUSH1 0x80 PUSH1 0x60 DUP3 ADD DUP2 SWAP1 MSTORE PUSH1 0x0 SWAP1 PUSH2 0x68C3 SWAP1 DUP4 ADD DUP5 PUSH2 0x9C2F JUMP JUMPDEST PUSH1 0x1 PUSH1 0x1 PUSH1 0xA0 SHL SUB SWAP5 DUP6 AND DUP2 MSTORE SWAP3 DUP5 AND PUSH1 0x20 DUP5 ADD MSTORE SWAP3 AND PUSH1 0x40 DUP3 ADD MSTORE PUSH1 0x60 DUP2 ADD SWAP2 SWAP1 SWAP2 MSTORE PUSH1 0x80 ADD SWAP1 JUMP JUMPDEST PUSH1 0x1 PUSH1 0x1 PUSH1 0xA0 SHL SUB SWAP4 DUP5 AND DUP2 MSTORE SWAP2 SWAP1 SWAP3 AND PUSH1 0x20 DUP3 ADD MSTORE SWAP1 ISZERO ISZERO PUSH1 0x40 DUP3 ADD MSTORE PUSH1 0x60 ADD SWAP1 JUMP JUMPDEST PUSH1 0x1 PUSH1 0x1 PUSH1 0xA0 SHL SUB DUP6 DUP2 AND DUP3 MSTORE DUP5 AND PUSH1 0x20 DUP3 ADD MSTORE DUP3 ISZERO ISZERO PUSH1 0x40 DUP3 ADD MSTORE PUSH1 0x80 PUSH1 0x60 DUP3 ADD DUP2 SWAP1 MSTORE PUSH1 0x0 SWAP1 PUSH2 0x68C3 SWAP1 DUP4 ADD DUP5 PUSH2 0x9C5E JUMP JUMPDEST PUSH1 0x1 PUSH1 0x1 PUSH1 0xA0 SHL SUB SWAP4 DUP5 AND DUP2 MSTORE SWAP2 SWAP1 SWAP3 AND PUSH1 0x20 DUP3 ADD MSTORE PUSH1 0x40 DUP2 ADD SWAP2 SWAP1 SWAP2 MSTORE PUSH1 0x60 ADD SWAP1 JUMP JUMPDEST PUSH1 0x1 PUSH1 0x1 PUSH1 0xA0 SHL SUB DUP7 DUP2 AND DUP3 MSTORE DUP6 AND PUSH1 0x20 DUP3 ADD MSTORE PUSH1 0x40 DUP2 ADD DUP5 SWAP1 MSTORE PUSH1 0x60 DUP2 ADD DUP4 SWAP1 MSTORE PUSH1 0xA0 PUSH1 0x80 DUP3 ADD DUP2 SWAP1 MSTORE PUSH1 0x0 SWAP1 PUSH2 0xA066 SWAP1 DUP4 ADD DUP5 PUSH2 0x9C5E JUMP JUMPDEST SWAP8 SWAP7 POP POP POP POP POP POP POP JUMP JUMPDEST PUSH1 0x1 PUSH1 0x1 PUSH1 0xA0 SHL SUB DUP5 AND DUP2 MSTORE PUSH1 0x60 PUSH1 0x20 DUP3 ADD DUP2 SWAP1 MSTORE PUSH1 0x0 SWAP1 PUSH2 0xA095 SWAP1 DUP4 ADD DUP6 PUSH2 0x9BEC JUMP JUMPDEST DUP3 DUP2 SUB PUSH1 0x40 DUP5 ADD MSTORE PUSH2 0x68C3 DUP2 DUP6 PUSH2 0x9C2F JUMP JUMPDEST PUSH1 0x1 PUSH1 0x1 PUSH1 0xA0 SHL SUB DUP6 AND DUP2 MSTORE PUSH1 0x0 PUSH2 0xA0BE DUP6 PUSH2 0xA892 JUMP JUMPDEST DUP5 PUSH1 0x20 DUP4 ADD MSTORE PUSH1 0x80 PUSH1 0x40 DUP4 ADD MSTORE PUSH2 0xA0D8 PUSH1 0x80 DUP4 ADD DUP6 PUSH2 0x9C2F JUMP JUMPDEST DUP3 DUP2 SUB PUSH1 0x60 DUP5 ADD MSTORE PUSH2 0xA066 DUP2 DUP6 PUSH2 0x9C2F JUMP JUMPDEST PUSH1 0x1 PUSH1 0x1 PUSH1 0xA0 SHL SUB DUP10 DUP2 AND DUP3 MSTORE PUSH1 0x0 SWAP1 PUSH2 0x100 SWAP1 PUSH2 0xA107 DUP12 PUSH2 0xA892 JUMP JUMPDEST DUP11 PUSH1 0x20 DUP6 ADD MSTORE DUP2 PUSH1 0x40 DUP6 ADD MSTORE PUSH2 0xA11F DUP3 DUP6 ADD DUP12 PUSH2 0x9C2F JUMP JUMPDEST SWAP2 POP DUP4 DUP3 SUB PUSH1 0x60 DUP6 ADD MSTORE PUSH2 0xA133 DUP3 DUP11 PUSH2 0x9C2F JUMP JUMPDEST SWAP1 DUP9 AND PUSH1 0x80 DUP6 ADD MSTORE SWAP1 POP PUSH2 0xA146 DUP7 PUSH2 0xA892 JUMP JUMPDEST DUP6 PUSH1 0xA0 DUP5 ADD MSTORE DUP3 DUP2 SUB PUSH1 0xC0 DUP5 ADD MSTORE PUSH2 0xA15E DUP2 DUP7 PUSH2 0x9C2F JUMP JUMPDEST SWAP1 POP DUP3 DUP2 SUB PUSH1 0xE0 DUP5 ADD MSTORE PUSH2 0xA172 DUP2 DUP6 PUSH2 0x9C2F JUMP JUMPDEST SWAP12 SWAP11 POP POP POP POP POP POP POP POP POP POP POP JUMP JUMPDEST PUSH1 0x1 PUSH1 0x1 PUSH1 0xA0 SHL SUB DUP4 AND DUP2 MSTORE PUSH1 0x40 PUSH1 0x20 DUP3 ADD DUP2 SWAP1 MSTORE PUSH1 0x0 SWAP1 PUSH2 0x144E SWAP1 DUP4 ADD DUP5 PUSH2 0x9D4D JUMP JUMPDEST PUSH1 0x0 PUSH1 0x40 DUP3 MSTORE PUSH2 0xA1B8 PUSH1 0x40 DUP4 ADD DUP6 PUSH2 0x9BEC JUMP JUMPDEST DUP3 DUP2 SUB PUSH1 0x20 DUP5 ADD MSTORE PUSH2 0x14BC DUP2 DUP6 PUSH2 0x9C2F JUMP JUMPDEST PUSH1 0x0 PUSH1 0x40 DUP3 MSTORE PUSH2 0xA1DD PUSH1 0x40 DUP4 ADD DUP6 PUSH2 0x9BEC JUMP JUMPDEST SWAP1 POP DUP3 PUSH1 0x20 DUP4 ADD MSTORE SWAP4 SWAP3 POP POP POP JUMP JUMPDEST PUSH1 0x0 PUSH1 0x40 DUP3 ADD PUSH1 0x40 DUP4 MSTORE DUP1 DUP6 MLOAD DUP1 DUP4 MSTORE PUSH1 0x60 DUP6 ADD SWAP2 POP PUSH1 0x20 SWAP3 POP PUSH1 0x60 DUP4 DUP3 MUL DUP7 ADD ADD DUP4 DUP9 ADD DUP6 JUMPDEST DUP4 DUP2 LT ISZERO PUSH2 0xA241 JUMPI PUSH1 0x5F NOT DUP9 DUP5 SUB ADD DUP6 MSTORE PUSH2 0xA22F DUP4 DUP4 MLOAD PUSH2 0x9C5E JUMP JUMPDEST SWAP5 DUP7 ADD SWAP5 SWAP3 POP SWAP1 DUP6 ADD SWAP1 PUSH1 0x1 ADD PUSH2 0xA213 JUMP JUMPDEST POP POP DUP6 DUP2 SUB DUP5 DUP8 ADD MSTORE PUSH2 0x8106 DUP2 DUP9 PUSH2 0x9C2F JUMP JUMPDEST PUSH1 0x20 DUP1 DUP3 MSTORE DUP3 MLOAD DUP3 DUP3 ADD DUP2 SWAP1 MSTORE PUSH1 0x0 SWAP2 SWAP1 PUSH1 0x40 SWAP1 DUP2 DUP6 ADD SWAP1 DUP1 DUP5 MUL DUP7 ADD DUP4 ADD DUP8 DUP6 ADD DUP7 JUMPDEST DUP4 DUP2 LT ISZERO PUSH2 0xA2BB JUMPI DUP9 DUP4 SUB PUSH1 0x3F NOT ADD DUP6 MSTORE DUP2 MLOAD DUP1 MLOAD DUP8 DUP6 MSTORE PUSH2 0xA29C DUP9 DUP7 ADD DUP3 PUSH2 0x9C5E JUMP JUMPDEST SWAP2 DUP10 ADD MLOAD ISZERO ISZERO SWAP5 DUP10 ADD SWAP5 SWAP1 SWAP5 MSTORE SWAP5 DUP8 ADD SWAP5 SWAP3 POP SWAP1 DUP7 ADD SWAP1 PUSH1 0x1 ADD PUSH2 0xA278 JUMP JUMPDEST POP SWAP1 SWAP9 SWAP8 POP POP POP POP POP POP POP POP JUMP JUMPDEST PUSH1 0x0 PUSH1 0x20 DUP3 MSTORE PUSH2 0x4194 PUSH1 0x20 DUP4 ADD DUP5 PUSH2 0x9C2F JUMP JUMPDEST SWAP1 ISZERO ISZERO DUP2 MSTORE PUSH1 0x20 ADD SWAP1 JUMP JUMPDEST DUP4 ISZERO ISZERO DUP2 MSTORE PUSH1 0x1 PUSH1 0x1 PUSH1 0xA0 SHL SUB DUP4 AND PUSH1 0x20 DUP3 ADD MSTORE PUSH1 0x60 PUSH1 0x40 DUP3 ADD DUP2 SWAP1 MSTORE PUSH1 0x0 SWAP1 PUSH2 0x14BC SWAP1 DUP4 ADD DUP5 PUSH2 0x9C2F JUMP JUMPDEST SWAP1 DUP2 MSTORE PUSH1 0x20 ADD SWAP1 JUMP JUMPDEST PUSH1 0x0 DUP5 DUP3 MSTORE PUSH1 0x60 PUSH1 0x20 DUP4 ADD MSTORE PUSH2 0xA095 PUSH1 0x60 DUP4 ADD DUP6 PUSH2 0x9C5E JUMP JUMPDEST PUSH1 0x0 PUSH1 0x20 DUP3 MSTORE PUSH2 0x4194 PUSH1 0x20 DUP4 ADD DUP5 PUSH2 0x9C5E JUMP JUMPDEST PUSH1 0x0 PUSH1 0x40 DUP3 MSTORE PUSH2 0xA1DD PUSH1 0x40 DUP4 ADD DUP6 PUSH2 0x9C5E JUMP JUMPDEST PUSH1 0x1 PUSH1 0x1 PUSH1 0xA0 SHL SUB SWAP4 DUP5 AND DUP2 MSTORE SWAP2 SWAP1 SWAP3 AND PUSH1 0x20 DUP3 ADD MSTORE PUSH3 0xFFFFFF SWAP1 SWAP2 AND PUSH1 0x40 DUP3 ADD MSTORE PUSH1 0x60 ADD SWAP1 JUMP JUMPDEST PUSH1 0x1 PUSH1 0x1 PUSH1 0xA0 SHL SUB DUP4 AND DUP2 MSTORE PUSH1 0x40 PUSH1 0x20 DUP3 ADD DUP2 SWAP1 MSTORE PUSH1 0x0 SWAP1 PUSH2 0x144E SWAP1 DUP4 ADD DUP5 PUSH2 0x9C2F JUMP JUMPDEST PUSH1 0x60 DUP2 ADD PUSH2 0xA3B4 DUP6 PUSH2 0xA892 JUMP JUMPDEST SWAP4 DUP2 MSTORE PUSH1 0x20 DUP2 ADD SWAP3 SWAP1 SWAP3 MSTORE PUSH1 0x40 SWAP1 SWAP2 ADD MSTORE SWAP1 JUMP JUMPDEST PUSH1 0x60 DUP2 ADD PUSH1 0x8 DUP6 LT PUSH2 0xA3B4 JUMPI INVALID JUMPDEST PUSH1 0x0 PUSH1 0xE0 DUP3 ADD PUSH1 0x2 DUP8 LT PUSH2 0xA3E6 JUMPI INVALID JUMPDEST DUP7 DUP4 MSTORE PUSH1 0x20 PUSH1 0xE0 DUP2 DUP6 ADD MSTORE DUP2 DUP8 MLOAD DUP1 DUP5 MSTORE PUSH2 0x100 SWAP4 POP DUP4 DUP7 ADD SWAP2 POP DUP4 DUP4 DUP3 MUL DUP8 ADD ADD SWAP4 POP DUP3 DUP10 ADD DUP6 JUMPDEST DUP3 DUP2 LT ISZERO PUSH2 0xA43D JUMPI PUSH1 0xFF NOT DUP9 DUP8 SUB ADD DUP5 MSTORE PUSH2 0xA42B DUP7 DUP4 MLOAD PUSH2 0x9C8A JUMP JUMPDEST SWAP6 POP SWAP3 DUP5 ADD SWAP3 SWAP1 DUP5 ADD SWAP1 PUSH1 0x1 ADD PUSH2 0xA40F JUMP JUMPDEST POP POP POP POP POP DUP3 DUP2 SUB PUSH1 0x40 DUP5 ADD MSTORE PUSH2 0xA454 DUP2 DUP7 PUSH2 0x9BEC JUMP JUMPDEST SWAP2 POP POP PUSH2 0x14BC PUSH1 0x60 DUP4 ADD DUP5 PUSH2 0x9CF9 JUMP JUMPDEST PUSH1 0xF SWAP4 DUP5 SIGNEXTEND DUP2 MSTORE SWAP2 SWAP1 SWAP3 SIGNEXTEND PUSH1 0x20 DUP3 ADD MSTORE PUSH1 0x40 DUP2 ADD SWAP2 SWAP1 SWAP2 MSTORE PUSH1 0x60 ADD SWAP1 JUMP JUMPDEST PUSH1 0xF DUP4 SWAP1 SIGNEXTEND DUP2 MSTORE PUSH1 0x80 DUP2 ADD PUSH2 0x4194 PUSH1 0x20 DUP4 ADD DUP5 PUSH2 0x9CC7 JUMP JUMPDEST PUSH1 0x20 DUP1 DUP3 MSTORE PUSH1 0x24 SWAP1 DUP3 ADD MSTORE PUSH32 0x556E6973776170563353616D706C65722F746F6B656E5061746820746F6F2073 PUSH1 0x40 DUP3 ADD MSTORE PUSH4 0x1A1BDC9D PUSH1 0xE2 SHL PUSH1 0x60 DUP3 ADD MSTORE PUSH1 0x80 ADD SWAP1 JUMP JUMPDEST PUSH1 0x20 DUP1 DUP3 MSTORE PUSH1 0x25 SWAP1 DUP3 ADD MSTORE PUSH32 0x455243323042726964676553616D706C65722F494E56414C49445F544F4B454E PUSH1 0x40 DUP3 ADD MSTORE PUSH5 0x2FA820A4A9 PUSH1 0xD9 SHL PUSH1 0x60 DUP3 ADD MSTORE PUSH1 0x80 ADD SWAP1 JUMP JUMPDEST PUSH1 0x20 DUP1 DUP3 MSTORE PUSH1 0x25 SWAP1 DUP3 ADD MSTORE PUSH32 0x556E6973776170563353616D706C65722F696E76616C69642070617468206C65 PUSH1 0x40 DUP3 ADD MSTORE PUSH5 0x6E67746873 PUSH1 0xD8 SHL PUSH1 0x60 DUP3 ADD MSTORE PUSH1 0x80 ADD SWAP1 JUMP JUMPDEST PUSH1 0x20 DUP1 DUP3 MSTORE PUSH1 0x1E SWAP1 DUP3 ADD MSTORE PUSH32 0x4B79626572444D4D53616D706C65722F4E4F5F504F4F4C535F464F554E440000 PUSH1 0x40 DUP3 ADD MSTORE PUSH1 0x60 ADD SWAP1 JUMP JUMPDEST PUSH1 0x0 PUSH2 0xA5AB DUP3 DUP8 PUSH2 0x9CC7 JUMP JUMPDEST DUP5 PUSH1 0xF SIGNEXTEND PUSH1 0x60 DUP4 ADD MSTORE DUP4 PUSH1 0xF SIGNEXTEND PUSH1 0x80 DUP4 ADD MSTORE PUSH1 0xC0 PUSH1 0xA0 DUP4 ADD MSTORE PUSH2 0x68C3 PUSH1 0xC0 DUP4 ADD DUP5 PUSH2 0x9C2F JUMP JUMPDEST PUSH1 0x0 PUSH1 0x60 DUP3 MSTORE PUSH2 0xA5E4 PUSH1 0x60 DUP4 ADD DUP7 PUSH2 0x9D2E JUMP JUMPDEST DUP3 DUP2 SUB PUSH1 0x20 DUP5 ADD MSTORE PUSH2 0xA5F6 DUP2 DUP7 PUSH2 0x9D2E JUMP JUMPDEST SWAP2 POP POP DUP3 PUSH1 0x40 DUP4 ADD MSTORE SWAP5 SWAP4 POP POP POP POP JUMP JUMPDEST PUSH1 0x0 PUSH1 0x80 DUP3 MSTORE PUSH2 0xA61A PUSH1 0x80 DUP4 ADD DUP8 PUSH2 0x9D4D JUMP JUMPDEST PUSH1 0x1 PUSH1 0x1 PUSH1 0xA0 SHL SUB SWAP6 DUP7 AND PUSH1 0x20 DUP5 ADD MSTORE SWAP4 SWAP1 SWAP5 AND PUSH1 0x40 DUP3 ADD MSTORE PUSH1 0x60 ADD MSTORE SWAP3 SWAP2 POP POP JUMP JUMPDEST PUSH1 0x0 PUSH1 0x80 DUP3 MSTORE PUSH2 0xA650 PUSH1 0x80 DUP4 ADD DUP8 PUSH2 0x9D4D JUMP JUMPDEST PUSH1 0x20 DUP4 ADD SWAP6 SWAP1 SWAP6 MSTORE POP PUSH1 0x1 PUSH1 0x1 PUSH1 0xA0 SHL SUB SWAP3 DUP4 AND PUSH1 0x40 DUP3 ADD MSTORE SWAP2 AND PUSH1 0x60 SWAP1 SWAP2 ADD MSTORE SWAP2 SWAP1 POP JUMP JUMPDEST PUSH2 0x200 DUP2 ADD PUSH2 0xA685 DUP3 DUP6 PUSH2 0x9D9A JUMP JUMPDEST PUSH2 0x4194 PUSH2 0x180 DUP4 ADD DUP5 PUSH2 0x9E6B JUMP JUMPDEST PUSH2 0x220 DUP2 ADD PUSH2 0xA6A2 DUP3 DUP7 PUSH2 0x9D9A JUMP JUMPDEST PUSH2 0xA6B0 PUSH2 0x180 DUP4 ADD DUP6 PUSH2 0x9E6B JUMP JUMPDEST PUSH1 0x1 PUSH1 0x1 PUSH1 0xA0 SHL SUB SWAP3 SWAP1 SWAP3 AND PUSH2 0x200 SWAP2 SWAP1 SWAP2 ADD MSTORE SWAP3 SWAP2 POP POP JUMP JUMPDEST PUSH1 0x0 DUP4 DUP3 MSTORE PUSH1 0x40 PUSH1 0x20 DUP4 ADD MSTORE PUSH2 0x144E PUSH1 0x40 DUP4 ADD DUP5 PUSH2 0x9BEC JUMP JUMPDEST PUSH1 0x0 DUP5 DUP3 MSTORE PUSH1 0x60 PUSH1 0x20 DUP4 ADD MSTORE PUSH2 0xA6FC PUSH1 0x60 DUP4 ADD DUP6 PUSH2 0x9BEC JUMP JUMPDEST DUP3 DUP2 SUB PUSH1 0x40 DUP5 ADD MSTORE PUSH2 0x68C3 DUP2 DUP6 PUSH2 0x9BEC JUMP JUMPDEST PUSH1 0x0 DUP6 DUP3 MSTORE PUSH1 0x20 PUSH1 0x80 DUP2 DUP5 ADD MSTORE PUSH2 0xA728 PUSH1 0x80 DUP5 ADD DUP8 PUSH2 0x9BEC JUMP JUMPDEST DUP4 DUP2 SUB PUSH1 0x40 DUP6 ADD MSTORE DUP6 MLOAD DUP1 DUP3 MSTORE DUP3 DUP3 ADD SWAP1 DUP4 DUP2 MUL DUP4 ADD DUP5 ADD DUP5 DUP10 ADD DUP7 JUMPDEST DUP4 DUP2 LT ISZERO PUSH2 0xA773 JUMPI PUSH1 0x1F NOT DUP7 DUP5 SUB ADD DUP6 MSTORE PUSH2 0xA761 DUP4 DUP4 MLOAD PUSH2 0x9C5E JUMP JUMPDEST SWAP5 DUP8 ADD SWAP5 SWAP3 POP SWAP1 DUP7 ADD SWAP1 PUSH1 0x1 ADD PUSH2 0xA745 JUMP JUMPDEST POP POP DUP7 DUP2 SUB PUSH1 0x60 DUP9 ADD MSTORE PUSH2 0xA172 DUP2 DUP10 PUSH2 0x9BEC JUMP JUMPDEST SWAP6 DUP7 MSTORE PUSH1 0x20 DUP7 ADD SWAP5 SWAP1 SWAP5 MSTORE PUSH1 0x40 DUP6 ADD SWAP3 SWAP1 SWAP3 MSTORE PUSH1 0x60 DUP5 ADD MSTORE PUSH1 0x80 DUP4 ADD MSTORE PUSH1 0xA0 DUP3 ADD MSTORE PUSH1 0xC0 ADD SWAP1 JUMP JUMPDEST PUSH1 0x0 DUP1 DUP4 CALLDATALOAD PUSH1 0x1E NOT DUP5 CALLDATASIZE SUB ADD DUP2 SLT PUSH2 0xA7C5 JUMPI DUP3 DUP4 REVERT JUMPDEST DUP4 ADD DUP1 CALLDATALOAD SWAP2 POP PUSH1 0x1 PUSH1 0x1 PUSH1 0x40 SHL SUB DUP3 GT ISZERO PUSH2 0xA7DE JUMPI DUP3 DUP4 REVERT JUMPDEST PUSH1 0x20 ADD SWAP2 POP CALLDATASIZE DUP2 SWAP1 SUB DUP3 SGT ISZERO PUSH2 0xA7F3 JUMPI PUSH1 0x0 DUP1 REVERT JUMPDEST SWAP3 POP SWAP3 SWAP1 POP JUMP JUMPDEST PUSH1 0x40 MLOAD DUP2 DUP2 ADD PUSH1 0x1 PUSH1 0x1 PUSH1 0x40 SHL SUB DUP2 GT DUP3 DUP3 LT OR ISZERO PUSH2 0xA818 JUMPI PUSH1 0x0 DUP1 REVERT JUMPDEST PUSH1 0x40 MSTORE SWAP2 SWAP1 POP JUMP JUMPDEST PUSH1 0x0 PUSH1 0x1 PUSH1 0x1 PUSH1 0x40 SHL SUB DUP3 GT ISZERO PUSH2 0xA835 JUMPI DUP1 DUP2 REVERT JUMPDEST POP PUSH1 0x20 SWAP1 DUP2 MUL ADD SWAP1 JUMP JUMPDEST PUSH1 0x0 PUSH1 0x1 PUSH1 0x1 PUSH1 0x40 SHL SUB DUP3 GT ISZERO PUSH2 0xA854 JUMPI DUP1 DUP2 REVERT JUMPDEST POP PUSH1 0x1F ADD PUSH1 0x1F NOT AND PUSH1 0x20 ADD SWAP1 JUMP JUMPDEST PUSH1 0x0 JUMPDEST DUP4 DUP2 LT ISZERO PUSH2 0xA87D JUMPI DUP2 DUP2 ADD MLOAD DUP4 DUP3 ADD MSTORE PUSH1 0x20 ADD PUSH2 0xA865 JUMP JUMPDEST DUP4 DUP2 GT ISZERO PUSH2 0xA88C JUMPI PUSH1 0x0 DUP5 DUP5 ADD MSTORE JUMPDEST POP POP POP POP JUMP JUMPDEST PUSH1 0x4 DUP2 LT PUSH2 0xA89C JUMPI INVALID JUMPDEST POP JUMP JUMPDEST PUSH1 0x1 PUSH1 0x1 PUSH1 0xA0 SHL SUB DUP2 AND DUP2 EQ PUSH2 0xA89C JUMPI PUSH1 0x0 DUP1 REVERT JUMPDEST DUP1 ISZERO ISZERO DUP2 EQ PUSH2 0xA89C JUMPI PUSH1 0x0 DUP1 REVERT JUMPDEST PUSH1 0x1 PUSH1 0x1 PUSH1 0xE0 SHL SUB NOT DUP2 AND DUP2 EQ PUSH2 0xA89C JUMPI PUSH1 0x0 DUP1 REVERT JUMPDEST DUP1 PUSH1 0xF SIGNEXTEND DUP2 EQ PUSH2 0xA89C JUMPI PUSH1 0x0 DUP1 REVERT JUMPDEST PUSH1 0x1 PUSH1 0x1 PUSH1 0x80 SHL SUB DUP2 AND DUP2 EQ PUSH2 0xA89C JUMPI PUSH1 0x0 DUP1 REVERT INVALID LOG2 PUSH5 0x6970667358 0x22 SLT KECCAK256 ORIGIN 0xA7 0xE1 SWAP13 0xC1 JUMP MSIZE CREATE 0xD5 0xDA 0xFB DUP10 0x28 0xF7 0xC7 PUSH11 0xAF2EA7B348F2932D522979 JUMP 0x23 0xCA 0xEF 0xAF PUSH5 0x736F6C6343 STOP MOD 0xC STOP CALLER "
            }
        }
    },
    "sourceTreeHashHex": "0x8e719c1bc1c3dc04b5206ae0993c2b4d728b870d22e71be81cdfc30a79e49822",
    "compiler": {
        "name": "solc",
        "version": "0.6.12+commit.27d51765",
        "settings": {
            "remappings": [
                "@0x/contracts-erc20=/home/sotatek/Desktop/Workspace/Sotatek/evry-finance/fcxv2-0x-protocol/packages/asset-swapper/node_modules/@0x/contracts-erc20",
                "@0x/contracts-utils=/home/sotatek/Desktop/Workspace/Sotatek/evry-finance/fcxv2-0x-protocol/packages/asset-swapper/node_modules/@0x/contracts-utils",
                "@0x/contracts-zero-ex=/home/sotatek/Desktop/Workspace/Sotatek/evry-finance/fcxv2-0x-protocol/packages/asset-swapper/node_modules/@0x/contracts-zero-ex"
            ],
            "optimizer": {
                "enabled": true,
                "runs": 200,
                "details": {
                    "yul": true,
                    "deduplicate": true
                }
            },
            "outputSelection": {
                "*": {
                    "*": [
                        "abi",
                        "devdoc",
                        "evm.bytecode.object",
                        "evm.bytecode.sourceMap",
                        "evm.deployedBytecode.object",
                        "evm.deployedBytecode.sourceMap"
                    ]
                }
            },
            "evmVersion": "istanbul"
        }
    },
    "chains": {}
}