{
    "schemaVersion": "2.0.0",
    "contractName": "FakeTaker",
    "compilerOutput": {
        "abi": [
            {
                "inputs": [
                    {
                        "internalType": "address payable",
                        "name": "to",
                        "type": "address"
                    },
                    {
                        "internalType": "bytes",
                        "name": "data",
                        "type": "bytes"
                    }
                ],
                "name": "execute",
                "outputs": [
                    {
                        "components": [
                            {
                                "internalType": "bool",
                                "name": "success",
                                "type": "bool"
                            },
                            {
                                "internalType": "bytes",
                                "name": "resultData",
                                "type": "bytes"
                            },
                            {
                                "internalType": "uint256",
                                "name": "gasUsed",
                                "type": "uint256"
                            }
                        ],
                        "internalType": "struct FakeTaker.Result",
                        "name": "result",
                        "type": "tuple"
                    }
                ],
                "stateMutability": "payable",
                "type": "function"
            }
        ],
        "devdoc": {
            "kind": "dev",
            "methods": {},
            "version": 1
        },
        "evm": {
            "bytecode": {
                "linkReferences": {},
                "object": "0x608060405234801561001057600080fd5b50610240806100206000396000f3fe6080604052600436106100225760003560e01c80631cff79cd1461002e57610029565b3661002957005b600080fd5b61004161003c3660046100fd565b610057565b60405161004e9190610198565b60405180910390f35b61005f6100da565b60005a9050846001600160a01b031634858560405161007f929190610188565b60006040518083038185875af1925050503d80600081146100bc576040519150601f19603f3d011682016040523d82523d6000602084013e6100c1565b606091505b506020840152151582525a900360408201529392505050565b604051806060016040528060001515815260200160608152602001600081525090565b600080600060408486031215610111578283fd5b83356001600160a01b0381168114610127578384fd5b9250602084013567ffffffffffffffff80821115610143578384fd5b818601915086601f830112610156578384fd5b813581811115610164578485fd5b876020828501011115610175578485fd5b6020830194508093505050509250925092565b6000828483379101908152919050565b60006020808352835115158184015280840151606060408501528051806080860152835b818110156101d85782810184015186820160a0015283016101bc565b818111156101e9578460a083880101525b50604095909501516060850152505050601f91909101601f19160160a0019056fea2646970667358221220565cfc75d4c5c6498d6f5b3e685ef674fdee88daaf0838311088a481af61c71264736f6c634300060c0033",
                "opcodes": "PUSH1 0x80 PUSH1 0x40 MSTORE CALLVALUE DUP1 ISZERO PUSH2 0x10 JUMPI PUSH1 0x0 DUP1 REVERT JUMPDEST POP PUSH2 0x240 DUP1 PUSH2 0x20 PUSH1 0x0 CODECOPY PUSH1 0x0 RETURN INVALID PUSH1 0x80 PUSH1 0x40 MSTORE PUSH1 0x4 CALLDATASIZE LT PUSH2 0x22 JUMPI PUSH1 0x0 CALLDATALOAD PUSH1 0xE0 SHR DUP1 PUSH4 0x1CFF79CD EQ PUSH2 0x2E JUMPI PUSH2 0x29 JUMP JUMPDEST CALLDATASIZE PUSH2 0x29 JUMPI STOP JUMPDEST PUSH1 0x0 DUP1 REVERT JUMPDEST PUSH2 0x41 PUSH2 0x3C CALLDATASIZE PUSH1 0x4 PUSH2 0xFD JUMP JUMPDEST PUSH2 0x57 JUMP JUMPDEST PUSH1 0x40 MLOAD PUSH2 0x4E SWAP2 SWAP1 PUSH2 0x198 JUMP JUMPDEST PUSH1 0x40 MLOAD DUP1 SWAP2 SUB SWAP1 RETURN JUMPDEST PUSH2 0x5F PUSH2 0xDA JUMP JUMPDEST PUSH1 0x0 GAS SWAP1 POP DUP5 PUSH1 0x1 PUSH1 0x1 PUSH1 0xA0 SHL SUB AND CALLVALUE DUP6 DUP6 PUSH1 0x40 MLOAD PUSH2 0x7F SWAP3 SWAP2 SWAP1 PUSH2 0x188 JUMP JUMPDEST PUSH1 0x0 PUSH1 0x40 MLOAD DUP1 DUP4 SUB DUP2 DUP6 DUP8 GAS CALL SWAP3 POP POP POP RETURNDATASIZE DUP1 PUSH1 0x0 DUP2 EQ PUSH2 0xBC JUMPI PUSH1 0x40 MLOAD SWAP2 POP PUSH1 0x1F NOT PUSH1 0x3F RETURNDATASIZE ADD AND DUP3 ADD PUSH1 0x40 MSTORE RETURNDATASIZE DUP3 MSTORE RETURNDATASIZE PUSH1 0x0 PUSH1 0x20 DUP5 ADD RETURNDATACOPY PUSH2 0xC1 JUMP JUMPDEST PUSH1 0x60 SWAP2 POP JUMPDEST POP PUSH1 0x20 DUP5 ADD MSTORE ISZERO ISZERO DUP3 MSTORE GAS SWAP1 SUB PUSH1 0x40 DUP3 ADD MSTORE SWAP4 SWAP3 POP POP POP JUMP JUMPDEST PUSH1 0x40 MLOAD DUP1 PUSH1 0x60 ADD PUSH1 0x40 MSTORE DUP1 PUSH1 0x0 ISZERO ISZERO DUP2 MSTORE PUSH1 0x20 ADD PUSH1 0x60 DUP2 MSTORE PUSH1 0x20 ADD PUSH1 0x0 DUP2 MSTORE POP SWAP1 JUMP JUMPDEST PUSH1 0x0 DUP1 PUSH1 0x0 PUSH1 0x40 DUP5 DUP7 SUB SLT ISZERO PUSH2 0x111 JUMPI DUP3 DUP4 REVERT JUMPDEST DUP4 CALLDATALOAD PUSH1 0x1 PUSH1 0x1 PUSH1 0xA0 SHL SUB DUP2 AND DUP2 EQ PUSH2 0x127 JUMPI DUP4 DUP5 REVERT JUMPDEST SWAP3 POP PUSH1 0x20 DUP5 ADD CALLDATALOAD PUSH8 0xFFFFFFFFFFFFFFFF DUP1 DUP3 GT ISZERO PUSH2 0x143 JUMPI DUP4 DUP5 REVERT JUMPDEST DUP2 DUP7 ADD SWAP2 POP DUP7 PUSH1 0x1F DUP4 ADD SLT PUSH2 0x156 JUMPI DUP4 DUP5 REVERT JUMPDEST DUP2 CALLDATALOAD DUP2 DUP2 GT ISZERO PUSH2 0x164 JUMPI DUP5 DUP6 REVERT JUMPDEST DUP8 PUSH1 0x20 DUP3 DUP6 ADD ADD GT ISZERO PUSH2 0x175 JUMPI DUP5 DUP6 REVERT JUMPDEST PUSH1 0x20 DUP4 ADD SWAP5 POP DUP1 SWAP4 POP POP POP POP SWAP3 POP SWAP3 POP SWAP3 JUMP JUMPDEST PUSH1 0x0 DUP3 DUP5 DUP4 CALLDATACOPY SWAP2 ADD SWAP1 DUP2 MSTORE SWAP2 SWAP1 POP JUMP JUMPDEST PUSH1 0x0 PUSH1 0x20 DUP1 DUP4 MSTORE DUP4 MLOAD ISZERO ISZERO DUP2 DUP5 ADD MSTORE DUP1 DUP5 ADD MLOAD PUSH1 0x60 PUSH1 0x40 DUP6 ADD MSTORE DUP1 MLOAD DUP1 PUSH1 0x80 DUP7 ADD MSTORE DUP4 JUMPDEST DUP2 DUP2 LT ISZERO PUSH2 0x1D8 JUMPI DUP3 DUP2 ADD DUP5 ADD MLOAD DUP7 DUP3 ADD PUSH1 0xA0 ADD MSTORE DUP4 ADD PUSH2 0x1BC JUMP JUMPDEST DUP2 DUP2 GT ISZERO PUSH2 0x1E9 JUMPI DUP5 PUSH1 0xA0 DUP4 DUP9 ADD ADD MSTORE JUMPDEST POP PUSH1 0x40 SWAP6 SWAP1 SWAP6 ADD MLOAD PUSH1 0x60 DUP6 ADD MSTORE POP POP POP PUSH1 0x1F SWAP2 SWAP1 SWAP2 ADD PUSH1 0x1F NOT AND ADD PUSH1 0xA0 ADD SWAP1 JUMP INVALID LOG2 PUSH5 0x6970667358 0x22 SLT KECCAK256 JUMP 0x5C 0xFC PUSH22 0xD4C5C6498D6F5B3E685EF674FDEE88DAAF0838311088 LOG4 DUP2 0xAF PUSH2 0xC712 PUSH5 0x736F6C6343 STOP MOD 0xC STOP CALLER "
            }
        }
    },
    "sourceTreeHashHex": "0x944033373328948a8854f48c827072c7ac3bb82a4a8a6e817abeae2dd9295cb3",
    "compiler": {
        "name": "solc",
        "version": "0.6.12+commit.27d51765",
        "settings": {
            "remappings": [
                "@0x/contracts-utils=/home/sotatek/Desktop/Workspace/Sotatek/evry-finance/fcxv2-0x-protocol/packages/asset-swapper/node_modules/@0x/contracts-utils",
                "@0x/contracts-erc20=/home/sotatek/Desktop/Workspace/Sotatek/evry-finance/fcxv2-0x-protocol/packages/asset-swapper/node_modules/@0x/contracts-erc20",
                "@0x/contracts-zero-ex=/home/sotatek/Desktop/Workspace/Sotatek/evry-finance/fcxv2-0x-protocol/packages/asset-swapper/node_modules/@0x/contracts-zero-ex"
            ],
            "optimizer": {
                "enabled": true,
                "runs": 200,
                "details": {
                    "yul": true,
                    "deduplicate": true
                }
            },
            "outputSelection": {
                "*": {
                    "*": [
                        "abi",
                        "devdoc",
                        "evm.bytecode.object",
                        "evm.bytecode.sourceMap",
                        "evm.deployedBytecode.object",
                        "evm.deployedBytecode.sourceMap"
                    ]
                }
            },
            "evmVersion": "istanbul"
        }
    },
    "chains": {}
}