{
    "schemaVersion": "2.0.0",
    "contractName": "TestNativeOrderSampler",
    "compilerOutput": {
        "abi": [
            {
                "inputs": [
                    {
                        "internalType": "uint256",
                        "name": "count",
                        "type": "uint256"
                    }
                ],
                "name": "createTokens",
                "outputs": [
                    {
                        "internalType": "contract TestNativeOrderSamplerToken[]",
                        "name": "tokens",
                        "type": "address[]"
                    }
                ],
                "stateMutability": "nonpayable",
                "type": "function"
            },
            {
                "inputs": [
                    {
                        "internalType": "contract IERC20TokenV06[]",
                        "name": "tokens",
                        "type": "address[]"
                    },
                    {
                        "internalType": "address",
                        "name": "account",
                        "type": "address"
                    },
                    {
                        "internalType": "address",
                        "name": "spender",
                        "type": "address"
                    }
                ],
                "name": "getAllowanceOf",
                "outputs": [
                    {
                        "internalType": "uint256[]",
                        "name": "allowances",
                        "type": "uint256[]"
                    }
                ],
                "stateMutability": "view",
                "type": "function"
            },
            {
                "inputs": [
                    {
                        "internalType": "contract IERC20TokenV06[]",
                        "name": "tokens",
                        "type": "address[]"
                    },
                    {
                        "internalType": "address",
                        "name": "account",
                        "type": "address"
                    }
                ],
                "name": "getBalanceOf",
                "outputs": [
                    {
                        "internalType": "uint256[]",
                        "name": "balances",
                        "type": "uint256[]"
                    }
                ],
                "stateMutability": "view",
                "type": "function"
            },
            {
                "inputs": [
                    {
                        "components": [
                            {
                                "internalType": "contract IERC20TokenV06",
                                "name": "makerToken",
                                "type": "address"
                            },
                            {
                                "internalType": "contract IERC20TokenV06",
                                "name": "takerToken",
                                "type": "address"
                            },
                            {
                                "internalType": "uint128",
                                "name": "makerAmount",
                                "type": "uint128"
                            },
                            {
                                "internalType": "uint128",
                                "name": "takerAmount",
                                "type": "uint128"
                            },
                            {
                                "internalType": "uint128",
                                "name": "takerTokenFeeAmount",
                                "type": "uint128"
                            },
                            {
                                "internalType": "address",
                                "name": "maker",
                                "type": "address"
                            },
                            {
                                "internalType": "address",
                                "name": "taker",
                                "type": "address"
                            },
                            {
                                "internalType": "address",
                                "name": "sender",
                                "type": "address"
                            },
                            {
                                "internalType": "address",
                                "name": "feeRecipient",
                                "type": "address"
                            },
                            {
                                "internalType": "bytes32",
                                "name": "pool",
                                "type": "bytes32"
                            },
                            {
                                "internalType": "uint64",
                                "name": "expiry",
                                "type": "uint64"
                            },
                            {
                                "internalType": "uint256",
                                "name": "salt",
                                "type": "uint256"
                            }
                        ],
                        "internalType": "struct IExchange.LimitOrder[]",
                        "name": "orders",
                        "type": "tuple[]"
                    },
                    {
                        "components": [
                            {
                                "internalType": "enum IExchange.SignatureType",
                                "name": "signatureType",
                                "type": "uint8"
                            },
                            {
                                "internalType": "uint8",
                                "name": "v",
                                "type": "uint8"
                            },
                            {
                                "internalType": "bytes32",
                                "name": "r",
                                "type": "bytes32"
                            },
                            {
                                "internalType": "bytes32",
                                "name": "s",
                                "type": "bytes32"
                            }
                        ],
                        "internalType": "struct IExchange.Signature[]",
                        "name": "orderSignatures",
                        "type": "tuple[]"
                    },
                    {
                        "internalType": "contract IExchange",
                        "name": "exchange",
                        "type": "address"
                    }
                ],
                "name": "getLimitOrderFillableMakerAssetAmounts",
                "outputs": [
                    {
                        "internalType": "uint256[]",
                        "name": "orderFillableMakerAssetAmounts",
                        "type": "uint256[]"
                    }
                ],
                "stateMutability": "view",
                "type": "function"
            },
            {
                "inputs": [
                    {
                        "components": [
                            {
                                "internalType": "contract IERC20TokenV06",
                                "name": "makerToken",
                                "type": "address"
                            },
                            {
                                "internalType": "contract IERC20TokenV06",
                                "name": "takerToken",
                                "type": "address"
                            },
                            {
                                "internalType": "uint128",
                                "name": "makerAmount",
                                "type": "uint128"
                            },
                            {
                                "internalType": "uint128",
                                "name": "takerAmount",
                                "type": "uint128"
                            },
                            {
                                "internalType": "uint128",
                                "name": "takerTokenFeeAmount",
                                "type": "uint128"
                            },
                            {
                                "internalType": "address",
                                "name": "maker",
                                "type": "address"
                            },
                            {
                                "internalType": "address",
                                "name": "taker",
                                "type": "address"
                            },
                            {
                                "internalType": "address",
                                "name": "sender",
                                "type": "address"
                            },
                            {
                                "internalType": "address",
                                "name": "feeRecipient",
                                "type": "address"
                            },
                            {
                                "internalType": "bytes32",
                                "name": "pool",
                                "type": "bytes32"
                            },
                            {
                                "internalType": "uint64",
                                "name": "expiry",
                                "type": "uint64"
                            },
                            {
                                "internalType": "uint256",
                                "name": "salt",
                                "type": "uint256"
                            }
                        ],
                        "internalType": "struct IExchange.LimitOrder",
                        "name": "order",
                        "type": "tuple"
                    },
                    {
                        "components": [
                            {
                                "internalType": "enum IExchange.SignatureType",
                                "name": "signatureType",
                                "type": "uint8"
                            },
                            {
                                "internalType": "uint8",
                                "name": "v",
                                "type": "uint8"
                            },
                            {
                                "internalType": "bytes32",
                                "name": "r",
                                "type": "bytes32"
                            },
                            {
                                "internalType": "bytes32",
                                "name": "s",
                                "type": "bytes32"
                            }
                        ],
                        "internalType": "struct IExchange.Signature",
                        "name": "signature",
                        "type": "tuple"
                    },
                    {
                        "internalType": "contract IExchange",
                        "name": "exchange",
                        "type": "address"
                    }
                ],
                "name": "getLimitOrderFillableTakerAmount",
                "outputs": [
                    {
                        "internalType": "uint256",
                        "name": "fillableTakerAmount",
                        "type": "uint256"
                    }
                ],
                "stateMutability": "view",
                "type": "function"
            },
            {
                "inputs": [
                    {
                        "components": [
                            {
                                "internalType": "contract IERC20TokenV06",
                                "name": "makerToken",
                                "type": "address"
                            },
                            {
                                "internalType": "contract IERC20TokenV06",
                                "name": "takerToken",
                                "type": "address"
                            },
                            {
                                "internalType": "uint128",
                                "name": "makerAmount",
                                "type": "uint128"
                            },
                            {
                                "internalType": "uint128",
                                "name": "takerAmount",
                                "type": "uint128"
                            },
                            {
                                "internalType": "uint128",
                                "name": "takerTokenFeeAmount",
                                "type": "uint128"
                            },
                            {
                                "internalType": "address",
                                "name": "maker",
                                "type": "address"
                            },
                            {
                                "internalType": "address",
                                "name": "taker",
                                "type": "address"
                            },
                            {
                                "internalType": "address",
                                "name": "sender",
                                "type": "address"
                            },
                            {
                                "internalType": "address",
                                "name": "feeRecipient",
                                "type": "address"
                            },
                            {
                                "internalType": "bytes32",
                                "name": "pool",
                                "type": "bytes32"
                            },
                            {
                                "internalType": "uint64",
                                "name": "expiry",
                                "type": "uint64"
                            },
                            {
                                "internalType": "uint256",
                                "name": "salt",
                                "type": "uint256"
                            }
                        ],
                        "internalType": "struct IExchange.LimitOrder[]",
                        "name": "orders",
                        "type": "tuple[]"
                    },
                    {
                        "components": [
                            {
                                "internalType": "enum IExchange.SignatureType",
                                "name": "signatureType",
                                "type": "uint8"
                            },
                            {
                                "internalType": "uint8",
                                "name": "v",
                                "type": "uint8"
                            },
                            {
                                "internalType": "bytes32",
                                "name": "r",
                                "type": "bytes32"
                            },
                            {
                                "internalType": "bytes32",
                                "name": "s",
                                "type": "bytes32"
                            }
                        ],
                        "internalType": "struct IExchange.Signature[]",
                        "name": "orderSignatures",
                        "type": "tuple[]"
                    },
                    {
                        "internalType": "contract IExchange",
                        "name": "exchange",
                        "type": "address"
                    }
                ],
                "name": "getLimitOrderFillableTakerAssetAmounts",
                "outputs": [
                    {
                        "internalType": "uint256[]",
                        "name": "orderFillableTakerAssetAmounts",
                        "type": "uint256[]"
                    }
                ],
                "stateMutability": "view",
                "type": "function"
            },
            {
                "inputs": [
                    {
                        "components": [
                            {
                                "internalType": "contract IERC20TokenV06",
                                "name": "makerToken",
                                "type": "address"
                            },
                            {
                                "internalType": "contract IERC20TokenV06",
                                "name": "takerToken",
                                "type": "address"
                            },
                            {
                                "internalType": "uint128",
                                "name": "makerAmount",
                                "type": "uint128"
                            },
                            {
                                "internalType": "uint128",
                                "name": "takerAmount",
                                "type": "uint128"
                            },
                            {
                                "internalType": "uint128",
                                "name": "takerTokenFeeAmount",
                                "type": "uint128"
                            },
                            {
                                "internalType": "address",
                                "name": "maker",
                                "type": "address"
                            },
                            {
                                "internalType": "address",
                                "name": "taker",
                                "type": "address"
                            },
                            {
                                "internalType": "address",
                                "name": "sender",
                                "type": "address"
                            },
                            {
                                "internalType": "address",
                                "name": "feeRecipient",
                                "type": "address"
                            },
                            {
                                "internalType": "bytes32",
                                "name": "pool",
                                "type": "bytes32"
                            },
                            {
                                "internalType": "uint64",
                                "name": "expiry",
                                "type": "uint64"
                            },
                            {
                                "internalType": "uint256",
                                "name": "salt",
                                "type": "uint256"
                            }
                        ],
                        "internalType": "struct IExchange.LimitOrder",
                        "name": "order",
                        "type": "tuple"
                    },
                    {
                        "components": [
                            {
                                "internalType": "enum IExchange.SignatureType",
                                "name": "signatureType",
                                "type": "uint8"
                            },
                            {
                                "internalType": "uint8",
                                "name": "v",
                                "type": "uint8"
                            },
                            {
                                "internalType": "bytes32",
                                "name": "r",
                                "type": "bytes32"
                            },
                            {
                                "internalType": "bytes32",
                                "name": "s",
                                "type": "bytes32"
                            }
                        ],
                        "internalType": "struct IExchange.Signature",
                        "name": "signature",
                        "type": "tuple"
                    }
                ],
                "name": "getLimitOrderRelevantState",
                "outputs": [
                    {
                        "components": [
                            {
                                "internalType": "bytes32",
                                "name": "orderHash",
                                "type": "bytes32"
                            },
                            {
                                "internalType": "enum IExchange.OrderStatus",
                                "name": "status",
                                "type": "uint8"
                            },
                            {
                                "internalType": "uint128",
                                "name": "takerTokenFilledAmount",
                                "type": "uint128"
                            }
                        ],
                        "internalType": "struct IExchange.OrderInfo",
                        "name": "orderInfo",
                        "type": "tuple"
                    },
                    {
                        "internalType": "uint128",
                        "name": "actualFillableTakerTokenAmount",
                        "type": "uint128"
                    },
                    {
                        "internalType": "bool",
                        "name": "isSignatureValid",
                        "type": "bool"
                    }
                ],
                "stateMutability": "view",
                "type": "function"
            },
            {
                "inputs": [
                    {
                        "internalType": "contract IERC20TokenV06[]",
                        "name": "tokens",
                        "type": "address[]"
                    }
                ],
                "name": "getTokenDecimals",
                "outputs": [
                    {
                        "internalType": "uint256[]",
                        "name": "decimals",
                        "type": "uint256[]"
                    }
                ],
                "stateMutability": "view",
                "type": "function"
            },
            {
                "inputs": [
                    {
                        "internalType": "address",
                        "name": "account",
                        "type": "address"
                    }
                ],
                "name": "isContract",
                "outputs": [
                    {
                        "internalType": "bool",
                        "name": "",
                        "type": "bool"
                    }
                ],
                "stateMutability": "view",
                "type": "function"
            },
            {
                "inputs": [
                    {
                        "internalType": "contract TestNativeOrderSamplerToken",
                        "name": "token",
                        "type": "address"
                    },
                    {
                        "internalType": "address",
                        "name": "owner",
                        "type": "address"
                    },
                    {
                        "internalType": "address",
                        "name": "spender",
                        "type": "address"
                    },
                    {
                        "internalType": "uint256",
                        "name": "balance",
                        "type": "uint256"
                    },
                    {
                        "internalType": "uint256",
                        "name": "allowance",
                        "type": "uint256"
                    }
                ],
                "name": "setTokenBalanceAndAllowance",
                "outputs": [],
                "stateMutability": "nonpayable",
                "type": "function"
            }
        ],
        "devdoc": {
            "kind": "dev",
            "methods": {
                "getLimitOrderFillableMakerAssetAmounts((address,address,uint128,uint128,uint128,address,address,address,address,bytes32,uint64,uint256)[],(uint8,uint8,bytes32,bytes32)[],address)": {
                    "details": "Queries the fillable taker asset amounts of native orders.      Effectively ignores orders that have empty signatures or",
                    "params": {
                        "exchange": "The V4 exchange.",
                        "orderSignatures": "Signatures for each respective order in `orders`.",
                        "orders": "Native orders to query."
                    },
                    "returns": {
                        "orderFillableMakerAssetAmounts": "How much maker asset can be filled         by each order in `orders`."
                    }
                },
                "getLimitOrderFillableTakerAmount((address,address,uint128,uint128,uint128,address,address,address,address,bytes32,uint64,uint256),(uint8,uint8,bytes32,bytes32),address)": {
                    "details": "Get the fillable taker amount of an order, taking into account      order state, maker fees, and maker balances."
                },
                "getLimitOrderFillableTakerAssetAmounts((address,address,uint128,uint128,uint128,address,address,address,address,bytes32,uint64,uint256)[],(uint8,uint8,bytes32,bytes32)[],address)": {
                    "details": "Queries the fillable taker asset amounts of native orders.      Effectively ignores orders that have empty signatures or      maker/taker asset amounts (returning 0).",
                    "params": {
                        "exchange": "The V4 exchange.",
                        "orderSignatures": "Signatures for each respective order in `orders`.",
                        "orders": "Native limit orders to query."
                    },
                    "returns": {
                        "orderFillableTakerAssetAmounts": "How much taker asset can be filled         by each order in `orders`."
                    }
                }
            },
            "version": 1
        },
        "evm": {
            "bytecode": {
                "linkReferences": {},
                "object": "0x60a06040527feeeeeeeeeeeeeeeeeeeeeeeeeeeeeeeeeeeeeeee00000000000000000000000060805234801561003457600080fd5b5060805160601c611b9361005c60003980610531528061080f528061097d5250611b936000f3fe608060405234801561001057600080fd5b506004361061009e5760003560e01c80637e1f2bb8116100665780637e1f2bb8146101345780639bf3ee3514610154578063bd71ecf614610174578063c662178c14610187578063e78ac0451461019c5761009e565b80631022742b146100a357806316279055146100cc5780631fb09795146100ec57806366a1ac6b1461010e578063706e2f9b14610121575b600080fd5b6100b66100b1366004611339565b6101af565b6040516100c391906117a0565b60405180910390f35b6100df6100da36600461123b565b610322565b6040516100c391906117d8565b6100ff6100fa36600461146b565b610328565b6040516100c39392919061187d565b6100b661011c366004611339565b610429565b6100b661012f366004611257565b6104de565b61014761014236600461156c565b6105d0565b6040516100c39190611753565b6101676101623660046114ac565b610675565b6040516100c391906118c9565b6100b6610182366004611289565b6107bc565b61019a610195366004611411565b6108bf565b005b6100b66101aa3660046112d8565b61092a565b606083516001600160401b03811180156101c857600080fd5b506040519080825280602002602001820160405280156101f2578160200160208202803683370190505b50905060005b8451811461031a57306001600160a01b0316639bf3ee3562030d4087848151811061021f57fe5b602002602001015187858151811061023357fe5b6020026020010151876040518563ffffffff1660e01b815260040161025a93929190611846565b60206040518083038187803b15801561027257600080fd5b5086fa935050505080156102a3575060408051601f3d908101601f191682019092526102a091810190611584565b60015b6102f7573d8080156102d1576040519150601f19603f3d011682016040523d82523d6000602084013e6102d6565b606091505b5060008383815181106102e557fe5b60200260200101818152505050610312565b8083838151811061030457fe5b602002602001018181525050505b6001016101f8565b509392505050565b3b151590565b610330610fa4565b60008084610160015160405160200161034991906118c9565b60408051601f198184030181529190528051602090910120835261016085015160ff90811614156103805760026020840152610388565b600160208401525b506101408401516001600160401b0316604083810182905260608601518682015191860135600160f81b14926000926103d3929182036001600160801b039081169281169116610a1f565b90506103f0816103eb88600001518960a00151610a3d565b610b45565b905061041f61041a8288604001516001600160801b031689606001516001600160801b0316610b5b565b610b7f565b9250509250925092565b60606104368484846101af565b905060005b845181101561031a5781818151811061045057fe5b60200260200101516000146104d6576104bd82828151811061046e57fe5b602002602001015186838151811061048257fe5b6020026020010151606001516001600160801b03168784815181106104a357fe5b6020026020010151604001516001600160801b0316610b5b565b8282815181106104c957fe5b6020026020010181815250505b60010161043b565b606081516001600160401b03811180156104f757600080fd5b50604051908082528060200260200182016040528015610521578160200160208202803683370190505b50905060005b825181146105ca577f00000000000000000000000000000000000000000000000000000000000000006001600160a01b031683828151811061056557fe5b60200260200101516001600160a01b0316146105a5576105a083828151811061058a57fe5b60200260200101516001600160a01b0316610ba7565b6105a8565b60125b60ff168282815181106105b757fe5b6020908102919091010152600101610527565b50919050565b6060816001600160401b03811180156105e857600080fd5b50604051908082528060200260200182016040528015610612578160200160208202803683370190505b50905060005b828110156105ca5760405161062c90610fc6565b604051809103906000f080158015610648573d6000803e3d6000fd5b5082828151811061065557fe5b6001600160a01b0390921660209283029190910190910152600101610618565b6000808351600381111561068557fe5b148061069d575060018351600381111561069b57fe5b145b806106b3575060408401516001600160801b0316155b806106c9575060608401516001600160801b0316155b156106d6575060006107b5565b6106de610fa4565b600080846001600160a01b0316631fb0979588886040518363ffffffff1660e01b815260040161070f929190611829565b60a06040518083038186803b15801561072757600080fd5b505afa15801561073b573d6000803e3d6000fd5b505050506040513d601f19601f8201168201806040525081019061075f91906114ec565b9194509250905060018360200151600481111561077857fe5b141580610783575080155b80610796575086516001600160a01b0316155b156107a757600093505050506107b5565b506001600160801b03169150505b9392505050565b606082516001600160401b03811180156107d557600080fd5b506040519080825280602002602001820160405280156107ff578160200160208202803683370190505b50905060005b835181146108b8577f00000000000000000000000000000000000000000000000000000000000000006001600160a01b031684828151811061084357fe5b60200260200101516001600160a01b03161461088d576108888385838151811061086957fe5b60200260200101516001600160a01b0316610c5390919063ffffffff16565b610899565b826001600160a01b0316315b8282815181106108a557fe5b6020908102919091010152600101610805565b5092915050565b604051633c9dc74d60e01b81526001600160a01b03861690633c9dc74d906108f190879087908790879060040161172a565b600060405180830381600087803b15801561090b57600080fd5b505af115801561091f573d6000803e3d6000fd5b505050505050505050565b606083516001600160401b038111801561094357600080fd5b5060405190808252806020026020018201604052801561096d578160200160208202803683370190505b50905060005b8451811461031a577f00000000000000000000000000000000000000000000000000000000000000006001600160a01b03168582815181106109b157fe5b60200260200101516001600160a01b0316146109fd576109f884848784815181106109d857fe5b60200260200101516001600160a01b0316610d289092919063ffffffff16565b610a00565b60005b828281518110610a0c57fe5b6020908102919091010152600101610973565b6000610a3583610a2f8685610e00565b90610e31565b949350505050565b6000610b3c836001600160a01b031663dd62ed3e84306040518363ffffffff1660e01b8152600401610a70929190611710565b60206040518083038186803b158015610a8857600080fd5b505afa158015610a9c573d6000803e3d6000fd5b505050506040513d601f19601f82011682018060405250810190610ac09190611584565b6040516370a0823160e01b81526001600160a01b038616906370a0823190610aec9087906004016116fc565b60206040518083038186803b158015610b0457600080fd5b505afa158015610b18573d6000803e3d6000fd5b505050506040513d601f19601f820116820180604052508101906103eb9190611584565b90505b92915050565b6000818310610b545781610b3c565b5090919050565b6000610a3583610a2f610b6f826001610e5b565b610b798887610e00565b90610e7a565b60006001600160801b03821115610ba357610ba3610b9e600384610e96565b610eed565b5090565b60006012905060006060836001600160a01b031660405180604001604052806004815260200163313ce56760e01b815250604051610be591906116c3565b600060405180830381855afa9150503d8060008114610c20576040519150601f19603f3d011682016040523d82523d6000602084013e610c25565b606091505b5091509150818015610c3957506020815110155b15610c4c57610c49816000610ef5565b92505b5050919050565b6000806060846001600160a01b03166370a0823160e01b85604051602401610c7b91906116fc565b60408051601f198184030181529181526020820180516001600160e01b03166001600160e01b0319909416939093179092529051610cb991906116c3565b600060405180830381855afa9150503d8060008114610cf4576040519150601f19603f3d011682016040523d82523d6000602084013e610cf9565b606091505b5091509150818015610d0d57506020815110155b15610d2057610d1d816000610ef5565b92505b505092915050565b6000806060856001600160a01b031663dd62ed3e60e01b8686604051602401610d52929190611710565b60408051601f198184030181529181526020820180516001600160e01b03166001600160e01b0319909416939093179092529051610d9091906116c3565b600060405180830381855afa9150503d8060008114610dcb576040519150601f19603f3d011682016040523d82523d6000602084013e610dd0565b606091505b5091509150818015610de457506020815110155b15610df757610df4816000610ef5565b92505b50509392505050565b600082610e0f57506000610b3f565b82820282848281610e1c57fe5b0414610b3c57610b3c610b9e60018686610f01565b600081610e4757610e47610b9e60038585610f01565b6000828481610e5257fe5b04949350505050565b600082821115610e7457610e74610b9e60028585610f01565b50900390565b600082820183811015610b3c57610b3c610b9e60008686610f01565b606063c996af7b60e01b8383604051602401610eb3929190611804565b60408051601f198184030181529190526020810180516001600160e01b03166001600160e01b031990931692909217909152905092915050565b805160208201fd5b6000610b3c8383610f5b565b606063e946c1bb60e01b848484604051602401610f20939291906117e3565b60408051601f198184030181529190526020810180516001600160e01b03166001600160e01b03199093169290921790915290509392505050565b60008160200183511015610f7c57610f7c610b9e6005855185602001610f85565b50016020015190565b6060632800659560e01b848484604051602401610f209392919061181b565b6040805160608101909152600080825260208201908152600060209091015290565b61020f8061194f83390190565b8035610b3f81611924565b600082601f830112610fee578081fd5b8135611001610ffc826118f8565b6118d2565b81815291506020808301908481018184028601820187101561102257600080fd5b60005b8481101561104a57813561103881611924565b84529282019290820190600101611025565b505050505092915050565b600082601f830112611065578081fd5b8135611073610ffc826118f8565b818152915060208083019084810160808085028701830188101561109657600080fd5b60005b858110156110bd576110ab89846111b6565b85529383019391810191600101611099565b50505050505092915050565b60006101808083850312156110dc578182fd5b6110e5816118d2565b9150506110f28383610fd3565b81526111018360208401610fd3565b60208201526111138360408401611219565b60408201526111258360608401611219565b60608201526111378360808401611219565b60808201526111498360a08401610fd3565b60a082015261115b8360c08401610fd3565b60c082015261116d8360e08401610fd3565b60e082015261010061118184828501610fd3565b90820152610120828101359082015261014061119f84828501611224565b818301525061016080830135818301525092915050565b6000608082840312156111c7578081fd5b6111d160806118d2565b90508135600481106111e257600080fd5b8152602082013560ff811681146111f857600080fd5b80602083015250604082013560408201526060820135606082015292915050565b8035610b3f81611939565b80356001600160401b0381168114610b3f57600080fd5b60006020828403121561124c578081fd5b8135610b3c81611924565b600060208284031215611268578081fd5b81356001600160401b0381111561127d578182fd5b610a3584828501610fde565b6000806040838503121561129b578081fd5b82356001600160401b038111156112b0578182fd5b6112bc85828601610fde565b92505060208301356112cd81611924565b809150509250929050565b6000806000606084860312156112ec578081fd5b83356001600160401b03811115611301578182fd5b61130d86828701610fde565b935050602084013561131e81611924565b9150604084013561132e81611924565b809150509250925092565b60008060006060848603121561134d578081fd5b83356001600160401b0380821115611363578283fd5b818601915086601f830112611376578283fd5b8135611384610ffc826118f8565b80828252602080830192508086016101808c838288028a010111156113a7578889fd5b8897505b858810156113d3576113bd8d836110c9565b85526001979097019693820193908101906113ab565b509198508901359450505050808211156113eb578283fd5b506113f886828701611055565b9250506114088560408601610fd3565b90509250925092565b600080600080600060a08688031215611428578283fd5b853561143381611924565b9450602086013561144381611924565b9350604086013561145381611924565b94979396509394606081013594506080013592915050565b60008082840361020081121561147f578283fd5b61148985856110c9565b9250608061017f198201121561149d578182fd5b50610180830190509250929050565b600080600061022084860312156114c1578081fd5b6114cb85856110c9565b92506114db8561018086016111b6565b915061020084013561132e81611924565b600080600083850360a0811215611501578182fd5b606081121561150e578182fd5b5061151960606118d2565b8451815260208501516005811061152e578283fd5b6020820152604085015161154181611939565b6040820152606085015190935061155781611939565b6080850151909250801515811461132e578182fd5b60006020828403121561157d578081fd5b5035919050565b600060208284031215611595578081fd5b5051919050565b6001600160a01b03169052565b6115b482825161159c565b60208101516115c6602084018261159c565b5060408101516115d960408401826116a9565b5060608101516115ec60608401826116a9565b5060808101516115ff60808401826116a9565b5060a081015161161260a084018261159c565b5060c081015161162560c084018261159c565b5060e081015161163860e084018261159c565b506101008082015161164c8285018261159c565b505061012081810151908301526101408082015161166c828501826116b6565b505061016090810151910152565b805161168581611917565b825260208181015160ff169083015260408082015190830152606090810151910152565b6001600160801b03169052565b6001600160401b03169052565b60008251815b818110156116e357602081860181015185830152016116c9565b818111156116f15782828501525b509190910192915050565b6001600160a01b0391909116815260200190565b6001600160a01b0392831681529116602082015260400190565b6001600160a01b0394851681529290931660208301526040820152606081019190915260800190565b6020808252825182820181905260009190848201906040850190845b818110156117945783516001600160a01b03168352928401929184019160010161176f565b50909695505050505050565b6020808252825182820181905260009190848201906040850190845b81811015611794578351835292840192918401916001016117bc565b901515815260200190565b606081016117f085611917565b938152602081019290925260409091015290565b6040810161181184611917565b9281526020015290565b60608101600885106117f057fe5b610200810161183882856115a9565b6107b561018083018461167a565b610220810161185582866115a9565b61186361018083018561167a565b6001600160a01b0392909216610200919091015292915050565b83518152602084015160a08201906005811061189557fe5b60208301526040948501516001600160801b0390811695830195909552929093166060840152151560809092019190915290565b90815260200190565b6040518181016001600160401b03811182821017156118f057600080fd5b604052919050565b60006001600160401b0382111561190d578081fd5b5060209081020190565b6004811061192157fe5b50565b6001600160a01b038116811461192157600080fd5b6001600160801b038116811461192157600080fdfe608060405234801561001057600080fd5b506101ef806100206000396000f3fe608060405234801561001057600080fd5b50600436106100415760003560e01c80633c9dc74d1461004657806370a082311461005b578063dd62ed3e14610084575b600080fd5b61005961005436600461016d565b610097565b005b61006e610069366004610117565b6100cb565b60405161007b91906101b0565b60405180910390f35b61006e610092366004610139565b6100dd565b6001600160a01b03938416600090815260208181526040808320949094556001815283822094909516815292909352902055565b60006020819052908152604090205481565b600160209081526000928352604080842090915290825290205481565b80356001600160a01b038116811461011157600080fd5b92915050565b600060208284031215610128578081fd5b61013283836100fa565b9392505050565b6000806040838503121561014b578081fd5b61015584846100fa565b915061016484602085016100fa565b90509250929050565b60008060008060808587031215610182578182fd5b61018c86866100fa565b935061019b86602087016100fa565b93969395505050506040820135916060013590565b9081526020019056fea2646970667358221220807c72ad3cd2089c955351a1b881963cb6db698b44d102500fde58608a73490b64736f6c634300060c0033a2646970667358221220fd0e52d19429586113b7536d7fae9a4913b5c36173d1d56fffde7b5ebe08cc7b64736f6c634300060c0033",
                "opcodes": "PUSH1 0xA0 PUSH1 0x40 MSTORE PUSH32 0xEEEEEEEEEEEEEEEEEEEEEEEEEEEEEEEEEEEEEEEE000000000000000000000000 PUSH1 0x80 MSTORE CALLVALUE DUP1 ISZERO PUSH2 0x34 JUMPI PUSH1 0x0 DUP1 REVERT JUMPDEST POP PUSH1 0x80 MLOAD PUSH1 0x60 SHR PUSH2 0x1B93 PUSH2 0x5C PUSH1 0x0 CODECOPY DUP1 PUSH2 0x531 MSTORE DUP1 PUSH2 0x80F MSTORE DUP1 PUSH2 0x97D MSTORE POP PUSH2 0x1B93 PUSH1 0x0 RETURN INVALID PUSH1 0x80 PUSH1 0x40 MSTORE CALLVALUE DUP1 ISZERO PUSH2 0x10 JUMPI PUSH1 0x0 DUP1 REVERT JUMPDEST POP PUSH1 0x4 CALLDATASIZE LT PUSH2 0x9E JUMPI PUSH1 0x0 CALLDATALOAD PUSH1 0xE0 SHR DUP1 PUSH4 0x7E1F2BB8 GT PUSH2 0x66 JUMPI DUP1 PUSH4 0x7E1F2BB8 EQ PUSH2 0x134 JUMPI DUP1 PUSH4 0x9BF3EE35 EQ PUSH2 0x154 JUMPI DUP1 PUSH4 0xBD71ECF6 EQ PUSH2 0x174 JUMPI DUP1 PUSH4 0xC662178C EQ PUSH2 0x187 JUMPI DUP1 PUSH4 0xE78AC045 EQ PUSH2 0x19C JUMPI PUSH2 0x9E JUMP JUMPDEST DUP1 PUSH4 0x1022742B EQ PUSH2 0xA3 JUMPI DUP1 PUSH4 0x16279055 EQ PUSH2 0xCC JUMPI DUP1 PUSH4 0x1FB09795 EQ PUSH2 0xEC JUMPI DUP1 PUSH4 0x66A1AC6B EQ PUSH2 0x10E JUMPI DUP1 PUSH4 0x706E2F9B EQ PUSH2 0x121 JUMPI JUMPDEST PUSH1 0x0 DUP1 REVERT JUMPDEST PUSH2 0xB6 PUSH2 0xB1 CALLDATASIZE PUSH1 0x4 PUSH2 0x1339 JUMP JUMPDEST PUSH2 0x1AF JUMP JUMPDEST PUSH1 0x40 MLOAD PUSH2 0xC3 SWAP2 SWAP1 PUSH2 0x17A0 JUMP JUMPDEST PUSH1 0x40 MLOAD DUP1 SWAP2 SUB SWAP1 RETURN JUMPDEST PUSH2 0xDF PUSH2 0xDA CALLDATASIZE PUSH1 0x4 PUSH2 0x123B JUMP JUMPDEST PUSH2 0x322 JUMP JUMPDEST PUSH1 0x40 MLOAD PUSH2 0xC3 SWAP2 SWAP1 PUSH2 0x17D8 JUMP JUMPDEST PUSH2 0xFF PUSH2 0xFA CALLDATASIZE PUSH1 0x4 PUSH2 0x146B JUMP JUMPDEST PUSH2 0x328 JUMP JUMPDEST PUSH1 0x40 MLOAD PUSH2 0xC3 SWAP4 SWAP3 SWAP2 SWAP1 PUSH2 0x187D JUMP JUMPDEST PUSH2 0xB6 PUSH2 0x11C CALLDATASIZE PUSH1 0x4 PUSH2 0x1339 JUMP JUMPDEST PUSH2 0x429 JUMP JUMPDEST PUSH2 0xB6 PUSH2 0x12F CALLDATASIZE PUSH1 0x4 PUSH2 0x1257 JUMP JUMPDEST PUSH2 0x4DE JUMP JUMPDEST PUSH2 0x147 PUSH2 0x142 CALLDATASIZE PUSH1 0x4 PUSH2 0x156C JUMP JUMPDEST PUSH2 0x5D0 JUMP JUMPDEST PUSH1 0x40 MLOAD PUSH2 0xC3 SWAP2 SWAP1 PUSH2 0x1753 JUMP JUMPDEST PUSH2 0x167 PUSH2 0x162 CALLDATASIZE PUSH1 0x4 PUSH2 0x14AC JUMP JUMPDEST PUSH2 0x675 JUMP JUMPDEST PUSH1 0x40 MLOAD PUSH2 0xC3 SWAP2 SWAP1 PUSH2 0x18C9 JUMP JUMPDEST PUSH2 0xB6 PUSH2 0x182 CALLDATASIZE PUSH1 0x4 PUSH2 0x1289 JUMP JUMPDEST PUSH2 0x7BC JUMP JUMPDEST PUSH2 0x19A PUSH2 0x195 CALLDATASIZE PUSH1 0x4 PUSH2 0x1411 JUMP JUMPDEST PUSH2 0x8BF JUMP JUMPDEST STOP JUMPDEST PUSH2 0xB6 PUSH2 0x1AA CALLDATASIZE PUSH1 0x4 PUSH2 0x12D8 JUMP JUMPDEST PUSH2 0x92A JUMP JUMPDEST PUSH1 0x60 DUP4 MLOAD PUSH1 0x1 PUSH1 0x1 PUSH1 0x40 SHL SUB DUP2 GT DUP1 ISZERO PUSH2 0x1C8 JUMPI PUSH1 0x0 DUP1 REVERT JUMPDEST POP PUSH1 0x40 MLOAD SWAP1 DUP1 DUP3 MSTORE DUP1 PUSH1 0x20 MUL PUSH1 0x20 ADD DUP3 ADD PUSH1 0x40 MSTORE DUP1 ISZERO PUSH2 0x1F2 JUMPI DUP2 PUSH1 0x20 ADD PUSH1 0x20 DUP3 MUL DUP1 CALLDATASIZE DUP4 CALLDATACOPY ADD SWAP1 POP JUMPDEST POP SWAP1 POP PUSH1 0x0 JUMPDEST DUP5 MLOAD DUP2 EQ PUSH2 0x31A JUMPI ADDRESS PUSH1 0x1 PUSH1 0x1 PUSH1 0xA0 SHL SUB AND PUSH4 0x9BF3EE35 PUSH3 0x30D40 DUP8 DUP5 DUP2 MLOAD DUP2 LT PUSH2 0x21F JUMPI INVALID JUMPDEST PUSH1 0x20 MUL PUSH1 0x20 ADD ADD MLOAD DUP8 DUP6 DUP2 MLOAD DUP2 LT PUSH2 0x233 JUMPI INVALID JUMPDEST PUSH1 0x20 MUL PUSH1 0x20 ADD ADD MLOAD DUP8 PUSH1 0x40 MLOAD DUP6 PUSH4 0xFFFFFFFF AND PUSH1 0xE0 SHL DUP2 MSTORE PUSH1 0x4 ADD PUSH2 0x25A SWAP4 SWAP3 SWAP2 SWAP1 PUSH2 0x1846 JUMP JUMPDEST PUSH1 0x20 PUSH1 0x40 MLOAD DUP1 DUP4 SUB DUP2 DUP8 DUP1 EXTCODESIZE ISZERO DUP1 ISZERO PUSH2 0x272 JUMPI PUSH1 0x0 DUP1 REVERT JUMPDEST POP DUP7 STATICCALL SWAP4 POP POP POP POP DUP1 ISZERO PUSH2 0x2A3 JUMPI POP PUSH1 0x40 DUP1 MLOAD PUSH1 0x1F RETURNDATASIZE SWAP1 DUP2 ADD PUSH1 0x1F NOT AND DUP3 ADD SWAP1 SWAP3 MSTORE PUSH2 0x2A0 SWAP2 DUP2 ADD SWAP1 PUSH2 0x1584 JUMP JUMPDEST PUSH1 0x1 JUMPDEST PUSH2 0x2F7 JUMPI RETURNDATASIZE DUP1 DUP1 ISZERO PUSH2 0x2D1 JUMPI PUSH1 0x40 MLOAD SWAP2 POP PUSH1 0x1F NOT PUSH1 0x3F RETURNDATASIZE ADD AND DUP3 ADD PUSH1 0x40 MSTORE RETURNDATASIZE DUP3 MSTORE RETURNDATASIZE PUSH1 0x0 PUSH1 0x20 DUP5 ADD RETURNDATACOPY PUSH2 0x2D6 JUMP JUMPDEST PUSH1 0x60 SWAP2 POP JUMPDEST POP PUSH1 0x0 DUP4 DUP4 DUP2 MLOAD DUP2 LT PUSH2 0x2E5 JUMPI INVALID JUMPDEST PUSH1 0x20 MUL PUSH1 0x20 ADD ADD DUP2 DUP2 MSTORE POP POP POP PUSH2 0x312 JUMP JUMPDEST DUP1 DUP4 DUP4 DUP2 MLOAD DUP2 LT PUSH2 0x304 JUMPI INVALID JUMPDEST PUSH1 0x20 MUL PUSH1 0x20 ADD ADD DUP2 DUP2 MSTORE POP POP POP JUMPDEST PUSH1 0x1 ADD PUSH2 0x1F8 JUMP JUMPDEST POP SWAP4 SWAP3 POP POP POP JUMP JUMPDEST EXTCODESIZE ISZERO ISZERO SWAP1 JUMP JUMPDEST PUSH2 0x330 PUSH2 0xFA4 JUMP JUMPDEST PUSH1 0x0 DUP1 DUP5 PUSH2 0x160 ADD MLOAD PUSH1 0x40 MLOAD PUSH1 0x20 ADD PUSH2 0x349 SWAP2 SWAP1 PUSH2 0x18C9 JUMP JUMPDEST PUSH1 0x40 DUP1 MLOAD PUSH1 0x1F NOT DUP2 DUP5 SUB ADD DUP2 MSTORE SWAP2 SWAP1 MSTORE DUP1 MLOAD PUSH1 0x20 SWAP1 SWAP2 ADD KECCAK256 DUP4 MSTORE PUSH2 0x160 DUP6 ADD MLOAD PUSH1 0xFF SWAP1 DUP2 AND EQ ISZERO PUSH2 0x380 JUMPI PUSH1 0x2 PUSH1 0x20 DUP5 ADD MSTORE PUSH2 0x388 JUMP JUMPDEST PUSH1 0x1 PUSH1 0x20 DUP5 ADD MSTORE JUMPDEST POP PUSH2 0x140 DUP5 ADD MLOAD PUSH1 0x1 PUSH1 0x1 PUSH1 0x40 SHL SUB AND PUSH1 0x40 DUP4 DUP2 ADD DUP3 SWAP1 MSTORE PUSH1 0x60 DUP7 ADD MLOAD DUP7 DUP3 ADD MLOAD SWAP2 DUP7 ADD CALLDATALOAD PUSH1 0x1 PUSH1 0xF8 SHL EQ SWAP3 PUSH1 0x0 SWAP3 PUSH2 0x3D3 SWAP3 SWAP2 DUP3 SUB PUSH1 0x1 PUSH1 0x1 PUSH1 0x80 SHL SUB SWAP1 DUP2 AND SWAP3 DUP2 AND SWAP2 AND PUSH2 0xA1F JUMP JUMPDEST SWAP1 POP PUSH2 0x3F0 DUP2 PUSH2 0x3EB DUP9 PUSH1 0x0 ADD MLOAD DUP10 PUSH1 0xA0 ADD MLOAD PUSH2 0xA3D JUMP JUMPDEST PUSH2 0xB45 JUMP JUMPDEST SWAP1 POP PUSH2 0x41F PUSH2 0x41A DUP3 DUP9 PUSH1 0x40 ADD MLOAD PUSH1 0x1 PUSH1 0x1 PUSH1 0x80 SHL SUB AND DUP10 PUSH1 0x60 ADD MLOAD PUSH1 0x1 PUSH1 0x1 PUSH1 0x80 SHL SUB AND PUSH2 0xB5B JUMP JUMPDEST PUSH2 0xB7F JUMP JUMPDEST SWAP3 POP POP SWAP3 POP SWAP3 POP SWAP3 JUMP JUMPDEST PUSH1 0x60 PUSH2 0x436 DUP5 DUP5 DUP5 PUSH2 0x1AF JUMP JUMPDEST SWAP1 POP PUSH1 0x0 JUMPDEST DUP5 MLOAD DUP2 LT ISZERO PUSH2 0x31A JUMPI DUP2 DUP2 DUP2 MLOAD DUP2 LT PUSH2 0x450 JUMPI INVALID JUMPDEST PUSH1 0x20 MUL PUSH1 0x20 ADD ADD MLOAD PUSH1 0x0 EQ PUSH2 0x4D6 JUMPI PUSH2 0x4BD DUP3 DUP3 DUP2 MLOAD DUP2 LT PUSH2 0x46E JUMPI INVALID JUMPDEST PUSH1 0x20 MUL PUSH1 0x20 ADD ADD MLOAD DUP7 DUP4 DUP2 MLOAD DUP2 LT PUSH2 0x482 JUMPI INVALID JUMPDEST PUSH1 0x20 MUL PUSH1 0x20 ADD ADD MLOAD PUSH1 0x60 ADD MLOAD PUSH1 0x1 PUSH1 0x1 PUSH1 0x80 SHL SUB AND DUP8 DUP5 DUP2 MLOAD DUP2 LT PUSH2 0x4A3 JUMPI INVALID JUMPDEST PUSH1 0x20 MUL PUSH1 0x20 ADD ADD MLOAD PUSH1 0x40 ADD MLOAD PUSH1 0x1 PUSH1 0x1 PUSH1 0x80 SHL SUB AND PUSH2 0xB5B JUMP JUMPDEST DUP3 DUP3 DUP2 MLOAD DUP2 LT PUSH2 0x4C9 JUMPI INVALID JUMPDEST PUSH1 0x20 MUL PUSH1 0x20 ADD ADD DUP2 DUP2 MSTORE POP POP JUMPDEST PUSH1 0x1 ADD PUSH2 0x43B JUMP JUMPDEST PUSH1 0x60 DUP2 MLOAD PUSH1 0x1 PUSH1 0x1 PUSH1 0x40 SHL SUB DUP2 GT DUP1 ISZERO PUSH2 0x4F7 JUMPI PUSH1 0x0 DUP1 REVERT JUMPDEST POP PUSH1 0x40 MLOAD SWAP1 DUP1 DUP3 MSTORE DUP1 PUSH1 0x20 MUL PUSH1 0x20 ADD DUP3 ADD PUSH1 0x40 MSTORE DUP1 ISZERO PUSH2 0x521 JUMPI DUP2 PUSH1 0x20 ADD PUSH1 0x20 DUP3 MUL DUP1 CALLDATASIZE DUP4 CALLDATACOPY ADD SWAP1 POP JUMPDEST POP SWAP1 POP PUSH1 0x0 JUMPDEST DUP3 MLOAD DUP2 EQ PUSH2 0x5CA JUMPI PUSH32 0x0 PUSH1 0x1 PUSH1 0x1 PUSH1 0xA0 SHL SUB AND DUP4 DUP3 DUP2 MLOAD DUP2 LT PUSH2 0x565 JUMPI INVALID JUMPDEST PUSH1 0x20 MUL PUSH1 0x20 ADD ADD MLOAD PUSH1 0x1 PUSH1 0x1 PUSH1 0xA0 SHL SUB AND EQ PUSH2 0x5A5 JUMPI PUSH2 0x5A0 DUP4 DUP3 DUP2 MLOAD DUP2 LT PUSH2 0x58A JUMPI INVALID JUMPDEST PUSH1 0x20 MUL PUSH1 0x20 ADD ADD MLOAD PUSH1 0x1 PUSH1 0x1 PUSH1 0xA0 SHL SUB AND PUSH2 0xBA7 JUMP JUMPDEST PUSH2 0x5A8 JUMP JUMPDEST PUSH1 0x12 JUMPDEST PUSH1 0xFF AND DUP3 DUP3 DUP2 MLOAD DUP2 LT PUSH2 0x5B7 JUMPI INVALID JUMPDEST PUSH1 0x20 SWAP1 DUP2 MUL SWAP2 SWAP1 SWAP2 ADD ADD MSTORE PUSH1 0x1 ADD PUSH2 0x527 JUMP JUMPDEST POP SWAP2 SWAP1 POP JUMP JUMPDEST PUSH1 0x60 DUP2 PUSH1 0x1 PUSH1 0x1 PUSH1 0x40 SHL SUB DUP2 GT DUP1 ISZERO PUSH2 0x5E8 JUMPI PUSH1 0x0 DUP1 REVERT JUMPDEST POP PUSH1 0x40 MLOAD SWAP1 DUP1 DUP3 MSTORE DUP1 PUSH1 0x20 MUL PUSH1 0x20 ADD DUP3 ADD PUSH1 0x40 MSTORE DUP1 ISZERO PUSH2 0x612 JUMPI DUP2 PUSH1 0x20 ADD PUSH1 0x20 DUP3 MUL DUP1 CALLDATASIZE DUP4 CALLDATACOPY ADD SWAP1 POP JUMPDEST POP SWAP1 POP PUSH1 0x0 JUMPDEST DUP3 DUP2 LT ISZERO PUSH2 0x5CA JUMPI PUSH1 0x40 MLOAD PUSH2 0x62C SWAP1 PUSH2 0xFC6 JUMP JUMPDEST PUSH1 0x40 MLOAD DUP1 SWAP2 SUB SWAP1 PUSH1 0x0 CREATE DUP1 ISZERO DUP1 ISZERO PUSH2 0x648 JUMPI RETURNDATASIZE PUSH1 0x0 DUP1 RETURNDATACOPY RETURNDATASIZE PUSH1 0x0 REVERT JUMPDEST POP DUP3 DUP3 DUP2 MLOAD DUP2 LT PUSH2 0x655 JUMPI INVALID JUMPDEST PUSH1 0x1 PUSH1 0x1 PUSH1 0xA0 SHL SUB SWAP1 SWAP3 AND PUSH1 0x20 SWAP3 DUP4 MUL SWAP2 SWAP1 SWAP2 ADD SWAP1 SWAP2 ADD MSTORE PUSH1 0x1 ADD PUSH2 0x618 JUMP JUMPDEST PUSH1 0x0 DUP1 DUP4 MLOAD PUSH1 0x3 DUP2 GT ISZERO PUSH2 0x685 JUMPI INVALID JUMPDEST EQ DUP1 PUSH2 0x69D JUMPI POP PUSH1 0x1 DUP4 MLOAD PUSH1 0x3 DUP2 GT ISZERO PUSH2 0x69B JUMPI INVALID JUMPDEST EQ JUMPDEST DUP1 PUSH2 0x6B3 JUMPI POP PUSH1 0x40 DUP5 ADD MLOAD PUSH1 0x1 PUSH1 0x1 PUSH1 0x80 SHL SUB AND ISZERO JUMPDEST DUP1 PUSH2 0x6C9 JUMPI POP PUSH1 0x60 DUP5 ADD MLOAD PUSH1 0x1 PUSH1 0x1 PUSH1 0x80 SHL SUB AND ISZERO JUMPDEST ISZERO PUSH2 0x6D6 JUMPI POP PUSH1 0x0 PUSH2 0x7B5 JUMP JUMPDEST PUSH2 0x6DE PUSH2 0xFA4 JUMP JUMPDEST PUSH1 0x0 DUP1 DUP5 PUSH1 0x1 PUSH1 0x1 PUSH1 0xA0 SHL SUB AND PUSH4 0x1FB09795 DUP9 DUP9 PUSH1 0x40 MLOAD DUP4 PUSH4 0xFFFFFFFF AND PUSH1 0xE0 SHL DUP2 MSTORE PUSH1 0x4 ADD PUSH2 0x70F SWAP3 SWAP2 SWAP1 PUSH2 0x1829 JUMP JUMPDEST PUSH1 0xA0 PUSH1 0x40 MLOAD DUP1 DUP4 SUB DUP2 DUP7 DUP1 EXTCODESIZE ISZERO DUP1 ISZERO PUSH2 0x727 JUMPI PUSH1 0x0 DUP1 REVERT JUMPDEST POP GAS STATICCALL ISZERO DUP1 ISZERO PUSH2 0x73B JUMPI RETURNDATASIZE PUSH1 0x0 DUP1 RETURNDATACOPY RETURNDATASIZE PUSH1 0x0 REVERT JUMPDEST POP POP POP POP PUSH1 0x40 MLOAD RETURNDATASIZE PUSH1 0x1F NOT PUSH1 0x1F DUP3 ADD AND DUP3 ADD DUP1 PUSH1 0x40 MSTORE POP DUP2 ADD SWAP1 PUSH2 0x75F SWAP2 SWAP1 PUSH2 0x14EC JUMP JUMPDEST SWAP2 SWAP5 POP SWAP3 POP SWAP1 POP PUSH1 0x1 DUP4 PUSH1 0x20 ADD MLOAD PUSH1 0x4 DUP2 GT ISZERO PUSH2 0x778 JUMPI INVALID JUMPDEST EQ ISZERO DUP1 PUSH2 0x783 JUMPI POP DUP1 ISZERO JUMPDEST DUP1 PUSH2 0x796 JUMPI POP DUP7 MLOAD PUSH1 0x1 PUSH1 0x1 PUSH1 0xA0 SHL SUB AND ISZERO JUMPDEST ISZERO PUSH2 0x7A7 JUMPI PUSH1 0x0 SWAP4 POP POP POP POP PUSH2 0x7B5 JUMP JUMPDEST POP PUSH1 0x1 PUSH1 0x1 PUSH1 0x80 SHL SUB AND SWAP2 POP POP JUMPDEST SWAP4 SWAP3 POP POP POP JUMP JUMPDEST PUSH1 0x60 DUP3 MLOAD PUSH1 0x1 PUSH1 0x1 PUSH1 0x40 SHL SUB DUP2 GT DUP1 ISZERO PUSH2 0x7D5 JUMPI PUSH1 0x0 DUP1 REVERT JUMPDEST POP PUSH1 0x40 MLOAD SWAP1 DUP1 DUP3 MSTORE DUP1 PUSH1 0x20 MUL PUSH1 0x20 ADD DUP3 ADD PUSH1 0x40 MSTORE DUP1 ISZERO PUSH2 0x7FF JUMPI DUP2 PUSH1 0x20 ADD PUSH1 0x20 DUP3 MUL DUP1 CALLDATASIZE DUP4 CALLDATACOPY ADD SWAP1 POP JUMPDEST POP SWAP1 POP PUSH1 0x0 JUMPDEST DUP4 MLOAD DUP2 EQ PUSH2 0x8B8 JUMPI PUSH32 0x0 PUSH1 0x1 PUSH1 0x1 PUSH1 0xA0 SHL SUB AND DUP5 DUP3 DUP2 MLOAD DUP2 LT PUSH2 0x843 JUMPI INVALID JUMPDEST PUSH1 0x20 MUL PUSH1 0x20 ADD ADD MLOAD PUSH1 0x1 PUSH1 0x1 PUSH1 0xA0 SHL SUB AND EQ PUSH2 0x88D JUMPI PUSH2 0x888 DUP4 DUP6 DUP4 DUP2 MLOAD DUP2 LT PUSH2 0x869 JUMPI INVALID JUMPDEST PUSH1 0x20 MUL PUSH1 0x20 ADD ADD MLOAD PUSH1 0x1 PUSH1 0x1 PUSH1 0xA0 SHL SUB AND PUSH2 0xC53 SWAP1 SWAP2 SWAP1 PUSH4 0xFFFFFFFF AND JUMP JUMPDEST PUSH2 0x899 JUMP JUMPDEST DUP3 PUSH1 0x1 PUSH1 0x1 PUSH1 0xA0 SHL SUB AND BALANCE JUMPDEST DUP3 DUP3 DUP2 MLOAD DUP2 LT PUSH2 0x8A5 JUMPI INVALID JUMPDEST PUSH1 0x20 SWAP1 DUP2 MUL SWAP2 SWAP1 SWAP2 ADD ADD MSTORE PUSH1 0x1 ADD PUSH2 0x805 JUMP JUMPDEST POP SWAP3 SWAP2 POP POP JUMP JUMPDEST PUSH1 0x40 MLOAD PUSH4 0x3C9DC74D PUSH1 0xE0 SHL DUP2 MSTORE PUSH1 0x1 PUSH1 0x1 PUSH1 0xA0 SHL SUB DUP7 AND SWAP1 PUSH4 0x3C9DC74D SWAP1 PUSH2 0x8F1 SWAP1 DUP8 SWAP1 DUP8 SWAP1 DUP8 SWAP1 DUP8 SWAP1 PUSH1 0x4 ADD PUSH2 0x172A JUMP JUMPDEST PUSH1 0x0 PUSH1 0x40 MLOAD DUP1 DUP4 SUB DUP2 PUSH1 0x0 DUP8 DUP1 EXTCODESIZE ISZERO DUP1 ISZERO PUSH2 0x90B JUMPI PUSH1 0x0 DUP1 REVERT JUMPDEST POP GAS CALL ISZERO DUP1 ISZERO PUSH2 0x91F JUMPI RETURNDATASIZE PUSH1 0x0 DUP1 RETURNDATACOPY RETURNDATASIZE PUSH1 0x0 REVERT JUMPDEST POP POP POP POP POP POP POP POP POP JUMP JUMPDEST PUSH1 0x60 DUP4 MLOAD PUSH1 0x1 PUSH1 0x1 PUSH1 0x40 SHL SUB DUP2 GT DUP1 ISZERO PUSH2 0x943 JUMPI PUSH1 0x0 DUP1 REVERT JUMPDEST POP PUSH1 0x40 MLOAD SWAP1 DUP1 DUP3 MSTORE DUP1 PUSH1 0x20 MUL PUSH1 0x20 ADD DUP3 ADD PUSH1 0x40 MSTORE DUP1 ISZERO PUSH2 0x96D JUMPI DUP2 PUSH1 0x20 ADD PUSH1 0x20 DUP3 MUL DUP1 CALLDATASIZE DUP4 CALLDATACOPY ADD SWAP1 POP JUMPDEST POP SWAP1 POP PUSH1 0x0 JUMPDEST DUP5 MLOAD DUP2 EQ PUSH2 0x31A JUMPI PUSH32 0x0 PUSH1 0x1 PUSH1 0x1 PUSH1 0xA0 SHL SUB AND DUP6 DUP3 DUP2 MLOAD DUP2 LT PUSH2 0x9B1 JUMPI INVALID JUMPDEST PUSH1 0x20 MUL PUSH1 0x20 ADD ADD MLOAD PUSH1 0x1 PUSH1 0x1 PUSH1 0xA0 SHL SUB AND EQ PUSH2 0x9FD JUMPI PUSH2 0x9F8 DUP5 DUP5 DUP8 DUP5 DUP2 MLOAD DUP2 LT PUSH2 0x9D8 JUMPI INVALID JUMPDEST PUSH1 0x20 MUL PUSH1 0x20 ADD ADD MLOAD PUSH1 0x1 PUSH1 0x1 PUSH1 0xA0 SHL SUB AND PUSH2 0xD28 SWAP1 SWAP3 SWAP2 SWAP1 PUSH4 0xFFFFFFFF AND JUMP JUMPDEST PUSH2 0xA00 JUMP JUMPDEST PUSH1 0x0 JUMPDEST DUP3 DUP3 DUP2 MLOAD DUP2 LT PUSH2 0xA0C JUMPI INVALID JUMPDEST PUSH1 0x20 SWAP1 DUP2 MUL SWAP2 SWAP1 SWAP2 ADD ADD MSTORE PUSH1 0x1 ADD PUSH2 0x973 JUMP JUMPDEST PUSH1 0x0 PUSH2 0xA35 DUP4 PUSH2 0xA2F DUP7 DUP6 PUSH2 0xE00 JUMP JUMPDEST SWAP1 PUSH2 0xE31 JUMP JUMPDEST SWAP5 SWAP4 POP POP POP POP JUMP JUMPDEST PUSH1 0x0 PUSH2 0xB3C DUP4 PUSH1 0x1 PUSH1 0x1 PUSH1 0xA0 SHL SUB AND PUSH4 0xDD62ED3E DUP5 ADDRESS PUSH1 0x40 MLOAD DUP4 PUSH4 0xFFFFFFFF AND PUSH1 0xE0 SHL DUP2 MSTORE PUSH1 0x4 ADD PUSH2 0xA70 SWAP3 SWAP2 SWAP1 PUSH2 0x1710 JUMP JUMPDEST PUSH1 0x20 PUSH1 0x40 MLOAD DUP1 DUP4 SUB DUP2 DUP7 DUP1 EXTCODESIZE ISZERO DUP1 ISZERO PUSH2 0xA88 JUMPI PUSH1 0x0 DUP1 REVERT JUMPDEST POP GAS STATICCALL ISZERO DUP1 ISZERO PUSH2 0xA9C JUMPI RETURNDATASIZE PUSH1 0x0 DUP1 RETURNDATACOPY RETURNDATASIZE PUSH1 0x0 REVERT JUMPDEST POP POP POP POP PUSH1 0x40 MLOAD RETURNDATASIZE PUSH1 0x1F NOT PUSH1 0x1F DUP3 ADD AND DUP3 ADD DUP1 PUSH1 0x40 MSTORE POP DUP2 ADD SWAP1 PUSH2 0xAC0 SWAP2 SWAP1 PUSH2 0x1584 JUMP JUMPDEST PUSH1 0x40 MLOAD PUSH4 0x70A08231 PUSH1 0xE0 SHL DUP2 MSTORE PUSH1 0x1 PUSH1 0x1 PUSH1 0xA0 SHL SUB DUP7 AND SWAP1 PUSH4 0x70A08231 SWAP1 PUSH2 0xAEC SWAP1 DUP8 SWAP1 PUSH1 0x4 ADD PUSH2 0x16FC JUMP JUMPDEST PUSH1 0x20 PUSH1 0x40 MLOAD DUP1 DUP4 SUB DUP2 DUP7 DUP1 EXTCODESIZE ISZERO DUP1 ISZERO PUSH2 0xB04 JUMPI PUSH1 0x0 DUP1 REVERT JUMPDEST POP GAS STATICCALL ISZERO DUP1 ISZERO PUSH2 0xB18 JUMPI RETURNDATASIZE PUSH1 0x0 DUP1 RETURNDATACOPY RETURNDATASIZE PUSH1 0x0 REVERT JUMPDEST POP POP POP POP PUSH1 0x40 MLOAD RETURNDATASIZE PUSH1 0x1F NOT PUSH1 0x1F DUP3 ADD AND DUP3 ADD DUP1 PUSH1 0x40 MSTORE POP DUP2 ADD SWAP1 PUSH2 0x3EB SWAP2 SWAP1 PUSH2 0x1584 JUMP JUMPDEST SWAP1 POP JUMPDEST SWAP3 SWAP2 POP POP JUMP JUMPDEST PUSH1 0x0 DUP2 DUP4 LT PUSH2 0xB54 JUMPI DUP2 PUSH2 0xB3C JUMP JUMPDEST POP SWAP1 SWAP2 SWAP1 POP JUMP JUMPDEST PUSH1 0x0 PUSH2 0xA35 DUP4 PUSH2 0xA2F PUSH2 0xB6F DUP3 PUSH1 0x1 PUSH2 0xE5B JUMP JUMPDEST PUSH2 0xB79 DUP9 DUP8 PUSH2 0xE00 JUMP JUMPDEST SWAP1 PUSH2 0xE7A JUMP JUMPDEST PUSH1 0x0 PUSH1 0x1 PUSH1 0x1 PUSH1 0x80 SHL SUB DUP3 GT ISZERO PUSH2 0xBA3 JUMPI PUSH2 0xBA3 PUSH2 0xB9E PUSH1 0x3 DUP5 PUSH2 0xE96 JUMP JUMPDEST PUSH2 0xEED JUMP JUMPDEST POP SWAP1 JUMP JUMPDEST PUSH1 0x0 PUSH1 0x12 SWAP1 POP PUSH1 0x0 PUSH1 0x60 DUP4 PUSH1 0x1 PUSH1 0x1 PUSH1 0xA0 SHL SUB AND PUSH1 0x40 MLOAD DUP1 PUSH1 0x40 ADD PUSH1 0x40 MSTORE DUP1 PUSH1 0x4 DUP2 MSTORE PUSH1 0x20 ADD PUSH4 0x313CE567 PUSH1 0xE0 SHL DUP2 MSTORE POP PUSH1 0x40 MLOAD PUSH2 0xBE5 SWAP2 SWAP1 PUSH2 0x16C3 JUMP JUMPDEST PUSH1 0x0 PUSH1 0x40 MLOAD DUP1 DUP4 SUB DUP2 DUP6 GAS STATICCALL SWAP2 POP POP RETURNDATASIZE DUP1 PUSH1 0x0 DUP2 EQ PUSH2 0xC20 JUMPI PUSH1 0x40 MLOAD SWAP2 POP PUSH1 0x1F NOT PUSH1 0x3F RETURNDATASIZE ADD AND DUP3 ADD PUSH1 0x40 MSTORE RETURNDATASIZE DUP3 MSTORE RETURNDATASIZE PUSH1 0x0 PUSH1 0x20 DUP5 ADD RETURNDATACOPY PUSH2 0xC25 JUMP JUMPDEST PUSH1 0x60 SWAP2 POP JUMPDEST POP SWAP2 POP SWAP2 POP DUP2 DUP1 ISZERO PUSH2 0xC39 JUMPI POP PUSH1 0x20 DUP2 MLOAD LT ISZERO JUMPDEST ISZERO PUSH2 0xC4C JUMPI PUSH2 0xC49 DUP2 PUSH1 0x0 PUSH2 0xEF5 JUMP JUMPDEST SWAP3 POP JUMPDEST POP POP SWAP2 SWAP1 POP JUMP JUMPDEST PUSH1 0x0 DUP1 PUSH1 0x60 DUP5 PUSH1 0x1 PUSH1 0x1 PUSH1 0xA0 SHL SUB AND PUSH4 0x70A08231 PUSH1 0xE0 SHL DUP6 PUSH1 0x40 MLOAD PUSH1 0x24 ADD PUSH2 0xC7B SWAP2 SWAP1 PUSH2 0x16FC JUMP JUMPDEST PUSH1 0x40 DUP1 MLOAD PUSH1 0x1F NOT DUP2 DUP5 SUB ADD DUP2 MSTORE SWAP2 DUP2 MSTORE PUSH1 0x20 DUP3 ADD DUP1 MLOAD PUSH1 0x1 PUSH1 0x1 PUSH1 0xE0 SHL SUB AND PUSH1 0x1 PUSH1 0x1 PUSH1 0xE0 SHL SUB NOT SWAP1 SWAP5 AND SWAP4 SWAP1 SWAP4 OR SWAP1 SWAP3 MSTORE SWAP1 MLOAD PUSH2 0xCB9 SWAP2 SWAP1 PUSH2 0x16C3 JUMP JUMPDEST PUSH1 0x0 PUSH1 0x40 MLOAD DUP1 DUP4 SUB DUP2 DUP6 GAS STATICCALL SWAP2 POP POP RETURNDATASIZE DUP1 PUSH1 0x0 DUP2 EQ PUSH2 0xCF4 JUMPI PUSH1 0x40 MLOAD SWAP2 POP PUSH1 0x1F NOT PUSH1 0x3F RETURNDATASIZE ADD AND DUP3 ADD PUSH1 0x40 MSTORE RETURNDATASIZE DUP3 MSTORE RETURNDATASIZE PUSH1 0x0 PUSH1 0x20 DUP5 ADD RETURNDATACOPY PUSH2 0xCF9 JUMP JUMPDEST PUSH1 0x60 SWAP2 POP JUMPDEST POP SWAP2 POP SWAP2 POP DUP2 DUP1 ISZERO PUSH2 0xD0D JUMPI POP PUSH1 0x20 DUP2 MLOAD LT ISZERO JUMPDEST ISZERO PUSH2 0xD20 JUMPI PUSH2 0xD1D DUP2 PUSH1 0x0 PUSH2 0xEF5 JUMP JUMPDEST SWAP3 POP JUMPDEST POP POP SWAP3 SWAP2 POP POP JUMP JUMPDEST PUSH1 0x0 DUP1 PUSH1 0x60 DUP6 PUSH1 0x1 PUSH1 0x1 PUSH1 0xA0 SHL SUB AND PUSH4 0xDD62ED3E PUSH1 0xE0 SHL DUP7 DUP7 PUSH1 0x40 MLOAD PUSH1 0x24 ADD PUSH2 0xD52 SWAP3 SWAP2 SWAP1 PUSH2 0x1710 JUMP JUMPDEST PUSH1 0x40 DUP1 MLOAD PUSH1 0x1F NOT DUP2 DUP5 SUB ADD DUP2 MSTORE SWAP2 DUP2 MSTORE PUSH1 0x20 DUP3 ADD DUP1 MLOAD PUSH1 0x1 PUSH1 0x1 PUSH1 0xE0 SHL SUB AND PUSH1 0x1 PUSH1 0x1 PUSH1 0xE0 SHL SUB NOT SWAP1 SWAP5 AND SWAP4 SWAP1 SWAP4 OR SWAP1 SWAP3 MSTORE SWAP1 MLOAD PUSH2 0xD90 SWAP2 SWAP1 PUSH2 0x16C3 JUMP JUMPDEST PUSH1 0x0 PUSH1 0x40 MLOAD DUP1 DUP4 SUB DUP2 DUP6 GAS STATICCALL SWAP2 POP POP RETURNDATASIZE DUP1 PUSH1 0x0 DUP2 EQ PUSH2 0xDCB JUMPI PUSH1 0x40 MLOAD SWAP2 POP PUSH1 0x1F NOT PUSH1 0x3F RETURNDATASIZE ADD AND DUP3 ADD PUSH1 0x40 MSTORE RETURNDATASIZE DUP3 MSTORE RETURNDATASIZE PUSH1 0x0 PUSH1 0x20 DUP5 ADD RETURNDATACOPY PUSH2 0xDD0 JUMP JUMPDEST PUSH1 0x60 SWAP2 POP JUMPDEST POP SWAP2 POP SWAP2 POP DUP2 DUP1 ISZERO PUSH2 0xDE4 JUMPI POP PUSH1 0x20 DUP2 MLOAD LT ISZERO JUMPDEST ISZERO PUSH2 0xDF7 JUMPI PUSH2 0xDF4 DUP2 PUSH1 0x0 PUSH2 0xEF5 JUMP JUMPDEST SWAP3 POP JUMPDEST POP POP SWAP4 SWAP3 POP POP POP JUMP JUMPDEST PUSH1 0x0 DUP3 PUSH2 0xE0F JUMPI POP PUSH1 0x0 PUSH2 0xB3F JUMP JUMPDEST DUP3 DUP3 MUL DUP3 DUP5 DUP3 DUP2 PUSH2 0xE1C JUMPI INVALID JUMPDEST DIV EQ PUSH2 0xB3C JUMPI PUSH2 0xB3C PUSH2 0xB9E PUSH1 0x1 DUP7 DUP7 PUSH2 0xF01 JUMP JUMPDEST PUSH1 0x0 DUP2 PUSH2 0xE47 JUMPI PUSH2 0xE47 PUSH2 0xB9E PUSH1 0x3 DUP6 DUP6 PUSH2 0xF01 JUMP JUMPDEST PUSH1 0x0 DUP3 DUP5 DUP2 PUSH2 0xE52 JUMPI INVALID JUMPDEST DIV SWAP5 SWAP4 POP POP POP POP JUMP JUMPDEST PUSH1 0x0 DUP3 DUP3 GT ISZERO PUSH2 0xE74 JUMPI PUSH2 0xE74 PUSH2 0xB9E PUSH1 0x2 DUP6 DUP6 PUSH2 0xF01 JUMP JUMPDEST POP SWAP1 SUB SWAP1 JUMP JUMPDEST PUSH1 0x0 DUP3 DUP3 ADD DUP4 DUP2 LT ISZERO PUSH2 0xB3C JUMPI PUSH2 0xB3C PUSH2 0xB9E PUSH1 0x0 DUP7 DUP7 PUSH2 0xF01 JUMP JUMPDEST PUSH1 0x60 PUSH4 0xC996AF7B PUSH1 0xE0 SHL DUP4 DUP4 PUSH1 0x40 MLOAD PUSH1 0x24 ADD PUSH2 0xEB3 SWAP3 SWAP2 SWAP1 PUSH2 0x1804 JUMP JUMPDEST PUSH1 0x40 DUP1 MLOAD PUSH1 0x1F NOT DUP2 DUP5 SUB ADD DUP2 MSTORE SWAP2 SWAP1 MSTORE PUSH1 0x20 DUP2 ADD DUP1 MLOAD PUSH1 0x1 PUSH1 0x1 PUSH1 0xE0 SHL SUB AND PUSH1 0x1 PUSH1 0x1 PUSH1 0xE0 SHL SUB NOT SWAP1 SWAP4 AND SWAP3 SWAP1 SWAP3 OR SWAP1 SWAP2 MSTORE SWAP1 POP SWAP3 SWAP2 POP POP JUMP JUMPDEST DUP1 MLOAD PUSH1 0x20 DUP3 ADD REVERT JUMPDEST PUSH1 0x0 PUSH2 0xB3C DUP4 DUP4 PUSH2 0xF5B JUMP JUMPDEST PUSH1 0x60 PUSH4 0xE946C1BB PUSH1 0xE0 SHL DUP5 DUP5 DUP5 PUSH1 0x40 MLOAD PUSH1 0x24 ADD PUSH2 0xF20 SWAP4 SWAP3 SWAP2 SWAP1 PUSH2 0x17E3 JUMP JUMPDEST PUSH1 0x40 DUP1 MLOAD PUSH1 0x1F NOT DUP2 DUP5 SUB ADD DUP2 MSTORE SWAP2 SWAP1 MSTORE PUSH1 0x20 DUP2 ADD DUP1 MLOAD PUSH1 0x1 PUSH1 0x1 PUSH1 0xE0 SHL SUB AND PUSH1 0x1 PUSH1 0x1 PUSH1 0xE0 SHL SUB NOT SWAP1 SWAP4 AND SWAP3 SWAP1 SWAP3 OR SWAP1 SWAP2 MSTORE SWAP1 POP SWAP4 SWAP3 POP POP POP JUMP JUMPDEST PUSH1 0x0 DUP2 PUSH1 0x20 ADD DUP4 MLOAD LT ISZERO PUSH2 0xF7C JUMPI PUSH2 0xF7C PUSH2 0xB9E PUSH1 0x5 DUP6 MLOAD DUP6 PUSH1 0x20 ADD PUSH2 0xF85 JUMP JUMPDEST POP ADD PUSH1 0x20 ADD MLOAD SWAP1 JUMP JUMPDEST PUSH1 0x60 PUSH4 0x28006595 PUSH1 0xE0 SHL DUP5 DUP5 DUP5 PUSH1 0x40 MLOAD PUSH1 0x24 ADD PUSH2 0xF20 SWAP4 SWAP3 SWAP2 SWAP1 PUSH2 0x181B JUMP JUMPDEST PUSH1 0x40 DUP1 MLOAD PUSH1 0x60 DUP2 ADD SWAP1 SWAP2 MSTORE PUSH1 0x0 DUP1 DUP3 MSTORE PUSH1 0x20 DUP3 ADD SWAP1 DUP2 MSTORE PUSH1 0x0 PUSH1 0x20 SWAP1 SWAP2 ADD MSTORE SWAP1 JUMP JUMPDEST PUSH2 0x20F DUP1 PUSH2 0x194F DUP4 CODECOPY ADD SWAP1 JUMP JUMPDEST DUP1 CALLDATALOAD PUSH2 0xB3F DUP2 PUSH2 0x1924 JUMP JUMPDEST PUSH1 0x0 DUP3 PUSH1 0x1F DUP4 ADD SLT PUSH2 0xFEE JUMPI DUP1 DUP2 REVERT JUMPDEST DUP2 CALLDATALOAD PUSH2 0x1001 PUSH2 0xFFC DUP3 PUSH2 0x18F8 JUMP JUMPDEST PUSH2 0x18D2 JUMP JUMPDEST DUP2 DUP2 MSTORE SWAP2 POP PUSH1 0x20 DUP1 DUP4 ADD SWAP1 DUP5 DUP2 ADD DUP2 DUP5 MUL DUP7 ADD DUP3 ADD DUP8 LT ISZERO PUSH2 0x1022 JUMPI PUSH1 0x0 DUP1 REVERT JUMPDEST PUSH1 0x0 JUMPDEST DUP5 DUP2 LT ISZERO PUSH2 0x104A JUMPI DUP2 CALLDATALOAD PUSH2 0x1038 DUP2 PUSH2 0x1924 JUMP JUMPDEST DUP5 MSTORE SWAP3 DUP3 ADD SWAP3 SWAP1 DUP3 ADD SWAP1 PUSH1 0x1 ADD PUSH2 0x1025 JUMP JUMPDEST POP POP POP POP POP SWAP3 SWAP2 POP POP JUMP JUMPDEST PUSH1 0x0 DUP3 PUSH1 0x1F DUP4 ADD SLT PUSH2 0x1065 JUMPI DUP1 DUP2 REVERT JUMPDEST DUP2 CALLDATALOAD PUSH2 0x1073 PUSH2 0xFFC DUP3 PUSH2 0x18F8 JUMP JUMPDEST DUP2 DUP2 MSTORE SWAP2 POP PUSH1 0x20 DUP1 DUP4 ADD SWAP1 DUP5 DUP2 ADD PUSH1 0x80 DUP1 DUP6 MUL DUP8 ADD DUP4 ADD DUP9 LT ISZERO PUSH2 0x1096 JUMPI PUSH1 0x0 DUP1 REVERT JUMPDEST PUSH1 0x0 JUMPDEST DUP6 DUP2 LT ISZERO PUSH2 0x10BD JUMPI PUSH2 0x10AB DUP10 DUP5 PUSH2 0x11B6 JUMP JUMPDEST DUP6 MSTORE SWAP4 DUP4 ADD SWAP4 SWAP2 DUP2 ADD SWAP2 PUSH1 0x1 ADD PUSH2 0x1099 JUMP JUMPDEST POP POP POP POP POP POP SWAP3 SWAP2 POP POP JUMP JUMPDEST PUSH1 0x0 PUSH2 0x180 DUP1 DUP4 DUP6 SUB SLT ISZERO PUSH2 0x10DC JUMPI DUP2 DUP3 REVERT JUMPDEST PUSH2 0x10E5 DUP2 PUSH2 0x18D2 JUMP JUMPDEST SWAP2 POP POP PUSH2 0x10F2 DUP4 DUP4 PUSH2 0xFD3 JUMP JUMPDEST DUP2 MSTORE PUSH2 0x1101 DUP4 PUSH1 0x20 DUP5 ADD PUSH2 0xFD3 JUMP JUMPDEST PUSH1 0x20 DUP3 ADD MSTORE PUSH2 0x1113 DUP4 PUSH1 0x40 DUP5 ADD PUSH2 0x1219 JUMP JUMPDEST PUSH1 0x40 DUP3 ADD MSTORE PUSH2 0x1125 DUP4 PUSH1 0x60 DUP5 ADD PUSH2 0x1219 JUMP JUMPDEST PUSH1 0x60 DUP3 ADD MSTORE PUSH2 0x1137 DUP4 PUSH1 0x80 DUP5 ADD PUSH2 0x1219 JUMP JUMPDEST PUSH1 0x80 DUP3 ADD MSTORE PUSH2 0x1149 DUP4 PUSH1 0xA0 DUP5 ADD PUSH2 0xFD3 JUMP JUMPDEST PUSH1 0xA0 DUP3 ADD MSTORE PUSH2 0x115B DUP4 PUSH1 0xC0 DUP5 ADD PUSH2 0xFD3 JUMP JUMPDEST PUSH1 0xC0 DUP3 ADD MSTORE PUSH2 0x116D DUP4 PUSH1 0xE0 DUP5 ADD PUSH2 0xFD3 JUMP JUMPDEST PUSH1 0xE0 DUP3 ADD MSTORE PUSH2 0x100 PUSH2 0x1181 DUP5 DUP3 DUP6 ADD PUSH2 0xFD3 JUMP JUMPDEST SWAP1 DUP3 ADD MSTORE PUSH2 0x120 DUP3 DUP2 ADD CALLDATALOAD SWAP1 DUP3 ADD MSTORE PUSH2 0x140 PUSH2 0x119F DUP5 DUP3 DUP6 ADD PUSH2 0x1224 JUMP JUMPDEST DUP2 DUP4 ADD MSTORE POP PUSH2 0x160 DUP1 DUP4 ADD CALLDATALOAD DUP2 DUP4 ADD MSTORE POP SWAP3 SWAP2 POP POP JUMP JUMPDEST PUSH1 0x0 PUSH1 0x80 DUP3 DUP5 SUB SLT ISZERO PUSH2 0x11C7 JUMPI DUP1 DUP2 REVERT JUMPDEST PUSH2 0x11D1 PUSH1 0x80 PUSH2 0x18D2 JUMP JUMPDEST SWAP1 POP DUP2 CALLDATALOAD PUSH1 0x4 DUP2 LT PUSH2 0x11E2 JUMPI PUSH1 0x0 DUP1 REVERT JUMPDEST DUP2 MSTORE PUSH1 0x20 DUP3 ADD CALLDATALOAD PUSH1 0xFF DUP2 AND DUP2 EQ PUSH2 0x11F8 JUMPI PUSH1 0x0 DUP1 REVERT JUMPDEST DUP1 PUSH1 0x20 DUP4 ADD MSTORE POP PUSH1 0x40 DUP3 ADD CALLDATALOAD PUSH1 0x40 DUP3 ADD MSTORE PUSH1 0x60 DUP3 ADD CALLDATALOAD PUSH1 0x60 DUP3 ADD MSTORE SWAP3 SWAP2 POP POP JUMP JUMPDEST DUP1 CALLDATALOAD PUSH2 0xB3F DUP2 PUSH2 0x1939 JUMP JUMPDEST DUP1 CALLDATALOAD PUSH1 0x1 PUSH1 0x1 PUSH1 0x40 SHL SUB DUP2 AND DUP2 EQ PUSH2 0xB3F JUMPI PUSH1 0x0 DUP1 REVERT JUMPDEST PUSH1 0x0 PUSH1 0x20 DUP3 DUP5 SUB SLT ISZERO PUSH2 0x124C JUMPI DUP1 DUP2 REVERT JUMPDEST DUP2 CALLDATALOAD PUSH2 0xB3C DUP2 PUSH2 0x1924 JUMP JUMPDEST PUSH1 0x0 PUSH1 0x20 DUP3 DUP5 SUB SLT ISZERO PUSH2 0x1268 JUMPI DUP1 DUP2 REVERT JUMPDEST DUP2 CALLDATALOAD PUSH1 0x1 PUSH1 0x1 PUSH1 0x40 SHL SUB DUP2 GT ISZERO PUSH2 0x127D JUMPI DUP2 DUP3 REVERT JUMPDEST PUSH2 0xA35 DUP5 DUP3 DUP6 ADD PUSH2 0xFDE JUMP JUMPDEST PUSH1 0x0 DUP1 PUSH1 0x40 DUP4 DUP6 SUB SLT ISZERO PUSH2 0x129B JUMPI DUP1 DUP2 REVERT JUMPDEST DUP3 CALLDATALOAD PUSH1 0x1 PUSH1 0x1 PUSH1 0x40 SHL SUB DUP2 GT ISZERO PUSH2 0x12B0 JUMPI DUP2 DUP3 REVERT JUMPDEST PUSH2 0x12BC DUP6 DUP3 DUP7 ADD PUSH2 0xFDE JUMP JUMPDEST SWAP3 POP POP PUSH1 0x20 DUP4 ADD CALLDATALOAD PUSH2 0x12CD DUP2 PUSH2 0x1924 JUMP JUMPDEST DUP1 SWAP2 POP POP SWAP3 POP SWAP3 SWAP1 POP JUMP JUMPDEST PUSH1 0x0 DUP1 PUSH1 0x0 PUSH1 0x60 DUP5 DUP7 SUB SLT ISZERO PUSH2 0x12EC JUMPI DUP1 DUP2 REVERT JUMPDEST DUP4 CALLDATALOAD PUSH1 0x1 PUSH1 0x1 PUSH1 0x40 SHL SUB DUP2 GT ISZERO PUSH2 0x1301 JUMPI DUP2 DUP3 REVERT JUMPDEST PUSH2 0x130D DUP7 DUP3 DUP8 ADD PUSH2 0xFDE JUMP JUMPDEST SWAP4 POP POP PUSH1 0x20 DUP5 ADD CALLDATALOAD PUSH2 0x131E DUP2 PUSH2 0x1924 JUMP JUMPDEST SWAP2 POP PUSH1 0x40 DUP5 ADD CALLDATALOAD PUSH2 0x132E DUP2 PUSH2 0x1924 JUMP JUMPDEST DUP1 SWAP2 POP POP SWAP3 POP SWAP3 POP SWAP3 JUMP JUMPDEST PUSH1 0x0 DUP1 PUSH1 0x0 PUSH1 0x60 DUP5 DUP7 SUB SLT ISZERO PUSH2 0x134D JUMPI DUP1 DUP2 REVERT JUMPDEST DUP4 CALLDATALOAD PUSH1 0x1 PUSH1 0x1 PUSH1 0x40 SHL SUB DUP1 DUP3 GT ISZERO PUSH2 0x1363 JUMPI DUP3 DUP4 REVERT JUMPDEST DUP2 DUP7 ADD SWAP2 POP DUP7 PUSH1 0x1F DUP4 ADD SLT PUSH2 0x1376 JUMPI DUP3 DUP4 REVERT JUMPDEST DUP2 CALLDATALOAD PUSH2 0x1384 PUSH2 0xFFC DUP3 PUSH2 0x18F8 JUMP JUMPDEST DUP1 DUP3 DUP3 MSTORE PUSH1 0x20 DUP1 DUP4 ADD SWAP3 POP DUP1 DUP7 ADD PUSH2 0x180 DUP13 DUP4 DUP3 DUP9 MUL DUP11 ADD ADD GT ISZERO PUSH2 0x13A7 JUMPI DUP9 DUP10 REVERT JUMPDEST DUP9 SWAP8 POP JUMPDEST DUP6 DUP9 LT ISZERO PUSH2 0x13D3 JUMPI PUSH2 0x13BD DUP14 DUP4 PUSH2 0x10C9 JUMP JUMPDEST DUP6 MSTORE PUSH1 0x1 SWAP8 SWAP1 SWAP8 ADD SWAP7 SWAP4 DUP3 ADD SWAP4 SWAP1 DUP2 ADD SWAP1 PUSH2 0x13AB JUMP JUMPDEST POP SWAP2 SWAP9 POP DUP10 ADD CALLDATALOAD SWAP5 POP POP POP POP DUP1 DUP3 GT ISZERO PUSH2 0x13EB JUMPI DUP3 DUP4 REVERT JUMPDEST POP PUSH2 0x13F8 DUP7 DUP3 DUP8 ADD PUSH2 0x1055 JUMP JUMPDEST SWAP3 POP POP PUSH2 0x1408 DUP6 PUSH1 0x40 DUP7 ADD PUSH2 0xFD3 JUMP JUMPDEST SWAP1 POP SWAP3 POP SWAP3 POP SWAP3 JUMP JUMPDEST PUSH1 0x0 DUP1 PUSH1 0x0 DUP1 PUSH1 0x0 PUSH1 0xA0 DUP7 DUP9 SUB SLT ISZERO PUSH2 0x1428 JUMPI DUP3 DUP4 REVERT JUMPDEST DUP6 CALLDATALOAD PUSH2 0x1433 DUP2 PUSH2 0x1924 JUMP JUMPDEST SWAP5 POP PUSH1 0x20 DUP7 ADD CALLDATALOAD PUSH2 0x1443 DUP2 PUSH2 0x1924 JUMP JUMPDEST SWAP4 POP PUSH1 0x40 DUP7 ADD CALLDATALOAD PUSH2 0x1453 DUP2 PUSH2 0x1924 JUMP JUMPDEST SWAP5 SWAP8 SWAP4 SWAP7 POP SWAP4 SWAP5 PUSH1 0x60 DUP2 ADD CALLDATALOAD SWAP5 POP PUSH1 0x80 ADD CALLDATALOAD SWAP3 SWAP2 POP POP JUMP JUMPDEST PUSH1 0x0 DUP1 DUP3 DUP5 SUB PUSH2 0x200 DUP2 SLT ISZERO PUSH2 0x147F JUMPI DUP3 DUP4 REVERT JUMPDEST PUSH2 0x1489 DUP6 DUP6 PUSH2 0x10C9 JUMP JUMPDEST SWAP3 POP PUSH1 0x80 PUSH2 0x17F NOT DUP3 ADD SLT ISZERO PUSH2 0x149D JUMPI DUP2 DUP3 REVERT JUMPDEST POP PUSH2 0x180 DUP4 ADD SWAP1 POP SWAP3 POP SWAP3 SWAP1 POP JUMP JUMPDEST PUSH1 0x0 DUP1 PUSH1 0x0 PUSH2 0x220 DUP5 DUP7 SUB SLT ISZERO PUSH2 0x14C1 JUMPI DUP1 DUP2 REVERT JUMPDEST PUSH2 0x14CB DUP6 DUP6 PUSH2 0x10C9 JUMP JUMPDEST SWAP3 POP PUSH2 0x14DB DUP6 PUSH2 0x180 DUP7 ADD PUSH2 0x11B6 JUMP JUMPDEST SWAP2 POP PUSH2 0x200 DUP5 ADD CALLDATALOAD PUSH2 0x132E DUP2 PUSH2 0x1924 JUMP JUMPDEST PUSH1 0x0 DUP1 PUSH1 0x0 DUP4 DUP6 SUB PUSH1 0xA0 DUP2 SLT ISZERO PUSH2 0x1501 JUMPI DUP2 DUP3 REVERT JUMPDEST PUSH1 0x60 DUP2 SLT ISZERO PUSH2 0x150E JUMPI DUP2 DUP3 REVERT JUMPDEST POP PUSH2 0x1519 PUSH1 0x60 PUSH2 0x18D2 JUMP JUMPDEST DUP5 MLOAD DUP2 MSTORE PUSH1 0x20 DUP6 ADD MLOAD PUSH1 0x5 DUP2 LT PUSH2 0x152E JUMPI DUP3 DUP4 REVERT JUMPDEST PUSH1 0x20 DUP3 ADD MSTORE PUSH1 0x40 DUP6 ADD MLOAD PUSH2 0x1541 DUP2 PUSH2 0x1939 JUMP JUMPDEST PUSH1 0x40 DUP3 ADD MSTORE PUSH1 0x60 DUP6 ADD MLOAD SWAP1 SWAP4 POP PUSH2 0x1557 DUP2 PUSH2 0x1939 JUMP JUMPDEST PUSH1 0x80 DUP6 ADD MLOAD SWAP1 SWAP3 POP DUP1 ISZERO ISZERO DUP2 EQ PUSH2 0x132E JUMPI DUP2 DUP3 REVERT JUMPDEST PUSH1 0x0 PUSH1 0x20 DUP3 DUP5 SUB SLT ISZERO PUSH2 0x157D JUMPI DUP1 DUP2 REVERT JUMPDEST POP CALLDATALOAD SWAP2 SWAP1 POP JUMP JUMPDEST PUSH1 0x0 PUSH1 0x20 DUP3 DUP5 SUB SLT ISZERO PUSH2 0x1595 JUMPI DUP1 DUP2 REVERT JUMPDEST POP MLOAD SWAP2 SWAP1 POP JUMP JUMPDEST PUSH1 0x1 PUSH1 0x1 PUSH1 0xA0 SHL SUB AND SWAP1 MSTORE JUMP JUMPDEST PUSH2 0x15B4 DUP3 DUP3 MLOAD PUSH2 0x159C JUMP JUMPDEST PUSH1 0x20 DUP2 ADD MLOAD PUSH2 0x15C6 PUSH1 0x20 DUP5 ADD DUP3 PUSH2 0x159C JUMP JUMPDEST POP PUSH1 0x40 DUP2 ADD MLOAD PUSH2 0x15D9 PUSH1 0x40 DUP5 ADD DUP3 PUSH2 0x16A9 JUMP JUMPDEST POP PUSH1 0x60 DUP2 ADD MLOAD PUSH2 0x15EC PUSH1 0x60 DUP5 ADD DUP3 PUSH2 0x16A9 JUMP JUMPDEST POP PUSH1 0x80 DUP2 ADD MLOAD PUSH2 0x15FF PUSH1 0x80 DUP5 ADD DUP3 PUSH2 0x16A9 JUMP JUMPDEST POP PUSH1 0xA0 DUP2 ADD MLOAD PUSH2 0x1612 PUSH1 0xA0 DUP5 ADD DUP3 PUSH2 0x159C JUMP JUMPDEST POP PUSH1 0xC0 DUP2 ADD MLOAD PUSH2 0x1625 PUSH1 0xC0 DUP5 ADD DUP3 PUSH2 0x159C JUMP JUMPDEST POP PUSH1 0xE0 DUP2 ADD MLOAD PUSH2 0x1638 PUSH1 0xE0 DUP5 ADD DUP3 PUSH2 0x159C JUMP JUMPDEST POP PUSH2 0x100 DUP1 DUP3 ADD MLOAD PUSH2 0x164C DUP3 DUP6 ADD DUP3 PUSH2 0x159C JUMP JUMPDEST POP POP PUSH2 0x120 DUP2 DUP2 ADD MLOAD SWAP1 DUP4 ADD MSTORE PUSH2 0x140 DUP1 DUP3 ADD MLOAD PUSH2 0x166C DUP3 DUP6 ADD DUP3 PUSH2 0x16B6 JUMP JUMPDEST POP POP PUSH2 0x160 SWAP1 DUP2 ADD MLOAD SWAP2 ADD MSTORE JUMP JUMPDEST DUP1 MLOAD PUSH2 0x1685 DUP2 PUSH2 0x1917 JUMP JUMPDEST DUP3 MSTORE PUSH1 0x20 DUP2 DUP2 ADD MLOAD PUSH1 0xFF AND SWAP1 DUP4 ADD MSTORE PUSH1 0x40 DUP1 DUP3 ADD MLOAD SWAP1 DUP4 ADD MSTORE PUSH1 0x60 SWAP1 DUP2 ADD MLOAD SWAP2 ADD MSTORE JUMP JUMPDEST PUSH1 0x1 PUSH1 0x1 PUSH1 0x80 SHL SUB AND SWAP1 MSTORE JUMP JUMPDEST PUSH1 0x1 PUSH1 0x1 PUSH1 0x40 SHL SUB AND SWAP1 MSTORE JUMP JUMPDEST PUSH1 0x0 DUP3 MLOAD DUP2 JUMPDEST DUP2 DUP2 LT ISZERO PUSH2 0x16E3 JUMPI PUSH1 0x20 DUP2 DUP7 ADD DUP2 ADD MLOAD DUP6 DUP4 ADD MSTORE ADD PUSH2 0x16C9 JUMP JUMPDEST DUP2 DUP2 GT ISZERO PUSH2 0x16F1 JUMPI DUP3 DUP3 DUP6 ADD MSTORE JUMPDEST POP SWAP2 SWAP1 SWAP2 ADD SWAP3 SWAP2 POP POP JUMP JUMPDEST PUSH1 0x1 PUSH1 0x1 PUSH1 0xA0 SHL SUB SWAP2 SWAP1 SWAP2 AND DUP2 MSTORE PUSH1 0x20 ADD SWAP1 JUMP JUMPDEST PUSH1 0x1 PUSH1 0x1 PUSH1 0xA0 SHL SUB SWAP3 DUP4 AND DUP2 MSTORE SWAP2 AND PUSH1 0x20 DUP3 ADD MSTORE PUSH1 0x40 ADD SWAP1 JUMP JUMPDEST PUSH1 0x1 PUSH1 0x1 PUSH1 0xA0 SHL SUB SWAP5 DUP6 AND DUP2 MSTORE SWAP3 SWAP1 SWAP4 AND PUSH1 0x20 DUP4 ADD MSTORE PUSH1 0x40 DUP3 ADD MSTORE PUSH1 0x60 DUP2 ADD SWAP2 SWAP1 SWAP2 MSTORE PUSH1 0x80 ADD SWAP1 JUMP JUMPDEST PUSH1 0x20 DUP1 DUP3 MSTORE DUP3 MLOAD DUP3 DUP3 ADD DUP2 SWAP1 MSTORE PUSH1 0x0 SWAP2 SWAP1 DUP5 DUP3 ADD SWAP1 PUSH1 0x40 DUP6 ADD SWAP1 DUP5 JUMPDEST DUP2 DUP2 LT ISZERO PUSH2 0x1794 JUMPI DUP4 MLOAD PUSH1 0x1 PUSH1 0x1 PUSH1 0xA0 SHL SUB AND DUP4 MSTORE SWAP3 DUP5 ADD SWAP3 SWAP2 DUP5 ADD SWAP2 PUSH1 0x1 ADD PUSH2 0x176F JUMP JUMPDEST POP SWAP1 SWAP7 SWAP6 POP POP POP POP POP POP JUMP JUMPDEST PUSH1 0x20 DUP1 DUP3 MSTORE DUP3 MLOAD DUP3 DUP3 ADD DUP2 SWAP1 MSTORE PUSH1 0x0 SWAP2 SWAP1 DUP5 DUP3 ADD SWAP1 PUSH1 0x40 DUP6 ADD SWAP1 DUP5 JUMPDEST DUP2 DUP2 LT ISZERO PUSH2 0x1794 JUMPI DUP4 MLOAD DUP4 MSTORE SWAP3 DUP5 ADD SWAP3 SWAP2 DUP5 ADD SWAP2 PUSH1 0x1 ADD PUSH2 0x17BC JUMP JUMPDEST SWAP1 ISZERO ISZERO DUP2 MSTORE PUSH1 0x20 ADD SWAP1 JUMP JUMPDEST PUSH1 0x60 DUP2 ADD PUSH2 0x17F0 DUP6 PUSH2 0x1917 JUMP JUMPDEST SWAP4 DUP2 MSTORE PUSH1 0x20 DUP2 ADD SWAP3 SWAP1 SWAP3 MSTORE PUSH1 0x40 SWAP1 SWAP2 ADD MSTORE SWAP1 JUMP JUMPDEST PUSH1 0x40 DUP2 ADD PUSH2 0x1811 DUP5 PUSH2 0x1917 JUMP JUMPDEST SWAP3 DUP2 MSTORE PUSH1 0x20 ADD MSTORE SWAP1 JUMP JUMPDEST PUSH1 0x60 DUP2 ADD PUSH1 0x8 DUP6 LT PUSH2 0x17F0 JUMPI INVALID JUMPDEST PUSH2 0x200 DUP2 ADD PUSH2 0x1838 DUP3 DUP6 PUSH2 0x15A9 JUMP JUMPDEST PUSH2 0x7B5 PUSH2 0x180 DUP4 ADD DUP5 PUSH2 0x167A JUMP JUMPDEST PUSH2 0x220 DUP2 ADD PUSH2 0x1855 DUP3 DUP7 PUSH2 0x15A9 JUMP JUMPDEST PUSH2 0x1863 PUSH2 0x180 DUP4 ADD DUP6 PUSH2 0x167A JUMP JUMPDEST PUSH1 0x1 PUSH1 0x1 PUSH1 0xA0 SHL SUB SWAP3 SWAP1 SWAP3 AND PUSH2 0x200 SWAP2 SWAP1 SWAP2 ADD MSTORE SWAP3 SWAP2 POP POP JUMP JUMPDEST DUP4 MLOAD DUP2 MSTORE PUSH1 0x20 DUP5 ADD MLOAD PUSH1 0xA0 DUP3 ADD SWAP1 PUSH1 0x5 DUP2 LT PUSH2 0x1895 JUMPI INVALID JUMPDEST PUSH1 0x20 DUP4 ADD MSTORE PUSH1 0x40 SWAP5 DUP6 ADD MLOAD PUSH1 0x1 PUSH1 0x1 PUSH1 0x80 SHL SUB SWAP1 DUP2 AND SWAP6 DUP4 ADD SWAP6 SWAP1 SWAP6 MSTORE SWAP3 SWAP1 SWAP4 AND PUSH1 0x60 DUP5 ADD MSTORE ISZERO ISZERO PUSH1 0x80 SWAP1 SWAP3 ADD SWAP2 SWAP1 SWAP2 MSTORE SWAP1 JUMP JUMPDEST SWAP1 DUP2 MSTORE PUSH1 0x20 ADD SWAP1 JUMP JUMPDEST PUSH1 0x40 MLOAD DUP2 DUP2 ADD PUSH1 0x1 PUSH1 0x1 PUSH1 0x40 SHL SUB DUP2 GT DUP3 DUP3 LT OR ISZERO PUSH2 0x18F0 JUMPI PUSH1 0x0 DUP1 REVERT JUMPDEST PUSH1 0x40 MSTORE SWAP2 SWAP1 POP JUMP JUMPDEST PUSH1 0x0 PUSH1 0x1 PUSH1 0x1 PUSH1 0x40 SHL SUB DUP3 GT ISZERO PUSH2 0x190D JUMPI DUP1 DUP2 REVERT JUMPDEST POP PUSH1 0x20 SWAP1 DUP2 MUL ADD SWAP1 JUMP JUMPDEST PUSH1 0x4 DUP2 LT PUSH2 0x1921 JUMPI INVALID JUMPDEST POP JUMP JUMPDEST PUSH1 0x1 PUSH1 0x1 PUSH1 0xA0 SHL SUB DUP2 AND DUP2 EQ PUSH2 0x1921 JUMPI PUSH1 0x0 DUP1 REVERT JUMPDEST PUSH1 0x1 PUSH1 0x1 PUSH1 0x80 SHL SUB DUP2 AND DUP2 EQ PUSH2 0x1921 JUMPI PUSH1 0x0 DUP1 REVERT INVALID PUSH1 0x80 PUSH1 0x40 MSTORE CALLVALUE DUP1 ISZERO PUSH2 0x10 JUMPI PUSH1 0x0 DUP1 REVERT JUMPDEST POP PUSH2 0x1EF DUP1 PUSH2 0x20 PUSH1 0x0 CODECOPY PUSH1 0x0 RETURN INVALID PUSH1 0x80 PUSH1 0x40 MSTORE CALLVALUE DUP1 ISZERO PUSH2 0x10 JUMPI PUSH1 0x0 DUP1 REVERT JUMPDEST POP PUSH1 0x4 CALLDATASIZE LT PUSH2 0x41 JUMPI PUSH1 0x0 CALLDATALOAD PUSH1 0xE0 SHR DUP1 PUSH4 0x3C9DC74D EQ PUSH2 0x46 JUMPI DUP1 PUSH4 0x70A08231 EQ PUSH2 0x5B JUMPI DUP1 PUSH4 0xDD62ED3E EQ PUSH2 0x84 JUMPI JUMPDEST PUSH1 0x0 DUP1 REVERT JUMPDEST PUSH2 0x59 PUSH2 0x54 CALLDATASIZE PUSH1 0x4 PUSH2 0x16D JUMP JUMPDEST PUSH2 0x97 JUMP JUMPDEST STOP JUMPDEST PUSH2 0x6E PUSH2 0x69 CALLDATASIZE PUSH1 0x4 PUSH2 0x117 JUMP JUMPDEST PUSH2 0xCB JUMP JUMPDEST PUSH1 0x40 MLOAD PUSH2 0x7B SWAP2 SWAP1 PUSH2 0x1B0 JUMP JUMPDEST PUSH1 0x40 MLOAD DUP1 SWAP2 SUB SWAP1 RETURN JUMPDEST PUSH2 0x6E PUSH2 0x92 CALLDATASIZE PUSH1 0x4 PUSH2 0x139 JUMP JUMPDEST PUSH2 0xDD JUMP JUMPDEST PUSH1 0x1 PUSH1 0x1 PUSH1 0xA0 SHL SUB SWAP4 DUP5 AND PUSH1 0x0 SWAP1 DUP2 MSTORE PUSH1 0x20 DUP2 DUP2 MSTORE PUSH1 0x40 DUP1 DUP4 KECCAK256 SWAP5 SWAP1 SWAP5 SSTORE PUSH1 0x1 DUP2 MSTORE DUP4 DUP3 KECCAK256 SWAP5 SWAP1 SWAP6 AND DUP2 MSTORE SWAP3 SWAP1 SWAP4 MSTORE SWAP1 KECCAK256 SSTORE JUMP JUMPDEST PUSH1 0x0 PUSH1 0x20 DUP2 SWAP1 MSTORE SWAP1 DUP2 MSTORE PUSH1 0x40 SWAP1 KECCAK256 SLOAD DUP2 JUMP JUMPDEST PUSH1 0x1 PUSH1 0x20 SWAP1 DUP2 MSTORE PUSH1 0x0 SWAP3 DUP4 MSTORE PUSH1 0x40 DUP1 DUP5 KECCAK256 SWAP1 SWAP2 MSTORE SWAP1 DUP3 MSTORE SWAP1 KECCAK256 SLOAD DUP2 JUMP JUMPDEST DUP1 CALLDATALOAD PUSH1 0x1 PUSH1 0x1 PUSH1 0xA0 SHL SUB DUP2 AND DUP2 EQ PUSH2 0x111 JUMPI PUSH1 0x0 DUP1 REVERT JUMPDEST SWAP3 SWAP2 POP POP JUMP JUMPDEST PUSH1 0x0 PUSH1 0x20 DUP3 DUP5 SUB SLT ISZERO PUSH2 0x128 JUMPI DUP1 DUP2 REVERT JUMPDEST PUSH2 0x132 DUP4 DUP4 PUSH2 0xFA JUMP JUMPDEST SWAP4 SWAP3 POP POP POP JUMP JUMPDEST PUSH1 0x0 DUP1 PUSH1 0x40 DUP4 DUP6 SUB SLT ISZERO PUSH2 0x14B JUMPI DUP1 DUP2 REVERT JUMPDEST PUSH2 0x155 DUP5 DUP5 PUSH2 0xFA JUMP JUMPDEST SWAP2 POP PUSH2 0x164 DUP5 PUSH1 0x20 DUP6 ADD PUSH2 0xFA JUMP JUMPDEST SWAP1 POP SWAP3 POP SWAP3 SWAP1 POP JUMP JUMPDEST PUSH1 0x0 DUP1 PUSH1 0x0 DUP1 PUSH1 0x80 DUP6 DUP8 SUB SLT ISZERO PUSH2 0x182 JUMPI DUP2 DUP3 REVERT JUMPDEST PUSH2 0x18C DUP7 DUP7 PUSH2 0xFA JUMP JUMPDEST SWAP4 POP PUSH2 0x19B DUP7 PUSH1 0x20 DUP8 ADD PUSH2 0xFA JUMP JUMPDEST SWAP4 SWAP7 SWAP4 SWAP6 POP POP POP POP PUSH1 0x40 DUP3 ADD CALLDATALOAD SWAP2 PUSH1 0x60 ADD CALLDATALOAD SWAP1 JUMP JUMPDEST SWAP1 DUP2 MSTORE PUSH1 0x20 ADD SWAP1 JUMP INVALID LOG2 PUSH5 0x6970667358 0x22 SLT KECCAK256 DUP1 PUSH29 0x72AD3CD2089C955351A1B881963CB6DB698B44D102500FDE58608A7349 SIGNEXTEND PUSH5 0x736F6C6343 STOP MOD 0xC STOP CALLER LOG2 PUSH5 0x6970667358 0x22 SLT KECCAK256 REVERT 0xE MSTORE 0xD1 SWAP5 0x29 PC PUSH2 0x13B7 MSTORE8 PUSH14 0x7FAE9A4913B5C36173D1D56FFFDE PUSH28 0x5EBE08CC7B64736F6C634300060C0033000000000000000000000000 "
            }
        }
    },
    "sourceTreeHashHex": "0xcf1a9d803fcf8f1ef550313f5c2dd4abd8d91420a3f9b4b51bcd5eacb3e62e22",
    "compiler": {
        "name": "solc",
        "version": "0.6.12+commit.27d51765",
        "settings": {
            "remappings": [
                "@0x/contracts-utils=/home/sotatek/Desktop/Workspace/Sotatek/evry-finance/fcxv2-0x-protocol/packages/asset-swapper/node_modules/@0x/contracts-utils",
                "@0x/contracts-erc20=/home/sotatek/Desktop/Workspace/Sotatek/evry-finance/fcxv2-0x-protocol/packages/asset-swapper/node_modules/@0x/contracts-erc20",
                "@0x/contracts-zero-ex=/home/sotatek/Desktop/Workspace/Sotatek/evry-finance/fcxv2-0x-protocol/packages/asset-swapper/node_modules/@0x/contracts-zero-ex"
            ],
            "optimizer": {
                "enabled": true,
                "runs": 200,
                "details": {
                    "yul": true,
                    "deduplicate": true
                }
            },
            "outputSelection": {
                "*": {
                    "*": [
                        "abi",
                        "devdoc",
                        "evm.bytecode.object",
                        "evm.bytecode.sourceMap",
                        "evm.deployedBytecode.object",
                        "evm.deployedBytecode.sourceMap"
                    ]
                }
            },
            "evmVersion": "istanbul"
        }
    },
    "chains": {}
}